:020000040800F2
:1000000000000220C51F0008811F0008891F00088A
:10001000911F0008991F0008A11F000800000000A0
:100020000000000000000000000000001520000893
:10003000A91F000800000000152000081520000876
:1000400015200008152000081520000815200008BC
:1000500015200008152000081520000815200008AC
:10006000152000081520000815200008152000089C
:10007000152000081520000815200008152000088C
:10008000152000081520000815200008152000087C
:10009000152000081520000815200008152000086C
:1000A000152000081520000815200008152000085C
:1000B000152000081520000815200008152000084C
:1000C000152000081520000815200008152000083C
:1000D0001520000815200008B71F0008152000088B
:1000E000152000081520000815200008152000081C
:1000F000152000081520000815200008152000080C
:1001000015200008152000081520000815200008FB
:1001100015200008152000081520000815200008EB
:1001200015200008152000081520000815200008DB
:1001300015200008152000081520000815200008CB
:1001400015200008152000081520000815200008BB
:1001500015200008152000081520000815200008AB
:10016000152000081520000815200008152000089B
:1001700015200008152000081520000800000000C8
:080180001520000815200008FD
:1001880053B94AB9002908BF00281CBF4FF0FF31F6
:100198004FF0FF3000F088B9ADF1080C6DE904CEDE
:1001A80000F006F8DDF804E0DDE9022304B070474A
:1001B8002DE9F047089D8E4604468846002B4AD113
:1001C8008A42174662D9B2FA82F64EB1C6F12003C6
:1001D80001FA06F820FA03F3B74043EA0808B440E6
:1001E8004FEA174E1FFA87FCB8FBFEF1230C0EFBF3
:1001F800118843EA084301FB0CF29A4209D9FB181B
:1002080001F1FF3080F0EA809A4240F2E78002393B
:100218003B449A1AA3B2B2FBFEF00EFB102243EA4B
:10022800024300FB0CFC9C4509D9FB1800F1FF3286
:1002380080F0D6809C4540F2D3803B44023840EAA7
:100248000140A3EB0C0300211DB1F3400022C5E9D6
:100258000032BDE8F0878B4205D90DB1C5E9000130
:1002680000210846F5E7B3FA83F1002946D1734522
:1002780002D3824200F20581841A6EEB0302012048
:100288009046002DE5D0C5E90048E2E7002A00F0D5
:100298009080B2FA82F6002E40F0A4808A1A030CED
:1002A8004FEA174E80B2BCB20121B2FBFEFC0EFB36
:1002B8001C2243EA024304FB0CF29A4207D9FB18BA
:1002C8000CF1FF3802D29A4200F2E080C4469B1A31
:1002D800B3FBFEF20EFB123340EA034302FB04F4C5
:1002E8009C4207D9FB1802F1FF3002D29C4200F26F
:1002F800CA8002461B1B42EA0C40A5E7C1F1200652
:100308008B4022FA06F71F430EFA01F420FA06F38F
:100318002EFA06FE4FEA1749234300FA01F81FFA9E
:1003280087FCBEFBF9F01C0C09FB10EE44EA0E44F6
:1003380000FB0CFEA64502FA01F209D93C1900F1AE
:10034800FF3A80F09C80A64540F2998002383C44F0
:10035800A4EB0E041FFA83FEB4FBF9F309FB134464
:100368004EEA044403FB0CFCA44508D93C1903F1EC
:10037800FF3E80F08280A4457FD9023B3C4443EA9B
:100388000040A4EB0C04A0FB02EC64457346E14674
:1003980062D35FD05DB1B8EB030264EB090404FAE1
:1003A80006F622FA01F31E43CC40C5E90064002199
:1003B8004FE7B1FBF2FC010C41EA0E4180B240EA82
:1003C80001423B4638463C46B846BE462026B1FB6D
:1003D800F7F1A2EB080241EA0C4166E7014618E78B
:1003E80010462CE7C6F120022EFA02F3B740B140BE
:1003F80020FA02F24FEA174E0A43B3FBFEF8BCB2EA
:100408000EFB1833110C41EA034108FB04F9B04014
:1004180089454FEA104380B23ED9791808F1FF3C6C
:1004280001D289451FD8A1EB0901B1FBFEF909FBEF
:1004380004F80EFB191192B242EA0142424529D250
:10044800BA1809F1FF31C4D24245C2D2A9F102015A
:100458003A44BEE7F0459DD2BEEB02036CEB070CB5
:100468000138E14696E7A7EB09094944A8F1020CCF
:10047800B1FBFEF909FB04F8DBE773467FE750465A
:1004880066E70846FDE63B44023A33E7ACF1020C66
:100498003B441CE749469CE7A1EB0901C446B1FB74
:1004A800FEF909FB04F8C4E7704700BF80B400AF49
:1004B800064BD3F88830054A43F47003C2F88830F5
:1004C80000BFBD465DF8047B704700BF00ED00E04B
:1004D80080B48BB000AFF860B9607A60FB681A68C6
:1004E800BB687B617B6993FAA3F33B613B69BB61A2
:1004F800BB69002B01D1202303E0BB69B3FA83F366
:10050800DBB25B00032101FA03F3DB431A40BB684B
:100518003B623B6A93FAA3F3FB61FB697B627B6AEC
:10052800002B01D1202303E07B6AB3FA83F3DBB20B
:100538005B00796801FA03F31A43FB681A6000BF8D
:100548002C37BD465DF8047B704780B485B000AF9A
:10055800F860B9607A60FB685A68BB68DB431A4088
:10056800BB68796801FB03F31A43FB685A6000BF54
:100578001437BD465DF8047B704780B48BB000AF7C
:10058800F860B9607A60FB689A68BB687B617B69D0
:1005980093FAA3F33B613B69BB61BB69002B01D1B3
:1005A800202303E0BB69B3FA83F3DBB25B000321CA
:1005B80001FA03F3DB431A40BB683B623B6A93FAD8
:1005C800A3F3FB61FB697B627B6A002B01D12023CB
:1005D80003E07B6AB3FA83F3DBB25B00796801FA64
:1005E80003F31A43FB689A6000BF2C37BD465DF8D9
:1005F800047B704780B48BB000AFF860B9607A6054
:10060800FB68DA68BB687B617B6993FAA3F33B619B
:100618003B69BB61BB69002B01D1202303E0BB69A7
:10062800B3FA83F3DBB25B00032101FA03F3DB4384
:100638001A40BB683B623B6A93FAA3F3FB61FB6910
:100648007B627B6A002B01D1202303E07B6AB3FA2B
:1006580083F3DBB25B00796801FA03F31A43FB68A2
:10066800DA6000BF2C37BD465DF8047B704780B464
:100678008BB000AFF860B9607A60FB681A6ABB6833
:100688007B617B6993FAA3F33B613B69BB61BB69FF
:10069800002B01D1202303E0BB69B3FA83F3DBB25B
:1006A8009B000F2101FA03F3DB431A40BB683B624E
:1006B8003B6A93FAA3F3FB61FB697B627B6A002BBD
:1006C80001D1202303E07B6AB3FA83F3DBB29B00FA
:1006D800796801FA03F31A43FB681A6200BF2C37E2
:1006E800BD465DF8047B704780B48BB000AFF860FE
:1006F800B9607A60FB685A6ABB681B0A7B617B69D0
:1007080093FAA3F33B613B69BB61BB69002B01D141
:10071800202303E0BB69B3FA83F3DBB29B000F210C
:1007280001FA03F3DB431A40BB681B0A3B623B6ACE
:1007380093FAA3F3FB61FB697B627B6A002B01D10F
:10074800202303E07B6AB3FA83F3DBB29B0079686A
:1007580001FA03F31A43FB685A6200BF2C37BD46FF
:100768005DF8047B704780B58AB000AF7860396067
:1007780000237B6200233B623B681B68BB61BB694B
:1007880093FAA3F37B617B69FB61FB69002B01D1C1
:10079800202303E0FB69B3FA83F3DBB27B6257E003
:1007A8003B681A6801217B6A01FA03F313403B6234
:1007B8003B6A002B49D03B685B68012B03D03B6840
:1007C8005B68022B0DD13B689B681A46396A7868CA
:1007D800FFF7D3FE3B68DB681A46396A7868FFF78B
:1007E800B4FE3B681B691A46396A7868FFF702FF4E
:1007F8003B685B68022B21D13B6AFB60FB6893FA7C
:10080800A3F3BB60BB683B613B69002B01D120238C
:1008180003E03B69B3FA83F3DBB2072B07D83B68E5
:100828005B691A46396A7868FFF721FF06E03B687A
:100838005B691A46396A7868FFF756FF3B685B6858
:100848001A46396A7868FFF743FE7B6A01337B6290
:100858003B681A687B6A22FA03F3002BA0D10023B5
:1008680018462837BD4680BD80B483B000AF786095
:100878007B681B6803F04003402B01D1012300E093
:10088800002318460C37BD465DF8047B704780B4DA
:1008980083B000AF786039603B689BB21A467B68CA
:1008A8001A6100BF0C37BD465DF8047B704780B500
:1008B80084B000AF786039600123FB737868FFF774
:1008C800D3FF0346002B39D17B681B6823F47F4391
:1008D80023F0BF033A6811683A68526811433A68CE
:1008E800926811433A68D26811433A681269114311
:1008F8003A68526911433A68926911433A68D26971
:1009080011433A68126A0A431A437B681A607B6883
:100918005B6823F004023B685B691B0C1A437B6825
:100928005A603B681B6AB3F5005F05D13B685B6A98
:1009380019467868FFF7ABFF0023FB737B68DB6918
:1009480023F400627B68DA61FB7B18461037BD46EA
:1009580080BD000080B400AF044B9B6803F00C031B
:100968001846BD465DF8047B704700BF003802405A
:1009780080B400AF044B9B6803F0F0031846BD46F3
:100988005DF8047B704700BF0038024080B400AFB8
:10099800044B9B6803F4E0531846BD465DF8047B9E
:1009A800704700BF0038024080B400AF044B9B681A
:1009B80003F460431846BD465DF8047B704700BFEA
:1009C8000038024080B400AF044B5B6803F4800336
:1009D8001846BD465DF8047B704700BF00380240EA
:1009E80080B400AF044B5B689B09C3F30803184647
:1009F800BD465DF8047B70470038024080B400AF04
:100A0800044B5B6803F440331846BD465DF8047B2D
:100A1800704700BF0038024080B400AF044B5B68E9
:100A280003F03F031846BD465DF8047B704700BFDE
:100A38000038024080B582B000AF786000F020F83E
:100A480002467B681A607B681B68184600F040F80D
:100A580002467B685A607B685B68184600F04EF86F
:100A680002467B689A607B685B68184600F05AF813
:100A780002467B68DA6000BF0837BD4680BD0000CB
:100A880080B582B000AF00237B60FFF763FF0346A9
:100A9800082B0CD0082B0FD8002B02D0042B03D026
:100AA8000AE0094B7B600AE0084B7B6007E00820FE
:100AB80000F04CF8786002E0034B7B6000BF7B6875
:100AC80018460837BD4680BD0024F40000127A009D
:100AD80080B582B000AF7860FFF74AFF03461B0974
:100AE80003F00F03044AD35C1A467B68D3401846C8
:100AF8000837BD4680BD00BF603B000880B582B0A6
:100B080000AF7860FFF742FF03469B0A044AD35CB4
:100B18001A467B68D34018460837BD4680BD00BFDB
:100B2800703B000880B582B000AF7860FFF73CFFEB
:100B380003465B0B044AD35C1A467B68D3401846CD
:100B48000837BD4680BD00BF703B000890B587B030
:100B580000AF786000237B610023FB6000233B61CA
:100B6800FFF730FFF860FB68002B04D0FB68B3F593
:100B7800800F03D005E0124B7B6105E0114B7B61D0
:100B880002E00F4B7B6100BF7B68082B13D1FFF796
:100B980043FF02467B69B3FBF2F4FFF721FF0346EC
:100BA80003FB04F4FFF72AFF03461B0C01335B0029
:100BB800B4FBF3F33B613B6918461C37BD4690BD57
:100BC8000024F40000127A0080B483B000AF78608B
:100BD80039607A683B68B2FBF3F3074A013B53601C
:100BE800054B00229A60044B05221A6000BF0C379F
:100BF800BD465DF8047B704710E000E080B582B028
:100C080000AF78604FF47A717868FFF7DDFF00BFB6
:100C18000837BD4680BD000080B485B000AF78605D
:100C28000F4B1B68FB60FB687B68B3F1FF3F0CD080
:100C38007B6801337B6008E0094B1B6803F4803351
:100C4800002B02D07B68013B7B607B68002BF3D1D3
:100C580000BF00BF1437BD465DF8047B704700BF76
:100C680010E000E080B483B000AF7860044A7B688D
:100C7800136000BF0C37BD465DF8047B704700BFAA
:100C88000000002080B483B000AF78607B68DB6828
:100C980003F40053B3F5005F0CBF01230023DBB25C
:100CA80018460C37BD465DF8047B704780B483B0A6
:100CB80000AF786039607B681B6923F440523B6859
:100CC8001A437B681A6100BF0C37BD465DF8047B88
:100CD800704780B483B000AF786039607B685B6927
:100CE80023F440723B681A437B685A6100BF0C3793
:100CF800BD465DF8047B70472DE9B04FC0B000AF2A
:100D0800C7F8FC00C7F8F810C7F8F420C7F8F030A7
:100D1800D7F8F430B3F5004F40F00C81D7F8F8302D
:100D28000022C7F8E830C7F8EC20D7E93A45224650
:100D38002B46911839665B417B66D7E91823214613
:100D480012EB0108294643EB01094FF000024FF06E
:100D580000034FEAC90343EA58734FEAC8029046B2
:100D68009946234618EB0303C7F8E0302B4649EBB6
:100D78000303C7F8E430D7F8F03000229A469346C8
:100D88001AEB0A03BB654BEB0B03FB65D7E916238C
:100D9800D7E93801FFF7F4F902460B46644BA3FB89
:100DA80002235B099BB21B019CB2D7F8F8300022E2
:100DB800C7F8D830C7F8DC20D7E9368942464B4611
:100DC800911839655B417B65D7E914234146511871
:100DD800B96449464B41FB644FF000024FF00003F1
:100DE800D7E912AB5946CB00514643EA51735146F5
:100DF800CA0010461946034642469B18C7F8D03029
:100E08004B460A4642EB0303C7F8D430D7F8F03014
:100E18000022C7F8C830C7F8CC20D7E932120B46F1
:100E2800DB183B64134642EB03037B64D7E91023CA
:100E3800D7E93401FFF7A4F902460B4611463C4BAB
:100E4800A3FB01235B09642202FB03F3CB1ADB003B
:100E580003F13202364BA3FB02235B099BB25B0012
:100E68009BB203F4F8739BB223449CB2D7F8F830D2
:100E78000022C7F8C030C7F8C420D7E930894246F5
:100E88004B469118B9635B41FB63D7E90E23414692
:100E98005118396349464B417B634FF000024FF0CC
:100EA8000003D7E90CAB5946CB00514643EA5173CE
:100EB8005146CA0010461946034642469B18C7F8D1
:100EC800B8304B460A4642EB0303C7F8BC30D7F8A4
:100ED800F0300022C7F8B030C7F8B420D7E92C1298
:100EE8000B46DB18BB62134642EB0303FB62D7E9F0
:100EF8000A23D7E92E01FFF743F902460B460C4BAC
:100F0800A3FB02135B09642101FB03F3D31ADB0083
:100F18003233074AA2FB03235B099BB203F00703A2
:100F28009BB223449BB21A46D7F8FC309A6008E17A
:100F38001F85EB51D7F8F8300022C7F8A830C7F85A
:100F4800AC20D7E92A8942464B46911839625B4161
:100F58007B62D7E9082341465418494643EB01050B
:100F68004FF000024FF00003EB0043EA5473E20035
:100F780014461D464346E318C7F8A0304B4645EBD8
:100F88000303C7F8A430D7F8F0300022C7F8983028
:100F9800C7F89C204FF000024FF00003D7E9264520
:100FA80029468B00214643EA917321468A00D7E9F6
:100FB8002801FFF7E5F802460B46654BA3FB022321
:100FC8005B099BB21B019CB2D7F8F8300022C7F826
:100FD8009030C7F89420D7E9248942464B469118A7
:100FE800B9615B41FB61D7E9062341465118396174
:100FF80049464B417B614FF000024FF00003D7E9AF
:1010080004AB5946CB00514643EA51735146CA00D6
:1010180010461946034642469B18C7F888304B4687
:101028000A4642EB0303C7F88C30D7F8F0300022A9
:10103800C7F88030C7F884204FF000024FF0000353
:10104800D7E9208949468B00414643EA91734146D6
:101058008A00D7E92201FFF793F802460B461146AA
:101068003B4BA3FB01235B09642202FB03F3CB1A6E
:101078001B013233364AA2FB03235B099BB203F000
:10108800F0039BB223449CB2D7F8F8300022BB6728
:10109800FA67D7E91E8942464B469118B9605B4109
:1010A800FB60D7E9022341465118396049464B4154
:1010B8007B604FF000024FF00003D7E900AB5946C0
:1010C800CB00514643EA51735146CA0010461946AF
:1010D800034642469B183B674B460A4642EB0303CE
:1010E8007B67D7F8F0300022BB66FA664FF0000243
:1010F8004FF00003D7E91A8949468B00414643EA75
:10110800917341468A00D7E91C01FFF739F8024676
:101118000B460F4BA3FB02135B09642101FB03F38E
:10112800D31A1B0132330A4AA2FB03235B099BB281
:1011380003F00F039BB223449BB21A46D7F8FC3046
:101148009A6000BF07F58077BD46BDE8B08F00BF45
:101158001F85EB5180B588B000AF786039600123F6
:10116800FB770023BB617868FFF78CFD0346002BF3
:101178005ED17B68DB6823F4164323F00C033A68DE
:1011880051683A68D26811433A68126911433A685B
:1011980092690A431A437B68DA603B689B68194680
:1011A8007868FFF783FD3B685B6919467868FFF745
:1011B80090FD07F108031846FFF73CFC7B681F4ABF
:1011C800934202D17B69BB6121E07B681C4A934250
:1011D80002D13B69BB611AE07B681A4A934202D18B
:1011E8003B69BB6113E07B68174A934202D17B6974
:1011F800BB610CE07B68154A934202D13B69BB6135
:1012080005E07B68124A934201D13B69BB61BB6927
:10121800002B0DD03B681B68002B09D00023FB77FF
:101228003B689A693B681B68B9697868FFF764FD91
:10123800FB7F18462037BD4680BD00BF0010014027
:10124800004400400048004000140140004C0040A9
:101258000050004080B485B000AF78607B6803F030
:101268000703FB600C4BDB68BB60BA684FF6FF03F3
:101278001340BB60FB681A02BB68134343F0BF63AB
:1012880043F40033BB60044ABB68D36000BF143723
:10129800BD465DF8047B704700ED00E080B400AF08
:1012A800044BDB681B0A03F007031846BD465DF8CC
:1012B800047B704700ED00E080B483B000AF0346C4
:1012C8003960FB7197F90730002B0ADB3B68DAB20B
:1012D8000C4997F907301201D2B20B4483F8002366
:1012E8000AE03B68DAB20849FB7903F00F03043BD4
:1012F8001201D2B20B441A7600BF0C37BD465DF816
:10130800047B704700E100E000ED00E080B489B0A4
:1013180000AFF860B9607A60FB6803F00703FB610F
:10132800FB69C3F10703042B28BF0423BB61FB69D6
:101338000433062B02D9FB69033B00E000237B61E1
:101348004FF0FF32BB6902FA03F3DA43BB681A4075
:101358007B699A404FF0FF317B6901FA03F3D94367
:101368007B680B40134318462437BD465DF8047B61
:101378007047000080B400AF054B1B68044A43F077
:101388000103136000BFBD465DF8047B704700BFD2
:101398000038024080B400AF064B1B6803F002031C
:1013A800022B0CBF01230023DBB21846BD465DF8B3
:1013B800047B70470038024080B483B000AF786087
:1013C800074B1B6823F0F8027B68DB0004491343D2
:1013D8000B6000BF0C37BD465DF8047B704700BF4B
:1013E8000038024080B483B000AF7860064B9B6839
:1013F80023F0030204497B6813438B6000BF0C375A
:10140800BD465DF8047B70470038024080B400AFE9
:10141800044B9B6803F00C031846BD465DF8047B3B
:10142800704700BF0038024080B483B000AF7860D6
:10143800064B9B6823F0F00204497B6813438B60DA
:1014480000BF0C37BD465DF8047B7047003802408A
:1014580080B483B000AF7860064B9B6823F4E052F9
:1014680004497B6813438B6000BF0C37BD465DF8A9
:10147800047B70470038024080B483B000AF7860C6
:10148800064B9B6823F4604204497B6813438B60D6
:1014980000BF0C37BD465DF8047B7047003802403A
:1014A80080B400AF054B1B68044A43F08073136097
:1014B80000BFBD465DF8047B704700BF003802409E
:1014C80080B400AF074B1B6803F00073B3F1007FD3
:1014D8000CBF01230023DBB21846BD465DF8047B30
:1014E800704700BF0038024080B485B000AFF86094
:1014F800B9607A603B600D4B5A680D4B1340F96830
:10150800BA6811437A6892010A43084913434B6049
:10151800064B5B6823F4403204493B6813434B6035
:1015280000BF1437BD465DF8047B704700380240A1
:101538000080BFFF80B485B000AF7860084B1A6C9C
:1015480007497B6813430B64054B1A6C7B6813408F
:10155800FB60FB6800BF1437BD465DF8047B70472D
:101568000038024080B485B000AF7860084B5A6CF0
:1015780007497B6813434B64054B5A6C7B681340DF
:10158800FB60FB6800BF1437BD465DF8047B7047FD
:101598000038024080B483B000AF7860064B1B6807
:1015A80023F0070204497B6813430B6000BF0C3724
:1015B800BD465DF8047B7047003C024080B400AF34
:1015C800044B1B6803F007031846BD465DF8047B0F
:1015D800704700BF003C024080B483B000AF786021
:1015E800064B1B6823F4804204497B6813430B6055
:1015F80000BF0C37BD465DF8047B704700700040A3
:1016080080B400AF074B5B6803F48043B3F5804FA9
:101618000CBF01230023DBB21846BD465DF8047BEE
:10162800704700BF0070004080B483B000AF78609E
:101638007B681B6843F040027B681A6000BF0C3768
:10164800BD465DF8047B704780B483B000AF786016
:1016580039607B681A693B6813403A689A420CBF44
:1016680001230023DBB218460C37BD465DF8047B26
:10167800704780B483B000AF786039603B681A0463
:101688007B689A6100BF0C37BD465DF8047B7047E4
:1016980080B582B000AF4FF48040FFF763FF4FF092
:1016A8008050FFF747FF0320FFF7D4FDFFF7F6FD53
:1016B800034600220F211846FFF728FE0346194665
:1016C8006FF00100FFF7F8FDFFF7E8FD0346002281
:1016D8000F211846FFF71AFE034619464FF0FF3050
:1016E800FFF7EAFD00F052F800F020F900F04CFA9C
:1016F8003B4600221A601A712148FFF795FF00F057
:1017080091F83B46184600F0F5FE7B78184601F044
:101718003BF900F02AFF0346FB7100F0C1F80346CD
:10172800BB713B797B717B79002B01D000F015FFF1
:10173800FB79002B05D0BB79002B02D17B79002BDC
:1017480016D000F073FA0F48FFF76EFF02F01AF98F
:1017580000F0B2FB02F086F900BF40F6B8310A4843
:1017680001F022F90346002BF7D1074801F084F96C
:10177800FB79002B02D001F007F800BF00BFFDE79E
:1017880000300140003C00400044004080B500AFFC
:101798000520FFF7FFFE00BFFFF710FF0346052BEC
:1017A800FAD14FF48040FFF717FF1020FFF704FE2F
:1017B800FFF7E0FD00BFFFF7EDFD0346012BFAD16F
:1017C8000023A82208210020FFF78EFEFFF768FEFD
:1017D80000BFFFF775FE0346012BFAD100BFFFF7E4
:1017E8000FFF0346002BFAD00020FFF71DFE4FF431
:1017F800A050FFF72DFE4FF40040FFF73DFE0220FA
:10180800FFF7F0FD00BFFFF701FE0346082BFAD1F2
:101818000348FFF7F3F90248FFF724FA00BF80BD39
:10182800007A030A80B500AF20211948FFF721FF8D
:101838004FF400411748FFF71CFF4FF4804115484B
:10184800FFF717FF40211448FFF713FF80211248C4
:10185800FFF70FFF04210E48FFF70BFF08210C4884
:10186800FFF707FF01210D48FFF703FF1021094883
:10187800FFF7FFFE08210748FFF7FBFE0421054894
:10188800FFF7F7FE02210348FFF7F3FE00BF80BD14
:1018980000100240000C0240000002400004024018
:1018A80080B500AF02210548FFF7CEFE0346002BA6
:1018B80001D1012300E00023184680BD0004024046
:1018C80080B485B000AF7860084B1A6B07497B6815
:1018D80013430B63054B1A6B7B681340FB60FB6873
:1018E80000BF1437BD465DF8047B704700380240DE
:1018F80080B483B000AF786039607B683A689A61D9
:1019080000BF0C37BD465DF8047B704780B483B0D8
:1019180000AF786039603B681A047B689A6100BF41
:101928000C37BD465DF8047B7047000080B586B073
:1019380000AF3B4600221A605A609A60DA601A616A
:101948005A611020FFF7BCFF0420FFF7B9FF802081
:10195800FFF7B6FF0120FFF7B3FF0220FFF7B0FF44
:101968000820FFF7ADFF3C215448FFF7CFFF49F2AD
:10197800C3015348FFF7CAFF01215248FFF7C6FFCA
:101988004CF21E215048FFF7C1FF40F281114E482A
:10199800FFF7AEFF3C233B6001237B600023BB6065
:1019A8000023FB6001233B613B4619464348FEF791
:1019B800DAFE4FF400533B6000237B6002233B6157
:1019C8003B4619464148FEF7CEFEC3233B60012340
:1019D8007B600023BB600023FB6000233B613B4628
:1019E80019463748FEF7BFFE01233B6001237B60A1
:1019F8000023BB600023FB6001233B613B46194683
:101A08003048FEF7B0FE06233B6000237B600123CD
:101A18003B613B4619462B48FEF7A5FE4FF4C073C1
:101A28003B6000237B6001233B613B46194623480A
:101A3800FEF799FE4CF29E333B6001237B60002346
:101A4800BB600023FB6001233B613B4619461E48EF
:101A5800FEF789FE4FF480533B6001237B6002232D
:101A6800BB600023FB6001233B613B4619461448D9
:101A7800FEF779FE4FF400433B6001237B600023AF
:101A8800BB600023FB6001233B613B4619460C48C1
:101A9800FEF769FE01233B6001237B600323BB60E3
:101AA8000023FB6001233B613B4619460648FEF7CD
:101AB8005AFE00BF1837BD4680BD00BF0010024067
:101AC8000000024000040240000C024000080240EE
:101AD80080B485B000AF7860084B1A6B07497B6803
:101AE80013430B63054B1A6B7B681340FB60FB6861
:101AF80000BF1437BD465DF8047B704700380240CC
:101B080080B485B000AF7860084B1A6C07497B68D1
:101B180013430B64054B1A6C7B681340FB60FB682E
:101B280000BF1437BD465DF8047B7047003802409B
:101B380080B485B000AF7860084B5A6C07497B6861
:101B480013434B64054B5A6C7B681340FB60FB687E
:101B580000BF1437BD465DF8047B7047003802406B
:101B680080B483B000AF786039607B685B6823F02D
:101B780010023B681A437B685A6000BF0C37BD46A9
:101B88005DF8047B7047000080B590B000AF07F1A6
:101B9800180328220021184601F098FF3B4600222E
:101BA8001A605A609A60DA601A615A614FF480507C
:101BB800FFF7BEFF0220FFF78BFF38233B600223AD
:101BC8007B600323BB600023FB6001233B6105238B
:101BD8007B613B4619461348FEF7C5FD0023BB61F0
:101BE8004FF48273FB6100233B6200237B62002376
:101BF800BB624FF40073FB6218233B6300237B63D3
:101C08000023BB630A23FB6307F118031946064840
:101C1800FEF74DFE00210448FFF7A2FF00BF403742
:101C2800BD4680BD000402400030014080B590B040
:101C380000AF07F1180328220021184601F046FFDB
:101C48003B4600221A605A609A60DA601A615A614B
:101C58004FF40040FFF754FF0420FFF739FF4FF41B
:101C6800A0533B6002237B600323BB600023FB601F
:101C780001233B6106237B613B4619461C48FEF75E
:101C880072FD4FF400633B6002237B600323BB605B
:101C98000023FB6000233B6106237B613B4619461A
:101CA8001348FEF760FD0023BB614FF48273FB61AC
:101CB80000233B6202237B620123BB624FF4007363
:101CC800FB6208233B6300237B630023BB630A2377
:101CD800FB6307F1180319460648FEF7E8FD0021E3
:101CE8000448FFF73DFF00BF4037BD4680BD00BF39
:101CF80000080240003C004080B400AF044BDB68A1
:101D08001B0A03F007031846BD465DF8047B7047BD
:101D180000ED00E080B483B000AF0346FB7197F993
:101D28000730002B0BDBFB7903F01F02074997F9FB
:101D380007305B09012000FA02F241F8232000BFB6
:101D48000C37BD465DF8047B704700BF00E100E03A
:101D580080B483B000AF03463960FB7197F9073050
:101D6800002B0ADB3B68DAB20C4997F907301201FD
:101D7800D2B20B4483F800230AE03B68DAB2084980
:101D8800FB7903F00F03043B1201D2B20B441A761D
:101D980000BF0C37BD465DF8047B704700E100E0EA
:101DA80000ED00E080B489B000AFF860B9607A60F7
:101DB800FB6803F00703FB61FB69C3F10703042B0E
:101DC80028BF0423BB61FB690433062B02D9FB69D6
:101DD800033B00E000237B614FF0FF32BB6902FA4E
:101DE80003F3DA43BB681A407B699A404FF0FF312E
:101DF8007B6901FA03F3D9437B680B401343184608
:101E08002437BD465DF8047B7047000080B485B078
:101E180000AF7860084B1A6B07497B6813430B6364
:101E2800054B1A6B7B681340FB60FB6800BF1437D7
:101E3800BD465DF8047B70470038024080B485B029
:101E480000AF7860084B1A6C07497B6813430B6432
:101E5800054B1A6C7B681340FB60FB6800BF1437A6
:101E6800BD465DF8047B70470038024080B483B0FB
:101E780000AF78607B68DB6843F400527B68DA6007
:101E880000BF0C37BD465DF8047B704780B483B053
:101E980000AF78607B681B6923F490427B681A6105
:101EA8007B685B6923F02A027B685A6100BF0C37A4
:101EB800BD465DF8047B704780B58EB000AF07F172
:101EC8001C0300221A605A609A60DA601A615A612B
:101ED8009A613B1D00221A605A609A60DA601A61A2
:101EE8005A614FF40030FFF7A9FF0120FFF78EFF7A
:101EF8000C237B600223BB600323FB6000233B6150
:101F080001237B610723BB613B1D19461848FEF777
:101F18002AFCFFF7F1FE0346002205211846FFF7C9
:101F280041FF034619462620FFF712FF2620FFF738
:101F3800F1FE4FF46123FB6100233B6200237B62C7
:101F48000023BB620C23FB6200233B6300237B63FB
:101F580007F11C0319460748FFF7FCF80548FFF787
:101F680095FF0448FFF782FF00BF3837BD4680BDA4
:101F7800000002400044004080B400AF00BFFDE70D
:101F880080B400AF00BFFDE780B400AF00BFFDE73D
:101F980080B400AF00BFFDE780B400AF00BFFDE72D
:101FA80080B400AF00BFBD465DF8047B704780B4C5
:101FB80000AF00BFBD465DF8047B7047DFF834D042
:101FC800FEF774FA0C480D490D4A002302E0D45874
:101FD800C4500433C4188C42F9D30A4A0A4C00236B
:101FE80001E013600432A242FBD301F077FDFFF752
:101FF8004FFB704700000220000000200400002072
:10200800583C00080400002030090020FEE70000CA
:1020180080B487B000AFF860B9607A601CE0BB6834
:102028005A1CBA601B781A46FB685340FB600023B1
:10203800FB750EE0FB6803F001035B423B61FB6844
:102048005A0839690A4B0B405340FB60FB7D01334A
:10205800FB75FB7D072BEDD97B685A1E7A60002B38
:10206800DDD1FB6818461C37BD465DF8047B704718
:102078002083B8ED80B483B000AF78607B68DB4321
:1020880018460C37BD465DF8047B704780B400AF36
:1020980000BF064BDB6803F48033002BF9D100BF87
:1020A80000BFBD465DF8047B704700BF003C02409E
:1020B80080B400AF074B1B69002B05DA054B064AB5
:1020C8005A60044B054A5A6000BFBD465DF8047B60
:1020D800704700BF003C024023016745AB89EFCD44
:1020E80080B400AF054B1B69044A43F000431361F9
:1020F80000BFBD465DF8047B704700BF003C02404E
:1021080080B400AF034BF322DA6000BFBD465DF830
:10211800047B7047003C024080B483B000AF786015
:1021280039603B68002B01D1002314E07B680D4A1D
:10213800934201D800230EE07A683B681344B3F158
:10214800016F05D87A683B6813447A689A4201D9C6
:10215800002300E0012318460C37BD465DF8047BD8
:10216800704700BFFFFF000880B582B000AFFFF7DF
:102178009FFF04237B602FE0FFF788FFFFF7C0FF76
:102188001A4B1B69194A23F45E731361174B1A69BA
:102198007B68DB001343154A43F4007343F00203E2
:1021A8001361124B1B69114A43F480331361FFF723
:1021B8006DFF0E4B1B690D4A23F0020313610B4B95
:1021C800DB6803F0F203002B03D0FFF789FF042339
:1021D80008E07B6801337B607B680B2BCCD9FFF769
:1021E8007FFF002318460837BD4680BD003C0240EB
:1021F80080B58AB000AFF860B9607A60FB687B622E
:1022080000233B627968F868FFF786FF0346002BD6
:1022180001D1052372E0FFF74BFF68E04FF0FF3371
:10222800FB617A683B6AD31A7B617B69042B28BF00
:1022380004233B610023BB6119E0BB69DB00FF227B
:1022480002FA03F3DB43FA691340FB613A6ABB699C
:102258001344BA6813441B781A46BB69DB0002FAB8
:1022680003F3FA691343FB61BB690133BB61BA69C4
:102278003B699A42E1D37B6A03F00303002B03D046
:10228800FFF72EFF052339E0FFF700FFFFF738FFC0
:102298001C4B1B691B4A23F440731361194B1B69C0
:1022A800184A43F4007343F0010313617B6AFA6927
:1022B8001A60FFF7EBFE134B1B69124A23F0010368
:1022C8001361104BDB6803F0F203002B04D17B6A27
:1022D8001B68FA699A4203D0FFF702FF04230DE056
:1022E8007B6A04337B623A6A3B6913443B623A6A0D
:1022F8007B689A4292D3FFF7F3FE002318462837EB
:10230800BD4680BD003C024080B483B000AF786019
:102318007B689B6803F00103012B01D1012300E0D6
:10232800002318460C37BD465DF8047B704780B41F
:1023380083B000AF78607B689B6803F00203022BD0
:1023480001D1012300E0002318460C37BD465DF893
:10235800047B704780B483B000AF78607B680C332F
:102368001B78DBB218460C37BD465DF8047B704716
:1023780080B485B000AF78600B46FB707B680C3387
:10238800FB60FB68FA781A7000BF1437BD465DF829
:10239800047B704780B483B000AF786039607B6895
:1023A8003A689A6100BF0C37BD465DF8047B7047F8
:1023B80080B483B000AF786039603B681A047B68EA
:1023C8009A6100BF0C37BD465DF8047B704700007A
:1023D80080B582B000AF0346FB7102E01148FFF7F9
:1023E800B9FF1048FFF790FF0346002BF6D100BF56
:1023F8000C48FFF79CFF0346002BF9D0FB791946E0
:102408000848FFF7B5FF00BF0648FFF77DFF034602
:10241800002BF9D00348FFF79DFF034618460837FD
:10242800BD4680BD0030014080B584B000AF034692
:10243800FB8080210F48FFF7BBFF0320FFF7C8FF91
:10244800FB881B0A9BB2DBB21846FFF7C1FFFB886B
:10245800DBB21846FFF7BCFFFF20FFF7B9FF0346C2
:10246800FB7380210348FFF795FFFB7B1846103765
:10247800BD4680BD000C024080B500AF80210648F3
:10248800FFF796FF0620FFF7A3FF80210248FFF71A
:1024980081FF00BF80BD00BF000C024080B582B044
:1024A80000AF03460A46FB8013467B71FFF7E4FF43
:1024B80080210F48FFF77CFF0220FFF789FFFB8888
:1024C8001B0A9BB2DBB21846FFF782FFFB88DBB220
:1024D8001846FFF77DFF7B791846FFF779FF8021C3
:1024E8000348FFF757FF00BF0837BD4680BD00BF50
:1024F800000C024080B582B000AF78607B68002B8A
:1025080027D00020FFF790FF03461A467B681A7011
:102518000120FFF789FF03461A467B685A70052099
:10252800FFF782FF03461A467B68DA700720FFF739
:102538007BFF03461A467B689A701520FFF774FFE5
:102548000346A52B01D1012200E000227B681A7105
:1025580000E000BF0837BD4680BD80B500AF002150
:102568001520FFF79BFF00BF80BD80B500AF00F0CE
:102578000BF80346002B01D1002302E000F030F8ED
:102588000346184680BD000080B483B000AF104BEE
:102598001B687B600F4B1B683B607B68B3F1005F77
:1025A80003D37B680C4A934201D900230AE03B68B5
:1025B8000A4A934203D93B68B3F1016F01D3002360
:1025C80000E0012318460C37BD465DF8047B7047D0
:1025D800000001080400010800000220FFFF0008B5
:1025E80080B586B000AF224B3B61224800F078F8F6
:1025F800F860214800F074F8B860386900F040F8D5
:102608000346002B01D000232DE0FB68B3F5067FBD
:1026180003D3FB68B3F5702F01D9002323E0FA68D0
:10262800164B13447B6000237B610EE03A697B699B
:1026380013441A7879687B690B441B789A4201D055
:10264800002310E07B6901337B617B69072BEDD99F
:10265800F86800F063F838603A68BB689A4201D1BC
:10266800012300E0002318461837BD4680BD00BF8F
:1026780000020108080201080C020108F8FF00081E
:1026880080B485B000AF78600123FB730123BB736E
:102698000023BB6012E07A68BB6813441B78FF2BE9
:1026A80001D00023FB737A68BB6813441B78002BA6
:1026B80001D00023BB73BB680133BB60BB68072B29
:1026C800E9D9FB7B002B02D1BB7B002B01D0012376
:1026D80000E0002318461437BD465DF8047B7047B8
:1026E80080B485B000AF78607B68FB60FB681B78BE
:1026F8001A46FB6801331B781B021A43FB68023336
:102708001B781B041A43FB6803331B781B0613430F
:1027180018461437BD465DF8047B704780B586B00F
:1027280000AF78604FF0FF337B614FF0FF33BB6041
:102738004FF403733B614FF40473FB603A6911492A
:102748007869FFF765FC786107F1080304221946E8
:102758007869FFF75DFC7861FB6803F1006303F5B6
:10276800803319467A68FB68D31A1A467869FFF7E6
:102778004FFC78617869FFF77DFC034618461837E7
:10278800BD4680BD0000010880B586B000AF224B71
:102798001B683B61214B1B68FB60FB68BB6072B622
:1027A80000BF1F4B00221A601D4B00225A601C4BB1
:1027B80000229A601B4B4FF020625A6000237B6115
:1027C80010E0194A7B6920334FF0FF3142F823109B
:1027D800154A7B6960334FF0FF3142F823107B695B
:1027E80001337B617B69072BEBD90E4B0A4A9A6050
:1027F8003B697B607B6883F3088800BFBFF34F8F1A
:1028080000BFBFF36F8F00BF62B600BFBB689847B9
:1028180000BF1837BD4680BD00000108040001084C
:1028280010E000E000ED00E000E100E080B400AF5F
:10283800BFF34F8F00BF064BDB6803F4E062044927
:10284800044B1343CB60BFF34F8F00BF00BFFDE7BE
:1028580000ED00E00400FA0580B483B000AF7860B2
:102868007B681B6803F00803082B0CBF01230023B7
:10287800DBB218460C37BD465DF8047B704780B460
:1028880083B000AF78607B681B6803F02003202BBF
:102898000CBF01230023DBB218460C37BD465DF898
:1028A800047B704780B483B000AF78607B681B6896
:1028B80003F04003402B0CBF01230023DBB2184672
:1028C8000C37BD465DF8047B704780B483B000AF19
:1028D80078607B681B6803F08003802B0CBF0123A2
:1028E8000023DBB218460C37BD465DF8047B704701
:1028F80080B485B000AF78607B681B68FB60FB68BC
:102908007B685B68FB60FB6800BF1437BD465DF8F9
:10291800047B704780B483B000AF78607B685B68E5
:10292800DBB218460C37BD465DF8047B704780B4AF
:1029380083B000AF78600B46FB70FA787B685A600A
:1029480000BF0C37BD465DF8047B704780B483B088
:1029580000AF786039607B683A689A6100BF0C37CD
:10296800BD465DF8047B704780B483B000AF7860E3
:1029780039603B681A047B689A6100BF0C37BD4612
:102988005DF8047B7047000080B483B000AF034655
:10299800FB71044AFB79137000BF0C37BD465DF824
:1029A800047B70472805002080B5ADF5836D00AF26
:1029B80007F58363A3F21443186007F58363A3F54F
:1029C8008363196000F05EFBC7F8140441E007F563
:1029D8008363A3F58263184640F206431A46002132
:1029E80001F074F800F04EFB0246D7F814349B1A35
:1029F80007F58362A2F5836212681344C7F810349E
:102A080007F1080107F58363A3F21443D7F81024EC
:102A1800186800F0D7F90346002B1AD107F583632D
:102A2800A3F582631B78012B13D107F58363A3F504
:102A38008263197807F58363A3F582635A7807F5EB
:102A48008363A3F214400023006800F087FA002390
:102A58000DE000F017FB0246D7F81434D31A07F537
:102A68008362A2F5836212689A42B0D8012318469D
:102A780007F58367BD4680BD80B5ADF5846D00AFB1
:102A880007F58463A3F21C43186007F58463A3F574
:102A98008363184640F206431A46002101F016F8EF
:102AA80007F1080107F58463A3F21C434FF47A7217
:102AB800186800F087F9034687F81F3497F81F3421
:102AC800002B31D007F58463A3F583631B78002BB3
:102AD80000F0FE8097F81F34012B00F0F98097F87A
:102AE8001F34FF2B00F0F48007F58463A3F583639C
:102AF8009B78184600F074FB0346002B00F0E88032
:102B080007F58463A3F58363197807F58463A3F550
:102B180083635A7897F81F3407F58460A0F21C4045
:102B2800006800F01BFAD3E007F58463A3F583631C
:102B38001B78013B052B00F2B38001A252F823F069
:102B4800A12C0008612B00086D2B0008B72B00088A
:102B5800012C00084F2C0008FFF706FB034687F8F6
:102B68001F34A1E007F58463A3F583639B88032BD7
:102B780003D8022387F81F3496E007F108030633C9
:102B8800184600F04DFAC7F8100407F58463A3F55A
:102B980083639B881A1F07F108030A331946D7F87D
:102BA8001004FFF725FB034687F81F347CE007F580
:102BB8008463A3F583639B88082B03D0022387F8DB
:102BC8001F3471E007F108030633184600F028FAAD
:102BD800C7F8180407F108030A33184600F020FA6A
:102BE800C7F81404D7F81414D7F8180400F0B2FA88
:102BF800034687F81F3457E0FFF7B7FC0346002B5E
:102C080001D0002300E0072387F81F3407F5846309
:102C1800A3F58363197807F58463A3F583635A786A
:102C280097F81F3407F58460A0F21C40006800F094
:102C380095F997F81F34002B4CD10A2000F00CFAB4
:102C4800FFF7A2FD46E0FFF790FC0346002B01D0FA
:102C5800002300E0072387F81F3407F58463A3F5F2
:102C68008363197807F58463A3F583635A7897F823
:102C78001F3407F58460A0F21C40006800F06EF96C
:102C880097F81F34002B27D100F006FF40F6B83024
:102C980000F0E2F9FFF7CAFD002387F81F3403E0CC
:102CA800022387F81F3400BF07F58463A3F5836305
:102CB800197807F58463A3F583635A7897F81F3466
:102CC80007F58460A0F21C40006800F047F9DCE6D4
:102CD80000BFDAE600BFD8E600BFD6E680B584B00C
:102CE80000AFF860B9607A603B6038E0F868FFF7D9
:102CF800C6FD0346002B24D0F868FFF70BFE0346F9
:102D08001A46BB681A70BB681A781B4B1A701A4BA4
:102D18009B680133184A9360174B1B8C9BB219466A
:102D2800BB681A78144B0B4483F82220124B1B8C77
:102D38009BB201339BB2DBB29AB20F4B1A840023C9
:102D480016E0F868FFF788FD0346002B07D0F868FF
:102D5800FFF7CEFD084BDB690133074AD36100F06A
:102D680091F902467B68D31A3A689A42BED2012387
:102D780018461037BD4680BD0400002080B586B0D7
:102D880000AFF860B9603B601346FB800023FB820C
:102D98000FE0FB8ABA68D1183B6A3A68F868FFF70F
:102DA8009DFF0346002B01D0012307E0FB8A013376
:102DB800FB82FA8AFB889A42EBD30023184618371D
:102DC800BD4680BD80B58CB002AFF860B9607A604E
:102DD80007F1140300221A60C3F8032000233B61A3
:102DE80000237B624FF0FF333B6200F04BF9F86140
:102DF80007F114017B68FA69F868FFF76FFF03466B
:102E0800002B04D0012000F03FFA0123A1E03B7D14
:102E1800552BEDD107F11403591C7B68FA69F86842
:102E2800FFF75CFF0346002B02D17B7DAA2B04D061
:102E3800022000F029FA02238BE007F11403991C01
:102E48007B680093FB690522F868FFF797FF034644
:102E5800002B04D0012000F017FA012379E0BA7D95
:102E6800BB681A70FA7DBB685A703A7EBB689A7064
:102E78007B7E1AB2BB7E1BB21B021BB213431BB272
:102E88009AB2BB689A80BB689B88B3F5806F04D9F7
:102E9800022000F0F9F902235BE0BB689B88002B55
:102EA80011D0BB68991DBB689A887B680093FB6941
:102EB800F868FFF763FF0346002B04D0012000F0F9
:102EC800E3F9012345E007F110017B680093FB69F2
:102ED8000422F868FFF752FF0346002B04D00120B4
:102EE80000F0D2F9012334E007F11403023305227C
:102EF8001946386AFFF78CF83862BB68991DBB68B9
:102F08009B881A46386AFFF783F83862386AFFF7F1
:102F1800B1F8386207F11003184600F081F87862BA
:102F28003A6A7B6A9A4205D00321B86800F06EF9C4
:102F380003230EE00021B86800F068F9BB689B78AD
:102F4800184600F04DF90346002B01D1FF2300E09D
:102F5800002318462837BD4680BD000080B586B0DE
:102F680000AF7860084611461A460346FB700B46C8
:102F7800BB7013467B7055233B72AA237B72FB7888
:102F880063F07F03DBB2BB72BB78FB72234B1B7809
:102F98003B7301237B730023BB737B78FB73002394
:102FA8003B7400237B740023BB740023FB744FF035
:102FB800FF337B6107F1080302330622194678695B
:102FC800FFF726F878617869FFF754F878617B692C
:102FD800DBB23B747B691B0ADBB27B747B691B0C1D
:102FE800DBB2BB747B691B0EDBB2FB74012000F003
:102FF80061F807F108030C221946786800F08CF88C
:1030080000BF7868FFF74EFC0346002BF9D000207C
:1030180000F050F800BF1837BD4680BD28050020D5
:1030280080B483B000AF78607B681B781A467B68F1
:1030380001331B781B021A437B6802331B781B047D
:103048001A437B6803331B781B06134318460C3757
:10305800BD465DF8047B704780B584B000AF7860EA
:1030680000F010F8F86000BF00F00CF80246FB68AA
:10307800D31A7A689A42F7D800BF00BF1037BD4606
:1030880080BD000080B400AF084B1B6803F4803398
:10309800002B04D0064B1B680133054A1360044B10
:1030A8001B681846BD465DF8047B704710E000E0D9
:1030B8002C05002080B582B000AF0346FB71FB7978
:1030C800002B04D001210848FFF740FC03E0012150
:1030D8000548FFF749FC02210348FFF745FC00BFFC
:1030E8000837BD4680BD00BF0000024080B582B0F1
:1030F80000AF78600B46FB7000BF7868FFF7E5FB10
:103108000346002BF9D0FB7819467868FFF70FFCC7
:1031180000BF0837BD4680BD80B586B000AFF860F7
:10312800B9601346FB800023FB820AE0FB8ABA6879
:1031380013441B781946F868FFF7D8FFFB8A013358
:10314800FB82FA8AFB889A42F0D300BF00BF183787
:10315800BD4680BD80B586B000AF786039604FF05D
:10316800FF337B6100233B617B68002B03D07B68C6
:10317800B3F5702F19D905232DE07A683B69D31A66
:10318800B3F5806F28BF4FF48063FB603B6903F1A0
:10319800006303F58033FA6819467869FEF738FF4B
:1031A80078613A69FB6813443B613A697B689A42E3
:1031B800E3D37869FEF75EFF78617A693B689A42E3
:1031C80001D0062307E0FFF7D0F90346002B01D012
:1031D800002300E0072318461837BD4680BD0000CD
:1031E80080B483B000AF0346FB71074B1B78FA79B4
:1031F8009A4201D1012300E0002318460C37BD464E
:103208005DF8047B704700BF2805002080B584B0B6
:1032180000AF78600B46FB707B681A78194B5A70C0
:103228007B685A78174B9A707B689A78154BDA70D6
:103238007B689A88134BDA80FB78184600F024F8EC
:10324800FB78002B04D10F4BDB6801330D4AD360A8
:103258000023FB810CE0FA89FB8979680A4491799B
:10326800084A13440A4683F82221FB890133FB816B
:103278007B689B88FA899A42EDD300BF00BF10375C
:10328800BD4680BD0400002080B483B000AF034673
:10329800FB71114AFB791371FB79012B05D10E4B98
:1032A8001B6901330C4A136110E0FB79022B05D12D
:1032B800094B5B690133084A536107E0FB79032B2B
:1032C80004D1054B9B690133034A936100BF0C3756
:1032D800BD465DF8047B70470400002080B483B0CD
:1032E80000AF78607B689B6803F00103012B01D174
:1032F800012300E0002318460C37BD465DF8047B27
:10330800704780B483B000AF78607B689B6803F037
:103318000203022B01D1012300E0002318460C37D9
:10332800BD465DF8047B704780B483B000AF786019
:103338007B689B6803F08003802B01D1012300E0A8
:10334800002318460C37BD465DF8047B704780B4EF
:1033580083B000AF78607B680C331B78DBB218460B
:103368000C37BD465DF8047B704780B485B000AF6C
:1033780078600B46FB707B680C33FB60FB68FA785F
:103388001A7000BF1437BD465DF8047B704780B4DF
:1033980083B000AF786039607B683A689A6100BF93
:1033A8000C37BD465DF8047B704780B483B000AF2E
:1033B800786039603B681A047B689A6100BF0C37F3
:1033C800BD465DF8047B704780B582B000AF034608
:1033D800FB7102E01448FFF7BAFF1348FFF77EFFBE
:1033E8000346002BF6D100BF0F48FFF78AFF0346BC
:1033F800002BF9D0FB7919460B48FFF7B6FF00BF41
:103408000948FFF791FF0346002BF9D10648FFF75B
:1034180065FF0346002B02D00348FFF798FF00BF63
:103428000837BD4680BD00BF003C004080B582B073
:1034380000AF0346FB714FF400410948FFF7B5FFA1
:1034480001210848FFF7B1FFFB791846FFF7BCFFD9
:1034580001210448FFF79BFF00BF0837BD4680BD28
:1034680000000240000C024080B582B000AF034665
:10347800FB714FF400410948FFF789FF0121084813
:10348800FFF793FFFB791846FFF79EFF01210448D9
:10349800FFF77DFF00BF0837BD4680BD0000024032
:1034A800000C024080B483B000AF0346FB71FB7987
:1034B8005B00DBB223F05503DAB2FB795B08DBB2C1
:1034C80003F05503DBB21343FB71FB799B00DBB2BE
:1034D80023F03303DAB2FB799B08DBB203F0330342
:1034E800DBB21343FB71FB791A01DBB21B091343EF
:1034F800FB71FB7918460C37BD465DF8047B7047B5
:1035080080B483B000AF0346FB71FB79413B342B99
:1035180000F2A28001A252F823F000BFF93500089A
:1035280061360008FD350008013600080536000838
:103538006136000809360008613600080D360008B3
:103548006136000861360008113600081536000893
:10355800193600081D3600082136000861360008B3
:10356800613600086136000825360008293600084B
:10357800613600082D3600086136000861360008FB
:1035880061360008613600086136000861360008B7
:1035980061360008613600086136000831360008D7
:1035A80061360008613600083536000839360008EB
:1035B800613600083D3600086136000841360008CB
:1035C80061360008613600084536000849360008AB
:1035D8004D36000851360008553600086136000897
:1035E8006136000861360008593600085D36000863
:1035F8001D4B32E01D4B30E01D4B2EE01D4B2CE0E7
:103608001D4B2AE01D4B28E01D4B26E01D4B24E0F6
:103618001D4B22E01D4B20E01D4B1EE01D4B1CE006
:103628001D4B1AE01D4B18E01D4B16E01D4B14E016
:103638001D4B12E01D4B10E01D4B0EE01D4B0CE026
:103648001D4B0AE01D4B08E01D4B06E01D4B04E036
:103658001D4B02E01D4B00E01D4B18460C37BD46C4
:103668005DF8047B704700BF783B0008803B00088A
:10367800883B0008903B0008983B0008A03B0008E6
:10368800A83B0008B03B0008B83B0008C03B000856
:10369800C83B0008D03B0008D83B0008E03B0008C6
:1036A800E83B0008F03B0008F83B0008003C000835
:1036B800083C0008103C0008183C0008203C0008A2
:1036C800283C0008303C0008383C0008403C000812
:1036D800483C000880B483B000AF0023FB8006E0BC
:1036E800FB88084A0021D154FB880133FB80FB8802
:1036F800B3F5806FF4D300BF00BF0C37BD465DF84B
:10370800047B70473005002080B485B000AF0346C5
:103718000A46FB711346BB7197F90730002B1CDB77
:10372800BB793F2B19D8FB79DB08DBB21A46BB798A
:103738009BB21B019BB21344FB81FB890A4AD15CF3
:10374800FB7903F00703802222FA03F3DAB2FB893C
:103758000A43D1B2044AD15400E000BF1437BD4631
:103768005DF8047B704700BF3005002080B485B049
:1037780000AF03460A46FB711346BB7197F9073041
:10378800002B02DBBB793F2B01D900231AE0FB7920
:10379800DB08DBB21A46BB799BB21B019BB2134410
:1037A800FB81FB890A4AD25CFB7903F0070380217D
:1037B80021FA03F3DBB21340DBB2002B01D0012363
:1037C80000E0002318461437BD465DF8047B7047B7
:1037D8003005002080B584B000AF0346FB710B466E
:1037E800BB7113467B717B791846FFF789FEB86079
:1037F8000023FB733EE00023BB7335E0FB7BBA6814
:1038080013441B781A46BB7B22FA03F303F0010327
:10381800002B26D000237B7320E000233B7317E0A6
:10382800FB7B5B00DAB2FB791344DAB27B7B13448F
:10383800D8B2BB7B5B00DAB2BB791344DAB23B7B0C
:103848001344DBB21946FFF75FFF3B7B01333B7341
:103858003B7B012BE4D97B7B01337B737B7B012B87
:10386800DBD9BB7B0133BB73BB7B062BC6D9FB7B88
:103878000133FB73FB7B042BBDD900BF00BF10379E
:10388800BD4680BD80B582B000AF03463A60FB718B
:103898000B46BB710BE03B685A1C3A601A78B97941
:1038A800FB791846FFF796FFFB790C33FB713B68F1
:1038B8001B78002BEFD100BF00BF0837BD4680BD85
:1038C80080B582B000AF0023FB7152E0FB79C3F1F1
:1038D8003F03FB70B020FFF7A9FDFB7803F00F034F
:1038E800DBB21846FFF7A2FDFB781B09DBB21033E9
:1038F800DBB21846FFF79AFD0023BB7133E00023C3
:103908007B7100233B7120E0BB79DB00DAB23B79A5
:103918001344DBB2C3F17F03BB70FB79C3F13F03F0
:103928007B707A78BB7811461846FFF71FFF03466D
:10393800002B07D03B79802222FA03F3DAB27B7995
:1039480013437B713B7901333B713B79072BDBD9FF
:103958007B791846FFF7A6FD03461846FFF784FD56
:10396800BB790133BB71BB790F2BC8D9FB79013304
:10397800FB71FB793F2BA9D900BF00BF0837BD46B3
:1039880080BD000080B500AF4FF480513448FFF788
:10399800FEFC0220FDF740F94FF480513048FFF754
:1039A80004FD0A20FDF738F94FF480512C48FFF741
:1039B800EEFC0A20FDF730F9AE20FFF737FD0020B6
:1039C800FFF734FD1020FFF731FDB020FFF72EFD83
:1039D800DC20FFF72BFD0020FFF728FD8120FFF7F3
:1039E80025FD6F20FFF722FD2120FFF71FFDA020F6
:1039F800FFF71CFDC020FFF719FDA420FFF716FDF7
:103A0800A620FFF713FDA820FFF710FD3F20FFF7C2
:103A18000DFDD320FFF70AFD6020FFF707FDD52035
:103A2800FFF704FD4120FFF701FDD920FFF7FEFC59
:103A38002220FFF7FBFCDB20FFF7F8FC3520FFF71F
:103A4800F5FCAD20FFF7F2FC8A20FFF7EFFCFFF74B
:103A580041FEFFF735FFAF20FFF7E8FC00BF80BD50
:103A68000000024080B500AFFFF734FEFFF728FFE3
:103A7800FFF730FE064A12211620FFF703FF054A1A
:103A880024211C20FFF7FEFEFFF71AFF00BF80BDB0
:103A9800443B00084C3B000880B500AFFFF71AFE16
:103AA800FFF70EFFFFF716FE064A12211C20FFF74C
:103AB800E9FE054A24211020FFF7E4FEFFF700FF86
:103AC80000BF80BD4C3B0008543B0008024403463D
:103AD800934200D1704703F8011BF9E770B50D4D0B
:103AE8000D4C641BA4100026A64209D10B4D0C4CAA
:103AF80000F018F8641BA4100026A64205D170BD7A
:103B080055F8043B98470136EEE755F8043B9847CB
:103B18000136F2E70000000000000000000000008D
:103B280000000000F8B500BFF8BC08BC9E4670470E
:0C3B3800F8B500BFF8BC08BC9E46704702
:103B440057414954494E470055504C4F4144000099
:103B5400434F4D504C455445000000000000000008
:103B64000000000001020304060708090000000029
:103B7400010203047E1111117E0000003E41414107
:103B8400220000007F4141221C0000007F49494976
:103B9400410000003E4149497A00000000417F4154
:103BA400000000007F404040400000007F020C0203
:103BB4007F0000007F0408107F0000003E41414167
:103BC4003E0000007F0909090600000001017F0191
:103BD400010000003F4040403F0000007F201820CB
:103BE4007F000000205454547800000038444448B6
:103BF4007F000000385454541800000008545454F2
:103C04003C00000000447D400000000000417F4073
:103C1400000000007C041804780000007C08040400
:103C24007800000038444444380000007C14141424
:103C340008000000043F4440200000003C404020B5
:0C3C44007C0000000000000000000000F8
:083C500068C5FF7F01000000C0
:043C58000024F40050
:0400000508001FC50B
:00000001FF
