:020000040800F2
:1000000000000220812100083D2100084521000850
:100010004D210008552100085D2100080000000066
:10002000000000000000000000000000D1210008D6
:100030006521000800000000D1210008D12100083E
:10004000D1210008D1210008D1210008D1210008C8
:10005000D1210008D1210008D1210008D1210008B8
:10006000D1210008D1210008D1210008D1210008A8
:10007000D1210008D1210008D1210008D121000898
:10008000D1210008D1210008D1210008D121000888
:10009000D1210008D1210008D1210008D121000878
:1000A000D1210008D1210008D1210008D121000868
:1000B000D1210008D1210008D1210008D121000858
:1000C000D1210008D1210008D1210008D121000848
:1000D000D1210008D121000873210008D121000896
:1000E000D1210008D1210008D1210008D121000828
:1000F000D1210008D1210008D1210008D121000818
:10010000D1210008D1210008D1210008D121000807
:10011000D1210008D1210008D1210008D1210008F7
:10012000D1210008D1210008D1210008D1210008E7
:10013000D1210008D1210008D1210008D1210008D7
:10014000D1210008D1210008D1210008D1210008C7
:10015000D1210008D1210008D1210008D1210008B7
:10016000D1210008D1210008D1210008D1210008A7
:10017000D1210008D1210008D12100080000000091
:08018000D1210008D121000883
:1001880053B94AB9002908BF00281CBF4FF0FF31F6
:100198004FF0FF3000F088B9ADF1080C6DE904CEDE
:1001A80000F006F8DDF804E0DDE9022304B070474A
:1001B8002DE9F047089D8E4604468846002B4AD113
:1001C8008A42174662D9B2FA82F64EB1C6F12003C6
:1001D80001FA06F820FA03F3B74043EA0808B440E6
:1001E8004FEA174E1FFA87FCB8FBFEF1230C0EFBF3
:1001F800118843EA084301FB0CF29A4209D9FB181B
:1002080001F1FF3080F0EA809A4240F2E78002393B
:100218003B449A1AA3B2B2FBFEF00EFB102243EA4B
:10022800024300FB0CFC9C4509D9FB1800F1FF3286
:1002380080F0D6809C4540F2D3803B44023840EAA7
:100248000140A3EB0C0300211DB1F3400022C5E9D6
:100258000032BDE8F0878B4205D90DB1C5E9000130
:1002680000210846F5E7B3FA83F1002946D1734522
:1002780002D3824200F20581841A6EEB0302012048
:100288009046002DE5D0C5E90048E2E7002A00F0D5
:100298009080B2FA82F6002E40F0A4808A1A030CED
:1002A8004FEA174E80B2BCB20121B2FBFEFC0EFB36
:1002B8001C2243EA024304FB0CF29A4207D9FB18BA
:1002C8000CF1FF3802D29A4200F2E080C4469B1A31
:1002D800B3FBFEF20EFB123340EA034302FB04F4C5
:1002E8009C4207D9FB1802F1FF3002D29C4200F26F
:1002F800CA8002461B1B42EA0C40A5E7C1F1200652
:100308008B4022FA06F71F430EFA01F420FA06F38F
:100318002EFA06FE4FEA1749234300FA01F81FFA9E
:1003280087FCBEFBF9F01C0C09FB10EE44EA0E44F6
:1003380000FB0CFEA64502FA01F209D93C1900F1AE
:10034800FF3A80F09C80A64540F2998002383C44F0
:10035800A4EB0E041FFA83FEB4FBF9F309FB134464
:100368004EEA044403FB0CFCA44508D93C1903F1EC
:10037800FF3E80F08280A4457FD9023B3C4443EA9B
:100388000040A4EB0C04A0FB02EC64457346E14674
:1003980062D35FD05DB1B8EB030264EB090404FAE1
:1003A80006F622FA01F31E43CC40C5E90064002199
:1003B8004FE7B1FBF2FC010C41EA0E4180B240EA82
:1003C80001423B4638463C46B846BE462026B1FB6D
:1003D800F7F1A2EB080241EA0C4166E7014618E78B
:1003E80010462CE7C6F120022EFA02F3B740B140BE
:1003F80020FA02F24FEA174E0A43B3FBFEF8BCB2EA
:100408000EFB1833110C41EA034108FB04F9B04014
:1004180089454FEA104380B23ED9791808F1FF3C6C
:1004280001D289451FD8A1EB0901B1FBFEF909FBEF
:1004380004F80EFB191192B242EA0142424529D250
:10044800BA1809F1FF31C4D24245C2D2A9F102015A
:100458003A44BEE7F0459DD2BEEB02036CEB070CB5
:100468000138E14696E7A7EB09094944A8F1020CCF
:10047800B1FBFEF909FB04F8DBE773467FE750465A
:1004880066E70846FDE63B44023A33E7ACF1020C66
:100498003B441CE749469CE7A1EB0901C446B1FB74
:1004A800FEF909FB04F8C4E7704700BF80B400AF49
:1004B800064BD3F88830054A43F47003C2F88830F5
:1004C80000BFBD465DF8047B704700BF00ED00E04B
:1004D80080B48BB000AFF860B9607A60FB681A68C6
:1004E800BB687B617B6993FAA3F33B613B69BB61A2
:1004F800BB69002B01D1202303E0BB69B3FA83F366
:10050800DBB25B00032101FA03F3DB431A40BB684B
:100518003B623B6A93FAA3F3FB61FB697B627B6AEC
:10052800002B01D1202303E07B6AB3FA83F3DBB20B
:100538005B00796801FA03F31A43FB681A6000BF8D
:100548002C37BD465DF8047B704780B485B000AF9A
:10055800F860B9607A60FB685A68BB68DB431A4088
:10056800BB68796801FB03F31A43FB685A6000BF54
:100578001437BD465DF8047B704780B48BB000AF7C
:10058800F860B9607A60FB689A68BB687B617B69D0
:1005980093FAA3F33B613B69BB61BB69002B01D1B3
:1005A800202303E0BB69B3FA83F3DBB25B000321CA
:1005B80001FA03F3DB431A40BB683B623B6A93FAD8
:1005C800A3F3FB61FB697B627B6A002B01D12023CB
:1005D80003E07B6AB3FA83F3DBB25B00796801FA64
:1005E80003F31A43FB689A6000BF2C37BD465DF8D9
:1005F800047B704780B48BB000AFF860B9607A6054
:10060800FB68DA68BB687B617B6993FAA3F33B619B
:100618003B69BB61BB69002B01D1202303E0BB69A7
:10062800B3FA83F3DBB25B00032101FA03F3DB4384
:100638001A40BB683B623B6A93FAA3F3FB61FB6910
:100648007B627B6A002B01D1202303E07B6AB3FA2B
:1006580083F3DBB25B00796801FA03F31A43FB68A2
:10066800DA6000BF2C37BD465DF8047B704780B464
:100678008BB000AFF860B9607A60FB681A6ABB6833
:100688007B617B6993FAA3F33B613B69BB61BB69FF
:10069800002B01D1202303E0BB69B3FA83F3DBB25B
:1006A8009B000F2101FA03F3DB431A40BB683B624E
:1006B8003B6A93FAA3F3FB61FB697B627B6A002BBD
:1006C80001D1202303E07B6AB3FA83F3DBB29B00FA
:1006D800796801FA03F31A43FB681A6200BF2C37E2
:1006E800BD465DF8047B704780B48BB000AFF860FE
:1006F800B9607A60FB685A6ABB681B0A7B617B69D0
:1007080093FAA3F33B613B69BB61BB69002B01D141
:10071800202303E0BB69B3FA83F3DBB29B000F210C
:1007280001FA03F3DB431A40BB681B0A3B623B6ACE
:1007380093FAA3F3FB61FB697B627B6A002B01D10F
:10074800202303E07B6AB3FA83F3DBB29B0079686A
:1007580001FA03F31A43FB685A6200BF2C37BD46FF
:100768005DF8047B704780B58AB000AF7860396067
:1007780000237B6200233B623B681B68BB61BB694B
:1007880093FAA3F37B617B69FB61FB69002B01D1C1
:10079800202303E0FB69B3FA83F3DBB27B6257E003
:1007A8003B681A6801217B6A01FA03F313403B6234
:1007B8003B6A002B49D03B685B68012B03D03B6840
:1007C8005B68022B0DD13B689B681A46396A7868CA
:1007D800FFF7D3FE3B68DB681A46396A7868FFF78B
:1007E800B4FE3B681B691A46396A7868FFF702FF4E
:1007F8003B685B68022B21D13B6AFB60FB6893FA7C
:10080800A3F3BB60BB683B613B69002B01D120238C
:1008180003E03B69B3FA83F3DBB2072B07D83B68E5
:100828005B691A46396A7868FFF721FF06E03B687A
:100838005B691A46396A7868FFF756FF3B685B6858
:100848001A46396A7868FFF743FE7B6A01337B6290
:100858003B681A687B6A22FA03F3002BA0D10023B5
:1008680018462837BD4680BD80B483B000AF786095
:100878007B681B6803F04003402B01D1012300E093
:10088800002318460C37BD465DF8047B704780B4DA
:1008980083B000AF786039603B689BB21A467B68CA
:1008A8001A6100BF0C37BD465DF8047B704780B500
:1008B80084B000AF786039600123FB737868FFF774
:1008C800D3FF0346002B39D17B681B6823F47F4391
:1008D80023F0BF033A6811683A68526811433A68CE
:1008E800926811433A68D26811433A681269114311
:1008F8003A68526911433A68926911433A68D26971
:1009080011433A68126A0A431A437B681A607B6883
:100918005B6823F004023B685B691B0C1A437B6825
:100928005A603B681B6AB3F5005F05D13B685B6A98
:1009380019467868FFF7ABFF0023FB737B68DB6918
:1009480023F400627B68DA61FB7B18461037BD46EA
:1009580080BD000080B400AF044B9B6803F00C031B
:100968001846BD465DF8047B704700BF003802405A
:1009780080B400AF044B9B6803F0F0031846BD46F3
:100988005DF8047B704700BF0038024080B400AFB8
:10099800044B9B6803F4E0531846BD465DF8047B9E
:1009A800704700BF0038024080B400AF044B9B681A
:1009B80003F460431846BD465DF8047B704700BFEA
:1009C8000038024080B400AF044B5B6803F4800336
:1009D8001846BD465DF8047B704700BF00380240EA
:1009E80080B400AF044B5B689B09C3F30803184647
:1009F800BD465DF8047B70470038024080B400AF04
:100A0800044B5B6803F440331846BD465DF8047B2D
:100A1800704700BF0038024080B400AF044B5B68E9
:100A280003F03F031846BD465DF8047B704700BFDE
:100A38000038024080B582B000AF786000F020F83E
:100A480002467B681A607B681B68184600F040F80D
:100A580002467B685A607B685B68184600F04EF86F
:100A680002467B689A607B685B68184600F05AF813
:100A780002467B68DA6000BF0837BD4680BD0000CB
:100A880080B582B000AF00237B60FFF763FF0346A9
:100A9800082B0CD0082B0FD8002B02D0042B03D026
:100AA8000AE0094B7B600AE0084B7B6007E00820FE
:100AB80000F04CF8786002E0034B7B6000BF7B6875
:100AC80018460837BD4680BD0024F40000127A009D
:100AD80080B582B000AF7860FFF74AFF03461B0974
:100AE80003F00F03044AD35C1A467B68D3401846C8
:100AF8000837BD4680BD00BF2851000880B582B0C8
:100B080000AF7860FFF742FF03469B0A044AD35CB4
:100B18001A467B68D34018460837BD4680BD00BFDB
:100B28003851000880B582B000AF7860FFF73CFF0D
:100B380003465B0B044AD35C1A467B68D3401846CD
:100B48000837BD4680BD00BF3851000890B587B052
:100B580000AF786000237B610023FB6000233B61CA
:100B6800FFF730FFF860FB68002B04D0FB68B3F593
:100B7800800F03D005E0124B7B6105E0114B7B61D0
:100B880002E00F4B7B6100BF7B68082B13D1FFF796
:100B980043FF02467B69B3FBF2F4FFF721FF0346EC
:100BA80003FB04F4FFF72AFF03461B0C01335B0029
:100BB800B4FBF3F33B613B6918461C37BD4690BD57
:100BC8000024F40000127A0080B483B000AF78608B
:100BD80039607A683B68B2FBF3F3074A013B53601C
:100BE800054B00229A60044B05221A6000BF0C379F
:100BF800BD465DF8047B704710E000E080B582B028
:100C080000AF78604FF47A717868FFF7DDFF00BFB6
:100C18000837BD4680BD000080B485B000AF78605D
:100C28000F4B1B68FB60FB687B68B3F1FF3F0CD080
:100C38007B6801337B6008E0094B1B6803F4803351
:100C4800002B02D07B68013B7B607B68002BF3D1D3
:100C580000BF00BF1437BD465DF8047B704700BF76
:100C680010E000E080B483B000AF7860044A7B688D
:100C7800136000BF0C37BD465DF8047B704700BFAA
:100C88000000002080B483B000AF78607B68DB6828
:100C980003F40053B3F5005F0CBF01230023DBB25C
:100CA80018460C37BD465DF8047B704780B483B0A6
:100CB80000AF786039607B681B6923F440523B6859
:100CC8001A437B681A6100BF0C37BD465DF8047B88
:100CD800704780B483B000AF786039607B685B6927
:100CE80023F440723B681A437B685A6100BF0C3793
:100CF800BD465DF8047B70472DE9B04FC0B000AF2A
:100D0800C7F8FC00C7F8F810C7F8F420C7F8F030A7
:100D1800D7F8F430B3F5004F40F00C81D7F8F8302D
:100D28000022C7F8E830C7F8EC20D7E93A45224650
:100D38002B46911839665B417B66D7E91823214613
:100D480012EB0108294643EB01094FF000024FF06E
:100D580000034FEAC90343EA58734FEAC8029046B2
:100D68009946234618EB0303C7F8E0302B4649EBB6
:100D78000303C7F8E430D7F8F03000229A469346C8
:100D88001AEB0A03BB654BEB0B03FB65D7E916238C
:100D9800D7E93801FFF7F4F902460B46644BA3FB89
:100DA80002235B099BB21B019CB2D7F8F8300022E2
:100DB800C7F8D830C7F8DC20D7E9368942464B4611
:100DC800911839655B417B65D7E914234146511871
:100DD800B96449464B41FB644FF000024FF00003F1
:100DE800D7E912AB5946CB00514643EA51735146F5
:100DF800CA0010461946034642469B18C7F8D03029
:100E08004B460A4642EB0303C7F8D430D7F8F03014
:100E18000022C7F8C830C7F8CC20D7E932120B46F1
:100E2800DB183B64134642EB03037B64D7E91023CA
:100E3800D7E93401FFF7A4F902460B4611463C4BAB
:100E4800A3FB01235B09642202FB03F3CB1ADB003B
:100E580003F13202364BA3FB02235B099BB25B0012
:100E68009BB203F4F8739BB223449CB2D7F8F830D2
:100E78000022C7F8C030C7F8C420D7E930894246F5
:100E88004B469118B9635B41FB63D7E90E23414692
:100E98005118396349464B417B634FF000024FF0CC
:100EA8000003D7E90CAB5946CB00514643EA5173CE
:100EB8005146CA0010461946034642469B18C7F8D1
:100EC800B8304B460A4642EB0303C7F8BC30D7F8A4
:100ED800F0300022C7F8B030C7F8B420D7E92C1298
:100EE8000B46DB18BB62134642EB0303FB62D7E9F0
:100EF8000A23D7E92E01FFF743F902460B460C4BAC
:100F0800A3FB02135B09642101FB03F3D31ADB0083
:100F18003233074AA2FB03235B099BB203F00703A2
:100F28009BB223449BB21A46D7F8FC309A6008E17A
:100F38001F85EB51D7F8F8300022C7F8A830C7F85A
:100F4800AC20D7E92A8942464B46911839625B4161
:100F58007B62D7E9082341465418494643EB01050B
:100F68004FF000024FF00003EB0043EA5473E20035
:100F780014461D464346E318C7F8A0304B4645EBD8
:100F88000303C7F8A430D7F8F0300022C7F8983028
:100F9800C7F89C204FF000024FF00003D7E9264520
:100FA80029468B00214643EA917321468A00D7E9F6
:100FB8002801FFF7E5F802460B46654BA3FB022321
:100FC8005B099BB21B019CB2D7F8F8300022C7F826
:100FD8009030C7F89420D7E9248942464B469118A7
:100FE800B9615B41FB61D7E9062341465118396174
:100FF80049464B417B614FF000024FF00003D7E9AF
:1010080004AB5946CB00514643EA51735146CA00D6
:1010180010461946034642469B18C7F888304B4687
:101028000A4642EB0303C7F88C30D7F8F0300022A9
:10103800C7F88030C7F884204FF000024FF0000353
:10104800D7E9208949468B00414643EA91734146D6
:101058008A00D7E92201FFF793F802460B461146AA
:101068003B4BA3FB01235B09642202FB03F3CB1A6E
:101078001B013233364AA2FB03235B099BB203F000
:10108800F0039BB223449CB2D7F8F8300022BB6728
:10109800FA67D7E91E8942464B469118B9605B4109
:1010A800FB60D7E9022341465118396049464B4154
:1010B8007B604FF000024FF00003D7E900AB5946C0
:1010C800CB00514643EA51735146CA0010461946AF
:1010D800034642469B183B674B460A4642EB0303CE
:1010E8007B67D7F8F0300022BB66FA664FF0000243
:1010F8004FF00003D7E91A8949468B00414643EA75
:10110800917341468A00D7E91C01FFF739F8024676
:101118000B460F4BA3FB02135B09642101FB03F38E
:10112800D31A1B0132330A4AA2FB03235B099BB281
:1011380003F00F039BB223449BB21A46D7F8FC3046
:101148009A6000BF07F58077BD46BDE8B08F00BF45
:101158001F85EB5180B588B000AF786039600123F6
:10116800FB770023BB617868FFF78CFD0346002BF3
:101178005ED17B68DB6823F4164323F00C033A68DE
:1011880051683A68D26811433A68126911433A685B
:1011980092690A431A437B68DA603B689B68194680
:1011A8007868FFF783FD3B685B6919467868FFF745
:1011B80090FD07F108031846FFF73CFC7B681F4ABF
:1011C800934202D17B69BB6121E07B681C4A934250
:1011D80002D13B69BB611AE07B681A4A934202D18B
:1011E8003B69BB6113E07B68174A934202D17B6974
:1011F800BB610CE07B68154A934202D13B69BB6135
:1012080005E07B68124A934201D13B69BB61BB6927
:10121800002B0DD03B681B68002B09D00023FB77FF
:101228003B689A693B681B68B9697868FFF764FD91
:10123800FB7F18462037BD4680BD00BF0010014027
:10124800004400400048004000140140004C0040A9
:101258000050004080B485B000AF78607B6803F030
:101268000703FB600C4BDB68BB60BA684FF6FF03F3
:101278001340BB60FB681A02BB68134343F0BF63AB
:1012880043F40033BB60044ABB68D36000BF143723
:10129800BD465DF8047B704700ED00E080B400AF08
:1012A800044BDB681B0A03F007031846BD465DF8CC
:1012B800047B704700ED00E080B483B000AF0346C4
:1012C8003960FB7197F90730002B0ADB3B68DAB20B
:1012D8000C4997F907301201D2B20B4483F8002366
:1012E8000AE03B68DAB20849FB7903F00F03043BD4
:1012F8001201D2B20B441A7600BF0C37BD465DF816
:10130800047B704700E100E000ED00E080B489B0A4
:1013180000AFF860B9607A60FB6803F00703FB610F
:10132800FB69C3F10703042B28BF0423BB61FB69D6
:101338000433062B02D9FB69033B00E000237B61E1
:101348004FF0FF32BB6902FA03F3DA43BB681A4075
:101358007B699A404FF0FF317B6901FA03F3D94367
:101368007B680B40134318462437BD465DF8047B61
:101378007047000080B400AF054B1B68044A43F077
:101388000103136000BFBD465DF8047B704700BFD2
:101398000038024080B400AF064B1B6803F002031C
:1013A800022B0CBF01230023DBB21846BD465DF8B3
:1013B800047B70470038024080B483B000AF786087
:1013C800074B1B6823F0F8027B68DB0004491343D2
:1013D8000B6000BF0C37BD465DF8047B704700BF4B
:1013E8000038024080B483B000AF7860064B9B6839
:1013F80023F0030204497B6813438B6000BF0C375A
:10140800BD465DF8047B70470038024080B400AFE9
:10141800044B9B6803F00C031846BD465DF8047B3B
:10142800704700BF0038024080B483B000AF7860D6
:10143800064B9B6823F0F00204497B6813438B60DA
:1014480000BF0C37BD465DF8047B7047003802408A
:1014580080B483B000AF7860064B9B6823F4E052F9
:1014680004497B6813438B6000BF0C37BD465DF8A9
:10147800047B70470038024080B483B000AF7860C6
:10148800064B9B6823F4604204497B6813438B60D6
:1014980000BF0C37BD465DF8047B7047003802403A
:1014A80080B400AF054B1B68044A43F08073136097
:1014B80000BFBD465DF8047B704700BF003802409E
:1014C80080B400AF074B1B6803F00073B3F1007FD3
:1014D8000CBF01230023DBB21846BD465DF8047B30
:1014E800704700BF0038024080B485B000AFF86094
:1014F800B9607A603B600D4B5A680D4B1340F96830
:10150800BA6811437A6892010A43084913434B6049
:10151800064B5B6823F4403204493B6813434B6035
:1015280000BF1437BD465DF8047B704700380240A1
:101538000080BFFF80B485B000AF7860084B1A6C9C
:1015480007497B6813430B64054B1A6C7B6813408F
:10155800FB60FB6800BF1437BD465DF8047B70472D
:101568000038024080B485B000AF7860084B5A6CF0
:1015780007497B6813434B64054B5A6C7B681340DF
:10158800FB60FB6800BF1437BD465DF8047B7047FD
:101598000038024080B483B000AF7860064B1B6807
:1015A80023F0070204497B6813430B6000BF0C3724
:1015B800BD465DF8047B7047003C024080B400AF34
:1015C800044B1B6803F007031846BD465DF8047B0F
:1015D800704700BF003C024080B483B000AF786021
:1015E800064B1B6823F4804204497B6813430B6055
:1015F80000BF0C37BD465DF8047B704700700040A3
:1016080080B400AF074B5B6803F48043B3F5804FA9
:101618000CBF01230023DBB21846BD465DF8047BEE
:10162800704700BF0070004080B483B000AF78609E
:101638007B681B6843F040027B681A6000BF0C3768
:10164800BD465DF8047B704780B483B000AF786016
:101658007B681B6803F00203022B0CBF01230023E5
:10166800DBB218460C37BD465DF8047B704780B482
:1016780083B000AF78607B681B6803F00803082B11
:101688000CBF01230023DBB218460C37BD465DF8BA
:10169800047B704780B483B000AF78607B681B68B8
:1016A80003F02003202B0CBF01230023DBB21846D4
:1016B8000C37BD465DF8047B704780B483B000AF3B
:1016C800786039607B681A693B6813403A689A42C7
:1016D8000CBF01230023DBB218460C37BD465DF86A
:1016E800047B704780B483B000AF786039603B6892
:1016F8001A047B689A6100BF0C37BD465DF8047B0D
:101708007047000080B582B000AF4FF48040FFF70B
:1017180029FF4FF08050FFF70DFF0320FFF79AFDD8
:10172800FFF7BCFD034600220F211846FFF7EEFD28
:10173800034619466FF00100FFF7BEFDFFF7AEFD47
:10174800034600220F211846FFF7E0FD034619461D
:101758004FF0FF30FFF7B0FD00F08CF800F05AF9B9
:1017680000F086FA3B4600221A601A713D48FFF7DE
:101778005BFF00F0CBF83B46184601F00DFD7B7887
:10178800184601F0A9FF7B78184600F0DDFD01F04E
:101798003FFD0346FB7100F0F7F80346BB713B7948
:1017A8007B717B79002B01D001F029FDFB79002B9F
:1017B80017D1BB79002B14D17B79002B11D101F003
:1017C8003FFD0346002B0CD001F052FD034618469E
:1017D80001F0A4FB0346002B03D101F019FD0346D9
:1017E800FB71FB79002B05D0BB79002B02D17B79EB
:1017F800002B2ED000F08EFA1B48FFF715FF03F0E0
:101808002BFA00F037FC02F01FFC00F0E1FB03F0BC
:1018180093FA0A21154801F06FFF0346002B02D105
:10182800124801F0FBFF1248FFF734FF0346002B74
:101838000BD10F48FFF708FF0346002B05D10C48D2
:10184800FFF715FF0346002BE3D0094800F08CFD95
:10185800DFE7FB79002B02D001F022FE00BF00BFBA
:10186800FDE700BF00300140003C0040004400405C
:101878000010014080B500AF0520FFF78BFE00BFC8
:10188800FFF79CFE0346052BFAD14FF48040FFF783
:10189800A3FE1020FFF790FDFFF76CFD00BFFFF7D8
:1018A80079FD0346012BFAD10023A8220821002044
:1018B800FFF71AFEFFF7F4FD00BFFFF701FE03462E
:1018C800012BFAD100BFFFF79BFE0346002BFAD08D
:1018D8000020FFF7A9FD4FF4A050FFF7B9FD4FF422
:1018E8000040FFF7C9FD0220FFF77CFD00BFFFF7AE
:1018F8008DFD0346082BFAD10348FFF77FF902480C
:10190800FFF7B0F900BF80BD007A030A80B500AFC9
:1019180020211948FFF7E6FE4FF400411748FFF76A
:10192800E1FE4FF480411548FFF7DCFE40211448E2
:10193800FFF7D8FE80211248FFF7D4FE04210E4895
:10194800FFF7D0FE08210C48FFF7CCFE01210D4817
:10195800FFF7C8FE10210948FFF7C4FE0821074811
:10196800FFF7C0FE04210548FFF7BCFE022103482B
:10197800FFF7B8FE00BF80BD00100240000C024017
:10198800000002400004024080B500AF0221054873
:10199800FFF793FE0346002B01D1012300E000234B
:1019A800184680BD0004024080B485B000AF78605E
:1019B800084B1A6B07497B6813430B63054B1A6B7B
:1019C8007B681340FB60FB6800BF1437BD465DF8B9
:1019D800047B70470038024080B483B000AF786061
:1019E80039607B683A689A6100BF0C37BD465DF87C
:1019F800047B704780B483B000AF786039603B687F
:101A08001A047B689A6100BF0C37BD465DF8047BF9
:101A18007047000080B586B000AF3B4600221A60D0
:101A28005A609A60DA601A615A611020FFF7BCFFA9
:101A38000420FFF7B9FF8020FFF7B6FF0120FFF76A
:101A4800B3FF0220FFF7B0FF0820FFF7ADFF3C21EE
:101A58005448FFF7CFFF49F2C3015348FFF7CAFFC5
:101A680001215248FFF7C6FF4CF21E215048FFF7EC
:101A7800C1FF40F281114E48FFF7AEFF3C233B60A7
:101A880001237B600023BB600023FB6001233B61D3
:101A98003B4619464348FEF766FE4FF400533B6049
:101AA80000237B6002233B613B4619464148FEF711
:101AB8005AFEC3233B6001237B600023BB600023E5
:101AC800FB6000233B613B4619463748FEF74BFE57
:101AD80001233B6001237B600023BB600023FB6084
:101AE80001233B613B4619463048FEF73CFE06237E
:101AF8003B6000237B6001233B613B4619462B4832
:101B0800FEF731FE4FF4C0733B6000237B60012376
:101B18003B613B4619462348FEF725FE4CF29E33AF
:101B28003B6001237B600023BB600023FB60012333
:101B38003B613B4619461E48FEF715FE4FF480539D
:101B48003B6001237B600223BB600023FB60012311
:101B58003B613B4619461448FEF705FE4FF4004327
:101B68003B6001237B600023BB600023FB600123F3
:101B78003B613B4619460C48FEF7F5FD01233B60E7
:101B880001237B600323BB600023FB6001233B61CF
:101B98003B4619460648FEF7E6FD00BF1837BD4626
:101BA80080BD00BF00100240000002400004024057
:101BB800000C02400008024080B485B000AF786095
:101BC800084B1A6B07497B6813430B63054B1A6B69
:101BD8007B681340FB60FB6800BF1437BD465DF8A7
:101BE800047B70470038024080B485B000AF78604D
:101BF800084B1A6C07497B6813430B64054B1A6C36
:101C08007B681340FB60FB6800BF1437BD465DF876
:101C1800047B70470038024080B485B000AF78601C
:101C2800084B5A6C07497B6813434B64054B5A6C45
:101C38007B681340FB60FB6800BF1437BD465DF846
:101C4800047B70470038024080B483B000AF7860EE
:101C580039607B685B6823F010023B681A437B6835
:101C68005A6000BF0C37BD465DF8047B7047000022
:101C780080B590B000AF07F118032822002118465C
:101C880003F0F0F93B4600221A605A609A60DA6065
:101C98001A615A614FF48050FFF7BEFF0220FFF728
:101CA8008BFF38233B6002237B600323BB60002348
:101CB800FB6001233B6105237B613B4619461348C2
:101CC800FEF751FD0023BB614FF48273FB610023D3
:101CD8003B6200237B620023BB624FF40073FB620C
:101CE80018233B6300237B630023BB630A23FB6346
:101CF80007F1180319460648FEF7D9FD00210448E4
:101D0800FFF7A2FF00BF4037BD4680BD0004024078
:101D18000030014080B590B000AF07F118032822C9
:101D28000021184603F09EF93B4600221A605A60CB
:101D38009A60DA601A615A614FF40040FFF754FF65
:101D48000420FFF739FF4FF4A0533B6002237B6068
:101D58000323BB600023FB6001233B6106237B61F7
:101D68003B4619461C48FEF7FEFC4FF400633B60F7
:101D780002237B600323BB600023FB6000233B61DD
:101D880006237B613B4619461348FEF7ECFC00230B
:101D9800BB614FF48273FB6100233B6202237B62C9
:101DA8000123BB624FF40073FB6208233B630023EB
:101DB8007B630023BB630A23FB6307F118031946FF
:101DC8000648FEF774FD00210448FFF73DFF00BFF9
:101DD8004037BD4680BD00BF00080240003C0040BF
:101DE80080B400AF044BDB681B0A03F007031846F6
:101DF800BD465DF8047B704700ED00E080B483B019
:101E080000AF0346FB7197F90730002B0BDBFB791A
:101E180003F01F02074997F907305B09012000FA10
:101E280002F241F8232000BF0C37BD465DF8047B61
:101E3800704700BF00E100E080B483B000AF034604
:101E48003960FB7197F90730002B0ADB3B68DAB27F
:101E58000C4997F907301201D2B20B4483F80023DA
:101E68000AE03B68DAB20849FB7903F00F03043B48
:101E78001201D2B20B441A7600BF0C37BD465DF88A
:101E8800047B704700E100E000ED00E080B489B019
:101E980000AFF860B9607A60FB6803F00703FB6184
:101EA800FB69C3F10703042B28BF0423BB61FB694B
:101EB8000433062B02D9FB69033B00E000237B6156
:101EC8004FF0FF32BB6902FA03F3DA43BB681A40EA
:101ED8007B699A404FF0FF317B6901FA03F3D943DC
:101EE8007B680B40134318462437BD465DF8047BD6
:101EF8007047000080B485B000AF7860084B1A6B5B
:101F080007497B6813430B63054B1A6B7B681340C7
:101F1800FB60FB6800BF1437BD465DF8047B704763
:101F28000038024080B485B000AF7860084B1A6C66
:101F380007497B6813430B64054B1A6C7B68134095
:101F4800FB60FB6800BF1437BD465DF8047B704733
:101F58000038024080B485B000AF7860084B5A6CF6
:101F680007497B6813434B64054B5A6C7B681340E5
:101F7800FB60FB6800BF1437BD465DF8047B704703
:101F88000038024080B483B000AF78607B68DB68BB
:101F980043F400527B68DA6000BF0C37BD465DF839
:101FA800047B704780B483B000AF78607B681B699E
:101FB80023F490427B681A617B685B6923F02A02EC
:101FC8007B685A6100BF0C37BD465DF8047B7047DB
:101FD80080B58EB000AF07F11C0300221A605A606A
:101FE8009A60DA601A615A619A613B1D00221A6090
:101FF8005A609A60DA601A615A611020FFF7AAFFE6
:102008000120FFF777FF4FF480637B600223BB60FA
:102018000323FB6000233B6101237B610723BB6132
:102028003B1D19461048FEF79EFB104BFB61002331
:102038003B624FF400537B620023BB620423FB62C4
:1020480000233B6300237B6307F11C031946084800
:10205800FFF780F80648FFF7A5FF0548FFF792FF4E
:1020680000BF3837BD4680BD0000024090D0030055
:102078000010014080B58EB000AF07F11C030022AC
:102088001A605A609A60DA601A615A619A613B1D57
:1020980000221A605A609A60DA601A615A614FF435
:1020A8000030FFF73FFF0120FFF724FF0C237B6080
:1020B8000223BB600323FB6000233B6101237B6198
:1020C8000723BB613B1D19461848FEF74CFBFFF779
:1020D80087FE0346002205211846FFF7D7FE034670
:1020E80019462620FFF7A8FE2620FFF787FE4FF4A3
:1020F8006123FB6100233B6200237B620023BB62F8
:102108000C23FB6200233B6300237B6307F11C0362
:1021180019460748FFF71EF80548FFF743FF04482C
:10212800FFF730FF00BF3837BD4680BD00000240D2
:102138000044004080B400AF00BFFDE780B400AFAA
:1021480000BFFDE780B400AF00BFFDE780B400AF7B
:1021580000BFFDE780B400AF00BFFDE780B400AF6B
:1021680000BFBD465DF8047B704780B400AF00BF78
:10217800BD465DF8047B7047DFF834D0FEF796F96A
:102188000C480D490D4A002302E0D458C4500433CA
:10219800C4188C42F9D30A4A0A4C002301E01360A0
:1021A8000432A242FBD302F065FFFFF7ABFA704797
:1021B800000002200000002004000020B85200089F
:1021C8000400002068090020FEE7000080B487B002
:1021D80000AFF860B9607A601CE0BB685A1CBA604E
:1021E8001B781A46FB685340FB600023FB750EE022
:1021F800FB6803F001035B423B61FB685A083969DD
:102208000A4B0B405340FB60FB7D0133FB75FB7DA4
:10221800072BEDD97B685A1E7A60002BDDD1FB684D
:1022280018461C37BD465DF8047B70472083B8ED1F
:1022380080B483B000AF78607B68DB4318460C3706
:10224800BD465DF8047B704780B400AFBFF34F8F85
:1022580000BF064BDB6803F4E0620449044B1343F8
:10226800CB60BFF34F8F00BF00BFFDE700ED00E07C
:102278000400FA0580B483B000AF78607B681B68FF
:1022880003F00203022B0CBF01230023DBB2184624
:102298000C37BD465DF8047B704780B483B000AF4F
:1022A80078607B681B6803F00803082B0CBF0123C8
:1022B8000023DBB218460C37BD465DF8047B704737
:1022C80080B483B000AF78607B681B6803F020039C
:1022D800202B0CBF01230023DBB218460C37BD4668
:1022E8005DF8047B704780B485B000AF78607B6888
:1022F8001B68FB60FB687B685B68FB60FB6800BF72
:102308001437BD465DF8047B704780B485B000AFD4
:1023180078607B681B68FB60FB687B685B68FB60B8
:10232800FB6800BF1437BD465DF8047B704780B476
:1023380083B000AF78607B685B68DBB218460C3707
:10234800BD465DF8047B704780B483B000AF034698
:10235800FB71044AFB79137000BF0C37BD465DF86A
:10236800047B70470400002080B5F6B000AF07F585
:10237800EC73A3F5EA73186007F5EC73A3F5E6733D
:1023880018464FF4E5731A46002102F06BFE07F178
:102398000C0207F5EC73A3F5EA731146186800F010
:1023A800B3F90346002B03D000F08EFB00234AE06C
:1023B80007F5EC73A3F5E6739B78184600F057FB16
:1023C8000346002B01D100233DE007F5EC73A3F58C
:1023D800E673DB78FB2B08D007F5EC73A3F5E673FF
:1023E800DB78FC2B01D000232DE007F5EC73A3F577
:1023F800E6731B78313B032B22D801A252F823F055
:102408001924000825240008312400083D24000868
:1024180007F10C03184600F01DF812E007F10C0351
:10242800184600F081F80CE007F10C03184600F09C
:1024380001F906E007F10C03184600F049F900E03D
:1024480000BF034B5B78184607F5EC77BD4680BDA7
:102458000800002080B586B000AF78607B689B8854
:102468000C2B59D17B680633184600F0AEFA786118
:102478007B680A33184600F0A8FA38617B680E3387
:10248800184600F0A2FAF8607B69002B46D07B69F9
:10249800B3F5E02F42D8234B1B78002B12D0214BE9
:1024A8005B687A699A420DD11E4B9B683A699A42D9
:1024B80008D11C4BDB68FA689A4203D1194B0122F8
:1024C8005A702CE000F0A2FC0346002B27D1154BD4
:1024D80001221A70134B01225A70124B00229A7073
:1024E800104A7B6953600F4A3B6993600D4AFB6849
:1024F800D3600C4B00221A6100F084FA0346094AA3
:102508005361084B4FF0FF329A61064B5B681946DE
:10251800002002F0DFFC02E000BF00E000BF183737
:10252800BD4680BD0800002080B586B000AF786049
:102538003F4B1B78002B77D07B689B88032B73D984
:102548003B4B9B78002B6FD17B680633184600F015
:102558003CFA78617B689B88043B3B617A693B69FC
:102568001A44334B5B689A4205D87A693B6913442D
:102578007A699A4203D92E4B01229A7055E02C4B66
:102588001B697A699A4205D200F03CFA0346284A48
:1025980053614AE0264B1B697A699A4203D0244B5F
:1025A80001229A7041E07B6903F1006303F58033EF
:1025B8007A6802F10A013A69184600F039FC0346C4
:1025C800002B03D01A4B01229A702EE0184B1A697F
:1025D8003B691344164A136100F014FA0346144A7F
:1025E8005361134B1A69124B5B689A4209D2104B1C
:1025F8001B69642203FB02F20D4B5B68B2FBF3F329
:1026080000E06423FB600A4B9B69FA689A420CD08D
:10261800074AFB689361064B1B69054A52681146D5
:10262800184602F057FC00E000BF1837BD4680BDD1
:102638000800002080B584B000AF7860234B1B7879
:10264800002B3DD07B689B88082B39D17B680633EB
:10265800184600F0BAF9F8607B680A33184600F0AB
:10266800B4F9B860194B5B68FA689A422AD1174BDB
:102678009B68BA689A4225D1144B9B78002B1CD1D1
:10268800124B1A69114B5B689A4216D1B968F868FF
:1026980000F030FA0346002B0FD1F86800F0F6FB83
:1026A8000346002B04D102F041FC00F0D8F90AE0FF
:1026B80002F0ACFC00F0D3F905E000F0E5F902E027
:1026C80000BF00E000BF1037BD4680BD08000020F5
:1026D80080B582B000AF78607B689B88002B0DD1F5
:1026E800084B1B78002B02D000F0CEF907E000F071
:1026F8008FFD0346002B02D0FFF7A6FD00BF083769
:10270800BD4680BD0800002080B58AB002AF786061
:10271800396007F10C0300221A601A710023BB60AC
:102728004FF0FF33FB6100F06DF9B8613B68D91CCD
:102738005023BA69786800F0B2F80346002B01D03C
:10274800012375E05022B969786800F075F80346EE
:10275800002B01D002236BE007F10C0150230093FA
:10276800BB690522786800F00CF90346002B01D0FC
:1027780001235DE03A7B3B681A707A7B3B685A70AC
:10278800BA7B3B689A70FB7B1AB23B7C1BB21B027C
:102798001BB213431BB29AB23B689A803B689B8872
:1027A800B3F5E27F01D9022342E03B689B88002B06
:1027B8000ED03B68991D3B689A8850230093BB69EB
:1027C800786800F0DEF80346002B01D001232FE0E3
:1027D80007F1080150230093BB690422786800F0D0
:1027E800D0F80346002B01D0012321E007F10C03A8
:1027F80005221946F869FFF7E9FCF8613B68991D5D
:102808003B689B881A46F869FFF7E0FCF861F869AD
:10281800FFF70EFDF86107F10803184600F0D5F838
:102828007861FA697B699A4201D1002300E00323A9
:1028380018462037BD4680BD80B586B000AFF86029
:10284800B9607A601EE007F117017B68BA68F8681A
:1028580000F061F80346002B01D001231BE0FB7D4B
:10286800552B0ED107F117017B68BA68F86800F09C
:1028780052F80346002B05D1FB7DAA2B02D1002379
:1028880009E000BF00F0BEF80246BB68D31A7A68B8
:102898009A42D8D2012318461837BD4680BD80B564
:1028A80086B000AFF860B9607A603B6026E0F868EF
:1028B800FFF7E0FC0346002B03D0F868FFF713FD91
:1028C8001CE0F868FFF7E9FC0346002B03D0F86822
:1028D800FFF71BFD12E0F868FFF7F2FC0346002B38
:1028E8000CD0F868FFF723FD0346FB75FB7DF92B39
:1028F80004D9BB68FA7D1A70002308E000F082F85A
:1029080002467B68D31A3A689A42D0D20123184605
:102918001837BD4680BD80B584B000AFF860B96097
:102928007A603B6020E0F868FFF7CAFC0346002B9A
:1029380008D0F868FFF7FBFC03461A46BB681A7014
:1029480000231AE0F868FFF7A8FC0346002B02D022
:10295800F868FFF7DAFCF868FFF78CFC0346002BF1
:1029680002D0F868FFF7BFFC00F04CF802467B681D
:10297800D31A3A689A42D6D2012318461037BD4670
:1029880080BD80B586B000AFF860B9603B60134683
:10299800FB800023FB820FE0FB8ABA68D1183B6AF0
:1029A8003A68F868FFF7B7FF0346002B01D0012308
:1029B80007E0FB8A0133FB82FA8AFB889A42EBD351
:1029C800002318461837BD4680BD80B483B000AFD9
:1029D80078607B681B781A467B6801331B781B027A
:1029E8001A437B6802331B781B041A437B68033342
:1029F8001B781B06134318460C37BD465DF8047B4D
:102A08007047000080B400AF084B1B6803F48033A4
:102A1800002B04D0064B1B680133054A1360044B96
:102A28001B681846BD465DF8047B704710E000E05F
:102A38002400002080B584B000AF7860FFF7E2FF83
:102A4800F86000BFFFF7DEFF0246FB68D31A7A681A
:102A58009A42F7D800BF00BF1037BD4680BD80B589
:102A680000AF40F6B830FFF7E5FFFFF7EDFB80B4A5
:102A780083B000AF0346FB71012318460C37BD46EF
:102A88005DF8047B7047000080B500AF0D4B002255
:102A98001A7000F0D5FB0346002B0DD000F0E8FBC0
:102AA8000346184600F03AFA0346002B04D102F018
:102AB80091FAFFF7D4FF03E002F0A8FAFFF7CFFF7F
:102AC80080BD00BF0800002080B500AF084B1B7810
:102AD800002B0BD0FFF796FF0246054B5B69D31A14
:102AE80042F21072934201D9FFF7CEFF00BF80BDBA
:102AF8000800002080B586B000AF786039604FF0DC
:102B0800FF337B6100233B617B68002B03D07B682C
:102B1800B3F5E02F19D905232DE07A683B69D31A5C
:102B2800B3F5806F28BF4FF48063FB603B6903F106
:102B3800006303F58033FA6819467869FFF746FBA6
:102B480078613A69FB6813443B613A697B689A4249
:102B5800E3D37869FFF76CFB78617A693B689A423E
:102B680001D0062307E000F053FB0346002B01D0F9
:102B7800002300E0072318461837BD4680BD000033
:102B880080B400AF00BF064BDB6803F48033002B32
:102B9800F9D100BF00BFBD465DF8047B704700BF98
:102BA800003C024080B400AF074B1B69002B05DADC
:102BB800054B064A5A60044B054A5A6000BFBD4699
:102BC8005DF8047B704700BF003C02402301674565
:102BD800AB89EFCD80B400AF054B1B69044A43F0C5
:102BE8000043136100BFBD465DF8047B704700BF1A
:102BF800003C024080B400AF034BF322DA6000BF10
:102C0800BD465DF8047B7047003C024080B485B047
:102C180000AFF860B9607A603B60BB68002B01D1F7
:102C2800002314E0FA687B689A4201D200230EE080
:102C3800FA68BB6813443A689A4205D3FA68BB68D5
:102C48001344FA689A4201D9002300E00123184688
:102C58001437BD465DF8047B7047000080B584B02A
:102C680000AF78603960FFF79DFF7B68FB602FE05D
:102C7800FFF786FFFFF7BEFF1B4B1B691A4A23F4B9
:102C88005E731361184B1A69FB68DB001343164A1D
:102C980043F4007343F002031361134B1B69124A98
:102CA80043F480331361FFF76BFF0F4B1B690E4A28
:102CB80023F0020313610C4BDB6803F0F203002BD3
:102CC80003D0FFF787FF042309E0FB680133FB60AB
:102CD800FA683B689A42CBD9FFF77CFF0023184675
:102CE8001037BD4680BD00BF003C024080B58AB0A9
:102CF80000AFF860B9607A603B60FB687B620023D4
:102D08003B623B6B3A687968F868FFF77FFF0346D8
:102D1800002B01D1052372E0FFF744FF68E04FF074
:102D2800FF33FB617A683B6AD31A7B617B69042BAA
:102D380028BF04233B610023BB6119E0BB69DB00AA
:102D4800FF2202FA03F3DB43FA691340FB613A6A94
:102D5800BB691344BA6813441B781A46BB69DB0085
:102D680002FA03F3FA691343FB61BB690133BB61E0
:102D7800BA693B699A42E1D37B6A03F00303002BEB
:102D880003D0FFF727FF052339E0FFF7F9FEFFF728
:102D980031FF1D4B1B691C4A23F4407313611A4B06
:102DA8001B69194A43F4007343F0010313617B6AFA
:102DB800FA691A60FFF7E4FE134B1B69124A23F005
:102DC80001031361104BDB6803F0F203002B04D1FD
:102DD8007B6A1B68FA699A4203D0FFF7FBFE04235B
:102DE8000DE07B6A04337B623A6A3B6913443B62B9
:102DF8003A6A7B689A4292D3FFF7ECFE00231846A2
:102E08002837BD4680BD00BF003C024080B500AFFA
:102E180007210420FFF722FF0346184680BD80B52E
:102E280000AF0B210820FFF719FF0346184680BDA5
:102E380080B586B002AFF860B9607A60064B00933F
:102E4800064B7A68B968F868FFF750FF03461846DA
:102E58001037BD4680BD00BF00000808000001080B
:102E680080B586B002AFF860B9607A604FF0016350
:102E78000093054B7A68B968F868FFF737FF03468F
:102E880018461037BD4680BD0000080880B586B0DA
:102E980000AF786000237B617B68002B07D07B68DC
:102EA800B3F5E02F03D87B68B3F5002F01D90523CC
:102EB80030E0FFF7B4FF0346FB74FB7C002B24D003
:102EC800FB7C27E07A687B69D31AB3F5806F28BF4B
:102ED8004FF48063FB607B6903F1006303F5002313
:102EE8007A6902F1006202F580321146FA681846E2
:102EF800FFF7B6FF0346FB74FB7C002B01D0FB7C7D
:102F080008E07A69FB6813447B617A697B689A42B6
:102F1800D8D3002318461837BD4680BD80B586B083
:102F280000AF786000237B617B68002B07D07B684B
:102F3800B3F5E02F03D87B68B3F5002F01D905233B
:102F480030E0FFF763FF0346FB74FB7C002B24D0C3
:102F5800FB7C27E07A687B69D31AB3F5806F28BFBA
:102F68004FF48063FB607B6903F1006303F58033F2
:102F78007A6902F1006202F500221146FA681846E1
:102F8800FFF756FF0346FB74FB7C002B01D0FB7C4C
:102F980008E07A69FB6813447B617A697B689A4226
:102FA800D8D3002318461837BD4680BD80B483B0F7
:102FB80000AF78607B689B6803F00103012B01D1A7
:102FC800012300E0002318460C37BD465DF8047B5A
:102FD800704780B483B000AF78607B689B6803F06B
:102FE8000203022B01D1012300E0002318460C370D
:102FF800BD465DF8047B704780B483B000AF78604D
:103008007B680C331B78DBB218460C37BD465DF87D
:10301800047B704780B485B000AF78600B46FB70C6
:103028007B680C33FB60FB68FA781A7000BF1437B2
:10303800BD465DF8047B704780B483B000AF78600C
:1030480039607B683A689A6100BF0C37BD465DF805
:10305800047B704780B483B000AF786039603B6808
:103068001A047B689A6100BF0C37BD465DF8047B83
:103078007047000080B582B000AF0346FB7102E0E4
:103088001148FFF7B9FF1048FFF790FF0346002BE0
:10309800F6D100BF0C48FFF79CFF0346002BF9D080
:1030A800FB7919460848FFF7B5FF00BF0648FFF748
:1030B8007DFF0346002BF9D00348FFF79DFF034629
:1030C80018460837BD4680BD0030014080B584B041
:1030D80000AF0346FB8080210F48FFF7BBFF0320AA
:1030E800FFF7C8FFFB881B0A9BB2DBB21846FFF745
:1030F800C1FFFB88DBB21846FFF7BCFFFF20FFF7D4
:10310800B9FF0346FB7380210348FFF795FFFB7B5C
:1031180018461037BD4680BD000C024080B500AF90
:1031280080210648FFF796FF0620FFF7A3FF8021BE
:103138000248FFF781FF00BF80BD00BF000C0240BE
:1031480080B582B000AF03460A46FB8013467B7108
:10315800FFF7E4FF80210F48FFF77CFF0220FFF70D
:1031680089FFFB881B0A9BB2DBB21846FFF782FF78
:10317800FB88DBB21846FFF77DFF7B791846FFF71F
:1031880079FF80210348FFF757FF00BF0837BD4686
:1031980080BD00BF000C024080B582B000AF7860EF
:1031A8007B68002B27D00020FFF790FF03461A46C4
:1031B8007B681A700120FFF789FF03461A467B686F
:1031C8005A700520FFF782FF03461A467B68DA70BB
:1031D8000720FFF77BFF03461A467B689A70152085
:1031E800FFF774FF0346A52B01D1012200E000225E
:1031F8007B681A7100E000BF0837BD4680BD80B506
:1032080000AF00211520FFF79BFF00BF80BD000025
:1032180080B500AF084A0949084800F033F803466A
:10322800002B01D1002305E04FF4E021034800F012
:1032380053F80346184680BD00000808000001083E
:1032480080B500AF084A0949074800F01BF8034653
:10325800002B01D1002305E04FF40021024800F0C3
:103268003BF80346184680BD000008080000010826
:1032780080B500AF024800F004F90346184680BD47
:103288000000080880B487B000AFF860B9607A60C1
:10329800FB681B687B61FB6804331B683B617B69C7
:1032A800B3F1005F03D37B690A4A934201D9002333
:1032B8000AE03A69BB689A4203D33A697B689A4242
:1032C80001D3002300E0012318461C37BD465DF8F2
:1032D800047B70470000022080B588B000AF78609A
:1032E80039607B6803F50073BB617B6803F5027383
:1032F800184600F074F878617B6803F50373184684
:1033080000F06DF83861B86900F039F80346002B11
:1033180001D000232FE07B69B3F5077F03D37A69D7
:103328003B689A4201D9002325E07A687B691344F7
:10333800083BFB600023FB610EE0BA69FB6913449C
:103348001A78F968FB690B441B789A4201D000236C
:1033580011E0FB690133FB61FB69072BEDD9796942
:10336800786800F05AF8B860BA683B699A4201D1A7
:10337800012300E0002318462037BD4680BD80B4F5
:1033880085B000AF78600123FB730123BB73002372
:10339800BB6012E07A68BB6813441B78FF2B01D02E
:1033A8000023FB737A68BB6813441B78002B01D099
:1033B8000023BB73BB680133BB60BB68072BE9D92B
:1033C800FB7B002B02D1BB7B002B01D0012300E04B
:1033D800002318461437BD465DF8047B704780B457
:1033E80085B000AF78607B68FB60FB681B781A4685
:1033F800FB6801331B781B021A43FB6802331B78F6
:103408001B041A43FB6803331B781B061343184637
:103418001437BD465DF8047B704780B586B000AFB1
:10342800786039604FF0FF337B614FF0FF33BB604A
:103438004FF403733B614FF40473FB607B683A6994
:1034480019467869FEF7C2FE786107F1080304227D
:1034580019467869FEF7BAFE78617A68FB68134402
:1034680019463A68FB68D31A1A467869FEF7AEFE21
:1034780078617869FEF7DCFE034618461837BD46C2
:1034880080BD80B582B000AF78607B6803F50273B9
:103498001846FFF7A4FF034618460837BD4680BD07
:1034A80080B58AB000AF304B1B683B622F4B1B685E
:1034B800FB61FB69BB6172B600BF2D4B00221A602D
:1034C8002B4B00225A602A4B00229A60294B4FF05E
:1034D80020625A6000237B6210E0274A7B6A20330F
:1034E8004FF0FF3142F82310234A7B6A60334FF0D4
:1034F800FF3142F823107B6A01337B627B6A072B1A
:10350800EBD91C4B184A9A6000237B607B6883F3D5
:10351800118800BF0023BB60BB6883F3138800BF1A
:103528000023FB60FB6883F31488BFF36F8F00BF31
:1035380000BF00233B613B6983F3098800BF3B6AF6
:103548007B617B6983F3088800BFBFF34F8F00BF9F
:10355800BFF36F8F00BF62B600BFBB69984700BF5B
:103568002837BD4680BD00BF0000010804000108DF
:1035780010E000E000ED00E000E100E080B400AF02
:10358800BFF34F8F00BF064BDB6803F4E0620449CA
:10359800044B1343CB60BFF34F8F00BF00BFFDE761
:1035A80000ED00E00400FA0580B483B000AF786055
:1035B8007B681B6803F00803082B0CBF012300235A
:1035C800DBB218460C37BD465DF8047B704780B403
:1035D80083B000AF78607B681B6803F02003202B62
:1035E8000CBF01230023DBB218460C37BD465DF83B
:1035F800047B704780B483B000AF78607B681B6839
:1036080003F04003402B0CBF01230023DBB2184614
:103618000C37BD465DF8047B704780B483B000AFBB
:1036280078607B681B6803F08003802B0CBF012344
:103638000023DBB218460C37BD465DF8047B7047A3
:1036480080B485B000AF78607B681B68FB60FB685E
:103658007B685B68FB60FB6800BF1437BD465DF89C
:10366800047B704780B483B000AF78607B685B6888
:10367800DBB218460C37BD465DF8047B704780B452
:1036880083B000AF78600B46FB70FA787B685A60AD
:1036980000BF0C37BD465DF8047B704780B483B02B
:1036A80000AF786039607B683A689A6100BF0C3770
:1036B800BD465DF8047B704780B483B000AF786086
:1036C80039603B681A047B689A6100BF0C37BD46B5
:1036D8005DF8047B7047000080B483B000AF0346F8
:1036E800FB71044AFB79137000BF0C37BD465DF8C7
:1036F800047B70474C05002080B5ADF5836D00AFA5
:1037080007F58363A3F21443186007F58363A3F5F1
:103718008363196000F064FCC7F8140469E007F5D6
:103728008363A3F58263184640F206431A460021D4
:1037380001F098FC00F054FC0246D7F814349B1AA8
:1037480007F58362A2F5836212681344C7F8103440
:1037580007F1080107F58363A3F21443D7F810248F
:10376800186800F0D9FA034687F80F3497F80F3431
:10377800002B3ED107F58363A3F582631B78012BE9
:1037880013D107F58363A3F58263197807F583637B
:10379800A3F582635A7807F58363A3F214400023E4
:1037A800006800F089FB002331E007F58363A3F587
:1037B80082631B78072B1CD1174B1B781A461346BC
:1037C8001B019B1A03F23B13184600F0F3FB07F5A5
:1037D8008363A3F58263197807F58363A3F582638E
:1037E8005A7807F58363A3F214400023006800F0B9
:1037F80063FB00F0F5FB0246D7F81434D31A07F53B
:103808008362A2F5836212689A4288D80123184617
:1038180007F58367BD4680BD4C05002080B5ADF532
:10382800866D00AF07F58663A3F22C43186007F591
:103838008663A3F22443184640F206431A46002141
:1038480001F010FC07F10C0107F58663A3F22C4385
:103858004FF47A72186800F05FFA034687F82F343D
:1038680097F82F34002B33D000F0DAFC07F5866385
:10387800A3F224431B78002B00F0CB8197F82F3458
:10388800012B00F0C68197F82F34FF2B00F0C1817F
:1038980007F58663A3F224439B78184600F05EFC84
:1038A8000346002B00F0B58107F58663A3F2244395
:1038B800197807F58663A3F224435A7897F82F34CA
:1038C80007F58660A0F22C40006800F0F5FAA0E148
:1038D80007F58663A3F224431B78013B062B00F20D
:1038E8007F8101A252F823F0C73B00080D39000878
:1038F800833900089F3A0008ED3A0008753B000834
:10390800CF3B000807F58663A3F224439B88032B6B
:103918002AD907F10C030633184600F02FFB03469B
:10392800BF4A5360BE4B00229A60BD4B4FF0FF3236
:10393800DA60BB4B5B68002B06D0B94B5B68B3F50C
:10394800E02F01D8012200E00022B54B1A7000F0E8
:1039580057FCB34B1B78002B09D0B14B5B68194659
:10396800002001F0A5FA02E0AD4B00221A70FFF723
:103978004DFA034687F82F3437E100F041FC07F58C
:103988008663A3F224439B88032B03D8022387F87A
:103998002F3429E107F10C030633184600F0EEFA3C
:1039A800C7F8200407F58663A3F224439B88043BE9
:1039B800C7F81C3407F10C030A33D7F81C2419463E
:1039C800D7F8200400F0E0FB0346002B03D00023C7
:1039D80087F82F340CE007F10C030A33D7F81C24BE
:1039E8001946D7F82004FFF723FA034687F82F343F
:1039F80097F82F34002B40F0F780894B1B78002B69
:103A080000F0F280D7F82034864A934240F2EC80E6
:103A1800D7F82034844A934200F2E680D7F820246D
:103A2800D7F81C34134403F1774303F57F03C7F831
:103A380018347B4B9B68D7F818249A4240F2D480FC
:103A4800774AD7F818349360754B9A68744B5B685B
:103A58009A4209D2724B9B68642203FB02F2704BB4
:103A68005B68B2FBF3F300E06423C7F814346C4BD3
:103A7800DB68D7F814249A4200F0B680684AD7F871
:103A88001434D360664B9B68654A526811461846E1
:103A980001F00EFAA8E000F0B3FB07F58663A3F285
:103AA80024439B88082B03D0022387F82F349CE0FB
:103AB80007F10C030633184600F060FAC7F828042B
:103AC80007F10C030A33184600F058FAC7F8240423
:103AD800D7F82414D7F8280400F0F8FA034687F832
:103AE8002F3482E04E4B1B78002B18D0002387F828
:103AF8002F3407F58663A3F22443197807F5866304
:103B0800A3F224435A7897F82F3407F58660A0F279
:103B18002C40006800F0D0F900F098FB7EE0FFF739
:103B280077FB0346002B01D0002300E0072387F82A
:103B38002F3407F58663A3F22443197807F58663C3
:103B4800A3F224435A7897F82F3407F58660A0F239
:103B58002C40006800F0B0F997F82F34002B5AD1A8
:103B68000A2000F027FAFFF79BFC54E0FFF750FB10
:103B78000346002B01D0002300E0072387F82F34E9
:103B880007F58663A3F22443197807F58663A3F241
:103B980024435A7897F82F3407F58660A0F22C4012
:103BA800006800F089F997F82F34002B35D101F01F
:103BB800A3F940F6B83000F0FDF9FFF7DFFC002369
:103BC80087F82F3411E0194B1B785A1C13461B0138
:103BD8009B1A184600F0EEF9002387F82F3404E00A
:103BE800022387F82F3400E000BF07F58663A3F2AD
:103BF8002443197807F58663A3F224435A7897F883
:103C08002F3407F58660A0F22C40006800F054F9C4
:103C18000DE600BF0BE600BF09E600BF07E600BFE0
:103C280050050020FFFF0008FFFF07084C05002093
:103C380080B584B000AFF860B9607A603B6038E066
:103C4800F868FFF7C4FC0346002B24D0F868FFF798
:103C580009FD03461A46BB681A70BB681A781B4BE5
:103C68001A701A4B9B680133184A9360174B1B8CC8
:103C78009BB21946BB681A78144B0B4483F8222070
:103C8800124B1B8C9BB201339BB2DBB29AB20F4B27
:103C98001A84002316E0F868FFF786FC0346002B19
:103CA80007D0F868FFF7CCFC084BDB690133074AFB
:103CB800D36100F095F902467B68D31A3A689A42B4
:103CC800BED2012318461037BD4680BD280000200B
:103CD80080B586B000AFF860B9603B601346FB80E2
:103CE8000023FB820FE0FB8ABA68D1183B6A3A6866
:103CF800F868FFF79DFF0346002B01D0012307E07A
:103D0800FB8A0133FB82FA8AFB889A42EBD30023B1
:103D180018461837BD4680BD80B58CB002AFF86034
:103D2800B9607A6007F1140300221A60C3F803200F
:103D380000233B6100237B624FF0FF333B6200F0BE
:103D48004FF9F86107F114017B68FA69F868FFF721
:103D58006FFF0346002B04D0012000F0DBFA01239B
:103D6800A5E03B7D552BEDD107F11403591C7B6869
:103D7800FA69F868FFF75CFF0346002B02D17B7DE8
:103D8800AA2B04D0022000F0C5FA02238FE007F125
:103D98001403991C7B680093FB690522F868FFF7F8
:103DA80097FF0346002B04D0012000F0B3FA01234B
:103DB8007DE0BA7DBB681A70FA7DBB685A703A7E9E
:103DC800BB689A707B7E1AB2BB7E1BB21B021BB209
:103DD80013431BB29AB2BB689A80BB689B88B3F541
:103DE800806F04D9022000F095FA02235FE0BB68D7
:103DF8009B88002B11D0BB68991DBB689A887B688B
:103E08000093FB69F868FFF763FF0346002B04D0B3
:103E1800012000F07FFA012349E007F110017B68D7
:103E28000093FB690422F868FFF752FF0346002B52
:103E380004D0012000F06EFA012338E007F11403E2
:103E4800023305221946386AFEF7C0F93862BB68A2
:103E5800991DBB689B881A46386AFEF7B7F938621D
:103E6800386AFEF7E5F9386207F11003184600F0E2
:103E780085F878623A6A7B6A9A4205D00321B86865
:103E880000F00AFA032312E00021B86800F004FAEF
:103E9800BB681B78072B09D0BB689B78184600F0D5
:103EA8005DF90346002B01D1FF2300E000231846EB
:103EB8002837BD4680BD000080B586B000AF786069
:103EC800084611461A460346FB700B46BB7013465C
:103ED8007B7055233B72AA237B72FB7863F07F03C8
:103EE800DBB2BB72BB78FB72234B1B783B7301239D
:103EF8007B730023BB737B78FB7300233B74002325
:103F08007B740023BB740023FB744FF0FF337B6189
:103F180007F108030233062219467869FEF756F9B5
:103F280078617869FEF784F978617B69DBB23B7464
:103F38007B691B0ADBB27B747B691B0CDBB2BB742D
:103F48007B691B0EDBB2FB74012000F061F807F1FE
:103F580008030C221946786800F09AF800BF7868C0
:103F6800FFF748FB0346002BF9D0002000F050F87B
:103F780000BF1837BD4680BD4C05002080B483B013
:103F880000AF78607B681B781A467B6801331B7822
:103F98001B021A437B6802331B781B041A437B6895
:103FA80003331B781B06134318460C37BD465DF8D0
:103FB800047B704780B584B000AF786000F010F8DB
:103FC800F86000BF00F00CF80246FB68D31A7A6864
:103FD8009A42F7D800BF00BF1037BD4680BD000029
:103FE80080B400AF084B1B6803F48033002B04D067
:103FF800064B1B680133054A1360044B1B681846BF
:10400800BD465DF8047B704710E000E064050020C1
:1040180080B582B000AF0346FB71FB79002B04D05A
:1040280001210848FFF73AFB03E001210548FFF7A3
:1040380043FB02210348FFF73FFB00BF0837BD469B
:1040480080BD00BF0000024080B500AF01210448D8
:10405800FFF732FB02210248FFF72EFB00BF80BDAD
:104068000000024080B582B000AF78600B46FB705C
:1040780000BF7868FFF7D1FA0346002BF9D0FB7828
:1040880019467868FFF7FBFA00BF0837BD4680BDC0
:1040980080B586B000AFF860B9601346FB80002396
:1040A800FB820AE0FB8ABA6813441B781946F86851
:1040B800FFF7D8FFFB8A0133FB82FA8AFB889A4212
:1040C800F0D300BF00BF1837BD4680BD80B586B0AD
:1040D80000AF786039604FF0FF337B6100233B61AC
:1040E8007B68002B03D07B68B3F5E02F19D9052333
:1040F80030E07A683B69D31AB3F5806F28BF4FF474
:104108008063FB603B6903F1006303F58033FA6861
:1041180019467869FEF75AF878613A69FB681344DA
:104128003B613A697B689A42E3D37869FEF780F885
:1041380078617A693B689A4201D006230AE0FFF762
:1041480067F80346002B01D1072303E07868FEF7E0
:104158009DFE034618461837BD4680BD80B483B01F
:1041680000AF0346FB71074B1B78FA799A4201D1DD
:10417800012300E0002318460C37BD465DF8047B98
:10418800704700BF4C05002080B586B000AFF860CE
:10419800B9607A60174B1B78002B0AD07B68002B1C
:1041A80007D0FB68144A934203D9FB68134A934229
:1041B80001D900231AE0FA687B68134403F17743B6
:1041C80003F57F037B610B4B9B687A699A4201D99F
:1041D80000230BE0FB687A68B968184600F032FFE4
:1041E8000346002B01D1012300E0002318461837AD
:1041F800BD4680BD50050020FFFF0008FFFF0708EF
:1042080080B500AF054B1B78002B04D0FFF7E8FE04
:104218000346024A136100BF80BD00BF500500205D
:1042280080B500AF084B1B78002B0BD0FFF7D8FEEA
:104238000246054B1B69D31A42F21072934201D908
:1042480000F004F800BF80BD5005002080B500AF25
:10425800104B00221A70FEF7F3FF0346002B10D014
:10426800FFF706F803461846FEF758FE0346002BEC
:1042780007D100F077FE40F6B830FFF79BFEFFF756
:104288007DF900F08BFE40F6B830FFF793FEFFF79C
:1042980075F900BF5005002080B584B000AF786084
:1042A8000B46FB707B681A78194B5A707B685A78F2
:1042B800174B9A707B689A78154BDA707B689A88E6
:1042C800134BDA80FB78184600F024F8FB78002BB3
:1042D80004D10F4BDB6801330D4AD3600023FB8107
:1042E8000CE0FA89FB8979680A449179084A1344F1
:1042F8000A4683F82221FB890133FB817B689B886E
:10430800FA899A42EDD300BF00BF1037BD4680BD81
:104318002800002080B483B000AF0346FB71114A27
:10432800FB791371FB79012B05D10E4B1B69013306
:104338000C4A136110E0FB79022B05D1094B5B692C
:104348000133084A536107E0FB79032B04D1054B7D
:104358009B690133034A936100BF0C37BD465DF882
:10436800047B70472800002080B483B000AF7860D9
:104378007B689B6803F00103012B01D1012300E056
:10438800002318460C37BD465DF8047B704780B49F
:1043980083B000AF78607B689B6803F00203022B50
:1043A80001D1012300E0002318460C37BD465DF813
:1043B800047B704780B483B000AF78607B689B68EB
:1043C80003F08003802B01D1012300E0002318466D
:1043D8000C37BD465DF8047B704780B483B000AFEE
:1043E80078607B680C331B78DBB218460C37BD4607
:1043F8005DF8047B704780B485B000AF78600B46E9
:10440800FB707B680C33FB60FB68FA781A7000BF9E
:104418001437BD465DF8047B704780B483B000AFA5
:10442800786039607B683A689A6100BF0C37BD468E
:104438005DF8047B704780B483B000AF7860396062
:104448003B681A047B689A6100BF0C37BD465DF86B
:10445800047B704780B582B000AF0346FB7102E071
:104468001448FFF7BAFF1348FFF77EFF0346002BF7
:10447800F6D100BF0F48FFF78AFF0346002BF9D09B
:10448800FB7919460B48FFF7B6FF00BF0948FFF74D
:1044980091FF0346002BF9D10648FFF765FF034655
:1044A800002B02D00348FFF798FF00BF0837BD462E
:1044B80080BD00BF003C004080B582B000AF03461D
:1044C800FB714FF400410948FFF7B5FF0121084887
:1044D800FFF7B1FFFB791846FFF7BCFF012104483D
:1044E800FFF79BFF00BF0837BD4680BD00000240B4
:1044F800000C024080B582B000AF0346FB714FF458
:1045080000410948FFF789FF01210848FFF793FF99
:10451800FB791846FFF79EFF01210448FFF77DFF4E
:1045280000BF0837BD4680BD00000240000C0240B5
:1045380080B483B000AF0346FB71FB795B00DBB24C
:1045480023F05503DAB2FB795B08DBB203F05503BD
:10455800DBB21343FB71FB799B00DBB223F033031F
:10456800DAB2FB799B08DBB203F03303DBB2134307
:10457800FB71FB791A01DBB21B091343FB71FB7951
:1045880018460C37BD465DF8047B704780B483B08D
:1045980000AF0346FB71FB792E3B472B00F2EE8000
:1045A80001A252F823F000BF5147000885470008D0
:1045B800294700082D4700083147000835470008FB
:1045C800394700083D4700084147000845470008AB
:1045D800494700084D4700088547000885470008F7
:1045E8008547000885470008854700088547000873
:1045F80085470008D1460008D5460008D946000876
:10460800DD460008E1460008E5460008E9460008DE
:1046180085470008ED46000885470008F146000870
:10462800F5460008F9460008FD460008014700085D
:104638000547000885470008094700080D47000896
:104648001147000815470008194700081D470008CA
:1046580021470008254700088547000885470008C6
:1046680085470008854700088547000885470008F2
:104678008547000855470008854700088547000812
:10468800594700085D47000885470008614700084A
:1046980085470008654700088547000885470008E2
:1046A800694700086D47000871470008754700080A
:1046B80079470008854700088547000885470008AE
:1046C8007D47000881470008304B58E0304B56E0E2
:1046D800304B54E0304B52E0304B50E0304B4EE022
:1046E800304B4CE0304B4AE0304B48E0304B46E032
:1046F800304B44E0304B42E0304B40E0304B3EE042
:10470800304B3CE0304B3AE0304B38E0304B36E051
:10471800304B34E0304B32E0304B30E0304B2EE061
:10472800304B2CE0304B2AE0304B28E0304B26E071
:10473800304B24E0304B22E0304B20E0304B1EE081
:10474800304B1CE0304B1AE0304B18E0304B16E091
:10475800304B14E0304B12E0304B10E0304B0EE0A1
:10476800304B0CE0304B0AE0304B08E0304B06E0B1
:10477800304B04E0304B02E0304B00E0304B184641
:104788000C37BD465DF8047B704700BF40510008F8
:10479800485100085051000858510008605100085D
:1047A80068510008705100087851000880510008CD
:1047B800885100089051000898510008A05100083D
:1047C800A8510008B0510008B8510008C0510008AD
:1047D800C8510008D0510008D8510008E05100081D
:1047E800E8510008F0510008F8510008005200088C
:1047F80008520008105200081852000820520008F9
:104808002852000830520008385200084052000868
:1048180048520008505200085852000860520008D8
:104828006852000870520008785200088052000848
:10483800885200089052000898520008A0520008B8
:10484800A852000880B483B000AF0023FB8006E0C4
:10485800FB88084A0021D154FB880133FB80FB8880
:10486800B3F5806FF4D300BF00BF0C37BD465DF8C9
:10487800047B70476805002080B485B000AF03460C
:104888000A46FB711346BB7197F90730002B1CDBF6
:10489800BB793F2B19D8FB79DB08DBB21A46BB7909
:1048A8009BB21B019BB21344FB81FB890A4AD15C72
:1048B800FB7903F00703802222FA03F3DAB2FB89BB
:1048C8000A43D1B2044AD15400E000BF1437BD46B0
:1048D8005DF8047B704700BF6805002080B485B090
:1048E80000AF03460A46FB711346BB7197F90730C0
:1048F800002B02DBBB793F2B01D900231AE0FB799F
:10490800DB08DBB21A46BB799BB21B019BB213448E
:10491800FB81FB890A4AD25CFB7903F007038021FB
:1049280021FA03F3DBB21340DBB2002B01D00123E1
:1049380000E0002318461437BD465DF8047B704735
:104948006805002080B584B000AF0346FB710B46B4
:10495800BB7113467B717B791846FFF717FEB86069
:104968000023FB733EE00023BB7335E0FB7BBA6892
:1049780013441B781A46BB7B22FA03F303F00103A6
:10498800002B26D000237B7320E000233B7317E025
:10499800FB7B5B00DAB2FB791344DAB27B7B13440E
:1049A800D8B2BB7B5B00DAB2BB791344DAB23B7B8B
:1049B8001344DBB21946FFF75FFF3B7B01333B73C0
:1049C8003B7B012BE4D97B7B01337B737B7B012B06
:1049D800DBD9BB7B0133BB73BB7B062BC6D9FB7B07
:1049E8000133FB73FB7B042BBDD900BF00BF10371D
:1049F800BD4680BD80B584B000AF0346FB710B4651
:104A0800BB7113467B717B791846FFF7BFFDB86011
:104A18000023FB7322E00023BB7319E0FB7BBA6819
:104A280013441B781A46BB7B22FA03F303F00103F5
:104A3800002B0AD0FA79FB7B1344D8B2BA79BB7B36
:104A48001344DBB21946FFF717FFBB7B0133BB7377
:104A5800BB7B062BE2D9FB7B0133FB73FB7B042B6F
:104A6800D9D900BF00BF1037BD4680BD80B582B020
:104A780000AF03463A60FB710B46BB710BE03B6825
:104A88005A1C3A601A78B979FB791846FFF75AFF29
:104A9800FB790C33FB713B681B78002BEFD100BF0F
:104AA80000BF0837BD4680BD80B582B000AF034661
:104AB8003A60FB710B46BB710BE03B685A1C3A60CD
:104AC8001A78B979FB791846FFF794FFFB79063312
:104AD800FB713B681B78002BEFD100BF00BF083784
:104AE800BD4680BD80B500AF054A37214A20FFF793
:104AF800DBFF044A37215C20FFF7D6FF00BF80BDEB
:104B0800DC500008E050000880B485B000AF786041
:104B180039606423FB600023FB720023BB7228E02A
:104B28007A68FB68B2FBF3F37B727B7A002B05D1C2
:104B3800BB7A002B02D1FB68012B0BD1FB7A5A1CE4
:104B4800FA721A463B6813447A7A3032D2B21A7033
:104B58000123BB727B68FA68B3FBF2F2F96801FBC8
:104B680002F29B1A7B60FB68094AA2FB0323DB085D
:104B7800FB60FB68002BD3D1FB7A3A681344002210
:104B88001A7000BF1437BD465DF8047B704700BF3C
:104B9800CDCCCCCC80B582B000AF0023FB7152E005
:104BA800FB79C3F13F03FB70B020FFF785FCFB786E
:104BB80003F00F03DBB21846FFF77EFCFB781B09F6
:104BC800DBB21033DBB21846FFF776FC0023BB716B
:104BD80033E000237B7100233B7120E0BB79DB00CD
:104BE800DAB23B791344DBB2C3F17F03BB70FB79C4
:104BF800C3F13F037B707A78BB7811461846FFF7FC
:104C08006DFE0346002B07D03B79802222FA03F37E
:104C1800DAB27B7913437B713B7901333B713B7982
:104C2800072BDBD97B791846FFF782FC0346184629
:104C3800FFF760FCBB790133BB71BB790F2BC8D977
:104C4800FB790133FB71FB793F2BA9D900BF00BF6A
:104C58000837BD4680BD000080B500AF4FF48051D5
:104C68003448FFF7DAFB0220FBF7D6FF4FF48051F8
:104C78003048FFF7E0FB0A20FBF7CEFF4FF48051E6
:104C88002C48FFF7CAFB0A20FBF7C6FFAE20FFF748
:104C980013FC0020FFF710FC1020FFF70DFCB020DC
:104CA800FFF70AFCDC20FFF707FC0020FFF704FCF5
:104CB8008120FFF701FC6F20FFF7FEFB2120FFF7A3
:104CC800FBFBA020FFF7F8FBC020FFF7F5FBA420B3
:104CD800FFF7F2FBA620FFF7EFFBA820FFF7ECFB9E
:104CE8003F20FFF7E9FBD320FFF7E6FB6020FFF743
:104CF800E3FBD520FFF7E0FB4120FFF7DDFBD920E0
:104D0800FFF7DAFB2220FFF7D7FBDB20FFF7D4FB06
:104D18003520FFF7D1FBAD20FFF7CEFB8A20FFF748
:104D2800CBFBFFF78FFDFFF735FFAF20FFF7C4FB85
:104D380000BF80BD0000024080B500AFFFF782FDD4
:104D4800FFF728FFFFF77EFD074A12211B20FFF718
:104D58008DFE064A24212120FFF788FEFFF7C2FEB8
:104D6800FFF718FF00BF80BDE8500008F0500008AA
:104D780080B588B000AFF8607A603B600B46FB7284
:104D880000233B610023FB613B68002B0DD07A6850
:104D98003B689A4207D27B68642203FB02F23B68B5
:104DA800B2FBF3F300E06423FB61FA6913465B008E
:104DB80013445B011A463B4BA3FB02235B09FB75BB
:104DC800FFF740FDFB7AFA6808211846FFF74EFE08
:104DD800354A1A211020FFF749FE07F1100319463A
:104DE800F869FFF791FE07F110031A462E213420C7
:104DF800FFF75AFEFB69632B06D8FB69092B01D91B
:104E0800402302E03A2300E04623284A2E21184690
:104E1800FFF74AFE1023FB760CE0FB7E3A2118468A
:104E2800FFF72AFDFB7E3F211846FFF725FDFB7E95
:104E38000133FB76FB7E6F2BEFD93A23BB760CE070
:104E4800BB7E19461020FFF717FDBB7E19466F2061
:104E5800FFF712FDBB7E0133BB76BB7E3F2BEFD93C
:104E680000237B7613E03B233B760AE07B7E1033FE
:104E7800DBB23A7E11461846FFF7FEFC3B7E013353
:104E88003B763B7E3E2BF1D97B7E01337B767A7E67
:104E9800FB7D9A42E7D3FFF77DFE00BF2037BD4672
:104EA80080BD00BF1F85EB51F0500008F850000886
:104EB80080B582B000AF786039603B687A6822219B
:104EC8000348FFF755FF00BF0837BD4680BD00BF48
:104ED800FC50000880B582B000AF786039603B684C
:104EE8007A682E210348FFF743FF00BF0837BD4605
:104EF80080BD00BF0451000880B500AFFFF7A2FCD9
:104F0800FFF748FEFFF79EFC064A12212120FFF713
:104F1800ADFD054A24211520FFF7A8FDFFF73AFE4D
:104F280000BF80BDF05000080851000880B500AFF0
:104F3800FFF788FCFFF72EFEFFF784FC074A1221D3
:104F48002720FFF793FD064A24213320FFF78EFD23
:104F5800FFF7C8FDFFF71EFE00BF80BD0451000823
:104F68001451000880B500AFFFF76CFCFFF712FE84
:104F7800FFF768FC074A0A211020FFF777FD064A69
:104F880020211620FFF772FDFFF7ACFDFFF702FEA8
:104F980000BF80BDFC5000081851000880B500AF64
:104FA800FFF750FCFFF7F6FDFFF74CFC074A12210C
:104FB8001020FFF75BFD064A24212220FFF756FD4B
:104FC800FFF790FDFFF7E6FD00BF80BDFC5000082D
:104FD8002051000880B500AFFFF734FCFFF7DAFD79
:104FE800FFF730FC074A0A212220FFF73FFD064A57
:104FF80020211620FFF73AFDFFF774FDFFF7CAFDE1
:1050080000BF80BD205100081851000880B500AFCE
:10501800FFF718FCFFF7BEFDFFF714FC074A122143
:105028002220FFF723FD064A24212220FFF71EFD38
:10503800FFF758FDFFF7AEFD00BF80BD0451000823
:105048002051000810B501390244904201D10020D6
:1050580005E0037811F8014FA34201D0181B10BDD9
:105068000130F2E702440346934200D1704703F847
:10507800011BF9E770B50D4D0D4C641BA4100026FB
:10508800A64209D10B4D0C4C00F018F8641BA41073
:105098000026A64205D170BD55F8043B9847013655
:1050A800EEE755F8043B98470136F2E700000000A8
:1050B800000000000000000000000000F8B500BF7C
:1050C800F8BC08BC9E467047F8B500BFF8BC08BCE1
:0450D8009E46704739
:1050DC00424C0000312E342E32000000574149540E
:1050EC00494E470055504C4F4144000025000000EC
:1050FC005253343835000000444D5800434F4D5046
:10510C004C455445000000004F4B00004241434BBE
:10511C00555000004641494C0000000000000000C2
:10512C00000000000102030406070809000000004B
:10513C00010203047E1111117E0000007F494949D0
:10514C00360000003E414141220000007F414122D7
:10515C001C0000007F494949410000007F090909F2
:10516C00010000003E4149497A00000000417F41A6
:10517C00000000007F081422410000007F404040E6
:10518C00400000007F020C027F0000007F0408102A
:10519C007F0000003E4141413E0000007F090909AB
:1051AC00060000007F0919294600000046494949BC
:1051BC003100000001017F01010000003F40404030
:1051CC003F0000001F2040201F0000007F201820FF
:1051DC007F000000631408146300000007087008C7
:1051EC00070000003E5149453E00000000427F4050
:1051FC000000000042615149460000002141454B2E
:10520C00310000001814127F10000000274545459E
:10521C00390000003C4A4949300000000171090581
:10522C000300000036494949360000000649492967
:10523C001E00000000606000000000002054545468
:10524C0078000000384444487F000000385454541F
:10525C0018000000085454543C00000000447D40E9
:10526C000000000000417F40000000007C04180496
:10527C00780000007C0804047800000038444444A2
:10528C00380000007C14141408000000043F444053
:10529C00200000003C4040207C000000000000008A
:0452AC0000000000FE
:0852B00008AFFF7F01000000C0
:0452B8000024F400DA
:04000005080021814D
:00000001FF
