:020000040800F2
:1000000000000220812100083D2100084521000850
:100010004D210008552100085D2100080000000066
:10002000000000000000000000000000D1210008D6
:100030006521000800000000D1210008D12100083E
:10004000D1210008D1210008D1210008D1210008C8
:10005000D1210008D1210008D1210008D1210008B8
:10006000D1210008D1210008D1210008D1210008A8
:10007000D1210008D1210008D1210008D121000898
:10008000D1210008D1210008D1210008D121000888
:10009000D1210008D1210008D1210008D121000878
:1000A000D1210008D1210008D1210008D121000868
:1000B000D1210008D1210008D1210008D121000858
:1000C000D1210008D1210008D1210008D121000848
:1000D000D1210008D121000873210008D121000896
:1000E000D1210008D1210008D1210008D121000828
:1000F000D1210008D1210008D1210008D121000818
:10010000D1210008D1210008D1210008D121000807
:10011000D1210008D1210008D1210008D1210008F7
:10012000D1210008D1210008D1210008D1210008E7
:10013000D1210008D1210008D1210008D1210008D7
:10014000D1210008D1210008D1210008D1210008C7
:10015000D1210008D1210008D1210008D1210008B7
:10016000D1210008D1210008D1210008D1210008A7
:10017000D1210008D1210008D12100080000000091
:08018000D1210008D121000883
:1001880053B94AB9002908BF00281CBF4FF0FF31F6
:100198004FF0FF3000F088B9ADF1080C6DE904CEDE
:1001A80000F006F8DDF804E0DDE9022304B070474A
:1001B8002DE9F047089D8E4604468846002B4AD113
:1001C8008A42174662D9B2FA82F64EB1C6F12003C6
:1001D80001FA06F820FA03F3B74043EA0808B440E6
:1001E8004FEA174E1FFA87FCB8FBFEF1230C0EFBF3
:1001F800118843EA084301FB0CF29A4209D9FB181B
:1002080001F1FF3080F0EA809A4240F2E78002393B
:100218003B449A1AA3B2B2FBFEF00EFB102243EA4B
:10022800024300FB0CFC9C4509D9FB1800F1FF3286
:1002380080F0D6809C4540F2D3803B44023840EAA7
:100248000140A3EB0C0300211DB1F3400022C5E9D6
:100258000032BDE8F0878B4205D90DB1C5E9000130
:1002680000210846F5E7B3FA83F1002946D1734522
:1002780002D3824200F20581841A6EEB0302012048
:100288009046002DE5D0C5E90048E2E7002A00F0D5
:100298009080B2FA82F6002E40F0A4808A1A030CED
:1002A8004FEA174E80B2BCB20121B2FBFEFC0EFB36
:1002B8001C2243EA024304FB0CF29A4207D9FB18BA
:1002C8000CF1FF3802D29A4200F2E080C4469B1A31
:1002D800B3FBFEF20EFB123340EA034302FB04F4C5
:1002E8009C4207D9FB1802F1FF3002D29C4200F26F
:1002F800CA8002461B1B42EA0C40A5E7C1F1200652
:100308008B4022FA06F71F430EFA01F420FA06F38F
:100318002EFA06FE4FEA1749234300FA01F81FFA9E
:1003280087FCBEFBF9F01C0C09FB10EE44EA0E44F6
:1003380000FB0CFEA64502FA01F209D93C1900F1AE
:10034800FF3A80F09C80A64540F2998002383C44F0
:10035800A4EB0E041FFA83FEB4FBF9F309FB134464
:100368004EEA044403FB0CFCA44508D93C1903F1EC
:10037800FF3E80F08280A4457FD9023B3C4443EA9B
:100388000040A4EB0C04A0FB02EC64457346E14674
:1003980062D35FD05DB1B8EB030264EB090404FAE1
:1003A80006F622FA01F31E43CC40C5E90064002199
:1003B8004FE7B1FBF2FC010C41EA0E4180B240EA82
:1003C80001423B4638463C46B846BE462026B1FB6D
:1003D800F7F1A2EB080241EA0C4166E7014618E78B
:1003E80010462CE7C6F120022EFA02F3B740B140BE
:1003F80020FA02F24FEA174E0A43B3FBFEF8BCB2EA
:100408000EFB1833110C41EA034108FB04F9B04014
:1004180089454FEA104380B23ED9791808F1FF3C6C
:1004280001D289451FD8A1EB0901B1FBFEF909FBEF
:1004380004F80EFB191192B242EA0142424529D250
:10044800BA1809F1FF31C4D24245C2D2A9F102015A
:100458003A44BEE7F0459DD2BEEB02036CEB070CB5
:100468000138E14696E7A7EB09094944A8F1020CCF
:10047800B1FBFEF909FB04F8DBE773467FE750465A
:1004880066E70846FDE63B44023A33E7ACF1020C66
:100498003B441CE749469CE7A1EB0901C446B1FB74
:1004A800FEF909FB04F8C4E7704700BF80B400AF49
:1004B800064BD3F88830054A43F47003C2F88830F5
:1004C80000BFBD465DF8047B704700BF00ED00E04B
:1004D80080B48BB000AFF860B9607A60FB681A68C6
:1004E800BB687B617B6993FAA3F33B613B69BB61A2
:1004F800BB69002B01D1202303E0BB69B3FA83F366
:10050800DBB25B00032101FA03F3DB431A40BB684B
:100518003B623B6A93FAA3F3FB61FB697B627B6AEC
:10052800002B01D1202303E07B6AB3FA83F3DBB20B
:100538005B00796801FA03F31A43FB681A6000BF8D
:100548002C37BD465DF8047B704780B485B000AF9A
:10055800F860B9607A60FB685A68BB68DB431A4088
:10056800BB68796801FB03F31A43FB685A6000BF54
:100578001437BD465DF8047B704780B48BB000AF7C
:10058800F860B9607A60FB689A68BB687B617B69D0
:1005980093FAA3F33B613B69BB61BB69002B01D1B3
:1005A800202303E0BB69B3FA83F3DBB25B000321CA
:1005B80001FA03F3DB431A40BB683B623B6A93FAD8
:1005C800A3F3FB61FB697B627B6A002B01D12023CB
:1005D80003E07B6AB3FA83F3DBB25B00796801FA64
:1005E80003F31A43FB689A6000BF2C37BD465DF8D9
:1005F800047B704780B48BB000AFF860B9607A6054
:10060800FB68DA68BB687B617B6993FAA3F33B619B
:100618003B69BB61BB69002B01D1202303E0BB69A7
:10062800B3FA83F3DBB25B00032101FA03F3DB4384
:100638001A40BB683B623B6A93FAA3F3FB61FB6910
:100648007B627B6A002B01D1202303E07B6AB3FA2B
:1006580083F3DBB25B00796801FA03F31A43FB68A2
:10066800DA6000BF2C37BD465DF8047B704780B464
:100678008BB000AFF860B9607A60FB681A6ABB6833
:100688007B617B6993FAA3F33B613B69BB61BB69FF
:10069800002B01D1202303E0BB69B3FA83F3DBB25B
:1006A8009B000F2101FA03F3DB431A40BB683B624E
:1006B8003B6A93FAA3F3FB61FB697B627B6A002BBD
:1006C80001D1202303E07B6AB3FA83F3DBB29B00FA
:1006D800796801FA03F31A43FB681A6200BF2C37E2
:1006E800BD465DF8047B704780B48BB000AFF860FE
:1006F800B9607A60FB685A6ABB681B0A7B617B69D0
:1007080093FAA3F33B613B69BB61BB69002B01D141
:10071800202303E0BB69B3FA83F3DBB29B000F210C
:1007280001FA03F3DB431A40BB681B0A3B623B6ACE
:1007380093FAA3F3FB61FB697B627B6A002B01D10F
:10074800202303E07B6AB3FA83F3DBB29B0079686A
:1007580001FA03F31A43FB685A6200BF2C37BD46FF
:100768005DF8047B704780B58AB000AF7860396067
:1007780000237B6200233B623B681B68BB61BB694B
:1007880093FAA3F37B617B69FB61FB69002B01D1C1
:10079800202303E0FB69B3FA83F3DBB27B6257E003
:1007A8003B681A6801217B6A01FA03F313403B6234
:1007B8003B6A002B49D03B685B68012B03D03B6840
:1007C8005B68022B0DD13B689B681A46396A7868CA
:1007D800FFF7D3FE3B68DB681A46396A7868FFF78B
:1007E800B4FE3B681B691A46396A7868FFF702FF4E
:1007F8003B685B68022B21D13B6AFB60FB6893FA7C
:10080800A3F3BB60BB683B613B69002B01D120238C
:1008180003E03B69B3FA83F3DBB2072B07D83B68E5
:100828005B691A46396A7868FFF721FF06E03B687A
:100838005B691A46396A7868FFF756FF3B685B6858
:100848001A46396A7868FFF743FE7B6A01337B6290
:100858003B681A687B6A22FA03F3002BA0D10023B5
:1008680018462837BD4680BD80B483B000AF786095
:100878007B681B6803F04003402B01D1012300E093
:10088800002318460C37BD465DF8047B704780B4DA
:1008980083B000AF786039603B689BB21A467B68CA
:1008A8001A6100BF0C37BD465DF8047B704780B500
:1008B80084B000AF786039600123FB737868FFF774
:1008C800D3FF0346002B39D17B681B6823F47F4391
:1008D80023F0BF033A6811683A68526811433A68CE
:1008E800926811433A68D26811433A681269114311
:1008F8003A68526911433A68926911433A68D26971
:1009080011433A68126A0A431A437B681A607B6883
:100918005B6823F004023B685B691B0C1A437B6825
:100928005A603B681B6AB3F5005F05D13B685B6A98
:1009380019467868FFF7ABFF0023FB737B68DB6918
:1009480023F400627B68DA61FB7B18461037BD46EA
:1009580080BD000080B400AF044B9B6803F00C031B
:100968001846BD465DF8047B704700BF003802405A
:1009780080B400AF044B9B6803F0F0031846BD46F3
:100988005DF8047B704700BF0038024080B400AFB8
:10099800044B9B6803F4E0531846BD465DF8047B9E
:1009A800704700BF0038024080B400AF044B9B681A
:1009B80003F460431846BD465DF8047B704700BFEA
:1009C8000038024080B400AF044B5B6803F4800336
:1009D8001846BD465DF8047B704700BF00380240EA
:1009E80080B400AF044B5B689B09C3F30803184647
:1009F800BD465DF8047B70470038024080B400AF04
:100A0800044B5B6803F440331846BD465DF8047B2D
:100A1800704700BF0038024080B400AF044B5B68E9
:100A280003F03F031846BD465DF8047B704700BFDE
:100A38000038024080B582B000AF786000F020F83E
:100A480002467B681A607B681B68184600F040F80D
:100A580002467B685A607B685B68184600F04EF86F
:100A680002467B689A607B685B68184600F05AF813
:100A780002467B68DA6000BF0837BD4680BD0000CB
:100A880080B582B000AF00237B60FFF763FF0346A9
:100A9800082B0CD0082B0FD8002B02D0042B03D026
:100AA8000AE0094B7B600AE0084B7B6007E00820FE
:100AB80000F04CF8786002E0034B7B6000BF7B6875
:100AC80018460837BD4680BD0024F40000127A009D
:100AD80080B582B000AF7860FFF74AFF03461B0974
:100AE80003F00F03044AD35C1A467B68D3401846C8
:100AF8000837BD4680BD00BF5C4D000880B582B098
:100B080000AF7860FFF742FF03469B0A044AD35CB4
:100B18001A467B68D34018460837BD4680BD00BFDB
:100B28006C4D000880B582B000AF7860FFF73CFFDD
:100B380003465B0B044AD35C1A467B68D3401846CD
:100B48000837BD4680BD00BF6C4D000890B587B022
:100B580000AF786000237B610023FB6000233B61CA
:100B6800FFF730FFF860FB68002B04D0FB68B3F593
:100B7800800F03D005E0124B7B6105E0114B7B61D0
:100B880002E00F4B7B6100BF7B68082B13D1FFF796
:100B980043FF02467B69B3FBF2F4FFF721FF0346EC
:100BA80003FB04F4FFF72AFF03461B0C01335B0029
:100BB800B4FBF3F33B613B6918461C37BD4690BD57
:100BC8000024F40000127A0080B483B000AF78608B
:100BD80039607A683B68B2FBF3F3074A013B53601C
:100BE800054B00229A60044B05221A6000BF0C379F
:100BF800BD465DF8047B704710E000E080B582B028
:100C080000AF78604FF47A717868FFF7DDFF00BFB6
:100C18000837BD4680BD000080B485B000AF78605D
:100C28000F4B1B68FB60FB687B68B3F1FF3F0CD080
:100C38007B6801337B6008E0094B1B6803F4803351
:100C4800002B02D07B68013B7B607B68002BF3D1D3
:100C580000BF00BF1437BD465DF8047B704700BF76
:100C680010E000E080B483B000AF7860044A7B688D
:100C7800136000BF0C37BD465DF8047B704700BFAA
:100C88000000002080B483B000AF78607B68DB6828
:100C980003F40053B3F5005F0CBF01230023DBB25C
:100CA80018460C37BD465DF8047B704780B483B0A6
:100CB80000AF786039607B681B6923F440523B6859
:100CC8001A437B681A6100BF0C37BD465DF8047B88
:100CD800704780B483B000AF786039607B685B6927
:100CE80023F440723B681A437B685A6100BF0C3793
:100CF800BD465DF8047B70472DE9B04FC0B000AF2A
:100D0800C7F8FC00C7F8F810C7F8F420C7F8F030A7
:100D1800D7F8F430B3F5004F40F00C81D7F8F8302D
:100D28000022C7F8E830C7F8EC20D7E93A45224650
:100D38002B46911839665B417B66D7E91823214613
:100D480012EB0108294643EB01094FF000024FF06E
:100D580000034FEAC90343EA58734FEAC8029046B2
:100D68009946234618EB0303C7F8E0302B4649EBB6
:100D78000303C7F8E430D7F8F03000229A469346C8
:100D88001AEB0A03BB654BEB0B03FB65D7E916238C
:100D9800D7E93801FFF7F4F902460B46644BA3FB89
:100DA80002235B099BB21B019CB2D7F8F8300022E2
:100DB800C7F8D830C7F8DC20D7E9368942464B4611
:100DC800911839655B417B65D7E914234146511871
:100DD800B96449464B41FB644FF000024FF00003F1
:100DE800D7E912AB5946CB00514643EA51735146F5
:100DF800CA0010461946034642469B18C7F8D03029
:100E08004B460A4642EB0303C7F8D430D7F8F03014
:100E18000022C7F8C830C7F8CC20D7E932120B46F1
:100E2800DB183B64134642EB03037B64D7E91023CA
:100E3800D7E93401FFF7A4F902460B4611463C4BAB
:100E4800A3FB01235B09642202FB03F3CB1ADB003B
:100E580003F13202364BA3FB02235B099BB25B0012
:100E68009BB203F4F8739BB223449CB2D7F8F830D2
:100E78000022C7F8C030C7F8C420D7E930894246F5
:100E88004B469118B9635B41FB63D7E90E23414692
:100E98005118396349464B417B634FF000024FF0CC
:100EA8000003D7E90CAB5946CB00514643EA5173CE
:100EB8005146CA0010461946034642469B18C7F8D1
:100EC800B8304B460A4642EB0303C7F8BC30D7F8A4
:100ED800F0300022C7F8B030C7F8B420D7E92C1298
:100EE8000B46DB18BB62134642EB0303FB62D7E9F0
:100EF8000A23D7E92E01FFF743F902460B460C4BAC
:100F0800A3FB02135B09642101FB03F3D31ADB0083
:100F18003233074AA2FB03235B099BB203F00703A2
:100F28009BB223449BB21A46D7F8FC309A6008E17A
:100F38001F85EB51D7F8F8300022C7F8A830C7F85A
:100F4800AC20D7E92A8942464B46911839625B4161
:100F58007B62D7E9082341465418494643EB01050B
:100F68004FF000024FF00003EB0043EA5473E20035
:100F780014461D464346E318C7F8A0304B4645EBD8
:100F88000303C7F8A430D7F8F0300022C7F8983028
:100F9800C7F89C204FF000024FF00003D7E9264520
:100FA80029468B00214643EA917321468A00D7E9F6
:100FB8002801FFF7E5F802460B46654BA3FB022321
:100FC8005B099BB21B019CB2D7F8F8300022C7F826
:100FD8009030C7F89420D7E9248942464B469118A7
:100FE800B9615B41FB61D7E9062341465118396174
:100FF80049464B417B614FF000024FF00003D7E9AF
:1010080004AB5946CB00514643EA51735146CA00D6
:1010180010461946034642469B18C7F888304B4687
:101028000A4642EB0303C7F88C30D7F8F0300022A9
:10103800C7F88030C7F884204FF000024FF0000353
:10104800D7E9208949468B00414643EA91734146D6
:101058008A00D7E92201FFF793F802460B461146AA
:101068003B4BA3FB01235B09642202FB03F3CB1A6E
:101078001B013233364AA2FB03235B099BB203F000
:10108800F0039BB223449CB2D7F8F8300022BB6728
:10109800FA67D7E91E8942464B469118B9605B4109
:1010A800FB60D7E9022341465118396049464B4154
:1010B8007B604FF000024FF00003D7E900AB5946C0
:1010C800CB00514643EA51735146CA0010461946AF
:1010D800034642469B183B674B460A4642EB0303CE
:1010E8007B67D7F8F0300022BB66FA664FF0000243
:1010F8004FF00003D7E91A8949468B00414643EA75
:10110800917341468A00D7E91C01FFF739F8024676
:101118000B460F4BA3FB02135B09642101FB03F38E
:10112800D31A1B0132330A4AA2FB03235B099BB281
:1011380003F00F039BB223449BB21A46D7F8FC3046
:101148009A6000BF07F58077BD46BDE8B08F00BF45
:101158001F85EB5180B588B000AF786039600123F6
:10116800FB770023BB617868FFF78CFD0346002BF3
:101178005ED17B68DB6823F4164323F00C033A68DE
:1011880051683A68D26811433A68126911433A685B
:1011980092690A431A437B68DA603B689B68194680
:1011A8007868FFF783FD3B685B6919467868FFF745
:1011B80090FD07F108031846FFF73CFC7B681F4ABF
:1011C800934202D17B69BB6121E07B681C4A934250
:1011D80002D13B69BB611AE07B681A4A934202D18B
:1011E8003B69BB6113E07B68174A934202D17B6974
:1011F800BB610CE07B68154A934202D13B69BB6135
:1012080005E07B68124A934201D13B69BB61BB6927
:10121800002B0DD03B681B68002B09D00023FB77FF
:101228003B689A693B681B68B9697868FFF764FD91
:10123800FB7F18462037BD4680BD00BF0010014027
:10124800004400400048004000140140004C0040A9
:101258000050004080B485B000AF78607B6803F030
:101268000703FB600C4BDB68BB60BA684FF6FF03F3
:101278001340BB60FB681A02BB68134343F0BF63AB
:1012880043F40033BB60044ABB68D36000BF143723
:10129800BD465DF8047B704700ED00E080B400AF08
:1012A800044BDB681B0A03F007031846BD465DF8CC
:1012B800047B704700ED00E080B483B000AF0346C4
:1012C8003960FB7197F90730002B0ADB3B68DAB20B
:1012D8000C4997F907301201D2B20B4483F8002366
:1012E8000AE03B68DAB20849FB7903F00F03043BD4
:1012F8001201D2B20B441A7600BF0C37BD465DF816
:10130800047B704700E100E000ED00E080B489B0A4
:1013180000AFF860B9607A60FB6803F00703FB610F
:10132800FB69C3F10703042B28BF0423BB61FB69D6
:101338000433062B02D9FB69033B00E000237B61E1
:101348004FF0FF32BB6902FA03F3DA43BB681A4075
:101358007B699A404FF0FF317B6901FA03F3D94367
:101368007B680B40134318462437BD465DF8047B61
:101378007047000080B400AF054B1B68044A43F077
:101388000103136000BFBD465DF8047B704700BFD2
:101398000038024080B400AF064B1B6803F002031C
:1013A800022B0CBF01230023DBB21846BD465DF8B3
:1013B800047B70470038024080B483B000AF786087
:1013C800074B1B6823F0F8027B68DB0004491343D2
:1013D8000B6000BF0C37BD465DF8047B704700BF4B
:1013E8000038024080B483B000AF7860064B9B6839
:1013F80023F0030204497B6813438B6000BF0C375A
:10140800BD465DF8047B70470038024080B400AFE9
:10141800044B9B6803F00C031846BD465DF8047B3B
:10142800704700BF0038024080B483B000AF7860D6
:10143800064B9B6823F0F00204497B6813438B60DA
:1014480000BF0C37BD465DF8047B7047003802408A
:1014580080B483B000AF7860064B9B6823F4E052F9
:1014680004497B6813438B6000BF0C37BD465DF8A9
:10147800047B70470038024080B483B000AF7860C6
:10148800064B9B6823F4604204497B6813438B60D6
:1014980000BF0C37BD465DF8047B7047003802403A
:1014A80080B400AF054B1B68044A43F08073136097
:1014B80000BFBD465DF8047B704700BF003802409E
:1014C80080B400AF074B1B6803F00073B3F1007FD3
:1014D8000CBF01230023DBB21846BD465DF8047B30
:1014E800704700BF0038024080B485B000AFF86094
:1014F800B9607A603B600D4B5A680D4B1340F96830
:10150800BA6811437A6892010A43084913434B6049
:10151800064B5B6823F4403204493B6813434B6035
:1015280000BF1437BD465DF8047B704700380240A1
:101538000080BFFF80B485B000AF7860084B1A6C9C
:1015480007497B6813430B64054B1A6C7B6813408F
:10155800FB60FB6800BF1437BD465DF8047B70472D
:101568000038024080B485B000AF7860084B5A6CF0
:1015780007497B6813434B64054B5A6C7B681340DF
:10158800FB60FB6800BF1437BD465DF8047B7047FD
:101598000038024080B483B000AF7860064B1B6807
:1015A80023F0070204497B6813430B6000BF0C3724
:1015B800BD465DF8047B7047003C024080B400AF34
:1015C800044B1B6803F007031846BD465DF8047B0F
:1015D800704700BF003C024080B483B000AF786021
:1015E800064B1B6823F4804204497B6813430B6055
:1015F80000BF0C37BD465DF8047B704700700040A3
:1016080080B400AF074B5B6803F48043B3F5804FA9
:101618000CBF01230023DBB21846BD465DF8047BEE
:10162800704700BF0070004080B483B000AF78609E
:101638007B681B6843F040027B681A6000BF0C3768
:10164800BD465DF8047B704780B483B000AF786016
:101658007B681B6803F00203022B0CBF01230023E5
:10166800DBB218460C37BD465DF8047B704780B482
:1016780083B000AF78607B681B6803F00803082B11
:101688000CBF01230023DBB218460C37BD465DF8BA
:10169800047B704780B483B000AF78607B681B68B8
:1016A80003F02003202B0CBF01230023DBB21846D4
:1016B8000C37BD465DF8047B704780B483B000AF3B
:1016C800786039607B681A693B6813403A689A42C7
:1016D8000CBF01230023DBB218460C37BD465DF86A
:1016E800047B704780B483B000AF786039603B6892
:1016F8001A047B689A6100BF0C37BD465DF8047B0D
:101708007047000080B582B000AF4FF48040FFF70B
:1017180029FF4FF08050FFF70DFF0320FFF79AFDD8
:10172800FFF7BCFD034600220F211846FFF7EEFD28
:10173800034619466FF00100FFF7BEFDFFF7AEFD47
:10174800034600220F211846FFF7E0FD034619461D
:101758004FF0FF30FFF7B0FD00F08CF800F05AF9B9
:1017680000F086FA3B4600221A601A713D48FFF7DE
:101778005BFF00F0CBF83B46184601F003FD7B7891
:10178800184601F083FF7B78184600F0DDFD01F074
:1017980035FD0346FB7100F0F7F80346BB713B7952
:1017A8007B717B79002B01D001F01FFDFB79002BA9
:1017B80017D1BB79002B14D17B79002B11D101F003
:1017C80035FD0346002B0CD001F048FD03461846B2
:1017D80001F09AFB0346002B03D101F00FFD0346ED
:1017E800FB71FB79002B05D0BB79002B02D17B79EB
:1017F800002B2ED000F08EFA1B48FFF715FF03F0E0
:10180800B7F800F037FC02F033FB00F0E1FB03F01F
:101818001FF90A21154801F049FF0346002B02D1A0
:10182800124801F0D5FF1248FFF734FF0346002B9A
:101838000BD10F48FFF708FF0346002B05D10C48D2
:10184800FFF715FF0346002BE3D0094800F08CFD95
:10185800DFE7FB79002B02D001F018FE00BF00BFC4
:10186800FDE700BF00300140003C0040004400405C
:101878000010014080B500AF0520FFF78BFE00BFC8
:10188800FFF79CFE0346052BFAD14FF48040FFF783
:10189800A3FE1020FFF790FDFFF76CFD00BFFFF7D8
:1018A80079FD0346012BFAD10023A8220821002044
:1018B800FFF71AFEFFF7F4FD00BFFFF701FE03462E
:1018C800012BFAD100BFFFF79BFE0346002BFAD08D
:1018D8000020FFF7A9FD4FF4A050FFF7B9FD4FF422
:1018E8000040FFF7C9FD0220FFF77CFD00BFFFF7AE
:1018F8008DFD0346082BFAD10348FFF77FF902480C
:10190800FFF7B0F900BF80BD007A030A80B500AFC9
:1019180020211948FFF7E6FE4FF400411748FFF76A
:10192800E1FE4FF480411548FFF7DCFE40211448E2
:10193800FFF7D8FE80211248FFF7D4FE04210E4895
:10194800FFF7D0FE08210C48FFF7CCFE01210D4817
:10195800FFF7C8FE10210948FFF7C4FE0821074811
:10196800FFF7C0FE04210548FFF7BCFE022103482B
:10197800FFF7B8FE00BF80BD00100240000C024017
:10198800000002400004024080B500AF0221054873
:10199800FFF793FE0346002B01D1012300E000234B
:1019A800184680BD0004024080B485B000AF78605E
:1019B800084B1A6B07497B6813430B63054B1A6B7B
:1019C8007B681340FB60FB6800BF1437BD465DF8B9
:1019D800047B70470038024080B483B000AF786061
:1019E80039607B683A689A6100BF0C37BD465DF87C
:1019F800047B704780B483B000AF786039603B687F
:101A08001A047B689A6100BF0C37BD465DF8047BF9
:101A18007047000080B586B000AF3B4600221A60D0
:101A28005A609A60DA601A615A611020FFF7BCFFA9
:101A38000420FFF7B9FF8020FFF7B6FF0120FFF76A
:101A4800B3FF0220FFF7B0FF0820FFF7ADFF3C21EE
:101A58005448FFF7CFFF49F2C3015348FFF7CAFFC5
:101A680001215248FFF7C6FF4CF21E215048FFF7EC
:101A7800C1FF40F281114E48FFF7AEFF3C233B60A7
:101A880001237B600023BB600023FB6001233B61D3
:101A98003B4619464348FEF766FE4FF400533B6049
:101AA80000237B6002233B613B4619464148FEF711
:101AB8005AFEC3233B6001237B600023BB600023E5
:101AC800FB6000233B613B4619463748FEF74BFE57
:101AD80001233B6001237B600023BB600023FB6084
:101AE80001233B613B4619463048FEF73CFE06237E
:101AF8003B6000237B6001233B613B4619462B4832
:101B0800FEF731FE4FF4C0733B6000237B60012376
:101B18003B613B4619462348FEF725FE4CF29E33AF
:101B28003B6001237B600023BB600023FB60012333
:101B38003B613B4619461E48FEF715FE4FF480539D
:101B48003B6001237B600223BB600023FB60012311
:101B58003B613B4619461448FEF705FE4FF4004327
:101B68003B6001237B600023BB600023FB600123F3
:101B78003B613B4619460C48FEF7F5FD01233B60E7
:101B880001237B600323BB600023FB6001233B61CF
:101B98003B4619460648FEF7E6FD00BF1837BD4626
:101BA80080BD00BF00100240000002400004024057
:101BB800000C02400008024080B485B000AF786095
:101BC800084B1A6B07497B6813430B63054B1A6B69
:101BD8007B681340FB60FB6800BF1437BD465DF8A7
:101BE800047B70470038024080B485B000AF78604D
:101BF800084B1A6C07497B6813430B64054B1A6C36
:101C08007B681340FB60FB6800BF1437BD465DF876
:101C1800047B70470038024080B485B000AF78601C
:101C2800084B5A6C07497B6813434B64054B5A6C45
:101C38007B681340FB60FB6800BF1437BD465DF846
:101C4800047B70470038024080B483B000AF7860EE
:101C580039607B685B6823F010023B681A437B6835
:101C68005A6000BF0C37BD465DF8047B7047000022
:101C780080B590B000AF07F118032822002118465C
:101C880003F00EF83B4600221A605A609A60DA6048
:101C98001A615A614FF48050FFF7BEFF0220FFF728
:101CA8008BFF38233B6002237B600323BB60002348
:101CB800FB6001233B6105237B613B4619461348C2
:101CC800FEF751FD0023BB614FF48273FB610023D3
:101CD8003B6200237B620023BB624FF40073FB620C
:101CE80018233B6300237B630023BB630A23FB6346
:101CF80007F1180319460648FEF7D9FD00210448E4
:101D0800FFF7A2FF00BF4037BD4680BD0004024078
:101D18000030014080B590B000AF07F118032822C9
:101D28000021184602F0BCFF3B4600221A605A60A8
:101D38009A60DA601A615A614FF40040FFF754FF65
:101D48000420FFF739FF4FF4A0533B6002237B6068
:101D58000323BB600023FB6001233B6106237B61F7
:101D68003B4619461C48FEF7FEFC4FF400633B60F7
:101D780002237B600323BB600023FB6000233B61DD
:101D880006237B613B4619461348FEF7ECFC00230B
:101D9800BB614FF48273FB6100233B6202237B62C9
:101DA8000123BB624FF40073FB6208233B630023EB
:101DB8007B630023BB630A23FB6307F118031946FF
:101DC8000648FEF774FD00210448FFF73DFF00BFF9
:101DD8004037BD4680BD00BF00080240003C0040BF
:101DE80080B400AF044BDB681B0A03F007031846F6
:101DF800BD465DF8047B704700ED00E080B483B019
:101E080000AF0346FB7197F90730002B0BDBFB791A
:101E180003F01F02074997F907305B09012000FA10
:101E280002F241F8232000BF0C37BD465DF8047B61
:101E3800704700BF00E100E080B483B000AF034604
:101E48003960FB7197F90730002B0ADB3B68DAB27F
:101E58000C4997F907301201D2B20B4483F80023DA
:101E68000AE03B68DAB20849FB7903F00F03043B48
:101E78001201D2B20B441A7600BF0C37BD465DF88A
:101E8800047B704700E100E000ED00E080B489B019
:101E980000AFF860B9607A60FB6803F00703FB6184
:101EA800FB69C3F10703042B28BF0423BB61FB694B
:101EB8000433062B02D9FB69033B00E000237B6156
:101EC8004FF0FF32BB6902FA03F3DA43BB681A40EA
:101ED8007B699A404FF0FF317B6901FA03F3D943DC
:101EE8007B680B40134318462437BD465DF8047BD6
:101EF8007047000080B485B000AF7860084B1A6B5B
:101F080007497B6813430B63054B1A6B7B681340C7
:101F1800FB60FB6800BF1437BD465DF8047B704763
:101F28000038024080B485B000AF7860084B1A6C66
:101F380007497B6813430B64054B1A6C7B68134095
:101F4800FB60FB6800BF1437BD465DF8047B704733
:101F58000038024080B485B000AF7860084B5A6CF6
:101F680007497B6813434B64054B5A6C7B681340E5
:101F7800FB60FB6800BF1437BD465DF8047B704703
:101F88000038024080B483B000AF78607B68DB68BB
:101F980043F400527B68DA6000BF0C37BD465DF839
:101FA800047B704780B483B000AF78607B681B699E
:101FB80023F490427B681A617B685B6923F02A02EC
:101FC8007B685A6100BF0C37BD465DF8047B7047DB
:101FD80080B58EB000AF07F11C0300221A605A606A
:101FE8009A60DA601A615A619A613B1D00221A6090
:101FF8005A609A60DA601A615A611020FFF7AAFFE6
:102008000120FFF777FF4FF480637B600223BB60FA
:102018000323FB6000233B6101237B610723BB6132
:102028003B1D19461048FEF79EFB104BFB61002331
:102038003B624FF400537B620023BB620423FB62C4
:1020480000233B6300237B6307F11C031946084800
:10205800FFF780F80648FFF7A5FF0548FFF792FF4E
:1020680000BF3837BD4680BD0000024090D0030055
:102078000010014080B58EB000AF07F11C030022AC
:102088001A605A609A60DA601A615A619A613B1D57
:1020980000221A605A609A60DA601A615A614FF435
:1020A8000030FFF73FFF0120FFF724FF0C237B6080
:1020B8000223BB600323FB6000233B6101237B6198
:1020C8000723BB613B1D19461848FEF74CFBFFF779
:1020D80087FE0346002205211846FFF7D7FE034670
:1020E80019462620FFF7A8FE2620FFF787FE4FF4A3
:1020F8006123FB6100233B6200237B620023BB62F8
:102108000C23FB6200233B6300237B6307F11C0362
:1021180019460748FFF71EF80548FFF743FF04482C
:10212800FFF730FF00BF3837BD4680BD00000240D2
:102138000044004080B400AF00BFFDE780B400AFAA
:1021480000BFFDE780B400AF00BFFDE780B400AF7B
:1021580000BFFDE780B400AF00BFFDE780B400AF6B
:1021680000BFBD465DF8047B704780B400AF00BF78
:10217800BD465DF8047B7047DFF834D0FEF796F96A
:102188000C480D490D4A002302E0D458C4500433CA
:10219800C4188C42F9D30A4A0A4C002301E01360A0
:1021A8000432A242FBD302F083FDFFF7ABFA70477B
:1021B800000002200000002004000020EC4E00086F
:1021C8000400002054090020FEE7000080B487B016
:1021D80000AFF860B9607A601CE0BB685A1CBA604E
:1021E8001B781A46FB685340FB600023FB750EE022
:1021F800FB6803F001035B423B61FB685A083969DD
:102208000A4B0B405340FB60FB7D0133FB75FB7DA4
:10221800072BEDD97B685A1E7A60002BDDD1FB684D
:1022280018461C37BD465DF8047B70472083B8ED1F
:1022380080B483B000AF78607B68DB4318460C3706
:10224800BD465DF8047B704780B400AFBFF34F8F85
:1022580000BF064BDB6803F4E0620449044B1343F8
:10226800CB60BFF34F8F00BF00BFFDE700ED00E07C
:102278000400FA0580B483B000AF78607B681B68FF
:1022880003F00203022B0CBF01230023DBB2184624
:102298000C37BD465DF8047B704780B483B000AF4F
:1022A80078607B681B6803F00803082B0CBF0123C8
:1022B8000023DBB218460C37BD465DF8047B704737
:1022C80080B483B000AF78607B681B6803F020039C
:1022D800202B0CBF01230023DBB218460C37BD4668
:1022E8005DF8047B704780B485B000AF78607B6888
:1022F8001B68FB60FB687B685B68FB60FB6800BF72
:102308001437BD465DF8047B704780B485B000AFD4
:1023180078607B681B68FB60FB687B685B68FB60B8
:10232800FB6800BF1437BD465DF8047B704780B476
:1023380083B000AF78607B685B68DBB218460C3707
:10234800BD465DF8047B704780B483B000AF034698
:10235800FB71044AFB79137000BF0C37BD465DF86A
:10236800047B70470400002080B5F6B000AF07F585
:10237800EC73A3F5EA73186007F5EC73A3F5E6733D
:1023880018464FF4E5731A46002102F089FC07F15C
:102398000C0207F5EC73A3F5EA731146186800F010
:1023A800AAF90346002B03D000F084FB00234AE07F
:1023B80007F5EC73A3F5E6739B78184600F04DFB20
:1023C8000346002B01D100233DE007F5EC73A3F58C
:1023D800E673DB78FB2B08D007F5EC73A3F5E673FF
:1023E800DB78FC2B01D000232DE007F5EC73A3F577
:1023F800E6731B78313B032B22D801A252F823F055
:102408001924000825240008312400083D24000868
:1024180007F10C03184600F01DF812E007F10C0351
:10242800184600F081F80CE007F10C03184600F09C
:1024380001F906E007F10C03184600F049F900E03D
:1024480000BF034B5B78184607F5EC77BD4680BDA7
:102458000800002080B586B000AF78607B689B8854
:102468000C2B59D17B680633184600F0A5FA786121
:102478007B680A33184600F09FFA38617B680E3390
:10248800184600F099FAF8607B69002B46D07B6902
:10249800B3F5E02F42D8234B1B78002B12D0214BE9
:1024A8005B687A699A420DD11E4B9B683A699A42D9
:1024B80008D11C4BDB68FA689A4203D1194B0122F8
:1024C8005A702CE000F098FC0346002B27D1154BDE
:1024D80001221A70134B01225A70124B00229A7073
:1024E800104A7B6953600F4A3B6993600D4AFB6849
:1024F800D3600C4B00221A6100F07AFA0346094AAD
:102508005361084B4FF0FF329A61064B5B681946DE
:10251800002002F0B9FA02E000BF00E000BF18375F
:10252800BD4680BD0800002080B586B000AF786049
:102538003F4B1B78002B77D07B689B88032B73D984
:102548003B4B9B78002B6FD17B680633184600F015
:1025580033FA78617B689B88043B3B617A693B6905
:102568001A44334B5B689A4205D87A693B6913442D
:102578007A699A4203D92E4B01229A7055E02C4B66
:102588001B697A699A4205D200F032FA0346284A52
:1025980053614AE0264B1B697A699A4203D0244B5F
:1025A80001229A7041E07B6903F1006303F58033EF
:1025B8007A6802F10A013A69184600F02FFC0346CE
:1025C800002B03D01A4B01229A702EE0184B1A697F
:1025D8003B691344164A136100F00AFA0346144A89
:1025E8005361134B1A69124B5B689A4209D2104B1C
:1025F8001B69642203FB02F20D4B5B68B2FBF3F329
:1026080000E06423FB600A4B9B69FA689A420CD08D
:10261800074AFB689361064B1B69054A52681146D5
:10262800184602F031FA00E000BF1837BD4680BDF9
:102638000800002080B584B000AF7860234B1B7879
:10264800002B3DD07B689B88082B39D17B680633EB
:10265800184600F0B1F9F8607B680A33184600F0B4
:10266800ABF9B860194B5B68FA689A422AD1174BE4
:102678009B68BA689A4225D1144B9B78002B1CD1D1
:10268800124B1A69114B5B689A4216D1B968F868FF
:1026980000F026FA0346002B0FD1F86800F0ECFB97
:1026A8000346002B04D102F0A7FA00F0CEF90AE0A5
:1026B80002F0DAFA00F0C9F905E000F0DBF902E00F
:1026C80000BF00E000BF1037BD4680BD08000020F5
:1026D80080B582B000AF78607B689B88002B06D1FC
:1026E80000F08CFD0346002B02D0FFF7ADFD00BFC4
:1026F8000837BD4680BD80B58AB002AF78603960C2
:1027080007F10C0300221A601A710023BB604FF016
:10271800FF33FB6100F06CF9B8613B68D91C5023AA
:10272800BA69786800F0B2F80346002B01D001239B
:1027380075E05022B969786800F075F80346002BF7
:1027480001D002236BE007F10C0150230093BB6911
:102758000522786800F00CF90346002B01D001230C
:102768005DE03A7B3B681A707A7B3B685A70BA7BAB
:102778003B689A70FB7B1AB23B7C1BB21B021BB2F4
:1027880013431BB29AB23B689A803B689B88B3F5A7
:10279800E27F01D9022342E03B689B88002B0ED0E0
:1027A8003B68991D3B689A8850230093BB697868F9
:1027B80000F0DEF80346002B01D001232FE007F1DB
:1027C800080150230093BB690422786800F0D0F810
:1027D8000346002B01D0012321E007F10C03052259
:1027E8001946F869FFF7F2FCF8613B68991D3B68E8
:1027F8009B881A46F869FFF7E9FCF861F869FFF762
:1028080017FDF86107F10803184600F0D5F878615C
:10281800FA697B699A4201D1002300E00323184634
:102828002037BD4680BD80B586B000AFF860B9607E
:102838007A601EE007F117017B68BA68F86800F053
:1028480061F80346002B01D001231BE0FB7D552BCB
:102858000ED107F117017B68BA68F86800F052F8E2
:102868000346002B05D1FB7DAA2B02D1002309E0EA
:1028780000BF00F0BDF80246BB68D31A7A689A42D6
:10288800D8D2012318461837BD4680BD80B586B01A
:1028980000AFF860B9607A603B6026E0F868FFF73F
:1028A800E9FC0346002B03D0F868FFF71CFD1CE089
:1028B800F868FFF7F2FC0346002B03D0F868FFF72F
:1028C80024FD12E0F868FFF7FBFC0346002B0CD050
:1028D800F868FFF72CFD0346FB75FB7DF92B04D93F
:1028E800BB68FA7D1A70002308E000F081F8024600
:1028F8007B68D31A3A689A42D0D20123184618370F
:10290800BD4680BD80B584B000AFF860B9607A601C
:102918003B6020E0F868FFF7D3FC0346002B08D0A3
:10292800F868FFF704FD03461A46BB681A700023CF
:102938001AE0F868FFF7B1FC0346002B02D0F868EC
:10294800FFF7E3FCF868FFF795FC0346002B02D07D
:10295800F868FFF7C8FC00F04BF802467B68D31A0A
:102968003A689A42D6D2012318461037BD4680BD30
:1029780080B586B000AFF860B9603B601346FB8055
:102988000023FB820FE0FB8ABA68D1183B6A3A68D9
:10299800F868FFF7B7FF0346002B01D0012307E0D3
:1029A800FB8A0133FB82FA8AFB889A42EBD3002325
:1029B80018461837BD4680BD80B483B000AF786034
:1029C8007B681B781A467B6801331B781B021A4305
:1029D8007B6802331B781B041A437B6803331B781C
:1029E8001B06134318460C37BD465DF8047B704739
:1029F80080B400AF084B1B6803F48033002B04D06D
:102A0800064B1B680133054A1360044B1B681846C4
:102A1800BD465DF8047B704710E000E0240000200C
:102A280080B584B000AF7860FFF7E2FFF86000BFC0
:102A3800FFF7DEFF0246FB68D31A7A689A42F7D896
:102A480000BF00BF1037BD4680BD80B500AF40F65F
:102A5800B830FFF7E5FFFFF7F7FB80B483B000AFAE
:102A68000346FB71012318460C37BD465DF8047B0D
:102A78007047000080B500AF0D4B00221A7000F0BF
:102A8800D5FB0346002B0DD000F0E8FB03461846A3
:102A980000F03AFA0346002B04D102F0C9F8FFF718
:102AA800D4FF03E002F0E0F8FFF7CFFF80BD00BFDE
:102AB8000800002080B500AF084B1B78002B0BD016
:102AC800FFF796FF0246054B5B69D31A42F2107274
:102AD800934201D9FFF7CEFF00BF80BD0800002058
:102AE80080B586B000AF786039604FF0FF337B6106
:102AF80000233B617B68002B03D07B68B3F5E02F94
:102B080019D905232DE07A683B69D31AB3F5806F8C
:102B180028BF4FF48063FB603B6903F1006303F552
:102B28008033FA6819467869FFF750FB78613A698B
:102B3800FB6813443B613A697B689A42E3D378693E
:102B4800FFF776FB78617A693B689A4201D00623E1
:102B580007E000F053FB0346002B01D0002300E000
:102B6800072318461837BD4680BD000080B400AF63
:102B780000BF064BDB6803F48033002BF9D100BF9C
:102B880000BFBD465DF8047B704700BF003C0240B3
:102B980080B400AF074B1B69002B05DA054B064ACA
:102BA8005A60044B054A5A6000BFBD465DF8047B75
:102BB800704700BF003C024023016745AB89EFCD59
:102BC80080B400AF054B1B69044A43F0004313610E
:102BD80000BFBD465DF8047B704700BF003C024063
:102BE80080B400AF034BF322DA6000BFBD465DF846
:102BF800047B7047003C024080B485B000AFF860A9
:102C0800B9607A603B60BB68002B01D1002314E0F7
:102C1800FA687B689A4201D200230EE0FA68BB6822
:102C280013443A689A4205D3FA68BB681344FA68B1
:102C38009A4201D9002300E0012318461437BD4603
:102C48005DF8047B7047000080B584B000AF786001
:102C58003960FFF79DFF7B68FB602FE0FFF786FF79
:102C6800FFF7BEFF1B4B1B691A4A23F45E731361FF
:102C7800184B1A69FB68DB001343164A43F40073C8
:102C880043F002031361134B1B69124A43F4803368
:102C98001361FFF76BFF0F4B1B690E4A23F002030A
:102CA80013610C4BDB6803F0F203002B03D0FFF732
:102CB80087FF042309E0FB680133FB60FA683B687F
:102CC8009A42CBD9FFF77CFF002318461037BD4640
:102CD80080BD00BF003C024080B58AB000AFF860FC
:102CE800B9607A603B60FB687B6200233B623B6BA8
:102CF8003A687968F868FFF77FFF0346002B01D12F
:102D0800052372E0FFF744FF68E04FF0FF33FB61F3
:102D18007A683B6AD31A7B617B69042B28BF04233A
:102D28003B610023BB6119E0BB69DB00FF2202FAAB
:102D380003F3DB43FA691340FB613A6ABB69134446
:102D4800BA6813441B781A46BB69DB0002FA03F31E
:102D5800FA691343FB61BB690133BB61BA693B691B
:102D68009A42E1D37B6A03F00303002B03D0FFF7F9
:102D780027FF052339E0FFF7F9FEFFF731FF1D4B69
:102D88001B691C4A23F4407313611A4B1B69194AC7
:102D980043F4007343F0010313617B6AFA691A6014
:102DA800FFF7E4FE134B1B69124A23F0010313617A
:102DB800104BDB6803F0F203002B04D17B6A1B681D
:102DC800FA699A4203D0FFF7FBFE04230DE07B6A01
:102DD80004337B623A6A3B6913443B623A6A7B6814
:102DE8009A4292D3FFF7ECFE002318462837BD46D7
:102DF80080BD00BF003C024080B500AF0721042021
:102E0800FFF722FF0346184680BD80B500AF0B21AF
:102E18000820FFF719FF0346184680BD80B586B025
:102E280002AFF860B9607A60064B0093064B7A6887
:102E3800B968F868FFF750FF034618461037BD46D3
:102E480080BD00BF000008080000010880B586B0FA
:102E580002AFF860B9607A604FF001630093054BE8
:102E68007A68B968F868FFF737FF034618461037DD
:102E7800BD4680BD0000080880B586B000AF786008
:102E880000237B617B68002B07D07B68B3F5E02FBC
:102E980003D87B68B3F5002F01D9052330E0FFF78D
:102EA800B4FF0346FB74FB7C002B24D0FB7C27E09B
:102EB8007A687B69D31AB3F5806F28BF4FF48063B3
:102EC800FB607B6903F1006303F500237A6902F173
:102ED800006202F580321146FA681846FFF7B6FF1D
:102EE8000346FB74FB7C002B01D0FB7C08E07A696D
:102EF800FB6813447B617A697B689A42D8D30023C4
:102F080018461837BD4680BD80B586B000AF7860DA
:102F180000237B617B68002B07D07B68B3F5E02F2B
:102F280003D87B68B3F5002F01D9052330E0FFF7FC
:102F380063FF0346FB74FB7C002B24D0FB7C27E05B
:102F48007A687B69D31AB3F5806F28BF4FF4806322
:102F5800FB607B6903F1006303F580337A6902F152
:102F6800006202F500221146FA681846FFF756FF7C
:102F78000346FB74FB7C002B01D0FB7C08E07A69DC
:102F8800FB6813447B617A697B689A42D8D3002333
:102F980018461837BD4680BD80B483B000AF78604E
:102FA8007B689B6803F00103012B01D1012300E03A
:102FB800002318460C37BD465DF8047B704780B483
:102FC80083B000AF78607B689B6803F00203022B34
:102FD80001D1012300E0002318460C37BD465DF8F7
:102FE800047B704780B483B000AF78607B680C3393
:102FF8001B78DBB218460C37BD465DF8047B70477A
:1030080080B485B000AF78600B46FB707B680C33EA
:10301800FB60FB68FA781A7000BF1437BD465DF88C
:10302800047B704780B483B000AF786039607B68F8
:103038003A689A6100BF0C37BD465DF8047B70475B
:1030480080B483B000AF786039603B681A047B684D
:103058009A6100BF0C37BD465DF8047B70470000DD
:1030680080B582B000AF0346FB7102E01148FFF75C
:10307800B9FF1048FFF790FF0346002BF6D100BFB9
:103088000C48FFF79CFF0346002BF9D0FB79194643
:103098000848FFF7B5FF00BF0648FFF77DFF034666
:1030A800002BF9D00348FFF79DFF03461846083761
:1030B800BD4680BD0030014080B584B000AF0346F6
:1030C800FB8080210F48FFF7BBFF0320FFF7C8FFF5
:1030D800FB881B0A9BB2DBB21846FFF7C1FFFB88CF
:1030E800DBB21846FFF7BCFFFF20FFF7B9FF034626
:1030F800FB7380210348FFF795FFFB7B18461037C9
:10310800BD4680BD000C024080B500AF8021064856
:10311800FFF796FF0620FFF7A3FF80210248FFF77D
:1031280081FF00BF80BD00BF000C024080B582B0A7
:1031380000AF03460A46FB8013467B71FFF7E4FFA6
:1031480080210F48FFF77CFF0220FFF789FFFB88EB
:103158001B0A9BB2DBB21846FFF782FFFB88DBB283
:103168001846FFF77DFF7B791846FFF779FF802126
:103178000348FFF757FF00BF0837BD4680BD00BFB3
:10318800000C024080B582B000AF78607B68002BED
:1031980027D00020FFF790FF03461A467B681A7075
:1031A8000120FFF789FF03461A467B685A700520FD
:1031B800FFF782FF03461A467B68DA700720FFF79D
:1031C8007BFF03461A467B689A701520FFF774FF49
:1031D8000346A52B01D1012200E000227B681A7169
:1031E80000E000BF0837BD4680BD80B500AF0021B4
:1031F8001520FFF79BFF00BF80BD000080B500AF22
:10320800084A0949084800F033F80346002B01D161
:10321800002305E04FF4E021034800F053F803468B
:10322800184680BD000008080000010880B500AFFE
:10323800084A0949074800F01BF80346002B01D14A
:10324800002305E04FF40021024800F03BF8034654
:10325800184680BD000008080000010880B500AFCE
:10326800024800F004F90346184680BD000008082B
:1032780080B487B000AFF860B9607A60FB681B68FB
:103288007B61FB6804331B683B617B69B3F1005FBA
:1032980003D37B690A4A934201D900230AE03A69B9
:1032A800BB689A4203D33A697B689A4201D30023E8
:1032B80000E0012318461C37BD465DF8047B7047C3
:1032C8000000022080B588B000AF786039607B6864
:1032D80003F50073BB617B6803F50273184600F0C1
:1032E80074F878617B6803F50373184600F06DF88D
:1032F8003861B86900F039F80346002B01D0002383
:103308002FE07B69B3F5077F03D37A693B689A425C
:1033180001D9002325E07A687B691344083BFB60E8
:103328000023FB610EE0BA69FB6913441A78F96857
:10333800FB690B441B789A4201D0002311E0FB691A
:103348000133FB61FB69072BEDD97969786800F0D7
:103358005AF8B860BA683B699A4201D1012300E083
:10336800002318462037BD4680BD80B485B000AF25
:1033780078600123FB730123BB730023BB6012E059
:103388007A68BB6813441B78FF2B01D00023FB73BA
:103398007A68BB6813441B78002B01D00023BB73E9
:1033A800BB680133BB60BB68072BE9D9FB7B002BEB
:1033B80002D1BB7B002B01D0012300E0002318467B
:1033C8001437BD465DF8047B704780B485B000AF04
:1033D80078607B68FB60FB681B781A46FB680133E2
:1033E8001B781B021A43FB6802331B781B041A4321
:1033F800FB6803331B781B06134318461437BD4676
:103408005DF8047B704780B586B000AF786039609E
:103418004FF0FF337B614FF0FF33BB604FF4037312
:103428003B614FF40473FB607B683A69194678691D
:10343800FEF7CCFE786107F1080304221946786983
:10344800FEF7C4FE78617A68FB68134419463A6847
:10345800FB68D31A1A467869FEF7B8FE786178696E
:10346800FEF7E6FE034618461837BD4680BD80B510
:1034780082B000AF78607B6803F502731846FFF7E7
:10348800A4FF034618460837BD4680BD80B586B000
:1034980000AF224B1B683B61214B1B68FB60FB683C
:1034A800BB6072B600BF1F4B00221A601D4B002282
:1034B8005A601C4B00229A601B4B4FF020625A60E6
:1034C80000237B6110E0194A7B6920334FF0FF31FC
:1034D80042F82310154A7B6960334FF0FF3142F8F8
:1034E80023107B6901337B617B69072BEBD90E4B7A
:1034F8000A4A9A603B697B607B6883F3088800BF4F
:10350800BFF34F8F00BFBFF36F8F00BF62B600BF1E
:10351800BB68984700BF1837BD4680BD000001084A
:103528000400010810E000E000ED00E000E100E028
:1035380080B400AFBFF34F8F00BF064BDB6803F4C6
:10354800E0620449044B1343CB60BFF34F8F00BFC5
:1035580000BFFDE700ED00E00400FA0580B483B089
:1035680000AF78607B681B6803F00803082B0CBF6A
:1035780001230023DBB218460C37BD465DF8047BF7
:10358800704780B483B000AF78607B681B6803F035
:103598002003202B0CBF01230023DBB218460C3775
:1035A800BD465DF8047B704780B483B000AF786097
:1035B8007B681B6803F04003402B0CBF01230023EA
:1035C800DBB218460C37BD465DF8047B704780B403
:1035D80083B000AF78607B681B6803F08003802BA2
:1035E8000CBF01230023DBB218460C37BD465DF83B
:1035F800047B704780B485B000AF78607B681B6837
:10360800FB60FB687B685B68FB60FB6800BF143786
:10361800BD465DF8047B704780B483B000AF786026
:103628007B685B68DBB218460C37BD465DF8047BE7
:10363800704780B483B000AF78600B46FB70FA78AF
:103648007B685A6000BF0C37BD465DF8047B704745
:1036580080B483B000AF786039607B683A689A615B
:1036680000BF0C37BD465DF8047B704780B483B05B
:1036780000AF786039603B681A047B689A6100BFC4
:103688000C37BD465DF8047B7047000080B483B0FA
:1036980000AF0346FB71044AFB79137000BF0C3777
:1036A800BD465DF8047B70474C05002080B5ADF53C
:1036B800836D00AF07F58363A3F21443186007F521
:1036C8008363A3F58363196000F09EFBC7F81404B5
:1036D80069E007F58363A3F58263184640F2064361
:1036E8001A46002101F0DCFA00F08EFB0246D7F8FA
:1036F80014349B1A07F58362A2F583621268134497
:10370800C7F8103407F1080107F58363A3F21443DF
:10371800D7F81024186800F013FA034687F80F3416
:1037280097F80F34002B3ED107F58363A3F5826326
:103738001B78012B13D107F58363A3F582631978EE
:1037480007F58363A3F582635A7807F58363A3F2C9
:1037580014400023006800F0C3FA002331E007F5A5
:103768008363A3F582631B78072B1CD1174B1B7847
:103778001A4613461B019B1A03F23B13184600F026
:103788002DFB07F58363A3F58263197807F5836337
:10379800A3F582635A7807F58363A3F214400023E4
:1037A800006800F09DFA00F02FFB0246D7F81434A9
:1037B800D31A07F58362A2F5836212689A4288D801
:1037C8000123184607F58367BD4680BD4C050020D8
:1037D80080B5ADF5846D00AF07F58463A3F21C4393
:1037E800186007F58463A3F58363184640F206431F
:1037F8001A46002101F054FA07F1080107F584631D
:10380800A3F21C434FF47A72186800F099F9034642
:1038180087F81F3497F81F34002B31D007F58463DD
:10382800A3F583631B78002B00F00D8197F81F34F4
:10383800012B00F0088197F81F34FF2B00F003815B
:1038480007F58463A3F583639B78184600F09AFB19
:103858000346002B00F0F78007F58463A3F5836324
:10386800197807F58463A3F583635A7897F81F34AA
:1038780007F58460A0F21C40006800F031FAE2E02D
:1038880007F58463A3F583631B78013B062B00F2DD
:10389800C28001A252F823F0FD390008BD380008A3
:1038A800C9380008133900085D390008AB39000829
:1038B800053A0008FFF7A0FA034687F81F34AEE080
:1038C80007F58463A3F583639B88032B03D802233E
:1038D80087F81F34A3E007F108030633184600F001
:1038E80061FAC7F8100407F58463A3F583639B881E
:1038F8001A1F07F108030A331946D7F81004FFF70F
:103908008DFA034687F81F3489E007F58463A3F529
:1039180083639B88082B03D0022387F81F347EE03B
:1039280007F108030633184600F03CFAC7F81804F4
:1039380007F108030A33184600F034FAC7F81404EC
:10394800D7F81414D7F8180400F0D4FA034687F807
:103958001F3464E0FFF752FC0346002B01D000231C
:1039680000E0072387F81F3407F58463A3F5836312
:10397800197807F58463A3F583635A7897F81F3499
:1039880007F58460A0F21C40006800F0A9F997F8D8
:103998001F34002B59D10A2000F020FAFFF776FDDA
:1039A80053E0FFF72BFC0346002B01D0002300E077
:1039B800072387F81F3407F58463A3F58363197811
:1039C80007F58463A3F583635A7897F81F3407F5DE
:1039D8008460A0F21C40006800F082F997F81F3458
:1039E800002B34D101F0EEF840F6B83000F0F6F9CB
:1039F800FFF79EFD002387F81F3410E0154B1B7856
:103A08005A1C13461B019B1A184600F0E7F90023BD
:103A180087F81F3403E0022387F81F3400BF07F537
:103A28008463A3F58363197807F58463A3F5836337
:103A38005A7897F81F3407F58460A0F21C40006894
:103A480000F04EF9CDE600BFCBE600BFC9E600BFE7
:103A5800C7E600BF4C05002080B584B000AFF86011
:103A6800B9607A603B6038E0F868FFF78AFD034682
:103A7800002B24D0F868FFF7CFFD03461A46BB6831
:103A88001A70BB681A781B4B1A701A4B9B68013363
:103A9800184A9360174B1B8C9BB21946BB681A785F
:103AA800144B0B4483F82220124B1B8C9BB201331E
:103AB8009BB2DBB29AB20F4B1A84002316E0F86867
:103AC800FFF74CFD0346002B07D0F868FFF792FD7F
:103AD800084BDB690133074AD36100F095F90246C8
:103AE8007B68D31A3A689A42BED201231846103727
:103AF800BD4680BD2800002080B586B000AFF860C4
:103B0800B9603B601346FB800023FB820FE0FB8A11
:103B1800BA68D1183B6A3A68F868FFF79DFF034610
:103B2800002B01D0012307E0FB8A0133FB82FA8ACC
:103B3800FB889A42EBD3002318461837BD4680BD50
:103B480080B58CB002AFF860B9607A6007F11403F1
:103B580000221A60C3F8032000233B6100237B6224
:103B68004FF0FF333B6200F04FF9F86107F11401A1
:103B78007B68FA69F868FFF76FFF0346002B04D0EB
:103B8800012000F053FA0123A5E03B7D552BEDD130
:103B980007F11403591C7B68FA69F868FFF75CFFA2
:103BA8000346002B02D17B7DAA2B04D0022000F013
:103BB8003DFA02238FE007F11403991C7B680093F8
:103BC800FB690522F868FFF797FF0346002B04D02E
:103BD800012000F02BFA01237DE0BA7DBB681A7042
:103BE800FA7DBB685A703A7EBB689A707B7E1AB2BF
:103BF800BB7E1BB21B021BB213431BB29AB2BB683B
:103C08009A80BB689B88B3F5806F04D9022000F0C6
:103C18000DFA02235FE0BB689B88002B11D0BB68BC
:103C2800991DBB689A887B680093FB69F868FFF761
:103C380063FF0346002B04D0012000F0F7F90123AD
:103C480049E007F110017B680093FB690422F868DA
:103C5800FFF752FF0346002B04D0012000F0E6F9DD
:103C6800012338E007F11403023305221946386AA4
:103C7800FEF7ACFA3862BB68991DBB689B881A4688
:103C8800386AFEF7A3FA3862386AFEF7D1FA386262
:103C980007F11003184600F085F878623A6A7B6AE3
:103CA8009A4205D00321B86800F082F9032312E094
:103CB8000021B86800F07CF9BB681B78072B09D095
:103CC800BB689B78184600F05DF90346002B01D1CC
:103CD800FF2300E0002318462837BD4680BD0000BA
:103CE80080B586B000AF7860084611461A4603468C
:103CF800FB700B46BB7013467B7055233B72AA239F
:103D08007B72FB7863F07F03DBB2BB72BB78FB721C
:103D1800234B1B783B7301237B730023BB737B7896
:103D2800FB7300233B7400237B740023BB740023C4
:103D3800FB744FF0FF337B6107F10803023306225F
:103D480019467869FEF742FA78617869FEF770FAE1
:103D580078617B69DBB23B747B691B0ADBB27B74DD
:103D68007B691B0CDBB2BB747B691B0EDBB2FB747B
:103D7800012000F061F807F108030C221946786861
:103D880000F09AF800BF7868FFF70EFC0346002B96
:103D9800F9D0002000F050F800BF1837BD4680BDAC
:103DA8004C05002080B483B000AF78607B681B7836
:103DB8001A467B6801331B781B021A437B6802335F
:103DC8001B781B041A437B6803331B781B061343B9
:103DD80018460C37BD465DF8047B704780B584B043
:103DE80000AF786000F010F8F86000BF00F00CF841
:103DF8000246FB68D31A7A689A42F7D800BF00BF18
:103E08001037BD4680BD000080B400AF084B1B686A
:103E180003F48033002B04D0064B1B680133054A9A
:103E28001360044B1B681846BD465DF8047B704759
:103E380010E000E05005002080B582B000AF0346D6
:103E4800FB71FB79002B04D001210848FFF700FC27
:103E580003E001210548FFF709FC02210348FFF7A9
:103E680005FC00BF0837BD4680BD00BF000002400A
:103E780080B500AF01210448FFF7F8FB0221024892
:103E8800FFF7F4FB00BF80BD0000024080B582B0A0
:103E980000AF78600B46FB7000BF7868FFF797FBB0
:103EA8000346002BF9D0FB7819467868FFF7C1FB69
:103EB80000BF0837BD4680BD80B586B000AFF8604A
:103EC800B9601346FB800023FB820AE0FB8ABA68CC
:103ED80013441B781946F868FFF7D8FFFB8A0133AB
:103EE800FB82FA8AFB889A42F0D300BF00BF1837DA
:103EF800BD4680BD80B586B000AF786039604FF0B0
:103F0800FF337B6100233B617B68002B03D07B6818
:103F1800B3F5E02F19D9052330E07A683B69D31A45
:103F2800B3F5806F28BF4FF48063FB603B6903F1F2
:103F3800006303F58033FA6819467869FEF746F995
:103F480078613A69FB6813443B613A697B689A4235
:103F5800E3D37869FEF76CF978617A693B689A422D
:103F680001D006230AE0FFF749F90346002B01D1E7
:103F7800072303E07868FEF77FFF034618461837E3
:103F8800BD4680BD80B483B000AF0346FB71074BCC
:103F98001B78FA799A4201D1012300E000231846E0
:103FA8000C37BD465DF8047B704700BF4C05002008
:103FB80080B584B000AF78600B46FB707B681A78D8
:103FC800194B5A707B685A78174B9A707B689A78A5
:103FD800154BDA707B689A88134BDA80FB781846A1
:103FE80000F024F8FB78002B04D10F4BDB68013379
:103FF8000D4AD3600023FB810CE0FA89FB897968BC
:104008000A449179084A13440A4683F82221FB8915
:104018000133FB817B689B88FA899A42EDD300BF04
:1040280000BF1037BD4680BD2800002080B483B093
:1040380000AF0346FB71114AFB791371FB79012B21
:1040480005D10E4B1B6901330C4A136110E0FB7953
:10405800022B05D1094B5B690133084A536107E01C
:10406800FB79032B04D1054B9B690133034A936108
:1040780000BF0C37BD465DF8047B70472800002060
:1040880080B483B000AF78607B689B6803F001035D
:10409800012B01D1012300E0002318460C37BD464F
:1040A8005DF8047B704780B483B000AF78607B68AC
:1040B8009B6803F00203022B01D1012300E00023D7
:1040C80018460C37BD465DF8047B704780B483B052
:1040D80000AF78607B689B6803F08003802B01D178
:1040E800012300E0002318460C37BD465DF8047B29
:1040F800704780B483B000AF78607B680C331B785E
:10410800DBB218460C37BD465DF8047B704780B4B7
:1041180085B000AF78600B46FB707B680C33FB60A2
:10412800FB68FA781A7000BF1437BD465DF8047B47
:10413800704780B483B000AF786039607B683A68B4
:104148009A6100BF0C37BD465DF8047B704780B4A8
:1041580083B000AF786039603B681A047B689A6165
:1041680000BF0C37BD465DF8047B704780B582B050
:1041780000AF0346FB7102E01448FFF7BAFF13488B
:10418800FFF77EFF0346002BF6D100BF0F48FFF76D
:104198008AFF0346002BF9D0FB7919460B48FFF735
:1041A800B6FF00BF0948FFF791FF0346002BF9D17E
:1041B8000648FFF765FF0346002B02D00348FFF7C8
:1041C80098FF00BF0837BD4680BD00BF003C0040D7
:1041D80080B582B000AF0346FB714FF40041094837
:1041E800FFF7B5FF01210848FFF7B1FFFB79184633
:1041F800FFF7BCFF01210448FFF79BFF00BF08370A
:10420800BD4680BD00000240000C024080B582B06F
:1042180000AF0346FB714FF400410948FFF789FFDF
:1042280001210848FFF793FFFB791846FFF79EFF27
:1042380001210448FFF77DFF00BF0837BD4680BD58
:1042480000000240000C024080B483B000AF034677
:10425800FB71FB795B00DBB223F05503DAB2FB7923
:104268005B08DBB203F05503DBB21343FB71FB7948
:104278009B00DBB223F03303DAB2FB799B08DBB295
:1042880003F03303DBB21343FB71FB791A01DBB292
:104298001B091343FB71FB7918460C37BD465DF8C3
:1042A800047B704780B483B000AF0346FB71FB7991
:1042B8002E3B472B00F2EE8001A252F823F000BFFC
:1042C800694400089D44000841440008454400082A
:1042D800494400084D44000851440008554400086A
:1042E800594400085D44000861440008654400081A
:1042F8009D4400089D4400089D4400089D44000812
:104308009D4400089D4400089D440008E9430008B6
:10431800ED430008F1430008F5430008F94300089D
:10432800FD430008014400089D44000805440008B6
:104338009D440008094400080D4400081144000881
:1043480015440008194400081D4400089D4400084D
:104358002144000825440008294400082D44000889
:104368003144000835440008394400083D44000839
:104378009D4400089D4400089D4400089D44000891
:104388009D4400089D4400089D4400086D440008B1
:104398009D4400089D4400087144000875440008C5
:1043A8009D440008794400089D4400087D440008A5
:1043B8009D4400089D440008814400088544000885
:1043C800894400088D440008914400089D44000871
:1043D8009D4400089D44000895440008994400083D
:1043E800304B58E0304B56E0304B54E0304B52E005
:1043F800304B50E0304B4EE0304B4CE0304B4AE015
:10440800304B48E0304B46E0304B44E0304B42E024
:10441800304B40E0304B3EE0304B3CE0304B3AE034
:10442800304B38E0304B36E0304B34E0304B32E044
:10443800304B30E0304B2EE0304B2CE0304B2AE054
:10444800304B28E0304B26E0304B24E0304B22E064
:10445800304B20E0304B1EE0304B1CE0304B1AE074
:10446800304B18E0304B16E0304B14E0304B12E084
:10447800304B10E0304B0EE0304B0CE0304B0AE094
:10448800304B08E0304B06E0304B04E0304B02E0A4
:10449800304B00E0304B18460C37BD465DF8047BC6
:1044A800704700BF744D00087C4D0008844D00081B
:1044B8008C4D0008944D00089C4D0008A44D000840
:1044C800AC4D0008B44D0008BC4D0008C44D0008B0
:1044D800CC4D0008D44D0008DC4D0008E44D000820
:1044E800EC4D0008F44D0008FC4D0008044E00088F
:1044F8000C4E0008144E00081C4E0008244E0008FC
:104508002C4E0008344E00083C4E0008444E00086B
:104518004C4E0008544E00085C4E0008644E0008DB
:104528006C4E0008744E00087C4E0008844E00084B
:104538008C4E0008944E00089C4E0008A44E0008BB
:10454800AC4E0008B44E0008BC4E0008C44E00082B
:10455800CC4E0008D44E0008DC4E000880B483B06E
:1045680000AF0023FB8006E0FB88084A0021D154F5
:10457800FB880133FB80FB88B3F5806FF4D300BF61
:1045880000BF0C37BD465DF8047B7047540500201A
:1045980080B485B000AF03460A46FB711346BB7171
:1045A80097F90730002B1CDBBB793F2B19D8FB7917
:1045B800DB08DBB21A46BB799BB21B019BB21344E2
:1045C800FB81FB890A4AD15CFB7903F0070380224F
:1045D80022FA03F3DAB2FB890A43D1B2044AD1546E
:1045E80000E000BF1437BD465DF8047B704700BF8C
:1045F8005405002080B485B000AF03460A46FB711D
:104608001346BB7197F90730002B02DBBB793F2BB0
:1046180001D900231AE0FB79DB08DBB21A46BB7923
:104628009BB21B019BB21344FB81FB890A4AD25CF3
:10463800FB7903F00703802121FA03F3DBB213406F
:10464800DBB2002B01D0012300E000231846143709
:10465800BD465DF8047B70475405002080B584B0E2
:1046680000AF0346FB710B46BB7113467B717B7928
:104678001846FFF717FEB8600023FB733EE00023DF
:10468800BB7335E0FB7BBA6813441B781A46BB7BC7
:1046980022FA03F303F00103002B26D000237B73D7
:1046A80020E000233B7317E0FB7B5B00DAB2FB7969
:1046B8001344DAB27B7B1344D8B2BB7B5B00DAB21B
:1046C800BB791344DAB23B7B1344DBB21946FFF7DC
:1046D8005FFF3B7B01333B733B7B012BE4D97B7B47
:1046E80001337B737B7B012BDBD9BB7B0133BB7332
:1046F800BB7B062BC6D9FB7B0133FB73FB7B042BEF
:10470800BDD900BF00BF1037BD4680BD80B584B09D
:1047180000AF0346FB710B46BB7113467B717B7977
:104728001846FFF7BFFDB8600023FB7322E00023A3
:10473800BB7319E0FB7BBA6813441B781A46BB7B32
:1047480022FA03F303F00103002B0AD0FA79FB7B6A
:104758001344D8B2BA79BB7B1344DBB21946FFF7CE
:1047680017FFBB7B0133BB73BB7B062BE2D9FB7BFB
:104778000133FB73FB7B042BD9D900BF00BF103773
:10478800BD4680BD80B582B000AF03463A60FB717C
:104798000B46BB710BE03B685A1C3A601A78B97932
:1047A800FB791846FFF75AFFFB790C33FB713B681E
:1047B8001B78002BEFD100BF00BF0837BD4680BD76
:1047C80080B582B000AF03463A60FB710B46BB71FF
:1047D8000BE03B685A1C3A601A78B979FB7918469D
:1047E800FFF794FFFB790633FB713B681B78002BBE
:1047F800EFD100BF00BF0837BD4680BD80B500AF10
:10480800054A37214A20FFF7DBFF044A37215C209D
:10481800FFF7D6FF00BF80BD184D00081C4D0008EB
:1048280080B485B000AF786039606423FB600023F2
:10483800FB720023BB7228E07A68FB68B2FBF3F3D3
:104848007B727B7A002B05D1BB7A002B02D1FB68E7
:10485800012B0BD1FB7A5A1CFA721A463B68134497
:104868007A7A3032D2B21A700123BB727B68FA6846
:10487800B3FBF2F2F96801FB02F29B1A7B60FB685A
:10488800094AA2FB0323DB08FB60FB68002BD3D19A
:10489800FB7A3A68134400221A7000BF1437BD46E9
:1048A8005DF8047B704700BFCDCCCCCC80B582B01E
:1048B80000AF0023FB7152E0FB79C3F13F03FB70AB
:1048C800B020FFF785FCFB7803F00F03DBB2184636
:1048D800FFF77EFCFB781B09DBB21033DBB218460E
:1048E800FFF776FC0023BB7133E000237B710023C4
:1048F8003B7120E0BB79DB00DAB23B791344DBB2D1
:10490800C3F17F03BB70FB79C3F13F037B707A78F7
:10491800BB7811461846FFF76DFE0346002B07D0FB
:104928003B79802222FA03F3DAB27B7913437B7155
:104938003B7901333B713B79072BDBD97B791846EF
:10494800FFF782FC03461846FFF760FCBB7901338A
:10495800BB71BB790F2BC8D9FB790133FB71FB798C
:104968003F2BA9D900BF00BF0837BD4680BD000056
:1049780080B500AF4FF480513448FFF7DAFB0220CE
:10498800FCF74AF94FF480513048FFF7E0FB0A2062
:10499800FCF742F94FF480512C48FFF7CAFB0A2074
:1049A800FCF73AF9AE20FFF713FC0020FFF710FCE4
:1049B8001020FFF70DFCB020FFF70AFCDC20FFF702
:1049C80007FC0020FFF704FC8120FFF701FC6F20A3
:1049D800FFF7FEFB2120FFF7FBFBA020FFF7F8FB0A
:1049E800C020FFF7F5FBA420FFF7F2FBA620FFF796
:1049F800EFFBA820FFF7ECFB3F20FFF7E9FBD320F4
:104A0800FFF7E6FB6020FFF7E3FBD520FFF7E0FBAD
:104A18004120FFF7DDFBD920FFF7DAFB2220FFF763
:104A2800D7FBDB20FFF7D4FB3520FFF7D1FBAD2008
:104A3800FFF7CEFB8A20FFF7CBFBFFF78FFDFFF7D1
:104A480035FFAF20FFF7C4FB00BF80BD0000024068
:104A580080B500AFFFF782FDFFF728FFFFF77EFD67
:104A6800074A12211B20FFF78DFE064A2421212028
:104A7800FFF788FEFFF7C2FEFFF718FF00BF80BDF3
:104A8800244D00082C4D000880B586B000AF786032
:104A980039600023BB6000237B613B68002B0DD08D
:104AA8007A683B689A4207D27B68642203FB02F269
:104AB8003B68B2FBF3F300E064237B617A69134639
:104AC8005B0013445B011A463A4BA3FB02235B09C4
:104AD800FB73FFF743FD384A08212220FFF752FEF7
:104AE800364A1A211020FFF74DFE07F10803194630
:104AF8007869FFF795FE07F108031A462E2134203E
:104B0800FFF75EFE7B69632B06D87B69092B01D909
:104B1800402302E03A2300E04623294A2E21184682
:104B2800FFF74EFE1023FB740CE0FB7C3A2118467D
:104B3800FFF72EFDFB7C3F211846FFF729FDFB7C84
:104B48000133FB74FB7C6F2BEFD93A23BB740CE069
:104B5800BB7C19461020FFF71BFDBB7C19466F2054
:104B6800FFF716FDBB7C0133BB74BB7C3F2BEFD931
:104B780000237B7413E03B233B740AE07B7C1033F7
:104B8800DBB23A7C11461846FFF702FD3B7C013345
:104B98003B743B7C3E2BF1D97B7C01337B747A7C64
:104BA800FB7B9A42E7D3FFF781FE00BF1837BD466B
:104BB80080BD00BF1F85EB51344D00082C4D000807
:104BC800384D000880B500AFFFF7C8FCFFF76EFE50
:104BD800FFF7C4FC064A12212120FFF7D3FD054A3E
:104BE80024211520FFF7CEFDFFF760FE00BF80BD32
:104BF8002C4D00083C4D000880B500AFFFF7AEFC17
:104C0800FFF754FEFFF7AAFC074A12212720FFF7F7
:104C1800B9FD064A24213320FFF7B4FDFFF7EEFD66
:104C2800FFF744FE00BF80BD344D0008484D000822
:104C380080B500AFFFF792FCFFF738FEFFF78EFC58
:104C4800074A0A212220FFF79DFD064A2021162047
:104C5800FFF798FDFFF7D2FDFFF728FE00BF80BDE4
:104C68004C4D0008544D000880B500AFFFF776FCA6
:104C7800FFF71CFEFFF772FC074A12212220FFF7FC
:104C880081FD064A24212220FFF77CFDFFF7B6FDAF
:104C9800FFF70CFE00BF80BD344D00084C4D0008E6
:104CA80002440346934200D1704703F8011BF9E719
:104CB80070B50D4D0D4C641BA4100026A64209D1F9
:104CC8000B4D0C4C00F018F8641BA4100026A642EB
:104CD80005D170BD55F8043B98470136EEE755F805
:104CE800043B98470136F2E700000000000000008E
:104CF8000000000000000000F8B500BFF8BC08BCC8
:104D08009E467047F8B500BFF8BC08BC9E46704781
:104D1800424C0000312E342E3100000057414954D6
:104D2800494E470055504C4F41440000444D5800EF
:104D380025000000434F4D504C45544500000000ED
:104D48004F4B00004641494C000000004241434B94
:104D5800555000000000000000000000010203049C
:104D68000607080900000000010203047E11111162
:104D78007E0000007F494949360000003E4141411C
:104D8800220000007F4141221C0000007F49494960
:104D9800410000007F090909010000003E4149491E
:104DA8007A00000000417F41000000007F081422C3
:104DB800410000007F404040400000007F020C029C
:104DC8007F0000007F0408107F0000003E41414141
:104DD8003E0000007F090909060000007F09192923
:104DE80046000000464949493100000001017F01A1
:104DF800010000003F4040403F0000001F204020CD
:104E08001F0000007F2018207F0000006314081492
:104E18006300000007087008070000003E5149457C
:104E28003E00000000427F400000000042615149FE
:104E3800460000002141454B310000001814127F44
:104E48001000000027454545390000003C4A494903
:104E58003000000001710905030000003649494986
:104E680036000000064949291E0000000060600065
:104E7800000000002054545478000000384444488E
:104E88007F0000003854545418000000085454544B
:104E98003C00000000447D400000000000417F40CD
:104EA800000000007C041804780000007C0804045A
:104EB8007800000038444444380000007C1414147E
:104EC80008000000043F4440200000003C4040200F
:0C4ED8007C000000000000000000000052
:084EE400D4B2FF7F01000000C1
:044EEC000024F400AA
:04000005080021814D
:00000001FF
