:020000040801F1
:10000000000002204D910108D18E0108D38E010815
:10001000D58E0108D78E0108D98E01080000000096
:10002000000000000000000000000000D15E010898
:10003000DB8E010800000000615F0108C55F010858
:100040009D9101089D9101089D9101089D910108D4
:100050009D9101089D9101089D9101089D910108C4
:100060009D9101089D9101089D9101089D910108B4
:100070009D9101089D9101089D9101089D910108A4
:100080009D9101089D9101089D9101089D91010894
:100090009D9101089D9101089D9101089D91010884
:1000A0009D9101089D9101089D910108DD8E010837
:1000B000E98E01089D910108F58E0108018F010864
:1000C0000D8F01089D9101089D9101089D910108E6
:1000D0009D910108198F0108758F01089D910108F4
:1000E0009D9101089D9101089D9101089D91010834
:1000F0009D9101089D9101089D9101089D91010824
:100100009D9101089D9101089D9101089D91010813
:100110009D9101089D910108C58F01089D910108DD
:100120009D9101089D9101089D9101089D910108F3
:100130009D9101089D9101089D9101089D910108E3
:100140009D9101089D9101089D9101089D910108D3
:100150009D9101089D9101089D910108D18F010891
:100160009D9101089D9101089D9101089D910108B3
:100170009D9101089D9101089D91010800000000DA
:080180009D9101089D91010809
:1002200010B5054C237833B9044B13B10448AFF330
:1002300000800123237010BD880000200000000012
:1002400038D1010808B5034B1BB103490348AFF38C
:10025000008008BD000000008C00002038D101089B
:1002600070B54FF0FF0C4CF4E06C1CEA11541DBF4C
:100270001CEA135594EA0C0F95EA0C0F00F0DEF817
:100280002C4481EA030621EA4C5123EA4C5350EAFC
:10029000013518BF52EA033541F4801143F480134D
:1002A00038D0A0FB02CE4FF00005E1FB02E506F0DE
:1002B0000042E0FB03E54FF00006E1FB03569CF033
:1002C000000F18BF4EF0010EA4F1FF04B6F5007F39
:1002D00064F5407404D25FEA4E0E6D4146EB0606AB
:1002E00042EAC62141EA55514FEAC52040EA5E5034
:1002F0004FEACE2EB4F1FD0C88BFBCF5E06F1ED8DE
:10030000BEF1004F08BF5FEA500E50F1000041EB14
:10031000045170BD06F0004646EA010140EA0200C1
:1003200081EA0301B4EB5C04C2BFD4EB0C0541EAE3
:10033000045170BD41F480114FF0000E013C00F3F8
:10034000AB8014F1360FDEBF002001F0004170BD1C
:10035000C4F10004203C35DA0C341BDC04F1140435
:10036000C4F1200500FA05F320FA04F001FA05F2C1
:1003700040EA020001F0004221F0004110EBD3708E
:1003800021FA04F642EB06015EEA430E08BF20EABA
:10039000D37070BDC4F10C04C4F1200500FA04F35D
:1003A00020FA05F001FA04F240EA020001F00041EF
:1003B00010EBD37041F100015EEA430E08BF20EA62
:1003C000D37070BDC4F1200500FA05F24EEA020EAA
:1003D00020FA04F301FA05F243EA020321FA04F0D9
:1003E00001F0004121FA04F220EA020000EBD37090
:1003F0005EEA430E08BF20EAD37070BD94F0000F90
:100400000FD101F00046400041EB010111F4801FC3
:1004100008BF013CF7D041EA060195F0000F18BF74
:10042000704703F00046520043EB030313F4801FB0
:1004300008BF013DF7D043EA0603704794EA0C0F6A
:100440000CEA135518BF95EA0C0F0CD050EA410680
:1004500018BF52EA4306D1D181EA030101F00041FD
:100460004FF0000070BD50EA410606BF1046194625
:1004700052EA430619D094EA0C0F02D150EA013631
:1004800013D195EA0C0F05D152EA03361CBF104672
:1004900019460AD181EA030101F0004141F0FE4111
:1004A00041F470014FF0000070BD41F0FE4141F495
:1004B000780170BD81F0004102E000BF83F000438D
:1004C00030B54FEA41044FEA430594EA050F08BFEF
:1004D00090EA020F1FBF54EA000C55EA020C7FEAB3
:1004E000645C7FEA655C00F0E2804FEA5454D4EB30
:1004F0005555B8BF6D420CDD2C4480EA020281EAFA
:10050000030382EA000083EA010180EA020281EA31
:100510000303362D88BF30BD11F0004F4FEA013183
:100520004FF4801C4CEA113102D0404261EB410192
:1005300013F0004F4FEA03334CEA133302D0524218
:1005400063EB430394EA050F00F0A780A4F10104D4
:10055000D5F1200E0DDB02FA0EFC22FA05F280180E
:1005600041F1000103FA0EF2801843FA05F35941F4
:100570000EE0A5F120050EF1200E012A03FA0EFC73
:1005800028BF4CF0020C43FA05F3C01851EBE3719D
:1005900001F0004507D54FF0000EDCF1000C7EEBBA
:1005A00000006EEB0101B1F5801F1BD3B1F5001FF8
:1005B0000CD349085FEA30004FEA3C0C04F1010417
:1005C0004FEA445212F5800F80F09A80BCF1004F40
:1005D00008BF5FEA500C50F1000041EB045141EAC2
:1005E000050130BD5FEA4C0C404141EB0101013C8B
:1005F00028BFB1F5801FE9D291F0000F04BF01467A
:100600000020B1FA81F308BF2033A3F10B03B3F14B
:1006100020020CDA0C3208DD02F1140CC2F10C02DB
:1006200001FA0CF021FA02F10CE002F11402D8BF39
:10063000C2F1200C01FA02F120FA0CFCDCBF41EA05
:100640000C019040E41AA2BF01EB0451294330BDD4
:100650006FEA04041F3C1CDA0C340EDC04F11404B1
:10066000C4F1200220FA04F001FA02F340EA030088
:1006700021FA04F345EA030130BDC4F10C04C4F1CE
:10068000200220FA02F001FA04F340EA03002946AE
:1006900030BD21FA04F0294630BD94F0000F83F4F8
:1006A000801306BF81F480110134013D4EE77FEADB
:1006B000645C18BF7FEA655C29D094EA050F08BF27
:1006C00090EA020F05D054EA000C04BF1946104608
:1006D00030BD91EA030F1EBF0021002030BD5FEA4C
:1006E000545C05D14000494128BF41F0004130BD74
:1006F00014F580043CBF01F5801130BD01F00045C8
:1007000045F0FE4141F470014FF0000030BD7FEA3A
:10071000645C1ABF194610467FEA655C1CBF0B4635
:10072000024650EA013406BF52EA033591EA030F4C
:1007300041F4002130BD00BF90F0000F04BF002144
:10074000704730B54FF4806404F132044FF0000577
:100750004FF0000150E700BF90F0000F04BF0021F0
:10076000704730B54FF4806404F1320410F0004556
:1007700048BF40424FF000013EE700BF42004FEA51
:10078000E2014FEA31014FEA02701FBF12F07F43CE
:1007900093F07F4F81F06051704732F07F4208BF85
:1007A000704793F07F4F04BF41F40021704730B58C
:1007B0004FF4607401F0004521F000411CE700BFD8
:1007C00050EA010208BF704730B54FF000050AE05B
:1007D00050EA010208BF704730B511F0004502D55C
:1007E000404261EB41014FF4806404F132045FEA5E
:1007F000915C3FF4D8AE4FF003025FEADC0C18BF07
:1008000003325FEADC0C18BF033202EBDC02C2F1F8
:10081000200300FA03FC20FA02F001FA03FE40EA8A
:100820000E0021FA02F11444BDE600BF4FEA410276
:1008300012F5001215D211D56FF47873B3EB625232
:1008400012D94FEAC12343F0004343EA505311F059
:10085000004F23FA02F018BF404270474FF00000EB
:10086000704750EA013005D111F0004008BF6FF029
:10087000004070474FF00000704700BF4A0011D29F
:1008800012F5001211D20DD56FF47873B3EB6252EA
:100890000ED44FEAC12343F0004343EA505323FAF6
:1008A00002F070474FF00000704750EA013002D16B
:1008B0004FF0FF3070474FF0000070474FEA4102A1
:1008C000B2F1E04324BFB3F5001CDCF1FE5C0DD9AE
:1008D00001F0004C4FEAC0024CEA5070B2F1004FF8
:1008E00040EB830008BF20F00100704711F0804FFB
:1008F00021D113F13872BCBF01F00040704741F4C0
:1009000080114FEA5252C2F11802C2F1200C10FAC3
:100910000CF320FA02F018BF40F001004FEAC123A7
:100920004FEAD32303FA0CFC40EA0C0023FA02F34B
:100930004FEA4303CCE77FEA625307D150EA013321
:100940001EBF4FF0FE4040F44000704701F00040F1
:1009500040F0FE4040F40000704700BF53B94AB970
:10096000002908BF00281CBF4FF0FF314FF0FF30B7
:1009700000F088B9ADF1080C6DE904CE00F006F87E
:10098000DDF804E0DDE9022304B070472DE9F0470B
:10099000089D8E4604468846002B4AD18A42174657
:1009A00062D9B2FA82F64EB1C6F1200301FA06F816
:1009B00020FA03F3B74043EA0808B4404FEA174E61
:1009C0001FFA87FCB8FBFEF1230C0EFB118843EAEB
:1009D000084301FB0CF29A4209D9FB1801F1FF30E0
:1009E00080F0EA809A4240F2E78002393B449A1A4A
:1009F000A3B2B2FBFEF00EFB102243EA024300FB5F
:100A00000CFC9C4509D9FB1800F1FF3280F0D68020
:100A10009C4540F2D3803B44023840EA0140A3EBBE
:100A20000C0300211DB1F3400022C5E90032BDE8EE
:100A3000F0878B4205D90DB1C5E9000100210846B8
:100A4000F5E7B3FA83F1002946D1734502D3824218
:100A500000F20581841A6EEB030201209046002DFE
:100A6000E5D0C5E90048E2E7002A00F09080B2FA3C
:100A700082F6002E40F0A4808A1A030C4FEA174E2B
:100A800080B2BCB20121B2FBFEFC0EFB1C2243EA89
:100A9000024304FB0CF29A4207D9FB180CF1FF3811
:100AA00002D29A4200F2E080C4469B1AB3FBFEF2E7
:100AB0000EFB123340EA034302FB04F49C4207D9C5
:100AC000FB1802F1FF3002D29C4200F2CA800246BB
:100AD0001B1B42EA0C40A5E7C1F120068B4022FA1D
:100AE00006F71F430EFA01F420FA06F32EFA06FE6B
:100AF0004FEA1749234300FA01F81FFA87FCBEFBAF
:100B0000F9F01C0C09FB10EE44EA0E4400FB0CFE4D
:100B1000A64502FA01F209D93C1900F1FF3A80F02A
:100B20009C80A64540F2998002383C44A4EB0E0418
:100B30001FFA83FEB4FBF9F309FB13444EEA0444A5
:100B400003FB0CFCA44508D93C1903F1FF3E80F0DF
:100B50008280A4457FD9023B3C4443EA0040A4EB99
:100B60000C04A0FB02EC64457346E14662D35FD0FF
:100B70005DB1B8EB030264EB090404FA06F622FA4D
:100B800001F31E43CC40C5E9006400214FE7B1FBEF
:100B9000F2FC010C41EA0E4180B240EA01423B46C0
:100BA00038463C46B846BE462026B1FBF7F1A2EBDC
:100BB000080241EA0C4166E7014618E710462CE7B7
:100BC000C6F120022EFA02F3B740B14020FA02F239
:100BD0004FEA174E0A43B3FBFEF8BCB20EFB1833C4
:100BE000110C41EA034108FB04F9B04089454FEA82
:100BF000104380B23ED9791808F1FF3C01D28945F3
:100C00001FD8A1EB0901B1FBFEF909FB04F80EFBAB
:100C1000191192B242EA0142424529D2BA1809F1A9
:100C2000FF31C4D24245C2D2A9F102013A44BEE723
:100C3000F0459DD2BEEB02036CEB070C0138E14698
:100C400096E7A7EB09094944A8F1020CB1FBFEF9AC
:100C500009FB04F8DBE773467FE7504666E7084682
:100C6000FDE63B44023A33E7ACF1020C3B441CE79F
:100C700049469CE7A1EB0901C446B1FBFEF909FB1B
:100C800004F8C4E7704700BF000000000000000047
:100C900001F0FF01102A2BDB10F0070F08D010F82D
:100CA000013B013A8B422DD010F0070F42B3F6D131
:100CB000F0B441EA012141EA014122F007047FF04A
:100CC00000070023F0E80256083C85EA010586EAA1
:100CD000010685FA47F5A3FA87F586FA47F6A5FADD
:100CE00087F68EB9EED1F0BC01F0FF0102F00702E9
:100CF00032B110F8013B013A83EA010313B1F8D194
:100D00000020704701387047002D06BF3546033874
:100D1000073815F0010F07D1013015F4807F02BFAD
:100D2000013015F4C03F0130F0BC0138704700BFFE
:100D3000002310B50446C0E90033C0E904338360E2
:100D400081814366C2818361194608225C3000F0CC
:100D5000F4F80D4B63620D4BA3620D4BE3620D4B38
:100D600023630D4B24629C4206D003F16802944237
:100D700002D0D0339C4205D104F15800BDE81040A8
:100D800000F0ACB910BD00BFB50E0108D70E0108C8
:100D90000F0F0108330F0108A4000020024A034985
:100DA000034800F069B800BF00000020DD1301080F
:100DB0001000002041680C4B994210B5044601D048
:100DC00000F00CFBA168094B994202D0204600F0CC
:100DD00005FBE168064B994204D02046BDE810406F
:100DE00000F0FCBA10BD00BFA40000200C010020E0
:100DF0007401002010B50B4B0B4C0C4A1A602046B6
:100E000000220421FFF794FF04F168000122092168
:100E1000FFF78EFF04F1D0000222BDE8104012213E
:100E2000FFF786BFDC010020A40000209D0D010813
:100E3000014800F054B900BFE5010020014800F06E
:100E40004FB900BFE501002010B50446FFF7F0FFE1
:100E5000236A1BB1BDE81040FFF7F0BF044B2362CB
:100E6000044B1B68002BF5D1FFF7C4FFF2E700BF6E
:100E7000B50D0108DC0100202DE9F843074688463E
:100E800014460026D4E90195B9F1010905D5246875
:100E9000002CF7D13046BDE8F883AB89012B07D988
:100EA000B5F90E30013303D029463846C047064312
:100EB0006835E9E710B50C46B1F90E1000F0C6F838
:100EC0000028ABBF636DA3891B1823F48053ACBF0C
:100ED0006365A38110BD2DE9F0411F468B89DB05B9
:100EE00005460C46164605D5B1F90E100223002220
:100EF00000F09AF8A389B4F90E1023F48053A3816B
:100F000032463B462846BDE8F04100F0B1B810B586
:100F10000C46B1F90E1000F087F8431CA38915BFE9
:100F2000606523F4805343F48053A38118BFA381E9
:100F300010BDB1F90E1000F009B802440346934207
:100F400000D1704703F8011BF9E7000038B5064DE2
:100F50000023044608462B6008F0ECF8431C02D13D
:100F60002B6803B1236038BDE00100202D4B1B68C6
:100F7000834270B5044653D0C3691BB3DB6863B1C9
:100F80000025E369DB685959B1B90435802DF8D1E2
:100F9000E3692046D96800F0A5F8E369196811B142
:100FA000204600F09FF8E3699D685DB12946204620
:100FB0002D6800F097F8F8E70E68204600F092F8E8
:100FC0003146E1E7616911B1204600F08BF8E16933
:100FD00011B1204600F086F8216B11B1204600F0D7
:100FE00081F8616B11B1204600F07CF8A16B11B162
:100FF000204600F077F8A16C11B1204600F072F89D
:10100000616C11B1204600F06DF8E16A11B1204623
:1010100000F068F8236A1BB12046BDE8704018470D
:1010200070BD00BF0C00002038B5074D04460846CF
:10103000114600222A601A4608F086F8431C02D1A5
:101040002B6803B1236038BDE001002038B5074D9F
:1010500004460846114600222A601A4608F04EF857
:10106000431C02D12B6803B1236038BDE00100208E
:1010700038B5074D04460846114600222A601A4634
:1010800008F04AF8431C02D12B6803B1236038BD35
:10109000E001002070B50D4D0D4C641BA41000261E
:1010A000A64209D10B4D0C4C0CF046F8641BA41061
:1010B0000026A64205D170BD55F8043B984701367D
:1010C000EEE755F8043B98470136F2E7C0FF010808
:1010D000C0FF0108C0FF0108C4FF01087047704746
:1010E0007047000038B50546002941D051F8043C4E
:1010F0000C1F002BB8BFE41800F0E0F81D4A13687D
:1011000033B9636014602846BDE8384000F0DCB8AD
:10111000A34208D9206821188B4201BF19685B6877
:1011200009182160EDE71A465B680BB1A342FAD9B2
:1011300011685018A0420BD1206801445018834216
:101140001160E0D118685B68536008441060DAE70A
:1011500002D90C232B60D6E7206821188B4204BFEC
:1011600019685B68636004BF091821605460CAE7AE
:1011700038BD00BFEC01002070B50F4E0C46316841
:10118000054611B900F052F930602146284600F0BA
:101190004DF9431C03D14FF0FF34204670BDC41CF1
:1011A00024F00304A042F8D0211A284600F03EF9AA
:1011B0000130F2D1EFE700BFE80100202DE9F8434C
:1011C000CD1C25F0030508350C2D38BF0C25002D4E
:1011D000064601DBA94204D90C2333600020BDE898
:1011E000F883DFF8D48000F069F8D8F800301C46A6
:1011F00044BB29463046FFF7BFFF431C044658D185
:10120000D8F800402746002F43D1002C4BD023684C
:101210003946304604EB030900F008F9814542D114
:1012200021686D1A29463046FFF7A6FF01303AD0F3
:1012300023682B442360D8F800305A6862BBC8F892
:1012400000700FE02268521B20D40B2A17D96119B5
:10125000A342256018BF5960636808BFC8F8001032
:1012600062514B60304600F02FF804F10B00231D53
:1012700020F00700C21A1CBF1B1AA350AFE7626818
:10128000A3420CBFC8F800205A60EBE7234664680D
:10129000AEE73C467F68B6E71A465B68A342FBD1DF
:1012A00000235360DEE70C233360304600F00CF877
:1012B00094E70560D6E700BFEC0100200148FFF786
:1012C0000EBF00BFE40100200148FFF709BF00BFC7
:1012D000E4010020B1F90C202DE9F0411607054684
:1012E0000C4654D44B68002B02DC0B6C002B48DD01
:1012F000E66A002E45D0002312F480522F68216A3E
:101300002B6030D0626DA389590705D56368D21A66
:10131000636B0BB1236CD21A0023E66A216A28465C
:10132000B047431CA38906D129681D292BD82A4A16
:10133000CA40D60727D500226260D90422692260FC
:1013400004D5421C01D12B6803B96065616B2F6025
:10135000B9B104F14403994202D02846FFF7C2FE16
:10136000002363630DE001232846B0470246501C6A
:10137000C9D12B68002BC6D01D2B01D0162B1ED136
:101380002F60002022E043F040031BB21BE00F69F6
:10139000002FF6D093070E6808BF4B690F6018BF87
:1013A0000023A6EB07088B60B8F1000FE9DD216A86
:1013B000A66A43463A462846B047002808DCB4F9F6
:1013C0000C3043F04003A3814FF0FF30BDE8F081C3
:1013D0000744A8EB0008E7E70100402038B50B6997
:1013E00005460C4613B90025284638BD18B1036AD6
:1013F0000BB9FFF729FDB4F90C30002BF3D0626E66
:10140000D00704D4990502D4A06DFFF768FE2846E2
:101410002146FFF75FFF636EDA070546E4D4A38930
:101420009B05E1D4A06DFFF75BFEDDE738B5064D07
:101430000023044608462B6007F040FE431C02D1FF
:101440002B6803B1236038BDE0010020044BD3F8C2
:10145000882042F47002C3F88820024A9A607047DC
:1014600000ED00E000000108036A026A22F00102B8
:1014700070B50262446882690D6822F073022A43E3
:101480008D6823F002032B430C4DA84203D005F5D1
:101490008065A8420BD1CD6823F008032B43D1E926
:1014A000055624F44074354323F004032C43446070
:1014B00082614A684263036270BD00BF0000014060
:1014C000036A026A22F4807270B502624468C269DB
:1014D0000D6822F073022A438D6823F4007343EAF7
:1014E00005230D4DA84203D005F58065A8420DD116
:1014F000CD6823F4006343EA0523D1E9055624F4BB
:101500004054354323F4806344EA05144460C261C7
:101510004A68C263036270BD00000140036A026A48
:1015200022F4805230B502624468C2690D6822F428
:10153000E64242EA05228D6823F4005343EA05336C
:10154000084DA84203D005F58065A84204D14D6935
:1015500024F4804444EA85144460C2614A68026409
:10156000036230BD0000014090F83D30012B30D1C6
:10157000022380F83D300368DA6842F00102DA6045
:10158000154A93421AD0B3F1804F17D0A2F57C428E
:10159000934213D002F5806293420FD002F580622D
:1015A00093420BD002F57842934207D002F5705275
:1015B000934203D0A2F59432934204D19A6802F088
:1015C0000702062A03D01A6842F001021A600020BE
:1015D00070470120704700BF00000140704770470E
:1015E000704770477047036870B5DD681E69B107C2
:1015F00004460DD5AA070BD56FF002021A6101222D
:1016000002779B699B0769D004F06AFF0023237768
:10161000710710D56A070ED523686FF004021A61AE
:10162000022222779B6913F4407F20465CD004F0AD
:1016300057FF0023237733070FD528070DD52368DD
:101640006FF008021A6104222277DB6999072046AD
:1016500050D004F045FF00232377F20610D5EB06A7
:101660000ED523686FF010021A6108222277DB6919
:1016700013F4407F204643D004F032FF0023237749
:10168000F00708D5E90706D523686FF001021A6153
:10169000204604F04BFF320608D52B0606D52368FA
:1016A0006FF080021A61204600F029FC700608D510
:1016B000690606D523686FF040021A612046FFF7DD
:1016C00091FFB20622D5AB0620D523686FF0200229
:1016D00020461A61BDE8704000F010BCFFF780FFA3
:1016E0002046FFF77EFF91E7FFF77AFF2046FFF7DE
:1016F00078FF9EE7FFF774FF2046FFF772FFAAE727
:10170000FFF76EFF2046FFF76CFFB7E770BD0000E4
:10171000274A0368904212D0B0F1804F0FD0A2F553
:101720007C4290420BD002F58062904207D002F5D5
:101730008062904203D002F57842904208D14A6814
:1017400023F070031343CA6823F44073134316E075
:10175000184A9042F7D002F580629042F3D002F529
:1017600080629042EFD0A2F598329042EBD002F521
:1017700080629042E7D002F580629042E3D04A69ED
:1017800023F0800313438A68C2620A688262084AAF
:10179000904203D002F58062904201D10A6902634F
:1017A000026842F004020260012242610360704755
:1017B000000001400040014010B5044630B390F8ED
:1017C0003D3003F0FF021BB980F83C2006F054FDC9
:1017D0000223206884F83D30211DFFF799FF012383
:1017E00084F84630002084F83E3084F83F3084F896
:1017F000403084F8413084F8423084F8433084F833
:10180000443084F8453084F83D3010BD0120FCE7B9
:1018100010B5044630B390F83D3003F0FF021BB919
:1018200080F83C20FFF7DAFE0223206884F83D3080
:10183000211DFFF76DFF012384F84630002084F856
:101840003E3084F83F3084F8403084F8413084F8EA
:10185000423084F8433084F8443084F8453084F8CA
:101860003D3010BD0120FCE710B5044630B390F8C0
:101870003D3003F0FF021BB980F83C20FFF7AFFEBC
:101880000223206884F83D30211DFFF741FF01232A
:1018900084F84630002084F83E3084F83F3084F8E5
:1018A000403084F8413084F8423084F8433084F882
:1018B000443084F8453084F83D3010BD0120FCE709
:1018C000036A026A22F0100270B5026244688269FB
:1018D0000D6822F4E64242EA05228D6823F02003D7
:1018E00043EA05130D4DA84203D005F58065A842D3
:1018F0000DD1CD6823F0800343EA0513D1E90556E5
:1019000024F44064354323F0400344EA85044460F2
:1019100082614A688263036270BD00BF00000140BB
:1019200038B590F83C30012B04464FD00120082AEE
:1019300084F83C003AD006D8BAB1042A26D0002355
:1019400084F83C3038BD0C2AF9D12068FFF7E6FD59
:10195000C3690A6943F40063C361C36923F4806304
:10196000C361C36943EA02232EE02068FFF77CFDD0
:1019700083690A6943F008038361836923F00403E0
:1019800083618369134383610020D8E72068FFF7F0
:1019900097FF83690A6943F400638361836923F4D1
:1019A00080638361836943EA0223ECE72068FFF7E1
:1019B00087FDC3690A6943F00803C361C36923F063
:1019C0000403C361C3691343C361DDE70220B9E7C0
:1019D00070B5056A046A194E24F001040462B0422D
:1019E000846926D0B0F1804F23D0A6F57C46B04262
:1019F0001FD006F58066B0421BD006F58066B04267
:101A000017D006F57846B04213D006F57056B042AE
:101A10000FD0A6F59436B0420BD044F0010263F328
:101A2000071201F00A0125F00A03194382610162DD
:101A300070BD24F003042243F1E700BF0000014021
:101A4000F8B590F83C30012B05460C4600F082803A
:101A50000120082A85F83C005CD006D842B3042A4D
:101A600036D0002385F83C30F8BD0C2AF9D12B681C
:101A7000CE68186AD1E90027196A21F480511962E9
:101A8000D969120321F4407141EA072120F4204072
:101A900002F4204266F30F310243D9611A62DA6917
:101AA000A16822F44062DA61DA6942EA01224FE079
:101AB0002868CB68D1E90012FFF78AFF8369A26822
:101AC00023F00C0383618369134383610020C8E71B
:101AD0002B68CE68186AD1E90027196A21F0100135
:101AE00019629969120121F4407141EA072120F03D
:101AF000A00002F0A00266F30F31024399611A625E
:101B00009A69A16822F440629A619A6942EA0122C4
:101B10009A61DBE72B68E768186A1E6A26F480760C
:101B2000D1E900211E62DE69120226F0030631436C
:101B300020F4206002F4206267F307110243D961A8
:101B40001A62DA69A16822F00C02DA61DA690A43E2
:101B5000DA61BBE7022087E710B584680A4324F402
:101B60007F4442EA03222243826010BD38B590F8D8
:101B70003C30012B04464FF0020000F08E8084F8C8
:101B80003D000122206884F83C20836823F47F43D1
:101B900023F0770383600B68602B4FD032D8402B43
:101BA00064D016D8202B0DD00AD833F0100109D0FC
:101BB000012384F83D30002384F83C30104638BDC2
:101BC000302BF5D1826822F07002134343F00703F3
:101BD00028E0502BECD14A68CD68016A036A23F0F3
:101BE00001030362836921F00A0123F0F00343EA51
:101BF00005130A4383610262836823F0700343F094
:101C000057030FE0B3F5805F0DD0B3F5005F0CD044
:101C1000702BCDD1CB68D1E90121FFF79DFF8368FF
:101C200043F0770383600022C2E7CB68D1E901214A
:101C3000FFF792FF836843F48043F3E7036A026A85
:101C40004D68C96822F010020262826923F0A00385
:101C500022F4704243EA051342EA013282610362D0
:101C6000836823F0700343F06703DBE74A68CD68BD
:101C7000016A036A23F001030362836921F00A0108
:101C800023F0F00343EA05130A4383610262836889
:101C900023F0700343F04703C4E702468EE7036A6C
:101CA00010B501F01F0101248C4023EA04030362F4
:101CB000036A8A401A43026210BD000008B529B9C0
:101CC00090F83E30012B1FD0012035E0042907D1C8
:101CD00090F83F30012BF7D1022380F83F3016E017
:101CE00008290CBF90F8403090F84130013B18BFF4
:101CF0000123002BE8D108294FF002030CBF80F824
:101D0000403080F8413002E0022380F83E30006825
:101D10000122FFF7C4FF164B984203D003F58063FE
:101D200098420AD1436C43F400434364836803F050
:101D30000703062B17D1002008BDB0F1804FF5D066
:101D40000C4B9842F2D003F580639842EED003F535
:101D500080639842EAD003F59A339842E6D0A3F51F
:101D600094339842E2D0036843F001030360E2E752
:101D70000000014000040040FFF7A0BF08B50029A3
:101D80003ED190F83E2090F84230D2B2012ADBB228
:101D900072D1012B70D10223002947D1026880F84B
:101DA0003E3080F84230D36843F00203D3600068CD
:101DB0000122FFF774FF314B98421AD0B0F1804FE7
:101DC00017D0A3F57C43984213D003F58063984263
:101DD0000FD003F5806398420BD003F57843984207
:101DE00007D003F57053984203D0A3F5943398427B
:101DF0003DD1836803F00703062B38D1002008BDCE
:101E0000042905D190F83F2090F84330D2B2BDE7C5
:101E100008290BBF90F8402090F8412090F84430FA
:101E200090F845300CBFD2B2D2B2AFE7042908D146
:101E3000026880F83F3080F84330D36843F00403F1
:101E4000B4E7082908D1026880F8403080F84430AF
:101E5000D36843F00803A9E70C2980F8413080F8E3
:101E6000453009D10268D36843F010039EE7036848
:101E700043F001030360C1E70120C0E70000014017
:101E800030B590F83C30012B02464FF0020032D0C2
:101E9000136882F83D005C680D68986824F070044F
:101EA0002C435C60144CA3421AD0B3F1804F17D07E
:101EB000A4F57C44A34213D004F58064A3420FD060
:101EC00004F58064A3420BD004F57844A34207D004
:101ED00004F57054A34203D0A4F59434A34204D172
:101EE000496820F08000014399600123002082F8B6
:101EF0003D3082F83C0030BD000001407047704723
:101F000038B50446002800F09B80056C25B905F023
:101F100029FF656484F83C50236CDB0600F18E8059
:101F2000236C23F4885323F0020343F00203236459
:101F3000444B5A6822F440325A605A6861680A4336
:101F40005A60236821695A6822F480725A605A687C
:101F500042EA01225A605A68A16822F040725A602F
:101F60005A680A435A609A68E16822F400629A60EB
:101F70009A680A439A603449A26A8A4252D09968A0
:101F800021F07061996099680A439A609A68E16AE1
:101F900022F040529A609A680A439A609A6822F046
:101FA00002029A609A68217E42EA41029A6094F89D
:101FB0002020002A3ED05A68616A42F400625A60CA
:101FC0005A6822F460425A605A68013942EA413242
:101FD0005A60DA6AE16922F47002DA62DA6A013977
:101FE00042EA0152DA629A6822F400729A609A68B0
:101FF00094F8301042EA41229A609A68616922F4AA
:1020000080629A609A68002042EA81229A60606445
:10201000236C23F0030343F001032364002384F8BB
:102020003C3038BD9A6822F070629A609A6822F05B
:102030004052B2E75A6822F40062C9E70120EDE796
:102040000120EEE7002301400100000F82B00023D1
:10205000019390F83C30012B69D0012380F83C308B
:1020600003689A68D2070BD59A68D1071AD4036C13
:1020700043F010030364436C43F0010343644CE0FA
:102080009A682C4942F001029A602B4A1268B2FB0E
:10209000F1F202EB42020192019A002AE4D0019A85
:1020A000013AF8E7026C22F4E06222F0010242F405
:1020B000807202645A68520541BF026C22F4405299
:1020C00042F480520264026C12F480521CBF426CD3
:1020D00022F006024264002280F83C206FF02202C7
:1020E0001A60164A516811F01F0F15491CD18B4216
:1020F00007D001F580718B420CD1526812F01F0F8E
:102100000BD19A6812F0405F07D19A6842F0804282
:102110009A6002E00B498B4202D0002002B0704767
:10212000526812F0100FEBE78B42F6D1E9E702207C
:10213000F4E700BF40420F005C0000200023014094
:10214000002001400022014003689A68520570B5E2
:1021500004460D460BD59B68DE0508D5036C43F09D
:1021600020030364002380F83C30012070BD00F0A0
:10217000EFFD064623681A6891070CD56FF012022E
:102180001A60226C42F4007222649A6812F0405F76
:1021900017D00020EAE7681CEDD065B923681B68FA
:1021A00013F00203E6D1226C84F83C3042F00402C2
:1021B00022640320DAE700F0CBFD801BA842EDD8B3
:1021C000D8E7227E002AE4D1DA6A12F4700F02D036
:1021D0009B685A05DDD4236C23F480732364236C3D
:1021E000DB04D6D4236C43F001032364D1E70368F6
:1021F000D86C7047F7B50023019390F83C30012B61
:1022000005467CD0012380F83C3008682B688E6836
:10221000092884B230D904EB4402DF681E3A4FF03B
:10222000070C0CFA02FC27EA0C07DF60DF6806FAED
:1022300002F23A43DA604968062901EB81022AD8A2
:10224000596B053A1F26964021EA06015963596BDE
:1022500004FA02F20A435A632A4A934207D1122827
:1022600034D1D2F8043343F48003C2F8043300209D
:1022700085F83C0003B0F0BD1A6900EB400C07275D
:1022800007FA0CF722EA07021A611A6906FA0CF635
:1022900016431E61CFE70C294FF01F010BD81E6BB0
:1022A000233A914026EA01011963196B04FA02F2FC
:1022B0000A431A63D0E7DE6A413A914026EA0101F7
:1022C000D962D96A94400C43DC62C5E7A0F11003DF
:1022D000012BCCD80C4A5368102843F400035360F8
:1022E000C5D10A4B0A4A1B68B3FBF2F30A225343D7
:1022F0000193019B002BBAD0019B013BF8E7022020
:10230000B8E700BF00200140002301405C0000202E
:1023100040420F002DE9F341044640B30368DE0755
:1023200010D423689D075BD42368190700F19D80B2
:1023300023685A0700F1BD80A369002B40F0248177
:1023400000202CE08D4B9A6802F00C02042A07D082
:102350009A6802F00C02082A0BD15B68590208D572
:10236000864B1B689A03DCD56368002BD9D101200A
:1023700015E06368814DB3F5803F13D12B6843F4BA
:1023800080332B6000F0E4FC7C4E054633689B03F1
:10239000C7D400F0DDFC401B6428F7D9032002B04D
:1023A000BDE8F081B3F5A02F04D12B6843F480235E
:1023B0002B60E3E72A6822F480322A602A6822F43C
:1023C00080222A60002BDDD100F0C2FC06462B687B
:1023D0009F03A6D500F0BCFC801B6428F7D9DDE77D
:1023E000664B9A6812F00C0F07D09A6802F00C0244
:1023F000082A11D15B685D020ED4604A1368990700
:1024000002D5E368012BB2D11368216923F0F803E8
:1024100043EAC103136087E7E268594BB2B1012276
:102420001A6000F095FC554D06462B689B0707D5B2
:102430002B68226923F0F80343EAC2032B6073E799
:1024400000F086FC801B0228EFD9A7E71A6000F095
:102450007FFC4A4E054633689F077FF565AF00F065
:1024600077FC401B0228F6D998E76269444B82B199
:102470000122C3F8802E00F06BFC404E0546736FBE
:102480009B073FF555AF00F063FC401B0228F6D9CF
:1024900084E7C3F8802E00F05BFC384E0546736F6E
:1024A0009F077FF545AF00F053FC401B0228F6D98B
:1024B00074E7324B1A6C12F0805228D101921A6CD8
:1024C00042F080521A641B6C03F080530193019B0D
:1024D00001272C4D2B68D8051BD5A368274D012B50
:1024E00027D12B6F43F001032B6700F031FC234E03
:1024F000054641F28838336F9A0739D5002F3FF4EB
:102500001BAF1E4A136C23F08053136414E700279B
:10251000DFE72B6843F480732B6000F019FC06465C
:102520002B68D905D9D400F013FC801B0228F7D9F9
:1025300034E7052B04D12B6F43F004032B67D0E75E
:102540002A6F22F001022A672A6F22F004022A670A
:10255000002BCAD100F0FCFB41F2883806462B6FF5
:102560009B07CBD500F0F4FB801B4045F7D915E75E
:1025700000F0EEFB401B4045BDD90FE7003802409C
:102580000000474200700040374DAA6802F00C027C
:10259000082A3ED0022B354B4FF000021A662BD191
:1025A00000F0D6FB06462B6899011FD4D4E9073208
:1025B0001343626A43EA8213E26A43EA0263A26A4D
:1025C0005208013A43EA02436B60284B264D012230
:1025D0001A6600F0BDFB04462B689A013FF5B0AEC9
:1025E00000F0B6FB001B0228F6D9D7E600F0B0FBDE
:1025F000801B0228D7D9D1E600F0AAFB04462B683D
:102600009B017FF59DAE00F0A3FB001B0228F6D9CD
:10261000C4E6012B3FF4ABAE6B68E26903F48001C2
:1026200091427FF4A4AE216A03F03F028A427FF414
:102630009EAE616A47F6C0721A40B2EB811F7FF40A
:1026400096AEA26A520803F44031013AB1EB024F50
:102650007FF48DAEE26A03F07063B3EB026F14BFD8
:10266000012000209BE600BF0038024000004742E6
:10267000134908B58B6803F00C03042B1CD0082BFE
:102680001CD14A684B68496813F4800314BF0D4895
:102690000D48C1F3881118BF002302F03F02A1FBCF
:1026A0000001FEF75BF9064B5B68C3F3014301339E
:1026B0005B00B0FBF3F008BD0248FCE70248FAE714
:1026C0000038024000127A000024F4002DE9F041A5
:1026D0000D46044610B90120BDE8F081434B1A684D
:1026E00002F007028A4228D321688F072DD4C80739
:1026F00040D43E4B1A6802F00702AA4265D822680D
:1027000051076BD4130707D5394A2169936823F41D
:10271000604343EAC1039360FFF7AAFF344B354A95
:102720009B68C3F30313D35CD840334B1860334B1F
:10273000186806F073FC0020CEE7CAB21A701B6856
:1027400003F007038B42C6D1CEE7294B11F0040FEB
:102750001EBF9A6842F4E0529A600E0742BF9A6820
:1027600042F460429A609A68A06822F0F002024344
:102770009A60BCE762681E4B012A1CD11B6813F4E7
:10278000003FA8D01A4EB36823F003031343B3608D
:1027900000F0DEFA41F288380746B368626803F059
:1027A0000C03B3EB820FA4D000F0D2FAC01B40455B
:1027B000F3D9032090E7911E01291B6802D813F07A
:1027C000007FDEE713F0020FDBE7EAB21A701B6846
:1027D00003F00703AB427FF47EAF90E70449E06863
:1027E0008B6823F4E05303438B608BE7003C02408B
:1027F000003802403CD201085C0000206400002048
:10280000044B054A9B68C3F38223D35C034A1068D8
:10281000D84070470038024034D201085C000020E4
:10282000044B054A9B68C3F34233D35C034A1068E8
:10283000D84070470038024034D201085C000020C4
:102840000F2303600B4B9A6802F0030242609A6800
:1028500002F0F00282609A6802F4E052C2609B6863
:10286000DB0803F4E0530361034B1B6803F0070329
:102870000B60704700380240003C02402DE9F74FE2
:10288000DFF8A491664A00230D6801249C4004EA05
:102890000506AC4340F0AF804D68032705F0030404
:1028A0004FEA430807FA08FC671E012F6FEA0C0C79
:1028B00034D8876807EA0C0ECF6807FA08F747EAAA
:1028C0000E078760476827EA060EC5F300179F408A
:1028D00047EA0E074760C76807EA0C0E8F6807FAD9
:1028E00008F747EA0E07022CC76019D14FEAD30A4E
:1028F00000EB8A0A03F0070BDAF820704FEA8B0B23
:102900004FF00F0E0EFA0BFE27EA0E0E0F6907FAB4
:102910000BF747EA0E07CAF8207001E0032CDAD162
:10292000076804FA08F407EA0C073C4315F4403F33
:10293000046060D000240194D9F8444044F48044F9
:10294000C9F84440D9F8444023F0030707F1804711
:1029500004F4804407F59C37019403F0030C019CB8
:10296000D7F808E04FEA8C0C0F2404FA0CF42EEA96
:10297000040E2C4CA04245D004F58064A04243D004
:1029800004F58064A04241D004F58064A0423FD0A9
:1029900004F58064A0423DD004F58064A0423BD0A1
:1029A00004F58064A04239D004F58064A04214BFCD
:1029B0000824072404FA0CF444EA0E04BC6094686A
:1029C000F74315F4801F0CBF3C4034439460D46837
:1029D00015F4001F0CBF3C403443D460546815F418
:1029E000003F0CBF3C40344354601468ED0354BFB7
:1029F0003C40344314600133102B7FF445AF03B0E7
:102A0000BDE8F08F0024D5E70124D3E70224D1E705
:102A10000324CFE70424CDE70524CBE70624C9E748
:102A2000003C014000000240003802402DE9F04F18
:102A3000434C00224FF0010A4FF00F084FF0030BF8
:102A40000AFA02FC3CEA01030CEA010664D122F016
:102A5000030505F1804505F59C3502F00307AB68D9
:102A6000BF0008FA07F909EA030E364B984258D01E
:102A700003F58063984256D003F58063984254D0A2
:102A800003F58063984252D003F58063984250D09A
:102A900003F5806398424ED003F5806398424CD092
:102AA00003F58063984214BF08230723BB40734596
:102AB00013D1236823EA06032360636823EA06032D
:102AC0006360E36823EA0603E360A36823EA06037E
:102AD000A360AB6823EA0903AB60056853000BFAF7
:102AE00003F3D60825EA030500EB8606056002F02D
:102AF0000705376AAD0008FA05F527EA05073762CA
:102B0000C56825EA0305C560456825EA0C054560EA
:102B1000856825EA030383600132102A90D1BDE85D
:102B2000F08F0023C2E70123C0E70223BEE703239F
:102B3000BCE70423BAE70523B8E70623B6E700BFDE
:102B4000003C0140000002400369194214BF01200B
:102B5000002070470AB1816170470904FBE74369AF
:102B600001EA030221EA030141EA0241816170475F
:102B700070B50446866D00F0EBF894F83530022B02
:102B8000054606D0802363650120002384F8343095
:102B900070BD23681A6822F016021A605A6922F082
:102BA00080025A61226C0AB9A26C1AB11A6822F02A
:102BB00008021A601A6822F001021A602368186875
:102BC00010F0010007D1E26D3F239340B360012371
:102BD00084F83530D9E700F0BBF8401B0528EDD963
:102BE00020230320636584F83500CEE790F8353064
:102BF000022B03D080234365012070470268052320
:102C000080F83530136823F001031360002070470B
:102C100090F83500704700000749CA6822F4E06266
:102C20000302120403F4E063120C134343F0BF6386
:102C300043F40033CB60704700ED00E0164B30B535
:102C4000DC68C4F30224C4F10703251D042B28BF4C
:102C50000423062D4FF0FF358CBF033C002405FAFA
:102C600003F321EA0303A54022EA0502A34000285A
:102C700043EA0203ACBF00F16040084A4FEA031385
:102C8000B8BF00F00F00DBB2AABF00F561401354DB
:102C900080F8003330BD00BF00ED00E014ED00E02F
:102CA000002807DB044A4109012300F01F0083408C
:102CB00042F82130704700BF00E100E000280CDB43
:102CC0004309064900F01F0020330122824041F8E9
:102CD0002320BFF34F8FBFF36F8F704700E100E0F9
:102CE000BFF34F8F0549064BCA6802F4E0621343F5
:102CF000CB60BFF34F8F00BFFDE700BF00ED00E0EA
:102D00000400FA0508B50B4B1A6842F400721A6009
:102D10001A6842F480621A601A6842F480721A607B
:102D20000320FFF779FF002006F078F906F056F946
:102D3000002008BD003C0240034A044B11681B7888
:102D40000B441360704700BFF001002060000020BA
:102D5000014B1868704700BFF001002038B50446E9
:102D6000FFF7F6FF631C1CBF054B1B78054618BF19
:102D7000E418FFF7EDFF431BA342FAD338BD00BFB1
:102D80006000002010B5044650B1437903F0FF0203
:102D900013B9027105F028F801236371002010BDFA
:102DA0000120FCE770B5044608B9012070BD90F819
:102DB0003D3003F0FF021BB980F83C2005F04CF8D1
:102DC000242384F83D3023681A6822F001021A6037
:102DD0001A6842F400421A601A6822F400421A602B
:102DE000FFF70EFD3F4B65689D4294BF3E4B3F4B46
:102DF00098428CBF00230123002BD6D12268394E84
:102E000051683B4BB0FBF3F321F03F011943B5424E
:102E1000516088BF4FF49676116A88BF734321F0E2
:102E20003F0184BF4FF47A76B3FBF6F301330B43D3
:102E30001362D169431E2B4821F44F41854221F092
:102E4000FF0132D86D0040F6FC70B3FBF5F301339F
:102E5000034242D0C3F30B031943D161D4E90730D5
:102E60001168034321F0C0010B4313609168D4E95A
:102E7000030321F40341034321F0FF010B4393605B
:102E8000D4E90530D168034321F0FF010B43D3603F
:102E9000136843F00103136000202023206484F8AA
:102EA0003D30206384F83E0080E7A06850B905EB10
:102EB0004505B3FBF5F30133C3F30B037BB143F4D7
:102EC0000043C9E719206843B3FBF0F30133C3F3B0
:102ED0000B0323B143F44043BEE70423BCE70123C3
:102EE000BAE700BFA08601007F841E00FF083D00F6
:102EF00040420F00704770477047704770477047F7
:102F0000704790F83D2008B5036DD2B283B9C36C09
:102F10000268012B836C05D1DBB21361036D0233B0
:102F2000036508BDC3F307231361036D0133F7E79E
:102F3000036D012B03D1836C0268DBB2F4E7036DF0
:102F4000022B2FD1222A05D10268136843F4807323
:102F50001360EAE7438D9BB263B1212A0AD1436A29
:102F6000026813F8011B11614362438D013B9BB260
:102F70004385D6E7438D9BB2002BD2D1212AD0D1F5
:102F80000268516821F4E0615160116841F40071F8
:102F900011602022036380F83D2080F83E30FFF767
:102FA000AFFFBEE703685A69120644BF00221A61E8
:102FB000B7E770477047704737B5002301932D4B33
:102FC000806B1B6890F83D2046F2A811B3FBF1F32B
:102FD00023214B4301930368D2B2019941BB016C99
:102FE00041F020010164446B0CB10021E163816B6D
:102FF00009B10025CD631D6825F480651D6000259D
:10300000458504B1256501B10D65196821F00101FF
:10301000196090F83D10602911D1202380F83D30CF
:10302000002380F83E300364FFF7C5FF03B030BDD6
:1030300001990139019119688905CED4D3E702F0CD
:103040002802282A0ED1196841F001011960196877
:1030500041F4806119600023036380F83D20FFF78D
:10306000A9FFE3E7202380F83D30002380F83E30BD
:10307000F5E700BF5C00002010B590F83D2090F807
:103080003E30102BD9B204460368D2B201D0402999
:1030900013D1222A11D1196821F4006119605968ED
:1030A00011F4006106D1602A1EBF202284F83D2061
:1030B00084F83E100022226307E002F0280128294C
:1030C000EDD10022226384F83D105A6812F40062A8
:1030D0004FD05A68606B22F400625A6090F8353025
:1030E000012B374B2BD00365FFF780FD50B12268D1
:1030F000606B136823F001031360202384F83D30D4
:10310000036D9847236C19071FBF2268536823F487
:10311000E063536094F83D30226C5207DBB20DD56A
:10312000282B0BD1274BE362202200232363204668
:1031300084F83D2084F83E30FFF7E1FE10BDA06B1F
:103140000365FFF753FD0028DCD023685A69510658
:1031500005D51A69636A1A70636A0133636222686B
:10316000A06B136823F001031360202384F83D3023
:10317000C6E794F83D10602915D1202184F83D1050
:1031800022645A69520605D51A69636A1A70636A1D
:10319000013363622268136823F001031360204641
:1031A000FFF709FFAEE75A69500605D51A69636A49
:1031B0001A70636A013363622046FFF7FBFEA1E7E2
:1031C000B92F01080000FFFFF0B5036804465A68F4
:1031D000C66A90F83E0094F83D1010288FB0C5B232
:1031E000C9B202D0402D40F0DD829F69586910F0CD
:1031F000010F07D1B6F52A0F02D0B6F12A4F51D1EF
:103200000FB0F0BD96054DD5E26AB2F52A0F0CD18C
:103210000122E26294F83E20402A11D1226D52B977
:10322000626C02F0FE021A61EAE7E26AB2F12A4F2A
:10323000F0D10822EDE7626C42F00102D2B2F2E76F
:103240002269B2F5804F1AD194F83D20212A626C90
:1032500011D102F0FE021A61626B0AB1D26B2AB977
:10326000A26B002ACCD0D26B002AC9D05A6842F493
:1032700000625A60C4E742F00102D2B2EBE7226D6D
:1032800032B9626CD21102F0060242F0F002CAE7D3
:10329000226D012AB4D1626CD21102F0060242F012
:1032A000F102C0E7060703D5960501D5626CE4E795
:1032B000860740F1E880960540F1E58094F83E10DD
:1032C000E26A256B94F83D002228C9B240F0D38011
:1032D000206D40B9402906D101905A6901929B693D
:1032E0000193019B8CE7216D89B92069B0F5404FAE
:1032F0000DD102915A6902929A690292029A1A6851
:1033000042F480721A60236D0133236578E7618D82
:1033100089B251B903915A6903929A690392039A47
:103320001A6842F400721A6019E0618D89B20129AD
:1033300049D112F5803F1BD11A6822F480621A60CD
:103340005A6812F400620CD01A6822F480621A6083
:10335000002204925A6904929B690493049B0023FF
:10336000D3E705925A6905929A690592059AD7E7BB
:10337000082A1CD0202A1AD0122D0DD1012A16D1CC
:103380001A6822F480621A60002206925A69069234
:103390009B690693069BE2E7102AF1D8824941FA1D
:1033A00002F2D707ECD41A6842F48062EBE71A689D
:1033B00022F480621A60002207925A6907929A6981
:1033C0000792079AACE7618D89B2022930D1102AA1
:1033D00003D87649D140CE0715D4196821F480610D
:1033E0001960196841F40061196059680D0514D518
:1033F000202A1AD8072A0AD8012A0ED15A6842F47C
:1034000080525A6009E0196841F48061ECE7A2F14A
:103410000801674ACA40D007F0D4002208925A69CE
:1034200008929B690893089B99E712F5803FE4E7AF
:10343000196841F4806119605968090510D5202A7E
:1034400016D8072A06D8012A0AD15A6842F48052AF
:103450005A6005E0A2F10801554ACA40D207F4D4E7
:10346000002209925A6909929B690993099B76E7A0
:1034700012F5803FE8E700220A925A690A929B6996
:103480000A930A9BBCE67F0740F194805E6836058C
:103490003FF5B6AE070600F004063ED550053CD514
:1034A000002E3DD194F83D20258D94F83E10E06A21
:1034B000D2B2C9B2C5B9212A18D1082858D02028BB
:1034C00056D010F5803F53D05A6822F4E0625A601B
:1034D00011232363002384F83E30202384F83D30F9
:1034E0002046FFF707FD8BE6212A05D040297FF40F
:1034F00087AE222A7FF484AE628D92B21AB95A68DE
:1035000022F48062B5E694F83E20402A16D1204687
:103510000FB0BDE8F040FFF7F4BC002E3FF470AEF2
:1035200097057FF56DAE212939D1E16A94F83D20E8
:10353000212A7FF465AE628D92B24AB1626A12F8B6
:10354000011B19616262638D013B9BB2638557E683
:1035500008290DD020290BD011F5803F08D05968DB
:1035600021F4E06159601123236384F83E20B4E71D
:103570005A6822F4E0625A601A6842F400721A60D3
:1035800000232022236384F83D2094F83E2084F811
:103590003E30402A2046A4D1FFF7B2FC30E6402D51
:1035A0007FF42EAEB3E700BFEBFFFEFF1400010077
:1035B0000101000159680E053FF522AE450600F0F5
:1035C000040140F18680500540F18380002940F0DD
:1035D000838094F83D20222A7FF412AEE06A628D47
:1035E00092B2032A14D91A69636A1A70636A0133A2
:1035F0006362638D013B9BB26385638D9BB2032B3A
:103600007FF4FEAD2268536823F480635360F7E5CE
:10361000E56A022D3FF473AF012A3FF670AF7A4A94
:103620000B91126846F2A811B2FBF1F202EB820292
:103630000B920B9A013A0B920B99D1B9226C42F082
:10364000200222645A6822F4E0625A601A69636AAE
:103650001A70636A01336362638D013B9BB26385B9
:10366000202384F83D30204684F83E10FFF7A2FC6A
:10367000C6E51A6812F40072DBD1196821F4806182
:103680001960596821F4E06159601969636A197019
:10369000636A01336362638D013B9BB263852023C0
:1036A00084F83D3094F83E3084F83E20402B04D11D
:1036B00022632046FFF77DFCA2E5082801D02028E0
:1036C00001D1002300E0122323632046FFF713FCFF
:1036D00096E500293FF494AD92057FF591ADE26A3D
:1036E000608D616A80B2042809D15A6822F4806230
:1036F0005A601B690B70636A0133636223E7608D54
:1037000080B203280CD15868042A20F480605860E5
:10371000EFD0022AEDD01A6822F480621A60E8E73E
:10372000608D80B20228E4D1042A33D007D8012A60
:1037300007D0022A2ED0186840F4007004E0102A46
:10374000F9D1186820F4806018601B690B70616AF9
:103750004B1C6362638D013B9BB2638523681B69CD
:103760004B70636A216801336362638D013B9BB2D6
:1037700063854B6823F440734B60202384F83D300D
:1037800094F83E30402B4FF0000384F83E3005D1D2
:1037900023638EE7186840F48060D5E7082A90D04C
:1037A000202A8DE7206C10B35869002587072DD596
:1037B00096052BD5226C02B19D6994F83D2002F04C
:1037C0002802282A16D15A6822F480625A602F06ED
:1037D00085F004014FF0000354BFA289228B84F8C6
:1037E0003C30C1F380012046FFF788FB08E59D6966
:1037F0005869DBE700220C9259690C919B690C9384
:103800000C9B84F83C20FBE45C000020C60640F1E1
:10381000B180950540F1AE8094F83D505A6822F48D
:10382000E0625A6000220D925A690D921A6842F0C5
:1038300001021A600D9A1A6822F480621A605A68AE
:103840001005EDB220D505F0F702222A4AD1A06B6F
:103850000268526892B26285628D92B21AB1226C8D
:1038600042F0040222645A6822F400625A60FFF7B0
:10387000CFF9012808D0A06B794B0365FFF7B6F9A3
:1038800010B1A06B036D9847638D9BB213B323688F
:103890005A69510709D51A69636A1A70636A013354
:1038A0006362638D013B9BB2638523685A6952064C
:1038B00009D51A69636A1A70636A01336362638D9A
:1038C000013B9BB26385638D9BB21BB1236C43F0BC
:1038D00004032364236C13B320460FB0BDE8F0400B
:1038E000FFF7CABB606B0268526892B26285628D54
:1038F00092B21AB1226C42F0040222645A6822F495
:1039000000625A60FFF784F90128BDD0606B544B08
:103910000365FFF76BF90028B6D0606BB2E72A2D7C
:1039200006D12363282384F83D302046FFF7E5FACB
:1039300094F83D30282B0CD14A4BE362202200231F
:103940002363204684F83D2084F83E30FFF7D7FA01
:1039500056E4236B222B02D0222D7FF451AC00239E
:103960002022236384F83D2084F83E302046FFF770
:10397000C4FA45E401F0F701212900F0040535D12E
:10398000070627D5560525D53DBB94F83D00628D29
:1039900092B2C0B2002A3FF433AC626A12F8015B03
:1039A0001D616262628D013A92B26285628D92B24D
:1039B000002A7FF425AC29287FF422AC5A6822F42F
:1039C00080625A6028232163204684F83D30FFF747
:1039D00093FA15E4002D3FF413AC95057FF510AC78
:1039E000628D92B2002A3FF40BACA7E5400627D5C2
:1039F000510525D53DBB94F83D20618D89B2D2B2E9
:103A000000293FF4FDAB1969636A1970636A0133D9
:103A10006362638D013B9BB26385638D9BB2002B18
:103A20007FF4EEAB2A2A7FF4EBAB2268536823F4D1
:103A30008063536022232363282384F83D3095E775
:103A4000002D3FF4DDAB92057FF5DAAB628D92B2CB
:103A5000002A3FF4D5AB1A69636A1A704BE600BFBF
:103A6000B92F01080000FFFFF8B503685F695E68C1
:103A700090F83E2017F480750446D2B206D016F4B2
:103A800080751EBF6FF4807159610125B80506D598
:103A9000F10542BF6FF4007145F0020559617805E8
:103AA00036D5F10534D5608D94F83D10D4F830C08A
:103AB000202A80B2C9B25FD100285DD101F0F700A1
:103AC000212804D0282957D1BCF1210F54D194F8D2
:103AD0003D20E16A0829D2B201D020292AD1282A22
:103AE00028D12E4AE2625A6822F4E0625A606FF4EA
:103AF00080625A611A6822F480621A6000232022D0
:103B00002363204684F83D2084F83E30FFF7F7F920
:103B10003A053FD5F3053DD523686FF4006245F0C3
:103B200008055A61236C2B4323642046BDE8F84006
:103B3000FFF7A2BA212A1BD11849E16222630021B2
:103B4000202284F83D2084F83E105A6822F4E06276
:103B50005A606FF480625A611A6822F480621A60B7
:103B60005A69100648BF19612046FFF7C5F9CFE72B
:103B70006FF480625A61CBE76FF48061102A59615B
:103B800045F0040501D0402AC2D11A6842F40072FF
:103B90001A60BDE7002DC5D1F8BD00BF0000FFFFD2
:103BA0002DE9F3471F46894690460446FFF7D0F8B3
:103BB0000A9D3D442D1AFFF7CBF8264B1E68C6F32D
:103BC000CB366E43824601962268936839EA030336
:103BD0000CBF01230023434501D100202EE07B1CB4
:103BE000F3D0FFF7B5F8A0EB0A00A84229D3236869
:103BF0005A6822F0E0025A606268B2F5827F0AD108
:103C0000A268B2F5004F02D0B2F5806F03D11A68F6
:103C100022F040021A60A26AB2F5005F07D11A686A
:103C200022F400521A601A6842F400521A6001230A
:103C300084F85130002384F85030032002B0BDE8EE
:103C4000F087019B1BB1019B013B0193BCE71D4623
:103C5000BAE700BF5C000020F0B585B00B460092CB
:103C60000E461746022101220446FFF799FF05463A
:103C700028B1636D43F020036365032515E0124B03
:103C80001868124BB0FBF3F04FF47A735843636833
:103C90000390B3F5827F0BD1009733462A468021EB
:103CA0002046FFF77DFF0028E3D1284605B0F0BD90
:103CB000039B002BF9D0039B013B039323689B6874
:103CC0001B06F5D4F1E700BF5C00002000366E0152
:103CD00037B50B464168B1F5827F044608D00092A3
:103CE00001210022FFF75CFFD0B9002003B030BDF6
:103CF0008168B1F5004F02D0B1F5806F07D125681A
:103D00002868B1F5806F20F04000286004D0009250
:103D1000802100222046E5E7009201210022F9E7F8
:103D2000636D43F0200363650320DFE710B50446AD
:103D3000002855D0436A002B4ED14268B2F5827FED
:103D400000D0C3610023A36294F8513003F0FF0256
:103D500023B984F85020204604F02EF92168A06889
:103D6000A269022384F851300B6823F040030B60F2
:103D7000636800F4044003F482730343E06800F4D2
:103D800000600343206900F002000343606900F013
:103D90000100034302F400700343E06900F03800BF
:103DA0000343206A00F080000343A06A00F400503F
:103DB00003430B60636A120C03F0100302F0040269
:103DC0001A434A60CB6923F40063CB6100200123CE
:103DD000606584F8513010BD0023C0E90433B1E7B9
:103DE0000120F8E72DE9F74304461F460D469046AB
:103DF000FEF7AEFF94F85130012B8146D8B240F067
:103E00009F80002D74D0B8F1000F71D094F850301D
:103E1000012B00F09580032384F851300023636563
:103E2000C4E91033A4F83680A363A387E387A368AB
:103E3000266884F85000B3F5004F2563A4F8348059
:103E400007D1336823F040033360336843F4804381
:103E500033603368E2685B065EBF336843F040035B
:103E60003360B2F5006F636845D113B1B8F1010F4B
:103E700007D135F8023BF3602563E38E013B9BB22B
:103E8000E386E38E9BB2D3B94A4639462046FFF714
:103E9000E3FE002851D1A36833B901932368DA689F
:103EA00001929B680193019B012384F85130606D5E
:103EB0000023C01A84F8503018BF012018E022688F
:103EC0009368980705D5236B33F8021BD1602363F1
:103ED000D3E7FEF73DFFA0EB0900B842D1D3791C30
:103EE000CFD0012384F85130002384F850300320D0
:103EF00003B0BDE8F08313B1B8F1010F08D12B78FE
:103F00003373236B01332363E38E013B9BB2E38660
:103F1000E38E9BB2002BB7D023689A68920703D533
:103F2000226B12781A73ECE7FEF712FFA0EB090080
:103F3000B842EDD37B1CEBD0D3E720236365AAE71F
:103F40000220D5E72DE9F74304460D4691461E466B
:103F5000DDF82880FEF7FCFE94F851306268012BF2
:103F60000746D9B20AD0B2F5827F40F0E580A36857
:103F7000002B40F0E180042940F0DE80002D4BD082
:103F8000B9F1000F48D0002E46D094F85030012BE4
:103F900000F0D280012384F8503094F85130C4F8F6
:103FA0003890042B1CBF052384F85130002363652F
:103FB000C4E910332368E687E6861968A6874906B0
:103FC00058BF1968256358BF41F04001A68658BF05
:103FD0001960E168B1F5006F55D10AB1012E07D122
:103FE00035F8022BDA60E38E2563013B9BB2E38652
:103FF0000125E38E9BB28BB9E38F9BB273B93A462E
:1040000041462046FFF728FE002800F0818020234B
:104010006365002384F85030012031E021688B680B
:104020009A070DD5E38E9BB253B145B1236B33F89C
:10403000022BCA602363E38E013B9BB2E38600251B
:104040008A6812F001020CD0E38F9BB24BB1A36BD4
:10405000C96823F8021BA363E38F013B9BB2E3878C
:104060001546FEF775FEC01B4045C2D3B8F1FF3FB1
:10407000BFD0012384F85130002384F8503003204E
:1040800003B0BDE8F0830AB1012E08D12A781A7373
:10409000236B01332363E38E013B9BB2E38601254F
:1040A0002DE0226893689B070ED5E38E9BB25BB12F
:1040B0004DB1236B1B781373236B01332363E38EA2
:1040C000013B9BB2E38600252268916811F0010153
:1040D0000DD0E38F9BB253B1A36BD2681A70A36B60
:1040E0000133A363E38F013B9BB2E3870D46FEF7E9
:1040F0002FFEC01B404502D3B8F1FF3FB9D1E38E7C
:104100009BB2002BCDD1E38F9BB2002BC9D176E7B8
:10411000A36833B901932368DA6801929B6801931D
:10412000019B012384F85130606D0023C01A84F88C
:10413000503018BF0120A3E70220A1E72DE9F74383
:104140001E4690F85130012B044689461746DDB2D1
:1041500004D00225284603B0BDE8F0830029F9D039
:10416000002AF7D04368B3F5827F0BD183684BB93F
:10417000042380F85130134600960A46FFF7E2FE0A
:104180000546E7E7FEF7E4FD94F85030012B804642
:10419000DFD0A268C4F838900123002584F850309D
:1041A000B2F5004F4FF0040384F85130C4E91055C4
:1041B00065652368E787A7872563A586E58607D118
:1041C0001A6822F040021A601A6822F480421A60CB
:1041D0001A6855065EBF1A6842F040021A60E3682A
:1041E000F3B1E38F9BB2FBB123689A68D2073CD549
:1041F000DA68A36B23F8022BA363E38F013B9BB226
:10420000E387EEE723689A68D0071ED5A26B1B7B75
:104210001370A36B0133A363E38F013B9BB2E3876E
:10422000E38F9BB2002BEDD1424631462046FFF78B
:104230004FFD18BB012384F85130656D0023ED1A42
:1042400084F8503018BF012584E7FEF781FDA0EB0C
:104250000800B042E4D3711CE2D0012384F851304D
:10426000002384F85030032574E7FEF771FDA0EBBE
:104270000800B042B5D3731CB3D0EEE720236365CA
:10428000D8E7026802F10C0353E8003F23F490736F
:104290000C3242E8003102680029F2D102F1140325
:1042A00053E8003F23F0010302F1140C4CE8003105
:1042B0000029F3D1036B012B0BD102F10C0353E85E
:1042C000003F23F0100302F10C0C4CE800310029F0
:1042D000F3D1202380F842300023036370470000AD
:1042E0000268C16838B5136923F440530B43136166
:1042F000054683680069D168034368690343E86938
:1043000021F4164121F00C0103430B43D3605369A0
:10431000A96923F440730B4353611F4B9A4203D0A6
:1043200003F580639A4224D1FEF77AFAEA691921EB
:10433000B2F5004FD5E90043A0FB01011CD1DA180A
:104340004FF0000545EB0503FCF708FB6422B0FBCA
:10435000F2F102FB1103DB003233B3FBF2F303F0A3
:1043600007025B0002EB011203F4F8731344A3602D
:1043700038BDFEF745FAD9E79A009B0FFCF7EEFA35
:104380006422B0FBF2F102FB11031B013233B3FBD9
:10439000F2F303EB0113EAE700100140F7B505461D
:1043A0000C4617461E462A68136834EA030301D1F7
:1043B000002021E0701CF7D0FEF7CAFCC01B86422B
:1043C0001CD3DEB12B68DA685107ECD5802CEAD01B
:1043D000402CE8D01A681207E5D5002401941A6829
:1043E00001925B6801932846019BFFF74AFF08236F
:1043F0006B6485F84040012003B0F0BD0320FBE76B
:1044000010B5044648B390F8413003F0FF021BB9E1
:1044100080F8402004F0A0F82268242384F841307A
:10442000D36823F40053D3602046FFF759FF236875
:104430001A6922F490421A615A6922F02A025A61DA
:10444000DA6842F40052DA6000202023606484F8C5
:10445000413084F84230606310BD0120FCE710B5A4
:104460000446A0B10268242380F84130D36823F4C5
:104470000053D36004F014F90020606484F8400015
:1044800084F8410084F842002063606310BD01207D
:10449000FCE72DE9F843984690F84130202B04467C
:1044A0000E4617463FD100293FD0002A3DD0212398
:1044B0000025456480F84130FEF74AFCA368A784D4
:1044C000B3F5805F8146E78403D123690BB9354694
:1044D0001E46E38C9BB253B943464A4640212046D0
:1044E000FFF75CFF202350B984F841300AE04346CF
:1044F0004A4680212046FFF751FF28B1202384F847
:1045000041300320BDE8F88322684EB935F8023BFC
:10451000C3F308035360E18C013989B2E184D8E721
:1045200016F8013BF6E70220ECE70120EAE77047C6
:1045300008B5806B0023C38504F0D8F908BD704727
:1045400090F84230222B07B542D181680268836A15
:10455000B1F5805F3FD1016900293FD15268C2F3B4
:10456000080223F8022B8362C38D013B9BB2C385F3
:10457000002B2DD10268D16821F02001D160D168D3
:1045800021F48071D160516921F001015161202233
:1045900080F842204363026B012A026828D103633A
:1045A00002F10C0353E8003F23F0100302F10C0C5E
:1045B0004CE800310029F3D11368DB0605D50191E1
:1045C0001368019353680193019B818DFFF7B7FF37
:1045D00003B05DF804FB39B9016929B95268D2B258
:1045E0001A70836A0133BEE7526802F07F02F7E770
:1045F00004F0A4FBECE7000003681A6873B5160723
:10460000D9685D69044608D1960668D58D0666D5D9
:1046100002B0BDE87040FFF793BF05F0010001F460
:10462000907505435BD0D60705D5CD0542BF636CB9
:1046300043F001036364530704D518B1636C43F07E
:1046400002036364960704D518B1636C43F0040356
:104650006364150707D501F0200303431EBF636C95
:1046600043F008036364636C002B32D0920604D5D8
:104670008B0602D52046FFF763FF26687369626CDC
:1046800003F0400302F0080253EA0205204622D05C
:10469000FFF7F7FD73695E0618D5226802F114036F
:1046A00053E8003F23F04003143242E80031002970
:1046B000F3D1E06B50B1774B0365FEF797FA40B149
:1046C000E06B036D02B0BDE870401847204604F06F
:1046D0000DF902B070BD04F009F96564F9E7206BCB
:1046E000012840F09B80D50640F19880C80640F133
:1046F0009580002201921A6801925A680192019AEB
:104700005969A28D490656D5E06B0168496889B29E
:10471000002947D0914245D2C269E185B2F5807F38
:1047200036D003F10C0252E8002F22F4807203F11C
:104730000C0040E800210029F3D103F1140252E8F3
:10474000002F22F0010203F1140040E800210029AB
:10475000F3D103F1140252E8002F22F0400203F1DA
:10476000140040E800210029F3D1202284F84220DF
:10477000216303F10C0252E8002F22F0100203F132
:104780000C0040E800210029F3D1E06BFEF7F0F9BE
:1047900002236363E38DA18DC91A89B22046FFF716
:1047A000CEFE96E7914294D1C369B3F5807F90D154
:1047B00002236363F2E7E18DE08D80B289B20028C5
:1047C00087D0511A89B2002983D003F10C0252E834
:1047D000002F22F4907203F10C0545E80020002818
:1047E000F3D103F1140252E8002F22F0010203F189
:1047F000140545E800200028F3D1202284F8422047
:10480000206303F10C0252E8002F22F0100203F1A2
:104810000C0545E800200028F3D1C9E7160628D585
:104820000D0626D594F84120212A7FF452AFA168C5
:10483000226AB1F5805F17D12169A9B932F8021B4C
:10484000C1F3080159602262E28C013A92B2E2841B
:10485000002A7FF43EAFDA6822F08002DA60DA687C
:1048600042F04002DA6034E7511C216212785A604B
:10487000EAE750067FF52DAF4A067FF52AAFDA68E2
:1048800022F04002DA60202384F841302046FFF70E
:104890004EFE1EE731450108C2850023828502696C
:1048A0004364222380F84230816203681AB1DA68D7
:1048B00042F48072DA605A6942F001025A61DA68A1
:1048C00042F02002DA600020704770B490F8426035
:1048D000202E06D141B13AB10024046370BCFFF729
:1048E000DBBF022070BC70470120FBE700F108032A
:1048F0004FF0FF32C0E902234360036100230360ED
:10490000704700230361704743684B609A688A6070
:10491000516099600368086101330360704730B5E6
:104920000C68631C0AD103695A684A6091608B6005
:104930005960036808610133036030BD00F108026B
:10494000134652681568A542FAD9EDE7D0E901127D
:1049500003698A6051605968814208BF5A60002229
:1049600002611A68013A1A601868704710B5044667
:1049700001F0C0FAA46B01F0DDFAB4FA84F040094A
:1049800010BD70B51646026C856B044642B90668C8
:104990009EB9806801F012F8A6600135A56370BD6C
:1049A0006EB9406807F0C0FE6368226C1344A268C9
:1049B0006360934224BF236863600020EDE7C06812
:1049C00007F0B2FE226CE36851429B1A2268E36052
:1049D00093423EBFA3685B18E360022EEDD10DB198
:1049E000013DEAE72846D8E7034610B41A6C0846AA
:1049F0006AB1DC68996814448C4228BF1968DC608D
:104A000028BFD960D9685DF8044B07F08DBE5DF80A
:104A1000044B704770B5044601F06CFA94F84550A9
:104A200004F124066DB2002D01DD636AB3B9FF23E2
:104A300084F8453001F07EFA01F05CFA94F84450B5
:104A400004F110066DB2002D01DD23697BB9FF234F
:104A500084F84430BDE8704001F06CBA304600F094
:104A6000C5FE08B100F04CFF013D6DB2DBE73046FA
:104A700000F0BCFE08B100F043FF013D6DB2E2E77B
:104A800038B50D46044640B94FF0500383F3118802
:104A9000BFF36F8FBFF34F8FFEE701F02BFAD4E91E
:104AA0000F31226862604B43D0185B1A1A44A06031
:104AB000FF230020A063E26084F8443084F845308E
:104AC000A5B9236973B104F1100000F08FFE48B15D
:104AD0004FF0E0234FF08052C3F8042DBFF34F8F07
:104AE000BFF36F8F01F026FA012038BD04F11000EA
:104AF000FFF7FCFE04F12400FFF7F8FEF2E737B5FC
:104B00000D461C4640B94FF0500383F31188BFF3A4
:104B10006F8FBFF34F8FFEE743B94FF0500383F31E
:104B20001188BFF36F8FBFF34F8FFEE74AB191B982
:104B30004FF0500383F31188BFF36F8FBFF34F8F94
:104B4000FEE741B14FF0500383F31188BFF36F8F3D
:104B5000BFF34F8FFEE748230193019B482B08D0FA
:104B60004FF0500383F31188BFF36F8FBFF34F8F64
:104B7000FEE70121002D08BF2246C4E90F0584F895
:104B8000461022602046019BFFF77AFF204603B0C3
:104B900030BD2DE9FF410F4601921E46044640B943
:104BA0004FF0500383F31188BFF36F8FBFF34F8F24
:104BB000FEE751B9036C43B14FF0500383F3118802
:104BC000BFF36F8FBFF34F8FFEE7022E0BD1E36B66
:104BD000012B08D04FF0500383F31188BFF36F8F80
:104BE000BFF34F8FFEE700F091FE054620B300258E
:104BF0004FF0000801F07EF9A26BE36B9A4227D2D6
:104C0000324639462046FFF7BCFE636A1BB104F109
:104C1000240000F0EBFD48B14FF0E0234FF080524C
:104C2000C3F8042DBFF34F8FBFF36F8F01F082F9EC
:104C3000012004B0BDE8F081019B002BD8D04FF0DB
:104C4000500383F31188BFF36F8FBFF34F8FFEE7DD
:104C5000022ED5D0019B1BB901F06CF90020E8E7CA
:104C600015B902A800F004FE01F064F900F010FC90
:104C700001F040F994F84430FF2B08BF84F84480D9
:104C800094F84530FF2B08BF84F8458001F052F9B5
:104C900001A902A800F0F8FD38BB01F02BF9A26BC6
:104CA000E36B9A420ED101F045F9019904F110002D
:104CB00000F082FD2046FFF7ADFE00F08BFC48B10E
:104CC000012597E701F036F92046FFF7A3FE00F033
:104CD00081FCF5E74FF0E0234FF08052C3F8042D3C
:104CE000BFF34F8FBFF36F8FEAE72046FFF792FEC7
:104CF00000F070FCB2E713B500220B46009011469D
:104D00000120FFF7FCFE044638B1002383600360F6
:104D1000C3601A461946FFF73CFF204602B010BD9B
:104D200038B5482000F0A8FF044688B100250121CD
:104D3000C0E90F1580F846500060FFF7A1FEA5609E
:104D40002560E5602B462A4629462046FFF721FFCD
:104D5000204638BD70B50D46044640B94FF05003AB
:104D600083F31188BFF36F8FBFF34F8FFEE7036CA0
:104D700043B14FF0500383F31188BFF36F8FBFF33C
:104D80004F8FFEE7036853B9836843B14FF0500378
:104D900083F31188BFF36F8FBFF34F8FFEE701F0EE
:104DA000BBF9EFF311864FF0500383F31188BFF383
:104DB0006F8FBFF34F8FA26BE36B934219D994F8B7
:104DC00045100132FF294BB2A2630DD1636A3BB19A
:104DD00004F1240000F00AFD10B10DB101232B6095
:104DE000012086F3118870BD01335BB284F8453031
:104DF000F6E70020F5E7F0B585B00446019140B92B
:104E00004FF0500383F31188BFF36F8FBFF34F8FC1
:104E1000FEE7056C45B14FF0500383F31188BFF3F3
:104E20006F8FBFF34F8FFEE700F070FD064620B393
:104E30002E46002701F05EF8A36B53B3013BA3633A
:104E4000236813B900F060FEA060236973B104F118
:104E5000100000F0CBFC48B14FF0E0234FF080523F
:104E6000C3F8042DBFF34F8FBFF36F8F01F062F8CB
:104E7000012005B0F0BD3546DBE7019B002BFAD0E1
:104E80004FF0500383F31188BFF36F8FBFF34F8F41
:104E9000FEE7019B53B9002D66D04FF0500383F31A
:104EA0001188BFF36F8FBFF34F8FFEE716B902A8CB
:104EB00000F0DEFC01F03EF800F0EAFA01F01AF82A
:104EC00094F84430FF2B08BF84F8447094F84530C0
:104ED000FF2B08BF84F8457001F02CF801A902A847
:104EE00000F0D2FC50BB2046FFF740FD00B3236822
:104EF0003BB900F0FFFFA06800F018FD054601F087
:104F000019F8019904F1240000F056FC2046FFF73F
:104F100081FD00F05FFB48B94FF0E0234FF0805275
:104F2000C3F8042DBFF34F8FBFF36F8F012681E7C6
:104F30002046FFF76FFD00F04DFBF7E72046FFF737
:104F400069FD00F047FB2046FFF710FD0028EDD07B
:104F500065B100F0CFFF616A19B1236B1968C1F127
:104F60000701A06800F07AFD00F0E4FF002080E770
:104F70002DE9F84389469046044640B94FF0500366
:104F800083F31188BFF36F8FBFF34F8FFEE751B9E3
:104F9000036C43B14FF0500383F31188BFF36F8F5D
:104FA000BFF34F8FFEE701F0B7F8EFF311874FF033
:104FB000500383F31188BFF36F8FBFF34F8FA56B3F
:104FC0000DB394F84460494676B22046FFF70CFDD5
:104FD000013D731CA56311D1236953B104F1100085
:104FE00000F004FC28B1B8F1000F02D00123C8F88A
:104FF0000030012087F31188BDE8F883013676B2CE
:1050000084F84460F5E72846F4E700002DE9F04114
:10501000044600F06FFF2F4B2F4E1A682F4F0132BE
:105020001A603568002D4AD134601B68012B1FD1EE
:10503000B84640460135FFF759FC072D08F1140822
:10504000F7D1DFF8C080264D4046FFF74FFC2846D9
:10505000FFF74CFC2348FFF749FC2348FFF746FCC9
:105060002248FFF743FC224BC3F80080214B1D6010
:10507000214A22491368086801331360E26A012358
:105080009340034314200B6000FB0270211DFFF7C7
:105090003BFC00F04FFF1A4B1B6873B13368DA6AB0
:1050A000E36A9A4209D24FF0E0234FF08052C3F8EE
:1050B000042DBFF34F8FBFF36F8FBDE8F081104B0E
:1050C0001A68E36A002AD3D13268D26A9A4298BF3A
:1050D0003460CDE718020020180300208C02002065
:1050E0006402002048020020340200201C0200203C
:1050F000600200205C020020FC0100201002002061
:105100000C02002078020020F8B51A4B1A4D1C68DA
:105110000646286804300F46FFF718FC40B92A6895
:105120001649D06A0B680122824023EA02030B6011
:10513000731C07D137B129681148BDE8F840043124
:10514000FFF7E2BB2B68A4195C6007D30D4B18680E
:105150002968BDE8F8400431FFF7E1BB0A4B186845
:1051600029680431FFF7DBFB084B1A68A24288BFAD
:105170001C60F8BD1402002018030020100200205B
:105180001C0200205C02002060020020F8010020C8
:10519000064A13681968064B19B94FF0FF321A60B6
:1051A00070471268D268D2685268F8E7600200203F
:1051B000F801002010B504465030FBF7D7FE94F8F4
:1051C00095313BB9206B00F0F1FD2046BDE8104061
:1051D00000F0ECBD012BF8D0022B08D04FF05003AB
:1051E00083F31188BFF36F8FBFF34F8FFEE710BDBE
:1051F00080B5144C144F154D236883B9144B1B68AC
:10520000012B09D94FF0E0234FF08052C3F8042D51
:10521000BFF34F8FBFF36F8F01F032FFEBE700F06A
:1052200069FEFB68DE68301DFFF790FB2B68013BD1
:105230002B602368013B236000F07CFE3046FFF7C3
:10524000B9FFD9E730020020340200201802002004
:105250008C0200202DE9F047DDE9099496003246E2
:1052600007460D46206BA5219846FBF766FE236B8B
:10527000043E1E4426F00706002D52D06B1E04F19A
:1052800033020F3513F8011F02F8011F09B1AB42B9
:10529000F8D1002384F84330089D062D28BF062549
:1052A0004FF0000AE5626564201DC4F848A0FFF7CE
:1052B00028FBC5F1070504F11800FFF722FBC4F82D
:1052C00090A14FF4A07251462461A5616462C4F8B4
:1052D0004CA084F894A104F15000FBF72EFE124B71
:1052E000636503F16802D033A265E3650122002300
:1052F000C4E93A230D4A0E4BC4E93C230D4BC4F8D4
:10530000F8300B23A4F8FC3042463946304600F012
:10531000C9FD2060B9F1000F01D0C9F80040BDE817
:10532000F08784F83450B7E7A40000200E33CDABEB
:1053300034126DE6ECDE050070B586B0DDE90B5485
:1053400045B94FF0500383F31188BFF36F8FBFF35C
:105350004F8FFEE744B94FF0500383F31188BFF33A
:105360006F8FBFF34F8FFEE74FF4CC760596059E07
:10537000B6F5CC7F08D04FF0500383F31188BFF30C
:105380006F8FBFF34F8FFEE72563022584F8955199
:1053900004AD01950A9D02940095059EFFF75AFF02
:1053A0002046FFF733FE049806B070BD2DE9F043A8
:1053B000074685B0900088461646994600F05CFC8A
:1053C000054620B94FF0FF3005B0BDE8F0834FF43B
:1053D000CC7000F051FC044698B1002380F8953160
:1053E0000D9B056301930C9B0290009332464B4644
:1053F00041463846FFF72EFF2046FFF707FE012003
:10540000E2E7284600F0D2FCDCE7000010B588B0E7
:10541000002407AA06A905A8CDE9054401F034FE39
:10542000059B0293069B079A12491348CDE9004356
:105430002346FFF781FFD0B14FF0500383F311886B
:10544000BFF36F8FBFF34F8F0C4B0D4A1B68503368
:1054500013600C4B4FF0FF321A600B4B01221A60A5
:105460000A4B1C6008B0BDE8104000F0D3BD08B086
:1054700010BD00BF4CD20108F151010818030020F3
:105480000C000020F80100200C0200201402002073
:10549000024A136801331360704700BFF401002013
:1054A000414B1B682DE9F74F002B75D13F4B1C6812
:1054B00001341C60BCB93E4B1A68126842B14FF00F
:1054C000500383F31188BFF36F8FBFF34F8FFEE755
:1054D000384A1968106818601160374A1368013338
:1054E0001360FFF755FE354D354E2B68354F9C4206
:1054F0004FF0000B12D23A68D26A14214A43B258D4
:10550000022A314A126828BF4FF0010B002A18BF47
:105510004FF0010B584603B0BDE8F08FDFF890A0C4
:10552000DFF8AC90DAF8002012681AB94FF0FF32B9
:105530002A60E0E7DAF80020D268D2F80C80D8F8C8
:1055400004108C4201D22960D5E708F10403184603
:105550000193FFF7FBF9D8F8281019B108F11800EA
:10556000FFF7F4F9D8F82C00D9F80030012202FA3C
:1055700000F119434FF0140CC9F800100CFB006047
:105580000199FFF7C1F93868D8F82C10C26A914226
:1055900028BF4FF0010BC5E70C4A136801331360B5
:1055A0004FF0000BB6E700BFF4010020140200200A
:1055B000600200205C02002000020020F8010020B0
:1055C0008C020020180300200402002008020020A2
:1055D000100200202DE9F843314C236843B94FF005
:1055E000500383F31188BFF36F8FBFF34F8FFEE734
:1055F00000F080FC2368013B236024682CB1002468
:1056000000F098FC2046BDE8F883264B1B68002B71
:10561000F5D0254D254EDFF8A4801FE0EB68DC684F
:1056200004F1040904F11800FFF790F94846FFF768
:105630008DF9E26A3168012707FA02F314200B435F
:1056400000FB028049463360FFF75EF9184BE26ABF
:105650001B68DB6A9A4201D3164B1F602B68002B34
:10566000DCD10CB1FFF794FD134D2C6844B1114E01
:105670000127FFF715FF00B13760013CF9D12C601D
:105680000C4B1B68002BBAD04FF0E0234FF0805238
:10569000C3F8042DBFF34F8FBFF36F8F0124AFE723
:1056A000F40100201802002048020020100200200F
:1056B0001803002004020020080200208C020020B1
:1056C00008B550B94FF0E0234FF08052C3F8042DD5
:1056D000BFF34F8FBFF36F8F08BD0A4B196841B1FD
:1056E0004FF0500383F31188BFF36F8FBFF34F8FD9
:1056F000FEE7FFF7CDFEFFF707FDFFF76BFF002882
:10570000E0D0E9E7F401002038B5254B1A68254BB5
:1057100012B101221A6038BD234C1A6023681B6B3A
:105720001A68B2F1A53F0BD15A68B2F1A53F07D173
:105730009A68B2F1A53F03D1DB68B3F1A53F04D06D
:1057400020682168343101F09CFC184B1A68B2FAC9
:1057500082F2D2B2C2F11F02142315495343C81872
:10576000CD5845B94FF0500383F31188BFF36F8FC5
:10577000BFF34F8FFEE7456808336D6845600B4403
:105780009D4204BF6B684360142303FB0211094A66
:105790004B68DB682360236850331360BBE700BFAE
:1057A000F401002004020020180300201002002051
:1057B0008C0200200C00002010B50C4640B94FF0C0
:1057C000500383F31188BFF36F8FBFF34F8FFEE752
:1057D000054B19681831FFF7A2F820460121BDE8F2
:1057E0001040FFF791BC00BF1803002038B5C36814
:1057F000DC6844B94FF0500383F31188BFF36F8F17
:10580000BFF34F8FFEE704F118052846FFF79EF817
:10581000114B1B68E3B9251D2846FFF797F80F4980
:10582000E26A08680123934003430B600C4B142089
:10583000294600FB0230FFF767F80A4BE26A1B6853
:10584000DB6A9A4283BF084B01201860002038BDF4
:1058500006482946EFE700BFF401002010020020AF
:105860008C020020180300200402002048020020BF
:10587000034B1B680360034B1B684360704700BF0A
:10588000000200201402002070B50C46054640B905
:105890004FF0500383F31188BFF36F8FBFF34F8F27
:1058A000FEE741B94FF0500383F31188BFF36F8FC8
:1058B000BFF34F8FFEE700F01DFB0F4B1968236805
:1058C0005A1C10D00D482E6800686A68864201D0C4
:1058D0008A420FD9881A83420AD95B1A134423607B
:1058E0002846FFF7C5FF002400F024FB204670BDCA
:1058F000002323600124F7E71402002000020020A7
:10590000014B01221A60704704020020054B1B68FE
:1059100033B1054B1868B0FA80F040094000704779
:10592000012070470C020020F4010020F8B5044665
:10593000002830D01E4DC36A2A68D26A93422FD203
:1059400082691C4E002AA1BF2A68D26AC2F10702EE
:105950008261142202FB036342699A421CD1071D33
:105960003846FEF7F3FF144A30B9E06A13680121A4
:10597000814023EA010313602B681168D86AE06252
:10598000012383400B4313601423394603FB00605B
:10599000FEF7BAFF0120F8BD2B68DB6AC362F9E7A6
:1059A0002B68406CDB6A98422CBF00200120F2E794
:1059B000180300208C02002010020020F8B50446D5
:1059C00008B90020F8BD224B1B68834208D04FF075
:1059D000500383F31188BFF36F8FBFF34F8FFEE740
:1059E0009B6C43B94FF0500383F31188BFF36F8F63
:1059F000BFF34F8FFEE7C16A426C013B9142836463
:105A0000DFD0002BDDD1061D3046FEF79FFF114F82
:105A1000114A50B9E16A14234B43FB582BB9136860
:105A200001258D4023EA05031360636CE362C3F133
:105A30000701A1611168012404FA03F514200D4344
:105A400000FB037031461560FEF75EFF2046B9E7A4
:105A5000180300208C0200201002002070B50446BC
:105A6000002849D0826C42B94FF0500383F311886B
:105A7000BFF36F8FBFF34F8FFEE7436C994238BF80
:105A80001946C36A8B4237D0012A35D11B4A1268A6
:105A9000824208D14FF0500383F31188BFF36F8F18
:105AA000BFF34F8FFEE78269154DC162002A4FF0A8
:105AB000140202FB03534269A4BFC1F107018161D3
:105AC0009A4219D1061D3046FEF740FFE46A0D4A9E
:105AD00028B913680120A04023EA0003136011686D
:105AE0000123A34014200B4300FB04503146BDE8C2
:105AF00070401360FEF708BF70BD00BF18030020A0
:105B00008C02002010020020044B1A681AB1196898
:105B10008A6C01328A641868704700BF180300203D
:105B200008B5FFF773FC002008BD70B5054646694F
:105B30002A69B5F908400B4686B0D0E9001076B165
:105B4000AD6965B1842C14BF03340024CDE901652F
:105B50000094FFF7F1FB0590059806B070BD842C0A
:105B600014BF0334002405ADCDE9004592B2FFF720
