:020000040800F2
:1000000000000220610F0008510F0008530F000884
:10001000550F0008570F0008590F00080000000096
:10002000000000000000000000000000B10F000808
:100030005B0F000800000000B10F0008B10F0008BE
:10004000B10F0008B10F0008B10F0008B10F000890
:10005000B10F0008B10F0008B10F0008B10F000880
:10006000B10F0008B10F0008B10F0008B10F000870
:10007000B10F0008B10F0008B10F0008B10F000860
:10008000B10F0008B10F0008B10F0008B10F000850
:10009000B10F0008B10F0008B10F0008B10F000840
:1000A000B10F0008B10F0008B10F0008B10F000830
:1000B000B10F0008B10F0008B10F0008B10F000820
:1000C000B10F0008B10F0008B10F0008B10F000810
:1000D000B10F0008B10F00085D0F0008B10F000854
:1000E000B10F0008B10F0008B10F0008B10F0008F0
:1000F000B10F0008B10F0008B10F0008B10F0008E0
:10010000B10F0008B10F0008B10F0008B10F0008CF
:10011000B10F0008B10F0008B10F0008B10F0008BF
:10012000B10F0008B10F0008B10F0008B10F0008AF
:10013000B10F0008B10F0008B10F0008B10F00089F
:10014000B10F0008B10F0008B10F0008B10F00088F
:10015000B10F0008B10F0008B10F0008B10F00087F
:10016000B10F0008B10F0008B10F0008B10F00086F
:10017000B10F0008B10F0008B10F00080000000027
:08018000B10F0008B10F0008E7
:1001880053B94AB9002908BF00281CBF4FF0FF31F6
:100198004FF0FF3000F088B9ADF1080C6DE904CEDE
:1001A80000F006F8DDF804E0DDE9022304B070474A
:1001B8002DE9F047089D8E4604468846002B4AD113
:1001C8008A42174662D9B2FA82F64EB1C6F12003C6
:1001D80001FA06F820FA03F3B74043EA0808B440E6
:1001E8004FEA174E1FFA87FCB8FBFEF1230C0EFBF3
:1001F800118843EA084301FB0CF29A4209D9FB181B
:1002080001F1FF3080F0EA809A4240F2E78002393B
:100218003B449A1AA3B2B2FBFEF00EFB102243EA4B
:10022800024300FB0CFC9C4509D9FB1800F1FF3286
:1002380080F0D6809C4540F2D3803B44023840EAA7
:100248000140A3EB0C0300211DB1F3400022C5E9D6
:100258000032BDE8F0878B4205D90DB1C5E9000130
:1002680000210846F5E7B3FA83F1002946D1734522
:1002780002D3824200F20581841A6EEB0302012048
:100288009046002DE5D0C5E90048E2E7002A00F0D5
:100298009080B2FA82F6002E40F0A4808A1A030CED
:1002A8004FEA174E80B2BCB20121B2FBFEFC0EFB36
:1002B8001C2243EA024304FB0CF29A4207D9FB18BA
:1002C8000CF1FF3802D29A4200F2E080C4469B1A31
:1002D800B3FBFEF20EFB123340EA034302FB04F4C5
:1002E8009C4207D9FB1802F1FF3002D29C4200F26F
:1002F800CA8002461B1B42EA0C40A5E7C1F1200652
:100308008B4022FA06F71F430EFA01F420FA06F38F
:100318002EFA06FE4FEA1749234300FA01F81FFA9E
:1003280087FCBEFBF9F01C0C09FB10EE44EA0E44F6
:1003380000FB0CFEA64502FA01F209D93C1900F1AE
:10034800FF3A80F09C80A64540F2998002383C44F0
:10035800A4EB0E041FFA83FEB4FBF9F309FB134464
:100368004EEA044403FB0CFCA44508D93C1903F1EC
:10037800FF3E80F08280A4457FD9023B3C4443EA9B
:100388000040A4EB0C04A0FB02EC64457346E14674
:1003980062D35FD05DB1B8EB030264EB090404FAE1
:1003A80006F622FA01F31E43CC40C5E90064002199
:1003B8004FE7B1FBF2FC010C41EA0E4180B240EA82
:1003C80001423B4638463C46B846BE462026B1FB6D
:1003D800F7F1A2EB080241EA0C4166E7014618E78B
:1003E80010462CE7C6F120022EFA02F3B740B140BE
:1003F80020FA02F24FEA174E0A43B3FBFEF8BCB2EA
:100408000EFB1833110C41EA034108FB04F9B04014
:1004180089454FEA104380B23ED9791808F1FF3C6C
:1004280001D289451FD8A1EB0901B1FBFEF909FBEF
:1004380004F80EFB191192B242EA0142424529D250
:10044800BA1809F1FF31C4D24245C2D2A9F102015A
:100458003A44BEE7F0459DD2BEEB02036CEB070CB5
:100468000138E14696E7A7EB09094944A8F1020CCF
:10047800B1FBFEF909FB04F8DBE773467FE750465A
:1004880066E70846FDE63B44023A33E7ACF1020C66
:100498003B441CE749469CE7A1EB0901C446B1FB74
:1004A800FEF909FB04F8C4E7704700BF034AD2F815
:1004B800883043F47003C2F88830704700ED00E0DC
:1004C8002DE9F04F02460D6895FAA5F44FF0010C9E
:1004D800B4FA84F403274FF00F0E35FA04F001D173
:1004E800BDE8F08F0CFA04F32B406AD04868461E2A
:1004F800012E1ED893FAA3F893FAA3F9B8FA88F84C
:1005080096684FEA480807FA08F826EA0808B9FA88
:1005180089F98E684FEA490906FA09F646EA080693
:100528009660566826EA0308CE685E4348EA0606DF
:10053800566093FAA3F8B8FA88F8D66893FAA3F93C
:100548004FEA480807FA08F826EA0808B9FA89F9C4
:100558000E694FEA490906FA09F646EA080602282A
:10056800D6601BD193FAA3F6D1F814905EB3B6FA0D
:1005780086FABAF1070F26DCD2F820804FEA8A0AF9
:100588004FF00F0BB6FA86F60BFA0AFAB60028EA0D
:100598000A0809FA06F646EA0806166293FAA3F666
:1005A800B6FA86F6D2F8008093FAA3F37600B3FA87
:1005B80083F307FA06F65B0028EA060698403043FC
:1005C8001060013489E71E0A96FAA6FABAFA8AFA7E
:1005D800D2F8248096FAA6F64FEA8A0AB6FA86F680
:1005E800B6000EFA0AFA28EA0A0809FA06F949EAE8
:1005F80008065662D2E703685B0670B5024629D43E
:10060800D1E9003633438E684C690568086A33437C
:10061800CE6833430E6933438E6923433343CE692F
:1006280025F47F453343034325F0BF052B4313606F
:10063800536823F0040343EA1443B0F5005F5360A2
:1006480005D00020D36923F40063D36170BD8B8C7F
:100658001361F6E70120F5E7034B044A9B68C3F3EF
:100668000313D35CD840704700380240682500085F
:10067800034B044A9B68C3F38223D35CD84070477A
:100688000038024060250008034B044A9B68C3F306
:100698004233D35CD84070470038024060250008D8
:1006A8000E4A0F49536813F4800F0E4B08BF0B46D0
:1006B800082810D150685168526800F03F00B3FB19
:1006C800F0F0C1F388135843C2F3014301335B00D0
:1006D800B0FBF3F070470020704700BF00380240BD
:1006E8000024F40000127A00064B986800F00C0011
:1006F800042803D0082803D1FFF7D2BF0248704767
:10070800024870470038024000127A000024F400C2
:1007180010B50446FFF7E8FF2060FFF79DFF606013
:100728000146FFF7A5FFA0600846FFF7ADFFE060B0
:1007380010BD4FF47A73B0FBF3F04FF0E0230022C2
:10074800013858619A6105221A6170474FF0E02319
:1007580082B01B690193411C019B18BF01304FF007
:10076800E02308B902B070471A69D203FCD50138F2
:10077800F7E70000014B1860704700BF0000002039
:1007880030B5C3689B0485B004460D4602D50120E8
:1007980005B030BD4B68C968C2680B4329690B4373
:1007A800A96922F416420B4322F00C021343C360DA
:1007B8000369AA6823F440531343036143696A69D0
:1007C80023F44073134343616846FFF7A1FF284BA6
:1007D8009C4228D103980028D9D02B68002BD6D06A
:1007E800AA691921B2F5004FA0FB010130D1DA182E
:1007F8004FF0000545EB0503FFF7C2FC6422B0FB90
:10080800F2F102FB1103DB003233B3FBF2F303F026
:1008180007025B0002EB011203F4F87313449BB266
:10082800A3600020B4E7134B9C4201D10298D2E7A1
:10083800114B9C42FAD003F54C439C42CAD0A3F515
:1008480048439C42F2D003F580639C429FD1EDE778
:100858009A009B0FFFF794FC6422B0FBF2F102FBB5
:1008680011031B013233B3FBF2F303EB0113D6E799
:1008780000100140004400400048004000F007001C
:10088800C0F10702031D042A28BF0422062B4FF0DB
:10089800FF3303FA02F38CBF03380020DB4303FA6B
:1008A80000F070472D4A08B5136823F0070343F09A
:1008B80005031360136803F00703052BFAD1284AD0
:1008C800136843F480431360264B1A6822F0F80239
:1008D80042F080021A601A6842F001021A601A682F
:1008E8009007FCD55968204A0A4042F4285242F041
:1008F80008025A605A6822F440325A601A6842F074
:1009080080721A60174B1A689101FCD514494A681D
:100918005204FCD59A6822F0F0029A609A6822F490
:10092800E05242F4A0529A609A6822F4604242F47B
:1009380000429A609A6822F0030242F002029A602A
:10094800084A936803F00C03082BFAD10748FFF70D
:10095800F0FEBDE808400548FFF70CBF003C024028
:1009680000700040003802400080BFFF007A030A90
:100978007FB55E4B5E495A6C5E4C42F480425A64C5
:100988005A6C02F480420192019A1A6C42F0805229
:100998001A641B6C03F080530093009BCA68564B83
:1009A80022F4E0621204120C1343CB60C868C0F34F
:1009B8000220FFF763FF0001C0B281F82200C86877
:1009C800C0F30220FFF75AFF0001C0B281F82300EC
:1009D800FFF768FF00F0AAF800F04CF9474A002337
:1009E80002938DF80C30136843F04003136002F54E
:1009F80060424FF400139361414B4FF000419961FD
:100A08004FF08041996101F500314FF48000886111
:100A18004FF4000088614FF480214FF40020916169
:100A280090614FF48032A2614FF480129A614FF4C2
:100A380000329861996102A89A6100F019FE9DF848
:100A4800090001F0ADF89DF8090000F035FB00F051
:100A580097FE24699DF80C50064604F002040DB177
:100A680000F022FE002E3BD13CBB00F04FF9254A96
:100A7800254D1368254C43F04003136001F0EAFB51
:100A880000F0F4F901F020FA00F09EF901F04AFCB8
:100A98000A21284601F08AF810B9284601F0D0F852
:100AA8002368990605D423689A0702D423681B078C
:100AB800EED5204600F002FBEAE7002DD5D100F084
:100AC80077FE0028D1D000F08BFE00F086FD0028CC
:100AD800CBD100F055FE0028C7D000F087FEFEE716
:100AE800002CC2D0002DC0D1F7E700BF003802406B
:100AF80000ED00E0000402400003FA050030014068
:100B0800000C0240003C004000440040001001403E
:100B1800054B1A6B024382B01A631B6B03400193A7
:100B2800019B02B0704700BF003802402DE9F04732
:100B380086B0002510200595FFF7EAFF0420FFF78F
:100B4800E7FF8020FFF7E4FF0120FFF7E1FF022025
:100B5800FFF7DEFFDFF814813F4FDFF814913F4EB7
:100B68000820FFF7D5FF4FF47013C8F818303C4B36
:100B7800BB614FF48033C9F818303A4BB36140F287
:100B880081130124B36169463C234046CDE9003412
:100B98004FF0020ACDE902550494FFF791FC4FF497
:100BA800005369463048CDF810A0CDE90035FFF76D
:100BB80087FCC32369463846CDE90034CDE90255A0
:100BC8000495FFF77DFC69464846CDE90044CDE928
:100BD80002550494FFF774FC062369464846CDE99C
:100BE80000350494FFF76CFC4FF4C0736946404627
:100BF800CDE900350494FFF763FC4CF29E33694657
:100C08003046CDE90034CDE902550494FFF758FC8D
:100C18004FF4805369463846CDE90034CDE902A542
:100C28000494FFF74DFC4FF4004369463846CDE97C
:100C38000034CDE902550494FFF742FC03236946CA
:100C48003046CDE90044CDE902350494FFF738FC7D
:100C580006B0BDE8F08700BF00000240000C02406B
:100C68000000C39000001EC20008024000100240AD
:100C78000004024010B592B02822002108A801F013
:100C880033FC1F4B1F485A6C42F480525A645A6C0A
:100C980002F480520192019A1A6B42F002021A631E
:100CA8001B6B03F0020300933822009B02230024ED
:100CB800CDE902230323CDE9043401210523CDE93D
:100CC800061302A9FFF7FCFB4FF48273CDE9093440
:100CD800CDE90B44CDE90F4408940B4C4FF4007058
:100CE8001823CDE90D0308A90A2320461193FFF71D
:100CF80082FC636823F01003636012B010BD00BF6C
:100D08000038024000040240003001402DE9F04361
:100D180093B02822002108A801F0E6FB274B284FB2
:100D28001A6C42F400421A641A6C02F400420192EE
:100D3800019A1A6B42F004021A631B6B03F0040356
:100D4800009300240225009B4FF003094FF4A053A1
:100D580001264FF0060802A93846CDE90235CDE94B
:100D68000494CDE90668FFF7ABFB4FF4006302A9D2
:100D78003846CDE90235CDE90494CDE90648FFF7B8
:100D88009FFB4FF48273CDE90934CDE90F440894F1
:100D98000C4C4FF400720823CDE90D2308A90A234F
:100DA80020461193CDE90B56FFF725FC636823F025
:100DB8001003636013B0BDE8F08300BF0038024041
:100DC80000080240003C004010B590B01C220021F1
:100DD80009A801F089FB224B22485A6C42F0100204
:100DE8005A645A6C02F010020292029A1A6B42F08C
:100DF80001021A631B6B03F0010301934FF4806235
:100E0800019B02230024CDE903230323CDE9053404
:100E180001210723CDE9071303A9FFF751FB124B63
:100E28000F94CDE909344FF40053CDE90B34042372
:100E3800CDE90D3404F1804404F5883409A920462D
:100E4800FFF79EFC236923F490432361636923F031
:100E58002A036361E36843F40053E36010B010BDF4
:100E6800003802400000024090D0030010B590B056
:100E78001C22002109A801F037FB2E4B1A6C42F402
:100E880000321A641A6C02F400320292029A1A6B47
:100E980042F001021A631B6B03F001030193019BEB
:100EA8000C210223CDE9031300240323CDE90534E3
:100EB80001200723CDE9070303A91F48FFF700FB1B
:100EC8001E4BDB68C3F30223C3F10702042A03F1B4
:100ED800040128BF0422062988BFDC1E4FF0FF3317
:100EE8009340DB4303F00503A340154A1B01DBB223
:100EF80082F8263340235360124C00234FF46122BA
:100F0800CDE9092309A90C222046CDE90B33CDE907
:100F18000D230F93FFF734FC236923F490432361D7
:100F2800636923F02A036361E36843F40053E360D1
:100F380010B010BD003802400000024000ED00E093
:100F480000E100E000440040FEE7FEE7FEE7FEE7C0
:100F5800FEE7704770470000DFF834D0FFF7A6FAC5
:100F68000C480D490D4A002302E0D458C4500433FC
:100F7800C4188C42F9D30A4A0A4C002301E01360D2
:100F88000432A242FBD301F0B7FAFFF7F1FC704735
:100F9800000002200000002004000020C4270008F0
:100FA8000400002064090020FEE7000030B5094D68
:100FB8000A44914200D130BD11F8013B5840082342
:100FC80040F30004013B2C4013F0FF0384EA500077
:100FD800F6D1EEE72083B8EDC0437047BFF34F8FDB
:100FE8000549064BCA6802F4E0621343CB60BFF3BD
:100FF8004F8F00BFFDE700BF00ED00E00400FA05D9
:1010080082B003680193019B43680193019B02B07E
:1010180070470068704700004FF0E0231B6913F425
:10102800803F034B1EBF1A6801321A601868704768
:101038000400002038B504461546FFF7EDFF401BB5
:10104800502801D9012005E02368980603D5636874
:101058000B70002038BD23681A0702D52046FFF719
:10106800CFFF23689B07E8D52046FFF7C9FFE4E7D1
:1010780008B5FFF7D1FF40F6B7340146FFF7CCFFBC
:10108800431AA342FAD9FFF7A9FF000008B5094B94
:1010980000221A7000F08CFB40B100F0A1FB00F0B8
:1010A8009CFA18B901F0D8F9FFF7E2FF01F0F0F95E
:1010B800FAE700BF08000020704700002DE9F04162
:1010C800F8B04FF4E5720446002105A801F00CFAC7
:1010D800002303938DF810300293FFF79DFF054618
:1010E800FFF79AFF401B50280FD990490B78002B27
:1010F80000F09080FFF790FF4B69C01A42F210731E
:10110800984240F28780FFF7C1FF23689A0703D50A
:101118002046FFF775FFE3E7276817F0080703D0B5
:101128002046FFF76DFFDBE723689B06D8D5636889
:10113800DBB2F92BD4D98DF81730FFF76DFF401BC0
:101148005028D2D82A460DF107012046FFF772FF32
:101158000028CAD19DF80730552BEED12A462046E3
:10116800FFF768FF06460028E7D19DF80730AA2B4D
:10117800E3D103AB2A4699192046FFF75BFF002805
:10118800B3D10136052EF4D1BDF80F609DF80E30AD
:10119800BDF80C20ADF81420B6F5E27F8DF81630B6
:1011A800ADF81860A1D876B10DF1140846442A4666
:1011B80008F106012046FFF73DFF002895D108F108
:1011C8000108B045F3D1002602AB2A4699192046FA
:1011D800FFF730FF002888D10136042EF4D105220C
:1011E80003A94FF0FF30FFF7E1FEBDF818200DF11D
:1011F8001A01FFF7DBFEFFF7EFFE034602A8FFF731
:1012080008FF83427FF471AF9DF817300533DBB2D6
:10121800012B03D9002078B0BDE8F0819DF8143087
:10122800424C313B032B27D8DFE803F0024082CF42
:10123800BDF818300C2B1FD10DF11A00FFF7E9FE8D
:1012480006460DF11E00FFF7E4FE80460DF1220070
:10125800FFF7DFFE731EB3F5E02F07460CD22378A5
:1012680063B163689E4209D1A368984506D1E368D3
:10127800984203D1012363706078CCE700F06EF9DF
:1012880005460028F8D140F201132380C4E901681B
:10129800C4E90370A070FFF7BFFE4FF0FF33606131
:1012A800A3613146284601F061F8E5E72378002B71
:1012B800E2D0BDF81850032DDED9A378002BDBD17E
:1012C8000DF11A00FFF7A5FE043D626841192CBF15
:1012D80001230023914200D813B10123A370CBE767
:1012E8002369984203D2FFF797FE6061C4E7F4D1FF
:1012F80000F100602A460DF11E0100F5803000F073
:1013080035F90028E9D123691D442561FFF784FEDA
:101318006168A26960618D424FF064033CBF6B4312
:10132800B3FBF1F39A42A7D0A361BBE70800002002
:101338002378002BA0D0BDF81830082B9CD10DF1D4
:101348001A00FFF766FE03460DF11E00FFF761FE67
:101358006568AB4206468FD1A36898428CD1A378C2
:10136800002B7FF4D0AE23699D427FF4CCAE6B1E78
:10137800B3F5E02FBFF4C7AE4FF0FF33EC1BB4F565
:10138800806F28BF4FF4806407F100611846224639
:1013980001F58031FFF70AFE2744BD420346EDD828
:1013A800FFF71AFE86427FF4AEAE00F0E9F9002896
:1013B8003FF4A9AE284600F0F0F818B900F0F8FF9D
:1013C800FFF756FE01F064F8FAE7BDF81830002B75
:1013D8007FF452AF2378002B7FF495AE00F0D0F95C
:1013E80000283FF449AFFFF7F9FD00BF024AD36870
:1013F800DB03FCD4704700BF003C0240024A13697B
:1014080043F0004313617047003C02401B4B1A69CC
:10141800002AB8BF1A4A70B5B8BF5A60174CBCBF8B
:1014280002F188325A600131F32540F202268842DF
:1014380003D1FFF7E3FF00201CE0FFF7D7FFE560CB
:10144800236923F45E732361236943EAC0033343AA
:101458002361236943F480332361FFF7C7FF2369BE
:1014680023F002032361E36813F0F20F03D0FFF7C0
:10147800C5FF042070BD0130D9E700BF003C024021
:10148800230167452DE9F04704461746002A36D060
:10149800984234D3821808982CBF01230023904225
:1014A8002DD363BB2B4B2B4D1A69002ABFBF2A4A89
:1014B8005A6002F188325A604FF000084FF0FF0A74
:1014C800A7EB0809B9F1040F28BF4FF0040901EB95
:1014D800080000234FF0FF364FEAC30C0AFA0CF25B
:1014E80026EA020210F8016B013306FA0CF6994558
:1014F80046EA0206F0D1A30704D0FFF77FFF0520D4
:10150800BDE8F087FFF772FFF323EB602B6923F444
:1015180040732B612B6943F4007343F001032B6183
:101528002660FFF763FF2B6923F001032B61E8684E
:1015380010F0F20003D0FFF761FF0420E0E7236812
:10154800B342F8D1C844474504F10404B8D8FFF7BA
:1015580055FFD5E7003C02402301674507210420D9
:10156800FFF754BF0B210820FFF750BF07B5044B06
:101578000093A3F5E023FFF785FF03B05DF804FBB4
:101588000000080807B54FF001630093A3F5002396
:10159800FFF778FF03B05DF804FB431EB3F5E02FB7
:1015A80070B5054617D2FFF7DDFF98B904462E1B24
:1015B800B6F5806F28BF4FF4806604F1006000F52F
:1015C8008031324600F50020FFF7DCFF10B93444C3
:1015D800A542ECD870BD0520FCE7431EB3F5E02F0B
:1015E80070B5054617D2FFF7B9FF98B904462E1B08
:1015F800B6F5806F28BF4FF4806604F1006000F5EF
:101608000021324600F58030FFF7B0FF10B93444AE
:10161800A542ECD870BD0520FCE70000074B9A688E
:10162800D20701D51A7BFAE79A689107FCD5187397
:101638009A68D207FCD5187B704700BF003001407C
:1016480038B50A4D4FF40003AB6104460320FFF799
:10165800E5FF0020FFF7E2FFE0B2FFF7DFFFFF2022
:10166800FFF7DCFF8023AB6138BD00BF000C0240F0
:1016780010B50446B8B10020FFF7E2FF2070012042
:10168800FFF7DEFF60700520FFF7DAFFE070072044
:10169800FFF7D6FFA0701520FFF7D2FFA0F1A50332
:1016A80058425841207110BD70B50C4C4FF40006DB
:1016B8008025A6610620FFF7B1FFA5610220A6617B
:1016C800FFF7ACFF0020FFF7A9FF1520FFF7A6FFE3
:1016D8000020FFF7A3FFA56170BD00BF000C02400A
:1016E80000687047F7B5012300F50074054600F55A
:1016F80002771A4620460678FF2E3AD0002E3AD1B5
:1017080032460130B842F6D11A4337D1FFF7E8FF25
:10171800B0F5077F064629D3884227D8A5F10801E6
:1017280001441346E75CC85C87421FD10133082B8C
:10173800F8D105F50370FFF7D3FF4FF403720446A1
:1017480029464FF0FF300190FFF730FC04220DEBE3
:101758000201FFF72BFCA6F5047205F50471FFF7EB
:1017680025FCFFF739FC231A5A425A41104603B0A8
:10177800F0BD0023C5E700221346C2E70022F5E7C3
:101788000A480268436802F16042B2F5003F0AD88D
:1017980003F1774303F57F03B3F5E02F03D24FF44A
:1017A800E021FFF79FBF0020704700BF000001083D
:1017B8000A480268436802F16042B2F5003F0AD85D
:1017C80003F1774303F57F03B3F5E02F03D24FF41A
:1017D8000021FFF787BF0020704700BF00000808FE
:1017E8000148FFF77DBF00BF080208081A4B10B474
:1017F8001C68586872B64FF0E02200234FF0206151
:10180800136153619361C2F8041D4FF0FF319A00D0
:1018180002F1604202F561420133082BC2F88010E0
:10182800C2F88011F3D10D4B0B4A9A60002383F361
:10183800118883F3138883F31488BFF36F8F83F3BE
:10184800098884F30888BFF34F8FBFF36F8F62B6A0
:101858005DF8044B004700BF0000010800ED00E000
:10186800BFF34F8F0549064BCA6802F4E062134381
:10187800CB60BFF34F8F00BFFDE700BF00ED00E076
:101888000400FA05006870474FF0E0231B6913F461
:10189800803F034B1EBF1A6801321A6018687047F0
:1018A8002400002010B50146FFF7EEFF0446FFF7BD
:1018B800EBFF031B8B42FAD310BD000008B50B4B9E
:1018C80000221A70FFF774FF60B1FFF789FFFFF776
:1018D80084FE38B900F088FD40F6B830FFF7E2FF23
:1018E800FFF7BEFF00F09CFDF6E700BF28000020D0
:1018F80073B5044616461D46FFF7C6FF801BA8426F
:1019080001D9012015E023689A0614D56268114BA5
:10191800D2B20A701A709A6801329A601A8C0978E1
:1019280013FA82F2002082F822101A8C0132D2B205
:101938001A8402B070BD23681B07DDD523680193A4
:10194800019B044A63680193019BD3690133D36106
:10195800D2E700BF4000002008B503490B7813B157
:10196800FFF792FF086108BD28000020094B0128F5
:10197800187103D11A6901321A617047022803D11C
:101988005A6901325A617047032802BF9A690132C5
:101998009A6170474000002038B504460E4D237800
:1019A8006B706378AB70A378EB700846A188E98008
:1019B800FFF7DCFF10B9EB680133EB600534002357
:1019C8009AB2914200D838BDEA1814F8010F82F88B
:1019D80022010133F4E700BF4000002030B585B094
:1019E80061F07F018DF807201D4A8DF806101278E6
:1019F8008DF8082000228DF80A200392044606225A
:101A08004AF655200DEB0201ADF8040001254FF010
:101A1800FF308DF80B308DF80950FFF7C7FAFFF744
:101A2800DBFA104B03904FF400329D619A6101AAD2
:101A38000C2312F8011B20680006FCD5013B9BB261
:101A48006160002BF5D123685B06FCD5054B4FF48C
:101A580080329A614FF400329A6105B030BD00BF00
:101A68003C000020000002402DE9F04F85B0002323
:101A7800029307469046CDF80B300193FFF704FF19
:101A88000D4606464346324602A93846FFF730FF60
:101A980038B10120FFF76AFF0446204605B0BDE8CB
:101AA800F08F9DF80830552BECD1434632460DF1A6
:101AB80009013846FFF71CFF18B99DF80930AA2B11
:101AC80001D00220E6E70DF10A0B0DF10F0AD94605
:101AD8004346324659463846FFF70AFF044600286F
:101AE800D7D10BF1010BD345F2D1BDF80DA09DF86C
:101AF8000C30BDF80A202A80BAF5806FAB70A5F8C3
:101B080004A0DED8BAF1000F0ED005F1060B43464B
:101B180032460BEB04013846FFF7EAFE0028B8D13D
:101B28000134A3B29A45F2D84FF0000A01A94346FE
:101B3800324651443846FFF7DBFE04460028A8D158
:101B48000AF1010ABAF1040FF0D1052249464FF013
:101B5800FF30FFF72BFAAA88A91DFFF727FAFFF72E
:101B68003BFA034601A8FFF78DFE834205D0032107
:101B78002846FFF711FF03248FE721462846FFF781
:101B88000BFF2B78072B88D0044BAC781B78E41A12
:101B980018BF4FF0FF34E4B27FE700BF3C000020DD
:101BA800014B1870704700BF3C0000202DE9F0433E
:101BB800ADF20C4D0546FFF767FEDFF880900E4644
:101BC8000746FFF761FEC01BB04201D301241CE0A9
:101BD80040F206420021684600F086FCFFF754FEFA
:101BE800BA19121A69462846FFF73EFF044600282C
:101BF800E7D19DF80080B8F1010F0BD103469DF89D
:101C0800012041462846FFF7E9FE20460DF20C4D1B
:101C1800BDE8F083B8F1070FD3D199F8002040F25E
:101C28003B130F2000FB0230FFF73CFE9DF801201C
:101C3800234641462846FFF7D1FEC2E73C00002074
:101C48002DE9F0439D4EADF20C4D054640F206429B
:101C58000021684600F048FC4FF47A72694628462D
:101C6800FFF702FF044600B333784BB1FFF70CFED1
:101C78003369C01A42F21073984201D9FFF71EFE69
:101C88009DF800100029E1D0012CDFD0FF2CDDD019
:101C98008B4B9DF802201B789A42D7D19DF80120E2
:101CA80023462846FFF79AFED0E79DF80030013B0F
:101CB800062B38D8DFE813F07200070030008400E4
:101CC800BA00DB00F300BDF804307C4C032B20D9AC
:101CD8000DF10600FFF7D6FD4FF0FF328318B3F57C
:101CE800E02F2CBF0023012300272370C4E90272D0
:101CF8006060FFF731FE23781BB16168384600F059
:101D08002DFBFFF72BFC9DF801209DF800100346E2
:101D1800C7E700232370F4E7FFF71EFEBDF8048031
:101D2800B8F1030F01D80220EDE7644C0DF106006D
:101D3800FFF7A8FD23780746A8F104094BB1B9F1CC
:101D4800000F06D000F1774303F57F03B3F5E02FCA
:101D580011D34A460DF10A013846FFF707FC00285F
:101D6800D1D12378D3B107F1774303F57F03B3F5D6
:101D7800E02F13D20CE0534BA168434403448B4239
:101D8800E7D84A460DF10A0100F09EFB0028E0D191
:101D98004C48A36840443844834201D30020B2E74A
:101DA8006168E268A06081424FF0640384BF4343E6
:101DB800B3FBF1F39A42F1D0E36000F0CFFAEDE71C
:101DC800FFF7CAFDBDF80430082BACD10DF10600B1
:101DD800FFF758FD431EB3F5E02F044667D20DF117
:101DE8000A00FFF74FFD4FF0FF3381460027A4EBB1
:101DF8000708B8F5806F28BF4FF4806807F10061C5
:101E08001846424601F58031FFF7D0F84744BC42F6
:101E18000346ECD8FFF7E0F881454AD1FFF7B0FC5C
:101E2800002848D02046FFF7B8FB6CE7234B1C7806
:101E38003CB19DF80120002305212846FFF7CEFD7F
:101E48001CE7FFF79DFC002808BF07249DF8012028
:101E58009DF8001023462846FFF7C0FD002C7FF4AC
:101E6800F5AE0A20FFF71EFDFFF7C0FCEEE6FFF710
:101E780087FC002808BF07249DF801209DF8001062
:101E880023462846FFF7AAFD002C7FF4DFAE00F0BA
:101E980075FA40F6B830FFF705FDFFF7E1FC084B8F
:101EA80018780130C0EB0010FFF7FCFC76E705203E
:101EB80029E7062027E7072025E700BF280000209C
:101EC8003C000020FCFFFEF7034B4FF480329A6180
:101ED8004FF400329A6170470000024002484FF404
:101EE8008062002100F000BB6405002003060CD4CA
:101EF8003F290AD8090101EBD001044A00F0070084
:101F08008023C340505C034353547047640500204A
:101F18002DE9F74F224B0091054602F1FF3818F8DA
:101F2800012F12B903B0BDE8F08F2E3AD2B2472A7A
:101F380094BF53F822401B4C2E46621D06F101093E
:101F4800009F4FF0000A5FFA89F9217821FA0AF117
:101F5800C90716D507F1010B5FFA8BFB39463046E6
:101F68000192FFF7C3FF59463046FFF7BFFF3946D6
:101F78004846FFF7BBFF59464846FFF7B7FF084BEF
:101F8800019A0AF1010A0237BAF1070FFFB2DCD150
:101F980001340236A242F6B2D0D10C35EDB2BEE71A
:101FA800B4250008D4260008084B9A68D10701D543
:101FB8001A7BFAE79A689207FCD518739A68110693
:101FC800FCD49A68D20748BF1B7B7047003C00408E
:101FD80010B5064B064C4FF000429A614FF480331F
:101FE800A361FFF7E1FF0123A36110BD00000240D8
:101FF800000C02402DE9F8432C4E2D4F2D4D4FF487
:102008007C793F24B020FFF7E3FF04F00F00FFF7CF
:10201800DFFF20091030FFF7DBFF4FF07F080023B8
:102028001A464FF0800CA8EB0301C1F3C4004844E2
:1020380080B201F00701305C2CFA01F108421CBFA4
:102048002CFA03F10A4303F1010318BFD2B2082B9B
:10205800E9D15300520802F0550203F0AA031343D2
:102068009A009B0802F0CC0203F0330313431809CB
:102078004FF40042BA6140EA03104FF48032A8F1ED
:102088000808AA61C0B25FFA88F8FFF78DFF01233C
:10209800B8F1FF0FAB61C2D1013CE4B2A9F110095C
:1020A800FF2C1FFA89F9ADD1BDE8F883640500203B
:1020B80000000240000C02402DE9F74FDFF85C9069
:1020C800DFF85CA004468846571E17F8013F13B98D
:1020D80003B0BDE8F08F2E3BDBB2472B94BF5AF814
:1020E80023204A46002504EB050B00265FFA8BFBEC
:1020F800535DF340DB0707D508EB0601C9B2584624
:102108000192FFF7F3FE019A0136072EF0D101354F
:10211800052DE8D10634E4B2D7E700BFD42600087D
:10212800B425000808B5064A37214A20FFF7C4FF3E
:10213800BDE80840034A37215C20FFF7BDBF00BF58
:10214800782500087B2500082DE9F3418846002101
:10215800074601911C463BB193424FF0640392BF7E
:102168001C465A43B2FBF4F4FFF7B8FE3A4608217E
:102178004046FFF7CDFE354A10201A21FFF7C8FE6A
:102188006425602600236643A446B6FBF5F60327BC
:10219800F6B218462A464FF00A0EBCFBF2F5E9B231
:1021A800084301D1012A07D1581C08336B44303148
:1021B80003F8041CC3B20120013F02FB15CCB2FB9B
:1021C800FEF2EAD108336B4401AA03F8047C2E21FD
:1021D8003420FFF771FF632C29D80A2C34BF3A202A
:1021E80040201B4A2E21FFF767FF102420463A2182
:1021F800FFF77CFE204601343F21E4B2FFF776FE6C
:10220800702CF3D13A2421461020FFF76FFE2146A7
:1022180001346F20E4B2FFF769FE402CF3D1F8B225
:10222800864206D802B0BDE8F041FFF7E3BE46207B
:10223800D7E710303B24C5B2214601342846E4B222
:10224800FFF754FE3F2CF7D10137E8E78125000856
:102258008825000838B5324C4FF48055A561022016
:10226800FEF774FA4FF08053A3610A20FEF76EFA66
:10227800A5610A20FEF76AFAAE20FFF7A9FE002042
:10228800FFF7A6FE1020FFF7A3FEB020FFF7A0FE81
:10229800DC20FFF79DFE0020FFF79AFE8120FFF764
:1022A80097FE6F20FFF794FE2120FFF791FEA020F4
:1022B800FFF78EFEC020FFF78BFEA420FFF788FEF5
:1022C800A620FFF785FEA820FFF782FE3F20FFF734
:1022D8007FFED320FFF77CFE6020FFF779FED52034
:1022E800FFF776FE4120FFF773FED920FFF770FE57
:1022F8002220FFF76DFEDB20FFF76AFE3520FFF78F
:1023080067FEAD20FFF764FE8A20FFF761FEFFF746
:10231800E5FDFFF76FFEBDE83840AF20FFF758BE78
:102328000000024008B5FFF7D9FDFFF763FEFFF78D
:10233800D5FD084A12211B20FFF7EAFD064A242191
:102348002120FFF7E5FDFFF7EDFEBDE80840FFF7A8
:1023580051BE00BF8A2500088125000802460B46A9
:1023680001482221FFF7F0BE9225000802460B46DD
:1023780001482E21FFF7E8BE9825000808B5FFF7A9
:10238800ADFDFFF737FEFFF7A9FD074A122121200F
:10239800FFF7BEFD054A24211520FFF7B9FDBDE86A
:1023A8000840FFF727BE00BF812500089C250008CC
:1023B80008B5FFF793FDFFF71DFEFFF78FFD084AED
:1023C80012212720FFF7A4FD064A24213320FFF716
:1023D8009FFDFFF7A7FEBDE80840FFF70BBE00BF53
:1023E80098250008A525000808B5FFF777FDFFF731
:1023F80001FEFFF773FD084A0A211020FFF788FD48
:10240800064A20211620FFF783FDFFF78BFEBDE863
:102418000840FFF7EFBD00BF92250008A825000877
:1024280008B5FFF75BFDFFF7E5FDFFF757FD084A25
:1024380012211020FFF76CFD064A24212220FFF705
:1024480067FDFFF76FFEBDE80840FFF7D3BD00BF8B
:1024580092250008AF25000808B5FFF73FFDFFF7F4
:10246800C9FDFFF73BFD084A0A212220FFF750FD6E
:10247800064A20211620FFF74BFDFFF753FEBDE863
:102488000840FFF7B7BD00BFAF250008A825000822
:1024980008B5FFF723FDFFF7ADFDFFF71FFD084A5D
:1024A80012212220FFF734FD064A24212220FFF7BB
:1024B8002FFDFFF737FEBDE80840FFF79BBD00BFC3
:1024C80098250008AF25000810B50139024490424C
:1024D80001D1002005E0037811F8014FA34201D093
:1024E800181B10BD0130F2E702440346934200D1A5
:1024F800704703F8011BF9E770B50D4D0D4C641BCF
:10250800A4100026A64209D10B4D0C4C00F018F877
:10251800641BA4100026A64205D170BD55F8043BE3
:1025280098470136EEE755F8043B98470136F2E73D
:102538000000000000000000000000000000000093
:10254800F8B500BFF8BC08BC9E467047F8B500BF98
:08255800F8BC08BC9E46704768
:102560000000000001020304000000000000000061
:102570000102030406070809424C00312E342E32B2
:102580000055504C4F414400250057414954494E95
:102590004700525334383500444D5800434F4D5096
:1025A0004C455445004F4B004241434B555000466B
:1025B00041494C0015270008D42600084727000889
:1025C000422700083D270008382700083327000865
:1025D0002E27000829270008242700081F270008A5
:1025E0001A270008D4260008D4260008D42600089C
:1025F000D4260008D4260008D4260008D4260008D3
:10260000B5270008B0270008AB270008A627000858
:10261000A12700089C27000897270008D426000857
:1026200092270008D42600088D2700088827000874
:10263000832700087E2700087927000874270008F0
:10264000D42600086F2700086A27000865270008BD
:10265000602700085B27000856270008512700085C
:102660004C270008D4260008D4260008D4260008E9
:10267000D4260008D4260008D4260008D426000852
:1026800010270008D4260008D42600080B270008CD
:1026900006270008D426000801270008D4260008D1
:1026A000FC260008D4260008D4260008F7260008D7
:1026B000F2260008ED260008E8260008E3260008B8
:1026C000D4260008D4260008D4260008DE260008F8
:1026D000D926000800000000003C4040207C043F58
:1026E0004440207C1414140838444444387C0804C2
:1026F00004787C0418047800417F400000447D4049
:1027000000085454543C3854545418384444487FB6
:1027100020545454780060600000064949291E3650
:102720004949493601710905033C4A494930274561
:102730004545391814127F102141454B31426151F2
:10274000494600427F40003E5149453E0708700817
:102750000763140814637F2018207F1F2040201F68
:102760003F4040403F01017F010146494949317FD7
:10277000091929467F090909063E4141413E7F0466
:1027800008107F7F020C027F7F404040407F08148A
:10279000224100417F41003E4149497A7F090909B0
:1027A000017F494949417F4141221C3E414141222B
:0C27B0007F494949367E1111117E00005E
:0827BC00FCD9FF7F01000000C1
:0427C4000024F400F9
:0400000508000F617F
:00000001FF
