:020000040800F2
:100000000000012075240008DD210008E12100081E
:10001000E5210008E9210008ED21000800000000AA
:10002000000000000000000000000000F1210008B6
:10003000F521000800000000F9210008FD2100085A
:10004000C5240008C5240008C5240008C5240008EC
:10005000C5240008C5240008C5240008C5240008DC
:10006000C5240008C5240008C5240008C5240008CC
:10007000C5240008C5240008C5240008C5240008BC
:10008000C5240008C5240008C5240008000000009D
:10009000000000000000000000000000C52400086F
:1000A000C5240008C5240008C5240008C52400088C
:1000B00001220008C5240008C5240008C524000842
:1000C000C5240008C5240008C5240008C52400086C
:1000D000C52400080D2200081922000800000000B5
:1000E000C5240008C5240008C5240008000000003D
:1000F000000000000000000000000000C52400080F
:1001000000000000C5240008C5240008C52400081C
:1001100000000000000000000000000000000000DF
:10012000C5240008C5240008C5240008C52400080B
:10013000C5240008000000000000000000000000CE
:10014000000000000000000000000000C5240008BE
:10015000C5240008C5240008C5240008252200087D
:10016000C5240008C52400080000000000000000AD
:10017000000000000000000000000000000000007F
:1001800000000000C524000800000000000000007E
:04019000C52400087A
:1001A00010B5054C237833B9044B13B10448AFF3B1
:1001B00000800123237010BD587C00200000000047
:1001C0009087000808B5034B1BB103490348AFF300
:1001D000008008BD000000005C7C002090870008C3
:1001E00053B94AB9002908BF00281CBF4FF0FF319E
:1001F0004FF0FF3000F088B9ADF1080C6DE904CE86
:1002000000F006F8DDF804E0DDE9022304B07047F1
:100210002DE9F047089D8E4604468846002B4AD1BA
:100220008A42174662D9B2FA82F64EB1C6F120036D
:1002300001FA06F820FA03F3B74043EA0808B4408D
:100240004FEA174E1FFA87FCB8FBFEF1230C0EFB9A
:10025000118843EA084301FB0CF29A4209D9FB18C2
:1002600001F1FF3080F0EA809A4240F2E7800239E3
:100270003B449A1AA3B2B2FBFEF00EFB102243EAF3
:10028000024300FB0CFC9C4509D9FB1800F1FF322E
:1002900080F0D6809C4540F2D3803B44023840EA4F
:1002A0000140A3EB0C0300211DB1F3400022C5E97E
:1002B0000032BDE8F0878B4205D90DB1C5E90001D8
:1002C00000210846F5E7B3FA83F1002946D17345CA
:1002D00002D3824200F20581841A6EEB03020120F0
:1002E0009046002DE5D0C5E90048E2E7002A00F07D
:1002F0009080B2FA82F6002E40F0A4808A1A030C95
:100300004FEA174E80B2BCB20121B2FBFEFC0EFBDD
:100310001C2243EA024304FB0CF29A4207D9FB1861
:100320000CF1FF3802D29A4200F2E080C4469B1AD8
:10033000B3FBFEF20EFB123340EA034302FB04F46C
:100340009C4207D9FB1802F1FF3002D29C4200F216
:10035000CA8002461B1B42EA0C40A5E7C1F12006F9
:100360008B4022FA06F71F430EFA01F420FA06F337
:100370002EFA06FE4FEA1749234300FA01F81FFA46
:1003800087FCBEFBF9F01C0C09FB10EE44EA0E449E
:1003900000FB0CFEA64502FA01F209D93C1900F156
:1003A000FF3A80F09C80A64540F2998002383C4498
:1003B000A4EB0E041FFA83FEB4FBF9F309FB13440C
:1003C0004EEA044403FB0CFCA44508D93C1903F194
:1003D000FF3E80F08280A4457FD9023B3C4443EA43
:1003E0000040A4EB0C04A0FB02EC64457346E1461C
:1003F00062D35FD05DB1B8EB030264EB090404FA89
:1004000006F622FA01F31E43CC40C5E90064002140
:100410004FE7B1FBF2FC010C41EA0E4180B240EA29
:1004200001423B4638463C46B846BE462026B1FB14
:10043000F7F1A2EB080241EA0C4166E7014618E732
:1004400010462CE7C6F120022EFA02F3B740B14065
:1004500020FA02F24FEA174E0A43B3FBFEF8BCB291
:100460000EFB1833110C41EA034108FB04F9B040BC
:1004700089454FEA104380B23ED9791808F1FF3C14
:1004800001D289451FD8A1EB0901B1FBFEF909FB97
:1004900004F80EFB191192B242EA0142424529D2F8
:1004A000BA1809F1FF31C4D24245C2D2A9F1020102
:1004B0003A44BEE7F0459DD2BEEB02036CEB070C5D
:1004C0000138E14696E7A7EB09094944A8F1020C77
:1004D000B1FBFEF909FB04F8DBE773467FE7504602
:1004E00066E70846FDE63B44023A33E7ACF1020C0E
:1004F0003B441CE749469CE7A1EB0901C446B1FB1C
:10050000FEF909FB04F8C4E7704700BF10F8012B9F
:1005100011F8013B012A28BF9A42F7D0D01A704740
:10052000034613F8012B002AFBD1181A0138704733
:1005300001F0FF01102A2BDB10F0070F08D010F894
:10054000013B013A8B422DD010F0070F42B3F6D198
:10055000F0B441EA012141EA014122F007047FF0B1
:1005600000070023F0E80256083C85EA010586EA08
:10057000010685FA47F5A3FA87F586FA47F6A5FA44
:1005800087F68EB9EED1F0BC01F0FF0102F0070250
:1005900032B110F8013B013A83EA010313B1F8D1FB
:1005A0000020704701387047002D06BF35460338DC
:1005B000073815F0010F07D1013015F4807F02BF15
:1005C000013015F4C03F0130F0BC0138704700BF66
:1005D0000020704702440346934200D1704703F85D
:1005E000011BF9E770B50D4D0D4C641BA4100026DE
:1005F000A64209D10B4D0C4C08F0CAF8641BA4109C
:100600000026A64205D170BD55F8043B9847013637
:10061000EEE755F8043B98470136F2E77892000878
:1006200078920008789200087C9200087047704722
:1006300038B50546002941D051F8043C0C1F002B69
:10064000B8BFE41800F0E0F81D4A136833B96360DE
:1006500014602846BDE8384000F0DCB8A34208D951
:10066000206821188B4201BF19685B680918216056
:10067000EDE71A465B680BB1A342FAD9116850182E
:10068000A0420BD120680144501883421160E0D190
:1006900018685B68536008441060DAE702D90C23DD
:1006A0002B60D6E7206821188B4204BF19685B686D
:1006B000636004BF091821605460CAE738BD00BFF9
:1006C000B87D002070B50F4E0C463168054611B953
:1006D00000F0A6F830602146284600F0A1F8431C3F
:1006E00003D14FF0FF34204670BDC41C24F0030436
:1006F000A042F8D0211A284600F092F80130F2D139
:10070000EFE700BFB47D00202DE9F843CD1C25F0B4
:10071000030508350C2D38BF0C25002D064601DBDE
:10072000A94204D90C2333600020BDE8F883DFF828
:10073000D48000F069F8D8F800301C4644BB294644
:100740003046FFF7BFFF431C044658D1D8F800409D
:100750002746002F43D1002C4BD023683946304622
:1007600004EB030900F05CF8814542D121686D1A61
:1007700029463046FFF7A6FF01303AD023682B44C4
:100780002360D8F800305A6862BBC8F800700FE0E8
:100790002268521B20D40B2A17D96119A342256065
:1007A00018BF5960636808BFC8F8001062514B60F9
:1007B000304600F02FF804F10B00231D20F0070055
:1007C000C21A1CBF1B1AA350AFE76268A3420CBF3A
:1007D000C8F800205A60EBE723466468AEE73C4661
:1007E0007F68B6E71A465B68A342FBD100235360DB
:1007F000DEE70C233360304600F00CF894E7056028
:10080000D6E700BFB87D00200148FFF70FBF00BF4B
:10081000B07D00200148FFF70ABF00BFB07D002077
:1008200038B5064D0023044608462B6001F000FE53
:10083000431C02D12B6803B1236038BDAC7D00207E
:10084000034AD2F8883043F47003C2F88830704706
:1008500000ED00E090F83D30012B27D103681449EA
:10086000022280F83D20DA688B4242F00102DA6011
:1008700011D0B3F1804F0ED00E4A93420BD002F547
:100880008062934207D002F58062934203D002F562
:100890009A32934204D19A6802F00702062A03D0E2
:1008A0001A6842F001021A60002070470120704768
:1008B000000001400004004090F83C20012A6ED066
:1008C0000346026830B40120022483F83C0083F818
:1008D0003D40946824F47F4424F0770494600C68CD
:1008E000602C76D011D8402C5BD02ED8202C04D090
:1008F00000F2888034F010011FD1916821F070015E
:10090000214341F00701916016E0B4F5805F13D0F8
:10091000B4F5005F33D0702C0FD1D1E90150946849
:100920002843CD6824F47F4140EA052008439060C5
:10093000916841F07701916000200121002283F845
:100940003D1083F83C2030BC7047502CF5D14868EE
:10095000CC68116A21F00A010843116A21F00101F3
:100960001162916921F0F00141EA04119161106274
:10097000916821F0700141F057019160DCE7D1E905
:10098000015094682843CD6824F47F4140EA052053
:1009900008439060916841F480419160CCE7022067
:1009A00070474868CC68116A21F00A010843116A4F
:1009B00021F001011162916921F0F00141EA041175
:1009C00091611062916821F0700141F047019160DE
:1009D000B2E74868CC68116A21F0A00141EA001131
:1009E000106A20F010001062906920F4704040EA14
:1009F000043090611162916821F0700141F067014B
:100A0000916099E7302C3FF478AF96E7704700BFCC
:100A1000704700BF704700BF704700BF036870B5E4
:100A2000DE681D69A907044601D5B20751D46907DC
:100A300001D572073AD42B0701D5300724D4EA0632
:100A400001D5F30610D4E80701D5F10757D42A06DB
:100A500001D533065BD4680601D571065FD4AA06BA
:100A600001D5B30642D470BD23686FF010021A613D
:100A700008222277DB6913F4407F204663D0FFF71A
:100A8000C7FF00232377DEE723686FF008021A61AF
:100A900004222277DB699907204651D1FFF7B6FF80
:100AA0002046FFF7B7FF00232377C8E723686FF0DE
:100AB00004021A61022222779B6913F4407F2046C8
:100AC0003BD1FFF7A3FF2046FFF7A4FF00232377C6
:100AD000B1E76FF002021A61012202779B699B075E
:100AE00025D0FFF795FF00232377A0E723686FF059
:100AF000200220461A61BDE8704000F0E3B8236888
:100B00006FF001021A61204601F072F99FE7236835
:100B10006FF080021A61204600F0D6F89BE7236848
:100B20006FF040021A612046FFF776FF97E7FFF764
:100B30006DFF2046FFF76EFFD5E7FFF769FFC5E7BA
:100B4000FFF766FFAFE7FFF761FF2046FFF762FFA1
:100B500097E700BF70B4264E0A6803688C684D6939
:100B6000B04233D0B0F1804F17D0A6F57C46B042EA
:100B700013D006F58066B0420FD006F58066B0420D
:100B80000BD01C4EB0420CD006F58066B04208D0A7
:100B900006F58066B04208D103E04E6823F070038A
:100BA0003343C96823F440730B4323F080032B4382
:100BB0000360C4628262012343610369DB0703D5DA
:100BC000036923F00103036170BC70474E6823F092
:100BD00070033343CE6823F44073334323F0800320
:100BE0002B430360C46282620B690363E3E700BFC7
:100BF000000001400040014050B310B590F83D3076
:100C0000044603F0FF02F3B12146022384F83D308D
:100C100051F8040BFFF79EFF012384F8463084F857
:100C20003E3084F83F3084F8403084F8413084F816
:100C3000423084F8433084F8443084F8453084F8F6
:100C40003D30002010BD80F83C2001F00DFBDBE7BB
:100C50000120704790F83C20012A2FD003460268FB
:100C6000022030B483F83D0050680D68946820F08D
:100C70007000284350601248824212D0B2F1804F77
:100C80000FD0A0F57C4082420BD000F580608242FC
:100C900007D000F58060824203D000F59A3082428E
:100CA00004D1496824F080040C43946000200122A0
:100CB00083F83D2083F83C0030BC70470220704729
:100CC00000000140704700BF704700BF002800F0DF
:100CD000D8812DE9F0410368DD0782B004462FD5A5
:100CE0009D498A6802F00C02042A00F0EC808A68B0
:100CF00002F00C02082A00F0E2806368B3F5803F3E
:100D000000F0EB80B3F5A02F00F07381924D2A68BC
:100D100022F480322A602A6822F480222A60002B82
:100D200040F0E08000F0C0FC064605E000F0BCFCAE
:100D3000801B642800F200812B689F03F6D423688F
:100D40009D0728D5844A916811F00C0F00F09B8014
:100D5000916801F00C01082900F09180E368002BF4
:100D600000F00C817D4B7C4E01221A6000F09CFC4F
:100D7000054605E000F098FC401B022800F2DC80EC
:100D800033689F07F6D53368226923F0F80343EAF6
:100D9000C203336023681A075CD45D073AD56E4AF4
:100DA000136C13F0805340F088800193136C43F070
:100DB00080531364136C03F080530193019B01254E
:100DC000674E3368D80540F1A780A368012B00F077
:100DD000B780052B00F01D815F4E326F22F00102BB
:100DE0003267326F22F004023267002B40F0AD8090
:100DF00000F05AFC41F28838074605E000F054FC48
:100E0000C01B404500F29880336F9B07F6D4002D3D
:100E100040F0F980A369CBB14F4DAA6802F00C02F3
:100E2000082A00F0BC80022B4C4B4FF000021A66DF
:100E300000F0F98000F038FC044604E000F034FCD7
:100E4000001B022878D82B689B01F7D4002002B041
:100E5000BDE8F0816369FBB1404B3F4E0122C3F80E
:100E6000802E00F021FC054604E000F01DFC401B34
:100E7000022861D8736F9B07F7D523688DE7526806
:100E800051023FF56BAF344A1268920738D5E268D9
:100E9000012A35D00120DAE7304A2F4EC2F8803ED1
:100EA00000F002FC054604E000F0FEFB401B0228B7
:100EB00042D8736F9F07F7D4DFE7002580E74A68C1
:100EC00051027FF51AAF244A126892037FF538AFBA
:100ED0006268002A7FF434AFDCE71F4A136843F4EA
:100EE0008033136000F0E0FB1B4E054604E000F089
:100EF000DBFB401B64281FD833689B03F7D51EE734
:100F0000154920690A6822F0F80242EAC0020A6024
:100F10001A077FF542AF9DE7336843F4807333606F
:100F200000F0C2FB07463368D9053FF54EAF00F02D
:100F3000BBFBC01B0228F6D9032002B0BDE8F0813C
:100F4000054A136F43F00103136700F0ADFB024F36
:100F5000064641F288380AE0003802400000474265
:100F60000070004000F0A0FB801B4045E4D83B6FC0
:100F70009A07F7D5002D3FF44DAF44E0424A434E67
:100F8000136000F091FB054604E000F08DFB401B70
:100F90000228D1D833689907F7D42368FBE6012BE0
:100FA0003FF478AF6B68E26903F4800191427FF40B
:100FB00071AF226A03F03F0191427FF46BAF616A27
:100FC00047F6C0721A40B2EB811F7FF463AFA26A8A
:100FD000520803F44031013AB1EB024F7FF45AAFAB
:100FE000E26A03F07063B3EB026F14BF01200020CC
:100FF0002DE7264B1A6842F480221A601A6842F4E0
:1010000080321A606EE7214A136C23F08053136418
:1010100000E71E4B1A6F42F004021A671A6F42F083
:1010200001021A6791E700F03FFB064605E000F079
:101030003BFB801B02283FF67FAF2B689901F6D45B
:10104000D4E90731626A0B4343EA8213D4E90A20E8
:1010500052080D4943EA0063013A43EA0243012280
:101060006B600A6600F020FB084D044605E000F0C6
:101070001BFB001B02283FF65FAF2B689A01F6D5D9
:10108000E4E60120704700BF0000474200380240FC
:10109000164908B58B6803F00C03042B1BD0082BF2
:1010A00001D0134808BD4A684B68496813F48003AF
:1010B00002F03F0211D10E48C1F38811A1FB0001DB
:1010C000FFF78EF8094B5B68C3F3014301335B0004
:1010D000B0FBF3F008BD074808BD0648C1F388110E
:1010E0000023A1FB0001FFF77BF8EBE7003802408B
:1010F0000024F40000127A00002800F08780484A9B
:10110000136803F007038B422DE9F0410D460446B6
:1011100009D2CBB21370136803F007038B4202D0DD
:101120000120BDE8F0812368980714D5590704D53C
:101130003C498A6842F4E0528A601A0704D539496A
:101140008A6842F460428A603649A0688A6822F060
:10115000F00202438A60DF0721D56268012A57D076
:10116000931E012B2F4B1B684DD99907D8D52D4EB7
:10117000B36823F003031343B36000F095FA41F220
:101180008838074604E000F08FFAC01B404544D879
:10119000B368626803F00C03B3EB820FF3D1204A0B
:1011A000136803F00703AB4206D9EBB21370136860
:1011B00003F00703AB42B3D123685A0706D5194998
:1011C000E0688A6822F4E05202438A601B0707D570
:1011D000144A2169936823F4604343EAC10393608E
:1011E000FFF756FF0F4A104C92681049C2F30312E2
:1011F0000346A25C0E48D34000680B6000F00AFA78
:101200000020BDE8F0819801B1D489E70120704742
:10121000044B1B689E03AAD482E7032081E700BF2A
:10122000003C024000380240BC870008500000200B
:1012300058000020044B05499B68054A0868C3F321
:101240008223D35CD8407047003802405000002011
:10125000B4870008044B05499B68054A0868C3F336
:101260004233D35CD8407047003802405000002021
:10127000B48700082DE9F04F00230C68DFF8C8A1FF
:1012800085B04FF0010B894602E00133102B7DD071
:101290000BFA03F202EA0408A243F6D1D9F80410CB
:1012A00001F0030C5A0003250CF1FF369540012E86
:1012B0006FEA05056DD9BCF1030F40F0B4800668F4
:1012C0000CFA02F235402A4311F4403F0260DCD0B0
:1012D00000220392DAF8442042F48042CAF8442003
:1012E000DAF8442002F480420392039A23F00302C6
:1012F00002F1804203F003060F2702F59C32B6008C
:1013000007FA06FC4D4F9568B84225EA0C0515D042
:1013100007F58067B84274D0494FB84277D0DFF8FC
:101320002CC1604579D0DFF828C160450CBF4FF073
:10133000040C4FF0070C0CFA06F635439560414A51
:101340009268CE026FEA08053E4E54BF2A4048EA32
:101350000202B260F2683B4E8F0254BF2A4048EA54
:101360000202F26072688E03364E54BF2A4048EA89
:10137000020272603268C90303F10103314954BFAC
:101380002A4048EA0202102B0A6081D105B0BDE86C
:10139000F08F866806EA050ED9F80C60964046EA9A
:1013A0000E068660466826EA080EC1F300169E40C7
:1013B00046EA0E064660C66806EA050ED9F80860D9
:1013C000964046EA0E06BCF1020FC6607FF477AF86
:1013D000DE0800EB86060196376AD9F810600097A0
:1013E00003F0070E4FEA8E0E0F2706FA0EF607FAE5
:1013F0000EFE009F27EA0E0E019F46EA0E063E6291
:101400005DE74FF0010C0CFA06F6354396E74FF016
:10141000020C0CFA06F6354390E74FF0030C0CFA79
:1014200006F635438AE7C66806EA050ED9F808606D
:10143000964046EA0E06C66041E700BF0000024043
:1014400000080240003C014000380240000C02400D
:101450000010024002B9090481617047436901EA42
:10146000030221EA030141EA02418161704700BFA2
:1014700070B50446866D00F017F994F83530022BEC
:1014800006D080236365002384F83430012070BDCA
:1014900023681A6822F016021A605A6922F0800244
:1014A0005A61226C054642B31A6822F008021A609B
:1014B0001A6822F001021A6005E000F0F5F8431BFB
:1014C000052B10D823681B6813F00103F5D1E16DDB
:1014D0003F228A40184601210023B26084F835106B
:1014E00084F8343070BD032320226265184684F8E6
:1014F0003530002384F8343070BDA26C002AD3D17B
:10150000D6E700BF90F83530022B03D08023436527
:10151000012070470268052380F83530136823F0F6
:1015200001030020136070470749CA6803024FF6A1
:10153000FF0003F4E0630240134343F0BF6343F44E
:101540000033CB60704700BF00ED00E01B4BDB6851
:10155000C3F3022300B5C3F1070EBEF1040F03F17C
:10156000040C28BF4FF0040EBCF1060F1CD9A3F1E8
:10157000030C4FF0FF3303FA0CF322EA03024FF09F
:10158000FF3303FA0EF321EA030303FA0CF31343C8
:101590001B010028DBB20ADB00F1604000F561406E
:1015A00080F800335DF804FB00229446E7E7044A24
:1015B00000F00F00024413765DF804FB00ED00E03C
:1015C000FCEC00E0002807DB044A4109012300F09D
:1015D0001F00834042F82130704700BF00E100E067
:1015E0000138B0F1807F01D30120704710B44FF073
:1015F000E023074C58614FF0F00C84F823C0002220
:10160000072110469A615DF8044B1961704700BFCD
:1016100000ED00E038B50E4A0E4B1278054618680A
:101620004FF47A73B3FBF2F3B0FBF3F0FFF7D8FF9C
:1016300008B90F2D01D9012038BD044602462946BC
:101640004FF0FF30FFF782FF034B20461D6038BD8F
:1016500054000020500000205800002008B50B4B1B
:101660001A6842F400721A601A6842F480621A60C2
:101670001A6842F480721A600320FFF755FF0F20AA
:10168000FFF7C8FF00F0D4FD002008BD003C024079
:10169000034A044B11681B780B441360704700BF6A
:1016A000BC7D002054000020014B1868704700BF2B
:1016B000BC7D002038B50446FFF7F6FF631C0546E5
:1016C00002D0044B1B781C44FFF7EEFF401BA042E6
:1016D000FAD338BD54000020026802F10C0353E82D
:1016E000003F23F4907302F10C0C4CE80031002908
:1016F000F3D102F1140353E8003F23F0010302F198
:10170000140C4CE800310029F3D1036B012B05D0F8
:101710002022002380F842200363704702F10C036B
:1017200053E8003F23F0100302F10C0C4CE80031A9
:101730000029F3D1ECE700BF0268116938B504460F
:10174000C068A36821F4405101432069116103433B
:101750006069D1680343E06921F4164121F00C016E
:1017600003430B43D3605369A069234923F44073B7
:1017700003438A42536105D0204B9A4202D0FFF7BF
:1017800059FD01E0FFF766FDE2691921B2F5004F4E
:10179000D4E90053A0FB010113D09A009B0FFEF780
:1017A0001FFD174AA2FB00135B09642101FB130014
:1017B00000013230A2FB00201B0103EB5013AB6091
:1017C00038BDDA184FF000035B41FEF709FD0C4A03
:1017D000A2FB00314909642303FB1103DB00323310
:1017E000A2FB0323C3F342121B0902EB011203F411
:1017F000F8731344AB6038BD001001400014014081
:101800001F85EB5170B310B590F84130044603F0DA
:10181000FF0213B32268242384F84130D36823F4F1
:1018200000532046D360FFF787FF2368196921F42E
:1018300090411961596921F02A015961D968002242
:101840004FF0200C41F40051D960626484F841C02B
:1018500084F842C01046626310BD80F8402000F05A
:101860003BFDD7E7012070472DE9F843044690F887
:10187000410020284ED1884609B1164612B90120F0
:10188000BDE8F8831F464FF000092123C4F84490B7
:1018900084F84130FFF708FFA368A684B3F5805FA2
:1018A0000546E68439D0E28C236892B2AAB11A6860
:1018B000160604D4791C1ED11A681206FCD5B8F19C
:1018C000000F21D018F8012B5A60E28C013A92B235
:1018D000E284E28C92B2002AE9D11A68520604D45A
:1018E000781C20D11A685106FCD5202384F8413099
:1018F0000020BDE8F883FFF7D7FE401B87421BD3CB
:10190000D7B12368DA68D2E739F8022BC2F30802AC
:101910005A60DAE70220BDE8F8832369002BC2D1C0
:10192000C1469846BFE7FFF7BFFE431B9F4203D364
:1019300017B12368DA68D0E7202384F84130032008
:10194000BDE8F88390F84230202B03D101B11AB9D9
:10195000012070470220704710B40469816200239F
:10196000222103638285C2854364036880F84210A4
:101970001CB1DA6842F48072DA605A695DF8044B8F
:1019800042F001025A61DA6842F020020020DA6077
:10199000704700BF704700BF704700BF08B5806B3D
:1019A0000023C385C384FFF7F7FF08BD704700BF5E
:1019B00090F84230222B57D183680168826AB3F5D0
:1019C000805F44D0002B4BD10369002B48D14B687A
:1019D000DBB21370826A0132C38D8262013B9BB21B
:1019E000C385002B40D100B50268D16821F02001E9
:1019F00083B0D160D16821F48071D16051694FF01A
:101A0000200C21F00101516180F842C04363016B59
:101A100001292AD1036302F10C0353E8003F23F0AC
:101A2000100302F10C0C4CE800310029F3D11368CB
:101A3000DB0606D5002301931368019353680193D5
:101A4000019B818DFFF7B2FF03B05DF804FB0369D2
:101A5000002BBCD14B68C3F3080322F8023BBBE761
:101A60004B6803F07F03B4E7704700F08DF903B0D3
:101A70005DF804FB70B505682B68EE68696913F0C2
:101A80000F0F82B004462A4670D19D0602D5B106DA
:101A900000F1C480216B01290BD0180602D5310654
:101AA00000F192805B0602D5750600F1AC8002B0B1
:101AB00070BDD806F1D5F106EFD500230193136868
:101AC000019353680193019B53695D0640F10B81BB
:101AD000E06B03685B689BB2002BE8D0A18D994254
:101AE000E5D9E385C369B3F5807F36D002F10C03F5
:101AF00053E8003F23F4807302F10C0545E8003100
:101B00000029F3D102F1140353E8003F23F001034D
:101B100002F1140545E800310029F3D102F1140364
:101B200053E8003F23F0400302F1140545E800317B
:101B30000029F3D1202384F84230216302F10C0301
:101B400053E8003F23F0100302F10C0545E8003193
:101B50000029F3D1FFF78CFCA18D02236363E38D91
:101B6000C91A204689B2FFF721FFA0E711F0010151
:101B700076D116F4907F8DD0DA070AD5F00540F1C2
:101B8000ED80626C580742F0010262644FD5002973
:101B90006AD198075AD5190700F1A280626C002A11
:101BA00085D09A0602D5B30600F1DC806B69626CC1
:101BB00003F0400302F0080253EA020620465CD11B
:101BC000FFF7EAFE666472E794F84130212B7FF458
:101BD0006EAFA168236AB1F5805F00F0C880591C20
:101BE00021621B785360E38C013B9BB2E384002BA2
:101BF0007FF45DAFD36823F08003D360D36843F0F4
:101C00004003D36053E7D368202123F04003D3601F
:101C1000204684F84110FFF7BDFE48E702B0BDE85A
:101C20007040FFF7C5BEF005ABD45A071CD4980727
:101C30000CD50029AFD0626C42F0040262641A072E
:101C4000ACD5626C42F008026264A7E71807A5D51C
:101C500006F020020A43F4D1636C002BA6D126E7DC
:101C6000DA07E0D4580738D5626C990742F00202CF
:101C70006264E0D41A07E4D490E7FFF72DFD6B69A6
:101C80005E0626D505F1140353E8003F23F0400318
:101C900005F1140141E8003262B1226802F1140337
:101CA00053E8003F23F0400302F1140040E8003104
:101CB0000029F3D1E06B60B1324B0365FFF722FCE2
:101CC00000283FF4F4AEE06B036D02B0BDE8704055
:101CD00018472046FFF760FEE9E69907ABD4C9E74D
:101CE000B206AED4B8E7E18DE38DA08D9BB289B288
:101CF000002B3FF4DCAE411A89B200293FF4D7AE85
:101D000002F10C0353E8003F23F4907302F10C0539
:101D100045E800300028F3D102F1140353E8003FF6
:101D200023F0010302F1140545E800300028F3D147
:101D3000202384F84230206302F10C0353E8003F73
:101D400023F0100302F10C0545E800300028F3D120
:101D5000022363632046FFF729FEA8E65A073FF5F2
:101D600018AF64E72046FFF723FE25681EE72169C8
:101D700000297FF434AF33F8021BC1F3080151602E
:101D8000236230E79D190008124A0368934210B598
:101D9000044606D0104A93420CD0104A934212D007
:101DA00010BD0F4A0F48214603F06EF823680A4A17
:101DB0009342F2D10C4A0B48214602F039FF2368C6
:101DC000064A9342ECD12146084A0648BDE8104035
:101DD00002F02EBF001001400044004000140140FA
:101DE000CA7D002060000020C97D0020C87D002041
:101DF0000368B3F1804F00D07047114910B4114C03
:101E00000B6820680133B3FBF0F200FB12320B6069
:101E10009AB92368322B09D10B4B19680A2995BF4F
:101E20001A684FF4FA71013221601A6007485DF8B0
:101E3000044B4FF48071FFF711BB5DF8044B704702
:101E4000C47D00205C000020C07D00200004024012
:101E500072B6BFF34F8F0549054BCA6802F4E062C2
:101E60001343CB60BFF34F8F00BFFDE700ED00E0F1
:101E70000400FA0510B5002394B0CDE90A33CDE98A
:101E80000C33CDE90333CDE90533204901930793A2
:101E9000086C1F4A40F080500864096C01F08051C2
:101EA000019101990293136823F4404343F40043E2
:101EB0001360136801204FF4803103F44043CDE9EF
:101EC000080102934FF480010224CDE90E410298EB
:101ED00004210220CDE912010422542308A8109203
:101EE0001193FEF7F3FE78B90F210346CDE90314F1
:101EF0004FF4805203A82146CDE905320793FFF73E
:101F0000FBF808B914B010BDFFF7A2FF003802407B
:101F1000007000402DE9F04F002493B0FFF79EFBC6
:101F2000FFF7A8FFCDE90D44CDE90F44984B00948D
:101F300011941A6B9748984F42F080021A63196BFC
:101F400001F08001009100990194196B41F00101A9
:101F50001963196B01F00101019101990294196B48
:101F600041F004011963196B01F004010291029917
:101F70000394196B41F0020119631B6B03F0020318
:101F8000224603934FF40071039BFFF763FA8348E3
:101F900022464FF48071FFF75DFA224680484FF4E5
:101FA0008071FFF757FA01254FF4007379480DA9A6
:101FB000CDE90D354FF48076CDE90F44FFF75AF99E
:101FC00076480DA9CDE90D65CDE90F44FFF752F92B
:101FD00073480DA9CDE90D65CDE90F44FFF74AF926
:101FE000704B3C614FF4E1390C263846C7E90039A3
:101FF000C7E90244C7E906447E61FFF703FC0028F5
:1020000040F0C480DFF8C881674BC8F81C00C8E9FD
:102010000190C8E90300C8E905604046C8F80030EF
:10202000FFF7F0FB002840F0B180604C604B20616E
:10203000C4E90200C4E906002046C4F804906661C1
:102040002360FFF7DFFB002840F0A080DFF88491D9
:102050005849C9F81800CDE90D00CDE90F00CDE9C8
:102060000600C9E90200C9E9040053234846C9E94A
:102070000013FEF7C1FD002840F088804FF4805621
:102080000DA948460D96FEF717FC00287ED14FF0AB
:10209000000A4FF0000B06A94846CDE906ABFEF753
:1020A000D9FD002872D1DFF83091434B0990CDE97A
:1020B0000A00C9E9010004900C900590C9F81000CD
:1020C000C9F81800C9F80C3048464FF08043C9F8E9
:1020D0000030FEF791FD002858D109A9484609961D
:1020E000FEF7EAFB002851D104A94846CDE904AB2C
:1020F000FEF7B0FD0646002848D14846FEF7AAFB89
:102100002A462E49DFF8B4903846FFF71BFC2A46D2
:102110002B494046FFF716FC2A462A492046FFF77E
:1021200011FC6420FFF7C6FA2748284C03F042F957
:102130003946254802F038FB234802F077FF224851
:1021400003F0CEFAA4F5C045284605F011FA94F83C
:102150008030002BF8D03B680D961A680D925A68B3
:102160000D920D48DDF834C05B687E64012249465B
:10217000FFF7E8FB98F84230202B04D110491448AF
:102180000122FFF7DFFB84F88060DDE7FFF760FEE8
:102190000038024000080240708200200000024027
:1021A000000402400010014000440040E081002093
:1021B00000140140000001401F480100CA7D0020BA
:1021C000C97D0020C87D00206000002060600020E4
:1021D0002882002000830020B8820020FEE700BF94
:1021E000FEE700BFFEE700BFFEE700BFFEE700BF5F
:1021F000704700BF704700BF704700BFFFF748BA85
:102200000148FEF70BBC00BFB88200200148FFF771
:1022100031BC00BF708200200148FFF72BBC00BF1B
:10222000288200200148FFF725BC00BFE081002084
:1022300082B00C4B002100915A6C42F480425A64E7
:102240005A6C02F480420092009A01911A6C42F09A
:1022500080521A641B6C03F080530193019B02B0FF
:10226000704700BF0038024000B5184A0368934227
:1022700083B005D0B3F1804F11D003B05DF804FBFB
:10228000134B002200925A6C42F001025A645B6CBC
:1022900003F001030093009B03B05DF804FB0022F0
:1022A00003F50E330192196C41F0010119641B6CA6
:1022B00003F00103019311461C20019BFFF746F92F
:1022C0001C2003B05DF804EBFFF77CB9000001406F
:1022D000003802400000000030B503684E4A8DB05F
:1022E00000249342CDE90644CDE908440A9407D07E
:1022F0004A4A93422FD04A4A934257D00DB030BD3C
:10230000484B00945A6C484842F010025A645A6C88
:1023100002F010020092009A01941A6B42F001023E
:102320001A631B6B9FED387B03F00103019306A931
:1023300007230322CDE909238DED067B019DFEF7DE
:1023400099FF224621462520FFF700F92520FFF7B7
:1023500039F90DB030BD334B02941A6C324842F457
:1023600000321A641A6C02F400320292029A039448
:102370001A6B42F001021A631B6B9FED257B03F081
:102380000103039306A907230322CDE909238DED59
:10239000067B039DFEF76EFF224621462620FFF7AF
:1023A000D5F82620FFF70EF90DB030BD1D4B049473
:1023B0005A6C1E4842F020025A645A6C02F0200205
:1023C0000492049A05941A6B42F004021A631B6B80
:1023D00003F004030593C0220223CDE9062306A9D6
:1023E00008230325CDE90953059AFEF743FF22464A
:1023F00029464720FFF7AAF84720FFF7E3F80DB07A
:1024000030BD00BFAFF300800006000002000000F6
:102410000C000000020000000010014000440040D9
:102420000014014000380240000002400008024051
:102430000C490D4A0B6810B50C4C121B2BB11844FB
:10244000904207D80860184610BD094B0B6018442D
:102450009042F7D905F04AFA0C2303604FF0FF339E
:10246000184610BD48830020000001200004000031
:1024700050830020DFF834D0FEF7E2F90C480D4914
:102480000D4A002302E0D458C4500433C4188C42CF
:10249000F9D30A4A0A4C002301E013600432A24235
:1024A000FBD3FEF79FF8FFF735FD704700000120D2
:1024B00000000020547C002080920008587C0020FE
:1024C0004C830020FEE70000BFF34F8F0549064B09
:1024D000CA6802F4E0621343CB60BFF34F8F00BFC2
:1024E000FDE700BF00ED00E00400FA0582B007EE52
:1024F000100A0191E1B107EE901AF8EE676AB8EEA2
:10250000477AF2EE067A27EE277A9FED0B6AC7EE3E
:10251000267AB0EE087A67EE867A67EE877AFCEE66
:10252000E77A17EE900A0A2838BF0A2002B07047EF
:10253000DFED026AE3E700BF00007A4400001646C0
:1025400010B591F80432BC2BA0B004461ED0BA2BB3
:1025500002D0002020B010BDB1F80834012BF8D112
:1025600091F80722012A1FD0E2B900F5E04100F5F9
:10257000C044B1F8C82B42F00202A1F8C82B194997
:1025800084F8AB39642201F089FA0BE004F5E044E9
:102590001549B4F8C83B43F002036422A4F8C83BD1
:1025A00001F07CFA0120D5E700F5C04393F8AA3981
:1025B000002BEBD100F5E04100F5D243B1F8C82B78
:1025C00042F00202A1F8C82B1A46084940332032D3
:1025D000684605F0CDF832226946204601F05EFAE1
:1025E000E0E700BFF0870008CC870008D887000824
:1025F00010B591F80432BC2B8AB0044618D0BA2B1F
:1026000002D000200AB010BDB1F80834012BF8D177
:1026100091F80712012929D031BB00F5E044B4F844
:10262000C83B43F00403A4F8C83B04F011F81BE0D6
:1026300000F5E0421C49B2F8C83B43F00403A2F89D
:10264000C83B027802A805F093F802A8FDF768FFDE
:102650000023012204F5E441CDE90032543183B274
:1026600002AA204604F050F80120CBE700F5C04351
:1026700000F5E04493F8F12B52B1B4F8C83B0B4994
:1026800043F004036422A4F8C83B01F007FAEBE727
:10269000B4F8C81B41F00401A4F8C81B83F8F42B5C
:1026A00004F02CF9E0E700BFFC8700080888000868
:1026B00090F80622B0F80834202A16D8DFE802F095
:1026C000111A1515151515151515151515151515B9
:1026D00011151515151115151515151515151515B2
:1026E0001100012B0FD001207047B3F5007F0ED8E9
:1026F00001207047012BF6D190F80722013AD2B29F
:102700009F2AF0D903E090F80732012BEBD9082378
:1027100080F80D340020704770B5B0F80032023BED
:102720009BB2C0B0C65C80F80A6405464FF4807264
:1027300000216846FDF74EFFB5F80422B5F80232D5
:10274000ADF8002095F806228DF80220A3B90323E6
:102750006A46D018002312F8011B0B448242DBB2F8
:10276000F9D19E4285F80B341BBF002006230120BF
:1027700085F80D3440B070BDB5F8084405F2072166
:1027800022460DF1030005F0BFF8E31C9BB2002BBD
:10279000DED1E6E770B5ADF5826D14460E4640F227
:1027A0000E42002105466846FDF714FF22463146D9
:1027B000684605F0A9F80023052CADF800428DF815
:1027C0000C3404D99DF801309A1D94420CD0012399
:1027D0008DF80D3440F20E426946284605F094F813
:1027E00028460DF5826D70BD9DF80020ADF80232CF
:1027F000022A0FD16C4414F8012C032A0AD19DF847
:1028000002108DF80412BA2908D0BC2906D08DF820
:102810000D24DFE702238DF80D34DBE79DF803205C
:102820008DF80522A02A15D89DF804208DF80622DF
:10283000F22A0BD80F2A11D902F0F00110290DD07D
:1028400020290BD01032D2B2012A07D905238DF8E6
:102850000D34BFE704238DF80D34BBE793B1013B82
:102860009AB2ADF8082482B96846FFF721FF002824
:10287000B0D06846FFF750FF0028ABD001238DF899
:102880000C34A7E7ADF80834EEE70DF105010DF2C1
:10289000072005F039F8E7E72DE9F047ADF5007DB1
:1028A0001F46BDF82062899D02232B70731EFE2BEC
:1028B00051D890460023721C62F3070360F30F2384
:1028C00061F3174368F31F6382468946C5F80130F8
:1028D0007FB36C4632463946681D05F015F84FF453
:1028E000007200212046FDF775FE324639460DF193
:1028F0000300771D84F800A084F8019084F802801A
:1029000005F002F8F31CF01DB21D9BB2BFB296B2E7
:1029100080B2224600211C1912F8013B0B4494425C
:10292000D9B2F9D1EB550323AB550DF5007DBDE8C8
:10293000F0876C4639464FF400722046FDF74AFE98
:10294000062684F800A084F8019084F8028007200D
:1029500005270323DDE700200DF5007DBDE8F087A6
:1029600010B591F804E2BEF1BC0F84B084460FD0DC
:10297000BEF1BA0F02D0002004B010BDB1F8083487
:10298000012BF8D191F80732012B18D00120F3E781
:1029900001921C46704601230CF5E04E91F8062288
:1029A00000939CF800109EF8B4C79EF8B4C78DF849
:1029B0000FC00DF10F03FFF76FFF2080E6E700F572
:1029C000E04C0549BCF8C83B43F001036422ACF875
:1029D000C83B01F063F8D9E71888000870B591F892
:1029E00004C2BCF1BC0F82B0064626D0BCF1BA0FBF
:1029F00002D0002002B070BD00F5C04494F8AA399E
:102A0000002BF6D0B1F80854012DF2D191F807222D
:102A1000531EDBB29F2BECD8027003F089FD3046C9
:102A200002F0E4FE0028E4D184F8F20B84F8F40B01
:102A30002946304603F00CFE0CE015461C460123E7
:102A400091F8062200930195017803466046FFF74E
:102A500023FF20800120CDE710B591F804E2BEF1FC
:102A6000BC0F84B0844616D0BEF1BA0F02D000204D
:102A700004B010BDB1F80834022BF8D1B1F8073218
:102A800000F5C04C5BBAACF81C3902F0AFFEB0FAEE
:102A900080F04009ECE701921C46704602230CF5D9
:102AA000C04E91F8062200939CF80010BEF81CC995
:102AB00003AB9CFA9CFCADF80CC0FFF7EDFE03469F
:102AC0000120238004B010BDF0B50C4691F804122B
:102AD000BC29BDB0074636D0BA2902D000203DB08F
:102AE000F0BDB4F80834033B9BB27D2BF6D82549E2
:102AF0000FAB04F2072002AA04F05CFE02A8FDF767
:102B00000FFD02280446E9D90FA8FDF709FD0228A8
:102B10000546E3D907F5D240621C02A9203004F033
:102B2000F3FE07F5D2406A1C0FA9403004F0ECFE1A
:102B3000384602F05BFE14490FAB02AA1CA804F051
:102B400017FE0120CBE715461E4600F5D24200F5E0
:102B5000D2430D49403320321CA804F009FE1CA8C2
:102B6000FDF7DEFC019580B2397800901CAB94F83B
:102B7000062294F80402FFF78FFE034601203380FB
:102B80003DB0F0BD288800082088000830B591F8D5
:102B900004E2BEF1BC0F87B084461DD0BEF1BA0F6F
:102BA00002D0002007B030BDB1F808340C2BF8D1AA
:102BB00000F5C04CD1F80732CCF89239D1F80B327D
:102BC000CCF89639D1F80F32CCF89A3902F00EFED3
:102BD000B0FA80F04009E5E701921C4670460C23EC
:102BE0000CF5C04E91F806220093DEF89659049534
:102BF000DEF89A5905956B44DEF892599CF800105E
:102C00000395FFF749FE03460120238007B030BD3E
:102C100030B51C4691F80432BC2B83B0844614D0E6
:102C2000BA2B02D0002003B030BDB1F80834012B1C
:102C3000F8D100F5C04C91F807328CF8A63902F0B3
:102C4000D5FDB0FA80F04009EDE7154691F806226F
:102C500001950125009518460CF5D3439CF800100A
:102C60002633FFF719FE2080284603B030BD00BF91
:102C70002DE9F04F91F80482B8F1BC0FADF5057D58
:102C80000C46074616461D4665D0B8F1BA0F04D06B
:102C900000200DF5057DBDE8F08FB1F80884B8F18E
:102CA000050FF5D991F80732012B00F5C04900F066
:102CB0008B80002389F8CC39D1F80A32C9F84E3A12
:102CC000B1F80E325BBAA9F8523A384602F08EFDDE
:102CD0000028DDD1B9F8523A99F8CC89B9F852AA4E
:102CE0005BBAB8F1000F40F0AD8094F804B2D9F8A7
:102CF0004E9A3F7894F80642A6F8093040F20273E3
:102D00004FF40072414686F802B0F7703471C6F88D
:102D10000590338004A8FDF75DFC8DF818A04FEAFC
:102D20001A2A8DF810B08DF811708DF81240CDF878
:102D300013908DF817A00DF10F0206A8414612F866
:102D4000013F0B448242D9B2F9D103210D22F37223
:102D500031732A8022E000F5C049C822002104A86E
:102D600099F8CCA9FDF736FCB9F8523AB9F8522ACD
:102D70005BBABAF1000F13D1D9F84E2A3F7894F814
:102D80000642ADF80C30029202AB0620CDE90006F7
:102D9000224639464046FFF77FFD2880012078E72C
:102DA00007F5D3434D330092C821364A04A804F0F6
:102DB000A9FC04A8FDF7B4FB94F804823F7894F8CA
:102DC000064280B204ABE1E7A8F1030889F8CC39E8
:102DD0008022002104A81FFA88F8FDF7FBFBB8F158
:102DE0007F0F3FF655AF424604F20A2104A804F0D3
:102DF0008BFD04AB4FF0000A03F808A03A211846F7
:102E000004F004FD804600283FF442AF07F5D343A9
:102E10004D337F22184604A908F801AB04F03CFDAD
:102E200089F84CAAFDF77CFB89F84D0A404604F06E
:102E3000DFFB4FF6FE73421E9A423FF629AFA9F818
:102E4000520A42E70146C82204A8FDF7C3FB07F572
:102E5000D3430C4ACDF800A04D33C82104A804F098
:102E600051FC04A8FDF75CFB019680B23978009014
:102E700094F8062294F8040204ABFFF70DFD2880B5
:102E80008CE700BF38880008F0B50C4691F80412B2
:102E9000BC29BDB007462AD0BA2902D000203DB0D7
:102EA000F0BDB4F80834002BF8D004F2072007F581
:102EB000D5440FAB02AA1F49063407F5D54504F0E7
:102EC00079FC383502A9204604F016FD0FA92846E2
:102ED00004F012FD384602F089FC0028DED11649C4
:102EE0002B4622461CA804F043FC0120D7E71546D8
:102EF000002180221CA81E46FDF76CFB07F5D54378
:102F00003833009307F5D5430B4A802106331CA8BC
:102F100004F0F8FB019580B2397800901CAB94F86E
:102F2000062294F80402FFF7B7FC03460120338021
:102F30003DB0F0BD40880008208800082DE9F0432E
:102F40000C46B1F808140129C3B0054617461E46C1
:102F50000CD194F807321BB3591ECAB2022A35D9D4
:102F6000042B42D0002043B0BDE8F083C1B10DF185
:102F700008080DF109094846FDF7D2FA013001971A
:102F800080B229780090434694F8062294F804020F
:102F9000FFF782FC03460120338043B0BDE8F08395
:102FA00005F5E6430DF10808143300930DF1090906
:102FB00005F5E54305F5E542002188F80010543396
:102FC00010491432484604F0D3FBD4E700EB8111DA
:102FD0000DF1090901F5E541143148460DF10808E4
:102FE00088F8003004F088FCC5E70DF1090900F508
:102FF000E441143148460DF1080888F8003004F027
:103000007BFCB8E75088000830B591F804E2BEF1C7
:10301000BC0F85B084461AD0BEF1BA0F02D0002092
:1030200005B030BDB1F80834012BF8D191F8073262
:10303000A3F1010300F5C04CB3FA83F35B098CF8EC
:10304000F53B02F0D3FBB0FA80F04009E8E70192CB
:103050001D4601240CF5C04391F80622009493F814
:10306000F53B8DF80F309CF8001070460DF10F0302
:10307000FFF712FC2880204605B030BDF0B5ADF555
:10308000037D02AFCDE900270446214D0B4695F89C
:103090000622217895F80402FFF7FEFBB0F5806F59
:1030A00028BF4FF4806086B207EE906AB8EE677A68
:1030B000F2EE067A9FED176ADFED176AA06827EE39
:1030C000277A3246C7EE067A3946B0EE087A67EEBE
:1030D000A67A67EE877AFCEEE77A17EE905A0A2D09
:1030E00038BF0A252B46FEF7BFFB2B4660683246E9
:1030F0003946FEF7B9FB04F5E0440023C4F8C83BA9
:10310000C4F8CC3BC4F8D03B0DF5037DF0BD00BF47
:10311000CC7D00200000164600007A44F0B500F592
:10312000E04683B0D6F8C85B042D044630D015D8ED
:10313000012D58D0022D0FD1CE4900F0A3FC054639
:1031400000287AD0CC4B93F8072293F80432012A56
:1031500002D0BA2B00F0FB8003B0F0BDB5F5007FC4
:10316000FAD1C44900F08EFC054600284FD0B6F8CD
:10317000C83BFF2523F40073A6F8C83B01220DF1DC
:10318000070120468DF80750FFF778FF03B0F0BD28
:1031900096F80632002B40F09C80B649204600F09D
:1031A00071FC0546002868D0B34B93F8072293F8CA
:1031B0000432012A00F03C81BA2B00F0CF80B6F82F
:1031C000C83B04F5C04223F00403A6F8C83B92F8BC
:1031D000F13B8DF8073001220DF107012046FFF782
:1031E0004DFF03B0F0BDA54900F04CFC0028B3D062
:1031F000B6F8C83B23F00103A6F8C83B2A460DF1F8
:10320000070120468DF80750FFF738FFA4E79C49D7
:10321000204600F037FC00285ED0B6F8C83B65F3C6
:103220004923FF27A6F8C83B01220DF107012046DC
:103230008DF80770FFF722FF8EE79149204600F0D6
:1032400021FC0746002800F09F808B4B93F8072253
:1032500093F80412012A00F0FC80BA2900F02F81B3
:1032600088496422204600F019FC874964222046E0
:1032700003B0BDE8F04000F011BC8149204600F0E9
:1032800001FC002800F09E80B6F8C83B7A4A65F33E
:103290008203A6F8C83B92F8075204F5C046012DF8
:1032A00096F8F13B8DF8063093D192F80422BA2AB1
:1032B0008FD104F5D54164226D31204600F0EEFB3C
:1032C0002A460DF106012046FFF7D8FE86F8F05B8E
:1032D00042E703F013FA60E76C49204600F0D2FBA6
:1032E000054600287FF438AF6949204600F0CAFB44
:1032F00000283FF431AF204601F0ACF9B6F8C83BE6
:10330000002800F02A8165F3492304F5C042A6F89D
:10331000C83B92F8A5395CE75D49204600F0B2FB56
:10332000002800F01E81204601F094F9054600288F
:1033300000F01E810125204604F5C0442A460DF107
:1033400007018DF80750FFF799FE84F8AA59B6F8DF
:10335000C83B23F00203A6F8C83BFDE6B6F8C82B2D
:1033600004F5C041002322F00402A6F8C82B204631
:10337000A1F8F13B81F8F43B01220DF107018DF832
:103380000730FFF77BFEE7E64249204600F07AFB74
:103390000546002800F0848004F5C043204683F8E9
:1033A000AA7901220DF107018DF80770FFF766FE7B
:1033B000B6F8C83B67F341032046A6F8C83B03F0C4
:1033C00075FCC9E63449204600F05CFB0546002840
:1033D0007FF4C2AE3149204600F054FB0746002876
:1033E00000F0A180B6F8C83B04F5C04765F382033E
:1033F000A6F8C83BA7F8EE5BFEF756F90122C6F81F
:1034000010024FF4807387F8F25B04F5E64604F58A
:10341000E54587F8F42BA7F8F03B143554362B78A4
:10342000002B7BD14035AE42F9D197F8F13BD0E685
:10343000BA2B7FF4C4AE04F5C04393F8F41B002903
:103440007FF48AAE04F5D54183F8F42B6D31642204
:103450000DE7BA297FF404AFB6F8C83B65F3410322
:10346000A6F8C83B0DF1070120468DF80750FFF77D
:1034700005FEF5E664880008CC7D00205C88000825
:10348000688800081888000870880008008900080B
:10349000C088000880880008D4880008E4880008F4
:1034A0003D49204600F0EEFAC0B104F5C043204685
:1034B00083F8F15B03B0BDE8F04003F0F7BBB6F86A
:1034C000C83B65F341030122A6F8C83B0DF1070193
:1034D00020468DF80720FFF7D1FDC1E62F49204691
:1034E00000F0D0FA30B92E49204600F0CBFA00287F
:1034F0003FF412AF012520462A460DF107018DF851
:103500000750FFF7BBFDB6F8C83B04F5C04423F0F5
:103510000203A6F8C83B84F8AA591DE629462046AE
:1035200003F0C4F97EE71F49204600F0ABFA0028FB
:103530003FF412AE04F5C043012293F8F13B8DF83D
:10354000073020460DF10701FFF798FDB6F8C83B9C
:1035500067F38203A6F8C83BFEE5FF2560F3492325
:103560000AE61149204603B0BDE8F04000F08ABAEF
:103570008DF80700204604F5C04401220DF1070133
:10358000FFF77CFD84F8AA59B6F8C83B65F3410300
:10359000A6F8C83BE0E500BF90880008A4880008B2
:1035A000B4880008F4880008C888000830B50024F2
:1035B00061F30704017861F30F24ADF2044D62F367
:1035C00017444FF4007263F31F64002140F202239A
:1035D00005460DEB0200ADF80030CDF80240FCF7D7
:1035E000F9FF809480AB81AC002113F8012B0A44D1
:1035F0009C42D1B2F9D103218DF806208DF8071035
:10360000A86869461B230822FEF72EF968681B2369
:1036100008226946FEF728F90DF2044D30BD00BFBF
:1036200000B583B0062104468DF804100A2301A9D1
:1036300001228068FEF718F920460123F022BC2100
:10364000FFF7B4FF0A23012201A96068FEF70CF915
:103650004FF47A70FEF72EF872B6FEF735FF00BF12
:1036600000B583B0044606218DF804100A2301A991
:1036700001228068FEF7F8F801A960680A23012298
:10368000FEF7F2F80123F022BC212046FFF78EFF5F
:103690004FF47A70FEF70EF872B6FEF715FF00BF12
:1036A0002DE9F04F00F5E048974DB8F89E2700F55A
:1036B000E746ADF21C4D1E360027314692B2044655
:1036C0002846ADF81670FFF765F830464FF4806273
:1036D0003946FCF77FFF95F80C64A8F89E77002E1A
:1036E00040D095F80632232B27D8232B2AD8DFE8A1
:1036F00013F0A20196018A0129002900290029005E
:103700002900290029002900290029002900290071
:1037100029007E0172011301FF00EB00DF00BF00F2
:10372000B3002900290029002900290029002900C7
:103730002900A7009B004900AE01F02B00F0988102
:10374000F12B14D015210A2301228DF81812A0683C
:1037500086A9FEF789F860680A23012286A9FEF788
:1037600083F8002630460DF21C4DBDE8F08F95F829
:103770000432BA2BE6D102F057F90028E2D12046F4
:10378000FFF76EFF06AF0DF116035F493A4620467C
:10379000FFF77AFB80F00103DBB2002BD2D1BDF83A
:1037A0001680A06806238DF8183201220A2386A904
:1037B000FEF75AF8606886A90A230122FEF754F83A
:1037C000B8F1000FCED095F80432BC2BCAD1B8F5B1
:1037D000806F88BF4FF4806807EE908AB8EE677AF2
:1037E000F2EE067A9FED496ADFED496AA06827EE9E
:1037F000277A4246C7EE067A3946B0EE087A67EE77
:10380000A67A67EE877AFCEEE77A17EE905A0A2DD1
:1038100038BF0A252B46FEF727F860682B4642463C
:103820003946FEF721F89DE706AF0DF1160336493C
:103830003A462046FFF71CFA80F00103DBB2ACE702
:1038400006AF0DF1160330493A462046FEF7D0FE8A
:1038500080F00103DBB2A0E706AF0DF116032A49A1
:103860003A462046FFF7D0FB80F00103DBB294E735
:1038700095F80432BC2B7FF465AFB8F8C83B2549F6
:1038800043F40073A8F8C83B0A22204600F006F96A
:1038900006228DF8182286A9A0680A230122FDF7C6
:1038A000E3FF60680A23012286A9FDF7DDFF59E7DF
:1038B00006AF0DF1160314493A462046FFF7A8F962
:1038C00080F00103DBB268E795F80402BC287FF4BE
:1038D00039AF062306AF0093019704F5D34321784F
:1038E0001E331422FEF7D8FF8046ADF8160058E7C5
:1038F00006AF0DF1160304493A462046FFF746F994
:1039000080F00103DBB248E7CC7D002000001646C2
:1039100000007A44CC87000895F80482B8F1BC0F07
:103920007FF410AF04F5C04340F60252D3F886A9E5
:10393000D3F88A99D3F88E3902934FF0120B0021F5
:10394000CDF82530ADF81820237803934FF400729A
:1039500086A88DF81B308DF81A80CDF81DA0CDF803
:1039600021908DF81CB0FCF735FE039B8DF81932C1
:10397000029B8DF8188206AF8DF81AB2CDF81BA203
:10398000CDF81F92CDF823320DF217220DF226202A
:10399000002112F8013F0B449042D9B2F9D17B7457
:1039A0000323BB7406238DF8183201220A2386A94B
:1039B000A0684FF01308ADF81680FDF755FF0A23F5
:1039C000606886A90122FDF74FFF95F80432BC2BF1
:1039D0007FF4C8AE00E706AF0DF1160328493A465A
:1039E0002046FFF771F880F00103DBB2D5E606AFA1
:1039F0000DF1160322493A462046FEF7A1FD80F05C
:103A00000103DBB2C9E606AF0DF116031C493A46C5
:103A10002046FFF721F880F00103DBB2BDE606AFD8
:103A20000DF1160316493A462046FEF7D7FF80F0FF
:103A30000103DBB2B1E606AF0DF1160310493A46B9
:103A40002046FEF78DFF80F00103DBB2A5E695F876
:103A50000432BC2B7FF476AE06AF0DF11603084995
:103A60003A462046FFF76AFA80F00103DBB294E69B
:103A700095F80432BA2B7FF465AE2046FFF7D0FDEF
:103A8000CC7D002000F5E04008B5D0F8BC0B03F079
:103A900016FF003818BF012008BD00BF2DE9F04710
:103AA000044630B30D4621B300F5C043914693F868
:103AB0007C600EB393F87DA0DFF84C80013E0AF1E4
:103AC000010313FA86F643F2320703E00AF1010A12
:103AD000564511D0A8FB0A23DB0803EB4300AAEBF1
:103AE000800007EB80202946204403F0E8FE0028F0
:103AF000ECD00020BDE8F0874A462946204600F079
:103B0000CFFFBDE8F08700BFABAAAAAA00F5E04C42
:103B1000002200F54053ACF8C02BCCF8BC2B93F836
:103B2000301019B300B500F5C04181F87F2093F83B
:103B3000313003F5C0510C3100EB832E30F81110F9
:103B4000B1F5806F38BF8E444FEA832303F1180329
:103B500034BF8EF818208EF8172403445DF804EB68
:103B6000CCF8BC3BACF8C01B00F0F2BF704700BF04
:103B70002DE9F04F07697B6C1B0785B0044609D51A
:103B80003B680022039219680391596803910399D5
:103B90005B687A6404F5C04595F87C3053B904F548
:103BA000E0490122002385F87F2089F8AC3705B071
:103BB000BDE8F08F95F87D60244904EB460B04EBDB
:103BC00086280BF5C04B04EB860A08F540580AF529
:103BD000C04ABBF83230009308F13208DAF84C30B2
:103BE0000193404603F06BFE04F5E04938B1012330
:103BF00089F80632FDF758FD2769C9F808024FF425
:103C0000E1310098FEF772FC009A034641463846BF
:103C1000FDF72AFE01220199204600F019FF0C4B06
:103C20000136A3FB0623DB0803EB4303A6EB830665
:103C30000023ABF83230CAF84C3095F87C3085F868
:103C40007D60013B85F87C30ABE700BF0C89000844
:103C5000ABAAAAAAF0B505696B6C85B00E461446EE
:103C6000D3B12B68002201921F6801975F6801970A
:103C7000019F02921F6802975F680297029F03925A
:103C80001F6803975F68039700F5C0400121039FF9
:103C90005B686A6480F880104FF4E1312046FEF7DB
:103CA00025FC2246034631462846FDF7DDFDB0FAE5
:103CB00080F0400905B0F0BD00F5E04393F8C42B57
:103CC000002A40F08C812DE9F04700F5C047A0B0F4
:103CD00097F8A729044612B997F8AA297ABBE27D7A
:103CE00093F896137AB30122E28219B14FF48072ED
:103CF000A3F8962397F8A8391BB997F8A939002B90
:103D000054D097F8AA3923B997F8AB29002A00F0C4
:103D1000A88097F8AC29002A00F0D18097F8AE2946
:103D2000002A77D097F8F22B002A40F0EC8097F821
:103D3000F43B2046002B00F0128102F0F9FB00203A
:103D400020B0BDE8F087A27D19B14FF48071A3F8CF
:103D50009613002ACED16D46A8494FF4E132284689
:103D600003F006FD97F87C60002E4AD097F87D900E
:103D7000DFF8A882013E09F1010313FA86F643F247
:103D8000320703E009F10109B1453AD0A8FB092344
:103D9000DB0803EB4303A9EB830307EB83232946EB
:103DA000E01803F08CFD0028ECD0C8E797F87C50B1
:103DB000002D00F0C28097F87DA0DFF86092DFF858
:103DC0004C82013D0AF1010313FA85F543F23206F4
:103DD00004E00AF1010AAA4500F0AF80A9FB0A300D
:103DE000C00800EB4000AAEB800006EB80202044D6
:103DF000414603F064FD0028EBD0012387F8A93980
:103E00009DE764222946204600F04AFE002020B0AB
:103E1000BDE8F08797F87C50002D00F0948097F86B
:103E20007D90DFF8F881764F013D09F1010313FA27
:103E300085F543F2320604E009F10109A94500F0D5
:103E40008280A8FB0930C00800EB4000A9EB80008D
:103E500006EB80202044394603F031FD0028EBD0EA
:103E60006DE704F5D2431A466D4666494033203269
:103E7000284603F07DFC97F87C60002E69D097F807
:103E80007D90DFF89881013E09F1010313FA86F66F
:103E900043F2320703E009F10109B14559D0A8FB0B
:103EA0000930C00800EB4000A9EB800007EB802040
:103EB0002044294603F003FD0028ECD03FE797F8A3
:103EC0007C50A5B397F87D90DFF850814E4F013DAF
:103ED00009F1010313FA85F543F2320603E009F113
:103EE0000109A94523D0A8FB0930C00800EB400018
:103EF000A9EB800006EB80202044394603F0DFFC6C
:103F00000028ECD01BE797F8F36B96B397F8F42BE7
:103F1000002A3FF414AF002B3FF411AF97F8F13BA8
:103F2000002B7FF40CAF204602F020FD07E7364956
:103F30000522204600F0B4FD01E734490522204661
:103F400000F0AEFD59E72E490522204600F0A8FDFD
:103F5000F5E632222946204600F0A2FDEFE602F007
:103F6000E7FA204602F0CAFC40F20113A7F8F33B3F
:103F7000E5E66D46202231462846FCF72BFB244916
:103F800087F8EC6A3246284603F0F2FB97F87C305B
:103F9000FBB197F87D90DFF88480013B09F10102C5
:103FA00012FA83F643F2320703E009F101094E45A4
:103FB0000FD0A8FB0923DB0803EB4300A9EB80002B
:103FC00007EB80202044294603F079FC0028ECD040
:103FD000B5E601222946204600F062FDAFE672B642
:103FE000BFF34F8F0B490C4BCA6802F4E0621343D6
:103FF000CB60BFF34F8F00BFFDE700BF1C890008F7
:1040000048890008D88700083889000870880008A7
:104010005889000800ED00E00400FA05ABAAAAAA3E
:104020002DE9F04700F5E043A0B004465149D3F82C
:10403000BC0B03F044FC002847D0C3793F2B2ED0A3
:10404000037A312BA3F1300204F5C0466ED0002A6A
:104050005ED196F87C50002D5FD096F87DA0DFF8F9
:104060001C91DFF81C81013D0AF1010313FA85F56B
:1040700043F2320703E00AF1010AAA454DD0A9FB39
:104080000A30C00800EB4000AAEB800007EB80205C
:104090002044414603F013FC0028ECD042E004F534
:1040A000C04696F8AA3983B904F5D2431A46324974
:1040B00040332032684603F05BFB96F87C5045B9EC
:1040C00032226946204600F0EBFC002020B0BDE81B
:1040D000F08796F87D80294F013D08F1010313FA1E
:1040E00085F543F2320603E008F10108A845E7D060
:1040F000A7FB0823DB0803EB4303A8EB830306EBD2
:1041000083236946E01803F0DAFB0028ECD0DCE7F3
:10411000022AC6D196F87C505DB91949052220467D
:1041200000F0BEFC0023A6F8A839BAE786F8A82953
:10413000B7E796F87DA0DFF84490DFF84480013DB2
:104140000AF1010313FA85F543F23207A9FB0A309D
:10415000C00800EB4000AAEB800007EB8020204461
:10416000414603F0ACFB0028DCD10AF1010AAA4564
:10417000ECD1D2E768890008D8870008ABAAAAAAC0
:104180007489000800F5E0432DE9F047D3F8BC5BE3
:1041900028490446284603F092FBC8B30C23C35CAD
:1041A000312B07D904F5C044012384F8AC39002031
:1041B000BDE8F08704F5C049002399F87C5089F8E0
:1041C000AC396DB399F87DA0DFF874801A4F013DCA
:1041D0000AF1010313FA85F543F2320603E00AF10E
:1041E000010A55451CD0A8FB0A23DB0803EB430357
:1041F000AAEB830306EB83233946E01803F05FFB49
:104200000028ECD0012389F8AF390020BDE8F08701
:104210000A49284603F053FB0028C8D00823BEE70C
:1042200005490522204600F03BFC012389F8AF39FF
:10423000EBE700BF84890008A08900089489000882
:10424000ABAAAAAA2DE9F84F044681B900F5E043CC
:104250004B49D3F8BC5B284603F031FB80B104F531
:10426000C044012384F8AA390020BDE8F88F022950
:104270000BD0032920D00129F1D00020BDE8F88F10
:104280004049284603F01BFB80B1BC212046002397
:104290001022FFF78BF904F5C0430022204683F873
:1042A000AA2900F08DFB0020BDE8F88F364928468A
:1042B00003F005FB0028D7D004F5C04A01239AF883
:1042C0007C508AF8AA398AF8A739002D48D09AF884
:1042D0007DB0DFF8C090DFF8B880013D0BEB03063E
:1042E00016FA85F643F2320703E00BF1010B5E4547
:1042F00036D0A9FB0B30C00800EB4000ABEB8000D0
:1043000007EB80202044414603F0D9FA0028ECD086
:104310009AF87D90DFF87C801C4E09F1010313FAB6
:1043200085F543F2320703E009F101094D4521D03B
:10433000A8FB0923DB0803EB4303A9EB830307EB8B
:104340008323E018314603F0BAFA0028ECD0204667
:1043500001231022BC21FFF729F90020BDE8F88FC6
:104360000B496422204600F09BFB9AF87C500DB16B
:10437000013DCDE705493222204600F091FBE6E7FA
:10438000A488000880880008B4880008B489000860
:10439000CC870008ABAAAAAA2DE9F84300F5C047CC
:1043A000044697F8F03B2BB900F5E04393F89623C9
:1043B000002A50D0B7F81C29B7F8EE3B0AB19A4250
:1043C0003DD90133A7F8EE3B20220023BC21204633
:1043D000FFF7ECF897F87C5004F5D5466D36FDB143
:1043E00097F87D90DFF87C80013D09F1010313FA15
:1043F00085F543F2320703E009F101094D450FD07D
:10440000A8FB0923DB0803EB4300A9EB800007EBC3
:1044100080203146204403F052FA0028ECD005E019
:104420004FF4FA723146204600F03AFB2046002253
:1044300040F2DC5100F00CFB0020BDE8F883204680
:1044400000232022BC21FFF7B1F8002387F8F03BBE
:104450000020BDE8F8834FF4FA7100F0F9FA00206B
:10446000BDE8F883ABAAAAAA70B58AB00E46154675
:1044700003F025FA40B304463046FCF751F8215CBE
:1044800000232229CDE90233CDE9043320440AD0A8
:1044900002AA02F8011B10F8011F222903F10103EF
:1044A00001D00F2BF5D128336B4409A900220191CB
:1044B00003F8202C08AB00930B4907AB06AA02A80F
:1044C00003F078F9042802D000200AB070BD6A1EFB
:1044D00006AB033553F8041B02F8011FAA42F9D1B9
:1044E00001200AB070BD00BF888C000838B500F507
:1044F000E04300F5D342D3F8BC5B0E4904460632D4
:104500002846FFF7B1FF08B1012038BD04F5D342BA
:1045100009490A322846FFF7A7FF0028F4D104F51D
:10452000D34206490E322846FFF79EFF003818BFD7
:10453000012038BDC4890008D4890008E889000832
:1045400008B310B50C468AB071B109AA08ABCDE921
:10455000023207AA06ABCDE900320C4905AB04AA2A
:1045600003F028F9062802D000200AB010BD621E10
:1045700004AB053453F8041B02F8011FA242F9D121
:1045800001200AB010BD0020704700BFFC89000860
:1045900000F5E04370B5D3F8BC5B294904462846D2
:1045A00003F08DF9B0B92749284603F088F9D0B156
:1045B0002221284603F02AF904F5D3411E31B0B375
:1045C0000130FFF7BDFF04F5C044012384F8AE3984
:1045D000002070BD04F5D3421B4906322846FFF780
:1045E00043FF012070BD1949284603F068F90028EF
:1045F000DED11749284603F062F90028D8D104F526
:10460000C04696F8B039002BE2D02221284603F0AC
:10461000FDF804F5D3411E3168B10130FFF790FF7A
:104620000122002386F8AE2986F8B039D0E7284663
:10463000FFF786FFC7E72846FFF782FFF0E700BFD6
:104640001C8A00083C8A00082C8A00084C8A000852
:104650005C8A000800285ED02DE9F04100F5E043B7
:1046600000F5C046D3F8BC7B364900248AB0054625
:1046700086F8A749384603F022F9804600284CD036
:10468000214600F10807202202A8FBF7A3FF98F8B3
:104690000830222B21460CD002A83A4601E01F29FF
:1046A00007D000F8013B12F8013F222B01F1010174
:1046B000F5D101F128030C466B4405F5D2410022E7
:1046C00002A8203103F8202CFBF720FF18B10020AE
:1046D0000AB0BDE8F081601C2221384403F096F84E
:1046E000044690B105F5D3410130FFF729FF2C2195
:1046F00004F1130003F08AF838B1134901AB6A469C
:10470000013003F057F8022814D0012086F8A709D9
:104710000AB0BDE8F081002070470C49384603F02C
:10472000CEF80028D3D043461022BC212846FEF7FD
:104730003DFFCCE7DDE9002386F8A42986F8A539FA
:10474000E3E700BF688A0008748A0008C088000890
:1047500000F5E04310B513490446D3F8BC0B03F051
:10476000AEF830B1C379342BA3F130020CD0052A56
:1047700000D010BD04F5C0430022204683F8AA29CA
:10478000BDE8104002F092BA04F5C04393F8F12B53
:10479000002AEED001222046A3F8F02BBDE81040FD
:1047A00002F084BAD49000082DE9F04F00F540548F
:1047B000264687B00546016100F1180316342E36EF
:1047C0004FF0000818464FF480620021FBF702FF0B
:1047D00024F8028FB44200F58063F3D105F540520E
:1047E00005F5C0471346483705F5C046A2F83080A6
:1047F00032333036B846002418464FF48062002128
:10480000FBF7E8FE26F8024FB04547F8044F00F5E5
:104810008063F1D146F6201B05F5D541DFF894E120
:10482000614EDFF894A1DFF894C105EB0B0006316F
:1048300001900491BEE8030005F5C04305F5E0478B
:104840004FF4FA72DC67A3F81C2987F8C44B45F8CB
:104850000B00019841609EF80010017205F5D248E6
:1048600003CE08F1400846F6401E05F5D34245F850
:104870000E00C8F804103188A8F80810B17888F83C
:104880000A104A49C3F886191E32C3F892190292D7
:1048900001F164516FF07F4EC3F88A19C3F896197D
:1048A000C3F88EE9C3F89AE9029946F69E1E05F50B
:1048B000D44205F5D54945F80E4054328C8009F1B3
:1048C00038094FF4803140F25B7E0392CDF81490AA
:1048D000C3F8A419A3F852EA46F6542EDAF80000F9
:1048E000039E3349C3F8A849C3F8AC4983F8B049DB
:1048F00083F8B949C3F8BC49C3F8C049C3F8C449EF
:10490000C3F84E1AC3F8C849BAF8041045F80E00A7
:104910009AF806E086F806E0B18046F686264FF063
:104920000109A851049880F806E08180BCE80300E2
:1049300046F6B8264A46A85105984160BCF80010D2
:1049400001814FF01E01A3F8EA1A4FF48071A3F819
:10495000F41B83F8EC4AA3F8F14BA3F8EE4BC7F82D
:10496000944387F89C93EB6899899868FCF772FDEB
:104970000A20FCF79FFEEB68002299881868FCF774
:1049800069FD6420FCF796FEEB684A461868998832
:10499000FCF760FD6420FCF78DFE87F8C24B87F8BA
:1049A000C34B07B0BDE8F08F888A0008C0A801C8D3
:1049B000C0A801977C8A0008948A00089C8A000895
:1049C000F8B500F5C044254600F54053074632339C
:1049D00030344835002618464FF480620021FBF73A
:1049E000F9FD24F8026FAC4200F58063F3D107F5BE
:1049F000C04787F87C60F8BD012938B512D00D4654
:104A0000A9B900F5C044D4F8C83983B1FCF74CFE0D
:104A1000D4F8C829D4F8C439801A984212D9C4F8F5
:104A2000C85904E000F5C044D4F8C0390BB90120DE
:104A300038BDFCF739FED4F8C029D4F8BC39801A47
:104A4000984201D8002038BD0023C4F8C039EEE7F1
:104A500021B1012A10B50BD00AB110BD704700F585
:104A6000C044C4F8C419FCF71FFEC4F8C80910BD3F
:104A700000F5C044C4F8BC19FCF716FEC4F8C00920
:104A800010BD00BF00F5C04292F8AF1901B97047E0
:104A90004FF0000C016982F8AFC9FFF785BE00BF77
:104AA0002DE9F04100F5C046044696F87C300B2B0A
:104AB0000D4617460FD996F87D20244B0132A3FBF3
:104AC0000213DB0803EB4303A2EB83020B2386F8FC
:104AD0007D2086F87C302846FBF722FDB0F5806FFC
:104AE000804602D30020BDE8F08196F87C2096F83D
:104AF0007D302946154D1344A5FB0325ED0805EB34
:104B00004505A3EB850504EB852000F540504246A2
:104B1000323002F0F9FE41F288339F4228BF1F462F
:104B200005F5405305F5C0551235183304EB430322
:104B300004EB8504A3F80280676096F87C300120BE
:104B4000034486F87C30BDE8F08100BFABAAAAAA76
:104B500000F5405191F83030CBB110B591F83120CB
:104B600003F1FF3C0A4B02F5C05E0132A3FB024396
:104B7000DB0803EB43030EF10C0EA2EB83020023D0
:104B800020F81E3081F8312081F830C010BD704708
:104B9000ABAAAAAA00F5C04310B593F8F53B00F5FF
:104BA000E044EBB994F8A23713B1D4F8A43753B367
:104BB000D4F8A4372BB1D4F8A83713B194F8A2379E
:104BC00033BB94F8A23753B9D4F8A43713B9D4F847
:104BD000A83723B10023C4F8A437C4F8A83710BD00
:104BE000D4F8A437002BFAD0FCF75EFDD4F8A43734
:104BF000C01A3228F3D90023C4F8A437C4F8A83760
:104C000084F8A23710BDFCF74FFDC4F8A40710BD0F
:104C1000FCF74AFDD4F8A427D4F8A837801A23B1AA
:104C2000D4F8A8379842CCD9E5E74FF4FA73F9E7FE
:104C30002DE9F0414B6C177813F00E0F0C4686B03F
:104C4000114641D100F5E045064695F8AC3703F032
:104C5000FF0233B10122204606B0BDE8F041FCF767
:104C600071BEB5F89E379BB2B3F5806F48D295F808
:104C7000A237002B64D1022F49D0032FEAD1B5F817
:104C8000A037002B40F0A880B5F89E379BB2052BCB
:104C9000E0D906F5C04090F8F53B002BDAD095F846
:104CA0009D33002BD6D10026012385F8A26785F815
:104CB000AC370191FCF7F8FC0199C5F8B00785F80D
:104CC0009D63C5F8A467C5E72368002003901A68B0
:104CD00003925A680392039A04901A6804925A68DD
:104CE0000492049A05901A6805925B680593059BE7
:104CF00060640122204606B0BDE8F041FCF722BE08
:104D0000A5F89E2785F8A22785F8AC27A2E795F895
:104D1000A23703F0FF02002B9CD1012385F8A237B4
:104D2000A5F89E27B5F89E379BB2F01801339BB2C9
:104D3000A5F89E3747F29E33C75485F89D2389E72F
:104D4000B5F89E3701919BB25A1C92B20344A5F864
:104D50009E2747F29E329F54FCF7A6FC06F5C043FF
:104D6000019993F8F53BC5F8DC0B002B3BD1D5F846
:104D7000A8375BB9B5F89E2792B2022A06D9B5F8D2
:104D80009E2792B2012A5DD885F8A237B5F89E37E2
:104D90009BB2032B7FF66FAF95F8A033BA2B28D0C8
:104DA000BC2B7FF468AF95F89F33012B21D995F880
:104DB000A233232B1DD0B5F89E379BB2042B18D9F4
:104DC000002385F8A23785F89D3385F8AC37A5F820
:104DD0009E37C5F8A4374EE7B5F89E2792B29342A6
:104DE0007FF661AF50E7FCF75FFC0199C5F8A407B7
:104DF000CCE7B5F89E3701229BB2934285F89D23FC
:104E000003D8002385F8A23735E795F89F830191F1
:104E1000FCF74AFC62680199C5F8A40708F1050887
:104E20006AB34FF4FA5303FB08F3B3FBF2F303EB5B
:104E300083035B000A2B38BF0A23C5F8A837A5F8FF
:104E4000A08718E795F89F830191FCF72DFC626815
:104E50000199C5F8A40708F1050892B14FF4FA5377
:104E600003FB08F3B3FBF2F303EB83035B000A2BB2
:104E700038BF0A23C5F8A837A5F8A08786E70A2314
:104E8000DBE70A23F6E700BF2DE9F04700F5E0472E
:104E9000844697F802320E4615462BB900F5C043FA
:104EA000D3F81839D90702D52B783E2B45D00CF50D
:104EB000405090F8301090F831E00B292BD80A467A
:104EC000544C7244A4FB0283DB0803EB4303A2EBC4
:104ED00083030CEB430808F54058B8F81820B2F5E6
:104EE000806F43D20CEB83299144013295F800A0E6
:104EF00089F818A092B2A8F8182095F80080B8F1A7
:104F00000A0F4FEA83233BD0294630460122BDE8F1
:104F1000F047FCF717BD3F4B0EF10102A3FB023E29
:104F20004FEADE0E0EEB4E0EA2EB8E0E0B2280F839
:104F300031E080F830201146C2E797F8023213B111
:104F4000012387F804320CF5C04CDCF81839DA0775
:104F5000DAD59CF8183943F00403294630468CF81A
:104F60001839BDE8F0470122FCF7ECBC0023A8F893
:104F70001830294630460122BDE8F047FCF7E2BC74
:104F8000022AC1D94A1CD2B280F830207244A4FB54
:104F90000214E40804EB4404A2EB840202F5C052BC
:104FA0000C3218330CEB03084FF000091A4B2CF8A5
:104FB00012900CF5C04432221A60D4F81839DB067E
:104FC00006D51649404602F07AFC08B1C4F8189993
:104FD00097F8B4373BB91249404602F070FC10B163
:104FE000012387F8B43797F80232002B8CD00D4993
:104FF000404602F064FC28B1002387F8023287F8AB
:10500000043281E70849404602F059FC0028F3D1F8
:105010007AE700BFABAAAAAA5C0000205C8800085F
:10502000A88A000868880008B08A0008F8B5134C00
:1050300094F8B437074633B90120FCF73BFB94F8EA
:10504000B437002BF8D007F5405425466420FCF710
:1050500031FB002607F1180316342E3518464FF49D
:1050600080620021FBF7B6FA24F8026FAC4200F52B
:105070008063F3D107F540573E86F8BD607000208D
:105080002DE9F04100F5C04584B0D5F818399907ED
:105090000446C3F340061BD4D5F81839DA0702D406
:1050A00004B0BDE8F0817449FEF7ECFC40B3D5F8DC
:1050B0001839DB06F4D595F8183966F3820385F8BC
:1050C000183995F8183966F3000385F81839E7E7B9
:1050D0006949FEF7D7FC00284DD0D5F88838002B59
:1050E000DED095F8183923F0080385F8183995F8BB
:1050F000183923F0020385F8183904B0BDE8F081AF
:105100005E492046FEF7BEFC0028C9D15C49204616
:10511000FEF7B8FC0028C3D15A492046FEF7B2FC7E
:105120000028BDD158492046FEF7ACFC0028B7D175
:1051300056492046FEF7A6FC06460028B0D104F5E5
:10514000C14104312046FEF79DFC0028B3D15049EF
:105150002046FEF797FC0028A2D04E4CFCF7A4FA9C
:10516000D4F8103940F6B832C31A934272D80123EA
:1051700084F8153994E748492046FEF783FC064633
:1051800000288DD145492046FEF77CFC002845D0FB
:1051900004F5E0434149D3F8BC0B02F090FB002832
:1051A0003FF47EAF0296ADF80C60837A01962C2B0B
:1051B00000F10A0730460CD00DF103024BB102F8A2
:1051C000013F17F8013F2C2B00F1010001D0092805
:1051D000F4D100F110030DEB0300002600F80C6C75
:1051E0003B782C2B7FF45CAF01A802F001FA431E40
:1051F000B3F5806F8046BFF453AF04F5C94408345B
:1052000031464FF480622046FBF7E4F94246791CB0
:10521000204602F079FBC5F8888841E71849204606
:10522000FEF730FC00287FF43BAF16492046FEF71E
:1052300029FC00287FF434AF13492046FEF722FCF6
:1052400000287FF42DAF1149204604B0BDE8F0419D
:10525000FEF718BCB4F80C2904F68C01A4F5C04084
:10526000FEF7F8FCFCF720FA95F81439C4F8100999
:10527000013385F8143913E764880008E88A0008C8
:10528000A488000880880008B4880008D48A000830
:10529000F88A000860600020B88A0008C88A000800
:1052A0002DE9F843404C04F18407A4F5C04504F50A
:1052B000805622E0D4F81839990703D4D4F8183965
:1052C000DA070DD52846FEF721FC94F81539002B96
:1052D00043D1B6F8C03B9BB213B12846FFF7D0FECE
:1052E00094F81439032B56D8FCF7DEF9D4F81029BA
:1052F00042F21073801A98424DD8D4F818399B079F
:1053000004D4D4F8180910F0010045D0D4F81839A5
:105310005807CFD50120FCF7CDF9D4F88494D4F800
:105320008404D5F810804FF4E131FDF7DFF81FFA5F
:1053300089F2034639464046FCF796FA0028B9D16F
:1053400094F8183960F3820384F8183994F81839FE
:1053500043F0100384F81839ACE7FCF7A5F9D4F84A
:10536000102940F6B833801A9842B2D90023B4F815
:105370000C290E490E4884F81539FEF76BFCFCF732
:1053800093F994F81439C4F810090133DBB2032BF4
:1053900084F81439A8D902200023A4F81439C4F8D9
:1053A0001839BDE8F88300BF60600020EC68002079
:1053B0006000002000F5C0430020C3F81809C3F8BE
:1053C0001009C3F88808A3F81509C3F8840483F802
:1053D0001409A3F80C0970472DE9F04F97B0002885
:1053E00000F05281AB4DDFF8F082802200210446AC
:1053F000A948FBF7EFF800270A234FF4DC76CDE944
:105400000136A64ACDF8008002238021A5F80C7948
:1054100005F68C0002F076F905F68C00FBF780F8B3
:10542000C5F8187995F8183982B243F0020305F6E9
:105430008C01A5F5C040A5F80C2985F81839FEF7B0
:1054400009FCFCF731F9C5F81009FFF729FF0746F9
:1054500020B9D5F88838002B40F0E08004F125060B
:1054600004F1450904F5A77A04F5C07305934FF4D8
:10547000DC774FF0010B3A460021204685F816B93B
:10548000FBF7A8F830462646854A46F8852B85491D
:105490001F2202F001FA84493F22484602F0FCF93B
:1054A000824AC4F8852002F1645272606FF07F4234
:1054B000C4F88D204FF4FA72A4F892207C4984F845
:1054C00091B07F2204F1950002F0E6F9794AC4F820
:1054D000162140F25B72A4F81A217749312204F5B3
:1054E0008E7002F0D9F974493122504602F0D4F995
:1054F00072490598312202F0CFF91E22A4F8B22198
:1055000000211F22A01DFBF765F8802200216248C0
:10551000FBF760F800260A225B460297CDF8008070
:105520008021A5F80C695C4801925C4A02F0EAF817
:105530005948FAF7F5FF21463A46A5F80C096048A4
:10554000C5F8186902F0E0F9C5F8847495F81809EF
:105550005C4A4FF4005340EA0B00CDE90086029309
:105560004021334685F8180906A802F0CBF806A8B2
:10557000FAF7D6FF06A982B25348534EDFF85C8192
:10558000FEF768FBFCF790F806F5E0470446FCF7E9
:105590008BF8034642F20F721B1B934230462AD807
:1055A000FEF7B4FAB7F8C03B9BB24146002BEED0F1
:1055B000D7F8BC9B484602F082F903464349484667
:1055C000CBB902F07CF90346414948469BB902F049
:1055D00076F90028DBD006A8FAF7A2FF06A982B266
:1055E0003046FEF737FBFCF75FF804464FF47A705D
:1055F000FCF760F8CBE740F6B830FCF75BF82649DB
:10560000B5F80C293048FEF725FBFCF74DF8C5F836
:10561000100917B0BDE8F04FFFF742BED5F8883843
:105620002C49B3F5DC7F94BFD5F888283246204654
:1056300002F06AF91A4B22689A427FF40FAF04F124
:1056400025063046FAF76CFF02287FF609AF04F111
:1056500045094846FAF764FF02287FF603AF04F5D0
:10566000A77A5046FAF75CFF02287FF6FDAE04F5F4
:10567000C07318460593FAF753FF02287FF6F7AE7A
:10568000384617B0BDE8F08F0327384617B0BDE89D
:10569000F08F00BF60600020EC680020308B0008B5
:1056A000300425207C8A0008888A0008C0A801C828
:1056B000EC870008C0A80197948A00089C8A00081B
:1056C000E4600020048B0008600000206888000867
:1056D000F88A0008E8640020248B00086488000829
:1056E0002DE9F041EEB000287BD004466846FFF774
:1056F00073FE054650B104F5E0440023284684F8C3
:10570000C23B84F8C33B6EB0BDE8F081202204F5B3
:10571000D2400DF12501104402F0BEF8402204F5FC
:10572000D24004F5C0460DF14501104402F0B4F832
:10573000BDF89230A6F81C399DF8913086F8A6394C
:105740005BB9DDF88930C6F89639DDF88D30C6F8DA
:105750009A39DDF88530C6F8923904F5E047DDF86E
:105760001621BDF81A314FF0010804F5D34087F82F
:10577000C28B0DF19501C6F84E2AA6F8523A802246
:105780004D3002F089F89DF8153186F84D3A04F550
:10579000D4409DF8943086F8CC3947A93222543051
:1057A00002F07AF804F5D5400DF5A77132220630E3
:1057B00002F072F804F5D540322260A9383002F0C8
:1057C0006BF8002386F8EC3ABDF8B231A6F8EA3A55
:1057D0009DF8043087F8C38B284623706EB0BDE86F
:1057E000F081032528466EB0BDE8F081002800F066
:1057F00005812DE9F043ADF5037D044614A8FFF7BC
:10580000EBFD002840F0F380202204F5D2417C4BD0
:10581000149311440DF1750004F5C04502F03CF8F5
:10582000402204F5D24111440DF1950002F034F804
:10583000D5F89639CDF8D930D5F89A39CDF8DD308C
:10584000D5F89239CDF8D530B5F81C3995F8A62998
:10585000ADF8E23004F5D341D5F84E3A8DF8E120A9
:105860004D31CDF866318022B5F8523AADF86A3143
:105870000DF1E50002F010F895F84D3A8DF865311C
:1058800004F5D44195F8CC398DF8E4303222543106
:105890005BA802F001F804F5D541322206310DF57E
:1058A000CF7001F0F9FF04F5D5413222383174A8E8
:1058B00001F0F2FFB5F8EA3A95F8EC1AADF80232C9
:1058C000504D23788DF80412802200214E484F4F0E
:1058D0008DF854300026FAF77DFE4FF4DC740A236D
:1058E000CDE901344A4A009701238021A5F80C69CB
:1058F00005F68C0001F006FF05F68C00FAF710FEA5
:105900002246A5F80C0914A905F18400C5F8186908
:1059100001F0FAFFC5F8844495F818193D4ADFF8FC
:1059200004814FF4005341F00101CDE90076029368
:1059300004A8334685F81819402101F0E3FE04A8B5
:10594000FAF7EEFD04A982B2A5F5C040FEF782F990
:10595000FBF7AAFEA5F5C047044605F58056FBF700
:10596000A3FE034642F20F721B1B934238462AD80D
:10597000FEF7CCF8B6F8C03B9BB24146002BEED008
:10598000D6F8BC9B484601F09AFF03462249484698
:10599000CBB901F094FF0346204948469BB901F07A
:1059A0008EFF0028DBD004A8FAF7BAFD04A982B262
:1059B0003846FEF74FF9FBF777FE04464FF47A704E
:1059C000FBF778FECBE740F6B830FBF773FE0E49E5
:1059D000B5F80C291248FEF73DF9FBF765FEC5F84E
:1059E0001009FFF75DFC0DF5037DBDE8F0834FF472
:1059F000DC72002114A8FAF7EDFD05E703207047DB
:105A00003004252060600020EC680020248B000812
:105A1000308B0008048B000868880008F88A0008AA
:105A200060000020648800082DE9F04194B0002354
:105A30002C492D4A00914FF40050CDE9013040210E
:105A400004A801F05FFE04A8FAF76AFD04A982B277
:105A50002648264E264FFEF7FDF8FBF725FE06F5F5
:105A6000E0450446FBF720FE034642F20F721B1B83
:105A7000934230462AD8FEF749F8B5F8C03B9BB2AE
:105A80003946002BEED0D5F8BC8B404601F017FF0D
:105A9000034618494046EBB901F011FF0346164989
:105AA0004046DBB901F00BFF0028DBD004A8FAF771
:105AB00037FD04A982B23046FEF7CCF8FBF7F4FDBF
:105AC00004464FF47A70FBF7F5FDCBE7022014B0E3
:105AD000BDE8F081002014B0BDE8F081012014B0D1
